{
	"contracts/StateMachine.sol": {
		"OrderStateMachine": {
			"abi": [
				{
					"inputs": [],
					"stateMutability": "nonpayable",
					"type": "constructor"
				},
				{
					"anonymous": false,
					"inputs": [],
					"name": "OrderCancelled",
					"type": "event"
				},
				{
					"anonymous": false,
					"inputs": [],
					"name": "OrderCreated",
					"type": "event"
				},
				{
					"anonymous": false,
					"inputs": [],
					"name": "OrderDelivered",
					"type": "event"
				},
				{
					"anonymous": false,
					"inputs": [],
					"name": "OrderShipped",
					"type": "event"
				},
				{
					"inputs": [],
					"name": "cancelOrder",
					"outputs": [],
					"stateMutability": "nonpayable",
					"type": "function"
				},
				{
					"inputs": [],
					"name": "currentState",
					"outputs": [
						{
							"internalType": "enum OrderStateMachine.OrderState",
							"name": "",
							"type": "uint8"
						}
					],
					"stateMutability": "view",
					"type": "function"
				},
				{
					"inputs": [],
					"name": "deliverOrder",
					"outputs": [],
					"stateMutability": "nonpayable",
					"type": "function"
				},
				{
					"inputs": [],
					"name": "getCurrentState",
					"outputs": [
						{
							"internalType": "enum OrderStateMachine.OrderState",
							"name": "",
							"type": "uint8"
						}
					],
					"stateMutability": "view",
					"type": "function"
				},
				{
					"inputs": [],
					"name": "shipOrder",
					"outputs": [],
					"stateMutability": "nonpayable",
					"type": "function"
				}
			],
			"devdoc": {
				"kind": "dev",
				"methods": {},
				"version": 1
			},
			"evm": {
				"assembly": "    /* \"contracts/StateMachine.sol\":60:1731  contract OrderStateMachine {... */\n  mstore(0x40, 0x80)\n    /* \"contracts/StateMachine.sol\":793:930  constructor() {... */\n  callvalue\n  dup1\n  iszero\n  tag_1\n  jumpi\n  0x00\n  dup1\n  revert\ntag_1:\n  pop\n    /* \"contracts/StateMachine.sol\":874:892  OrderState.Created */\n  0x00\n    /* \"contracts/StateMachine.sol\":859:871  currentState */\n  dup1\n  0x00\n    /* \"contracts/StateMachine.sol\":859:892  currentState = OrderState.Created */\n  0x0100\n  exp\n  dup2\n  sload\n  dup2\n  0xff\n  mul\n  not\n  and\n  swap1\n  dup4\n  0x03\n  dup2\n  gt\n  iszero\n  tag_4\n  jumpi\n  tag_5\n  tag_6\n  jump\t// in\ntag_5:\ntag_4:\n  mul\n  or\n  swap1\n  sstore\n  pop\n    /* \"contracts/StateMachine.sol\":908:922  OrderCreated() */\n  0x34005f86e98fae36ecc73c80b3bafd14cd3ad7e4262b76abb4233b35afca5811\n  mload(0x40)\n  mload(0x40)\n  dup1\n  swap2\n  sub\n  swap1\n  log1\n    /* \"contracts/StateMachine.sol\":60:1731  contract OrderStateMachine {... */\n  jump(tag_7)\n    /* \"#utility.yul\":7:187   */\ntag_6:\n    /* \"#utility.yul\":55:132   */\n  0x4e487b7100000000000000000000000000000000000000000000000000000000\n    /* \"#utility.yul\":52:53   */\n  0x00\n    /* \"#utility.yul\":45:133   */\n  mstore\n    /* \"#utility.yul\":152:156   */\n  0x21\n    /* \"#utility.yul\":149:150   */\n  0x04\n    /* \"#utility.yul\":142:157   */\n  mstore\n    /* \"#utility.yul\":176:180   */\n  0x24\n    /* \"#utility.yul\":173:174   */\n  0x00\n    /* \"#utility.yul\":166:181   */\n  revert\n    /* \"contracts/StateMachine.sol\":60:1731  contract OrderStateMachine {... */\ntag_7:\n  dataSize(sub_0)\n  dup1\n  dataOffset(sub_0)\n  0x00\n  codecopy\n  0x00\n  return\nstop\n\nsub_0: assembly {\n        /* \"contracts/StateMachine.sol\":60:1731  contract OrderStateMachine {... */\n      mstore(0x40, 0x80)\n      callvalue\n      dup1\n      iszero\n      tag_1\n      jumpi\n      0x00\n      dup1\n      revert\n    tag_1:\n      pop\n      jumpi(tag_2, lt(calldatasize, 0x04))\n      shr(0xe0, calldataload(0x00))\n      dup1\n      0x0651e0c3\n      eq\n      tag_3\n      jumpi\n      dup1\n      0x0af316dc\n      eq\n      tag_4\n      jumpi\n      dup1\n      0x0c3f6acf\n      eq\n      tag_5\n      jumpi\n      dup1\n      0x378aa701\n      eq\n      tag_6\n      jumpi\n      dup1\n      0x6a816548\n      eq\n      tag_7\n      jumpi\n    tag_2:\n      0x00\n      dup1\n      revert\n        /* \"contracts/StateMachine.sol\":992:1136  function shipOrder() external onlyInState(OrderState.Created) {... */\n    tag_3:\n      tag_8\n      tag_9\n      jump\t// in\n    tag_8:\n      stop\n        /* \"contracts/StateMachine.sol\":1200:1351  function deliverOrder() external onlyInState(OrderState.Shipped) {... */\n    tag_4:\n      tag_10\n      tag_11\n      jump\t// in\n    tag_10:\n      stop\n        /* \"contracts/StateMachine.sol\":298:328  OrderState public currentState */\n    tag_5:\n      tag_12\n      tag_13\n      jump\t// in\n    tag_12:\n      mload(0x40)\n      tag_14\n      swap2\n      swap1\n      tag_15\n      jump\t// in\n    tag_14:\n      mload(0x40)\n      dup1\n      swap2\n      sub\n      swap1\n      return\n        /* \"contracts/StateMachine.sol\":1629:1728  function getCurrentState() external view returns(OrderState) {... */\n    tag_6:\n      tag_16\n      tag_17\n      jump\t// in\n    tag_16:\n      mload(0x40)\n      tag_18\n      swap2\n      swap1\n      tag_15\n      jump\t// in\n    tag_18:\n      mload(0x40)\n      dup1\n      swap2\n      sub\n      swap1\n      return\n        /* \"contracts/StateMachine.sol\":1415:1565  function cancelOrder() external onlyInState(OrderState.Created) {... */\n    tag_7:\n      tag_19\n      tag_20\n      jump\t// in\n    tag_19:\n      stop\n        /* \"contracts/StateMachine.sol\":992:1136  function shipOrder() external onlyInState(OrderState.Created) {... */\n    tag_9:\n        /* \"contracts/StateMachine.sol\":1034:1052  OrderState.Created */\n      0x00\n        /* \"contracts/StateMachine.sol\":631:644  expectedState */\n      dup1\n        /* \"contracts/StateMachine.sol\":615:644  currentState == expectedState */\n      0x03\n      dup2\n      gt\n      iszero\n      tag_22\n      jumpi\n      tag_23\n      tag_24\n      jump\t// in\n    tag_23:\n    tag_22:\n        /* \"contracts/StateMachine.sol\":615:627  currentState */\n      0x00\n      dup1\n      sload\n      swap1\n      0x0100\n      exp\n      swap1\n      div\n      0xff\n      and\n        /* \"contracts/StateMachine.sol\":615:644  currentState == expectedState */\n      0x03\n      dup2\n      gt\n      iszero\n      tag_25\n      jumpi\n      tag_26\n      tag_24\n      jump\t// in\n    tag_26:\n    tag_25:\n      eq\n        /* \"contracts/StateMachine.sol\":607:696  require(currentState == expectedState, \"Current state does not match the provided state\") */\n      tag_27\n      jumpi\n      mload(0x40)\n      0x08c379a000000000000000000000000000000000000000000000000000000000\n      dup2\n      mstore\n      0x04\n      add\n      tag_28\n      swap1\n      tag_29\n      jump\t// in\n    tag_28:\n      mload(0x40)\n      dup1\n      swap2\n      sub\n      swap1\n      revert\n    tag_27:\n        /* \"contracts/StateMachine.sol\":1080:1098  OrderState.Shipped */\n      0x01\n        /* \"contracts/StateMachine.sol\":1065:1077  currentState */\n      0x00\n      dup1\n        /* \"contracts/StateMachine.sol\":1065:1098  currentState = OrderState.Shipped */\n      0x0100\n      exp\n      dup2\n      sload\n      dup2\n      0xff\n      mul\n      not\n      and\n      swap1\n      dup4\n      0x03\n      dup2\n      gt\n      iszero\n      tag_31\n      jumpi\n      tag_32\n      tag_24\n      jump\t// in\n    tag_32:\n    tag_31:\n      mul\n      or\n      swap1\n      sstore\n      pop\n        /* \"contracts/StateMachine.sol\":1114:1128  OrderShipped() */\n      0xd7741a0162a0d06e98893f75cd46ed8f90d5aa2c2271266f70c26a71245d3c6d\n      mload(0x40)\n      mload(0x40)\n      dup1\n      swap2\n      sub\n      swap1\n      log1\n        /* \"contracts/StateMachine.sol\":992:1136  function shipOrder() external onlyInState(OrderState.Created) {... */\n      pop\n      jump\t// out\n        /* \"contracts/StateMachine.sol\":1200:1351  function deliverOrder() external onlyInState(OrderState.Shipped) {... */\n    tag_11:\n        /* \"contracts/StateMachine.sol\":1245:1263  OrderState.Shipped */\n      0x01\n        /* \"contracts/StateMachine.sol\":631:644  expectedState */\n      dup1\n        /* \"contracts/StateMachine.sol\":615:644  currentState == expectedState */\n      0x03\n      dup2\n      gt\n      iszero\n      tag_34\n      jumpi\n      tag_35\n      tag_24\n      jump\t// in\n    tag_35:\n    tag_34:\n        /* \"contracts/StateMachine.sol\":615:627  currentState */\n      0x00\n      dup1\n      sload\n      swap1\n      0x0100\n      exp\n      swap1\n      div\n      0xff\n      and\n        /* \"contracts/StateMachine.sol\":615:644  currentState == expectedState */\n      0x03\n      dup2\n      gt\n      iszero\n      tag_36\n      jumpi\n      tag_37\n      tag_24\n      jump\t// in\n    tag_37:\n    tag_36:\n      eq\n        /* \"contracts/StateMachine.sol\":607:696  require(currentState == expectedState, \"Current state does not match the provided state\") */\n      tag_38\n      jumpi\n      mload(0x40)\n      0x08c379a000000000000000000000000000000000000000000000000000000000\n      dup2\n      mstore\n      0x04\n      add\n      tag_39\n      swap1\n      tag_29\n      jump\t// in\n    tag_39:\n      mload(0x40)\n      dup1\n      swap2\n      sub\n      swap1\n      revert\n    tag_38:\n        /* \"contracts/StateMachine.sol\":1291:1311  OrderState.Delivered */\n      0x02\n        /* \"contracts/StateMachine.sol\":1276:1288  currentState */\n      0x00\n      dup1\n        /* \"contracts/StateMachine.sol\":1276:1311  currentState = OrderState.Delivered */\n      0x0100\n      exp\n      dup2\n      sload\n      dup2\n      0xff\n      mul\n      not\n      and\n      swap1\n      dup4\n      0x03\n      dup2\n      gt\n      iszero\n      tag_41\n      jumpi\n      tag_42\n      tag_24\n      jump\t// in\n    tag_42:\n    tag_41:\n      mul\n      or\n      swap1\n      sstore\n      pop\n        /* \"contracts/StateMachine.sol\":1327:1343  OrderDelivered() */\n      0x4525af7917994795b47eb2c870945f7b3544b98c90c2aaa29ea0b603eafbd613\n      mload(0x40)\n      mload(0x40)\n      dup1\n      swap2\n      sub\n      swap1\n      log1\n        /* \"contracts/StateMachine.sol\":1200:1351  function deliverOrder() external onlyInState(OrderState.Shipped) {... */\n      pop\n      jump\t// out\n        /* \"contracts/StateMachine.sol\":298:328  OrderState public currentState */\n    tag_13:\n      0x00\n      dup1\n      sload\n      swap1\n      0x0100\n      exp\n      swap1\n      div\n      0xff\n      and\n      dup2\n      jump\t// out\n        /* \"contracts/StateMachine.sol\":1629:1728  function getCurrentState() external view returns(OrderState) {... */\n    tag_17:\n        /* \"contracts/StateMachine.sol\":1678:1688  OrderState */\n      0x00\n        /* \"contracts/StateMachine.sol\":1708:1720  currentState */\n      dup1\n      0x00\n      swap1\n      sload\n      swap1\n      0x0100\n      exp\n      swap1\n      div\n      0xff\n      and\n        /* \"contracts/StateMachine.sol\":1701:1720  return currentState */\n      swap1\n      pop\n        /* \"contracts/StateMachine.sol\":1629:1728  function getCurrentState() external view returns(OrderState) {... */\n      swap1\n      jump\t// out\n        /* \"contracts/StateMachine.sol\":1415:1565  function cancelOrder() external onlyInState(OrderState.Created) {... */\n    tag_20:\n        /* \"contracts/StateMachine.sol\":1459:1477  OrderState.Created */\n      0x00\n        /* \"contracts/StateMachine.sol\":631:644  expectedState */\n      dup1\n        /* \"contracts/StateMachine.sol\":615:644  currentState == expectedState */\n      0x03\n      dup2\n      gt\n      iszero\n      tag_45\n      jumpi\n      tag_46\n      tag_24\n      jump\t// in\n    tag_46:\n    tag_45:\n        /* \"contracts/StateMachine.sol\":615:627  currentState */\n      0x00\n      dup1\n      sload\n      swap1\n      0x0100\n      exp\n      swap1\n      div\n      0xff\n      and\n        /* \"contracts/StateMachine.sol\":615:644  currentState == expectedState */\n      0x03\n      dup2\n      gt\n      iszero\n      tag_47\n      jumpi\n      tag_48\n      tag_24\n      jump\t// in\n    tag_48:\n    tag_47:\n      eq\n        /* \"contracts/StateMachine.sol\":607:696  require(currentState == expectedState, \"Current state does not match the provided state\") */\n      tag_49\n      jumpi\n      mload(0x40)\n      0x08c379a000000000000000000000000000000000000000000000000000000000\n      dup2\n      mstore\n      0x04\n      add\n      tag_50\n      swap1\n      tag_29\n      jump\t// in\n    tag_50:\n      mload(0x40)\n      dup1\n      swap2\n      sub\n      swap1\n      revert\n    tag_49:\n        /* \"contracts/StateMachine.sol\":1505:1525  OrderState.Cancelled */\n      0x03\n        /* \"contracts/StateMachine.sol\":1490:1502  currentState */\n      0x00\n      dup1\n        /* \"contracts/StateMachine.sol\":1490:1525  currentState = OrderState.Cancelled */\n      0x0100\n      exp\n      dup2\n      sload\n      dup2\n      0xff\n      mul\n      not\n      and\n      swap1\n      dup4\n      0x03\n      dup2\n      gt\n      iszero\n      tag_52\n      jumpi\n      tag_53\n      tag_24\n      jump\t// in\n    tag_53:\n    tag_52:\n      mul\n      or\n      swap1\n      sstore\n      pop\n        /* \"contracts/StateMachine.sol\":1541:1557  OrderCancelled() */\n      0xff55f944e5e81a0b0359ad20d72ceae167ab0a2b960e2c2cd67ebf5b43d15f29\n      mload(0x40)\n      mload(0x40)\n      dup1\n      swap2\n      sub\n      swap1\n      log1\n        /* \"contracts/StateMachine.sol\":1415:1565  function cancelOrder() external onlyInState(OrderState.Created) {... */\n      pop\n      jump\t// out\n        /* \"#utility.yul\":7:187   */\n    tag_24:\n        /* \"#utility.yul\":55:132   */\n      0x4e487b7100000000000000000000000000000000000000000000000000000000\n        /* \"#utility.yul\":52:53   */\n      0x00\n        /* \"#utility.yul\":45:133   */\n      mstore\n        /* \"#utility.yul\":152:156   */\n      0x21\n        /* \"#utility.yul\":149:150   */\n      0x04\n        /* \"#utility.yul\":142:157   */\n      mstore\n        /* \"#utility.yul\":176:180   */\n      0x24\n        /* \"#utility.yul\":173:174   */\n      0x00\n        /* \"#utility.yul\":166:181   */\n      revert\n        /* \"#utility.yul\":193:310   */\n    tag_54:\n        /* \"#utility.yul\":278:279   */\n      0x04\n        /* \"#utility.yul\":271:276   */\n      dup2\n        /* \"#utility.yul\":268:280   */\n      lt\n        /* \"#utility.yul\":258:304   */\n      tag_64\n      jumpi\n        /* \"#utility.yul\":284:302   */\n      tag_65\n      tag_24\n      jump\t// in\n    tag_65:\n        /* \"#utility.yul\":258:304   */\n    tag_64:\n        /* \"#utility.yul\":193:310   */\n      pop\n      jump\t// out\n        /* \"#utility.yul\":316:451   */\n    tag_55:\n        /* \"#utility.yul\":365:372   */\n      0x00\n        /* \"#utility.yul\":394:399   */\n      dup2\n        /* \"#utility.yul\":383:399   */\n      swap1\n      pop\n        /* \"#utility.yul\":400:445   */\n      tag_67\n        /* \"#utility.yul\":439:444   */\n      dup3\n        /* \"#utility.yul\":400:445   */\n      tag_54\n      jump\t// in\n    tag_67:\n        /* \"#utility.yul\":316:451   */\n      swap2\n      swap1\n      pop\n      jump\t// out\n        /* \"#utility.yul\":457:592   */\n    tag_56:\n        /* \"#utility.yul\":517:526   */\n      0x00\n        /* \"#utility.yul\":550:586   */\n      tag_69\n        /* \"#utility.yul\":580:585   */\n      dup3\n        /* \"#utility.yul\":550:586   */\n      tag_55\n      jump\t// in\n    tag_69:\n        /* \"#utility.yul\":537:586   */\n      swap1\n      pop\n        /* \"#utility.yul\":457:592   */\n      swap2\n      swap1\n      pop\n      jump\t// out\n        /* \"#utility.yul\":598:749   */\n    tag_57:\n        /* \"#utility.yul\":695:742   */\n      tag_71\n        /* \"#utility.yul\":736:741   */\n      dup2\n        /* \"#utility.yul\":695:742   */\n      tag_56\n      jump\t// in\n    tag_71:\n        /* \"#utility.yul\":690:693   */\n      dup3\n        /* \"#utility.yul\":683:743   */\n      mstore\n        /* \"#utility.yul\":598:749   */\n      pop\n      pop\n      jump\t// out\n        /* \"#utility.yul\":755:997   */\n    tag_15:\n        /* \"#utility.yul\":858:862   */\n      0x00\n        /* \"#utility.yul\":896:898   */\n      0x20\n        /* \"#utility.yul\":885:894   */\n      dup3\n        /* \"#utility.yul\":881:899   */\n      add\n        /* \"#utility.yul\":873:899   */\n      swap1\n      pop\n        /* \"#utility.yul\":909:990   */\n      tag_73\n        /* \"#utility.yul\":987:988   */\n      0x00\n        /* \"#utility.yul\":976:985   */\n      dup4\n        /* \"#utility.yul\":972:989   */\n      add\n        /* \"#utility.yul\":963:969   */\n      dup5\n        /* \"#utility.yul\":909:990   */\n      tag_57\n      jump\t// in\n    tag_73:\n        /* \"#utility.yul\":755:997   */\n      swap3\n      swap2\n      pop\n      pop\n      jump\t// out\n        /* \"#utility.yul\":1003:1172   */\n    tag_58:\n        /* \"#utility.yul\":1087:1098   */\n      0x00\n        /* \"#utility.yul\":1121:1127   */\n      dup3\n        /* \"#utility.yul\":1116:1119   */\n      dup3\n        /* \"#utility.yul\":1109:1128   */\n      mstore\n        /* \"#utility.yul\":1161:1165   */\n      0x20\n        /* \"#utility.yul\":1156:1159   */\n      dup3\n        /* \"#utility.yul\":1152:1166   */\n      add\n        /* \"#utility.yul\":1137:1166   */\n      swap1\n      pop\n        /* \"#utility.yul\":1003:1172   */\n      swap3\n      swap2\n      pop\n      pop\n      jump\t// out\n        /* \"#utility.yul\":1178:1412   */\n    tag_59:\n        /* \"#utility.yul\":1318:1352   */\n      0x43757272656e7420737461746520646f6573206e6f74206d6174636820746865\n        /* \"#utility.yul\":1314:1315   */\n      0x00\n        /* \"#utility.yul\":1306:1312   */\n      dup3\n        /* \"#utility.yul\":1302:1316   */\n      add\n        /* \"#utility.yul\":1295:1353   */\n      mstore\n        /* \"#utility.yul\":1387:1404   */\n      0x2070726f76696465642073746174650000000000000000000000000000000000\n        /* \"#utility.yul\":1382:1384   */\n      0x20\n        /* \"#utility.yul\":1374:1380   */\n      dup3\n        /* \"#utility.yul\":1370:1385   */\n      add\n        /* \"#utility.yul\":1363:1405   */\n      mstore\n        /* \"#utility.yul\":1178:1412   */\n      pop\n      jump\t// out\n        /* \"#utility.yul\":1418:1784   */\n    tag_60:\n        /* \"#utility.yul\":1560:1563   */\n      0x00\n        /* \"#utility.yul\":1581:1648   */\n      tag_77\n        /* \"#utility.yul\":1645:1647   */\n      0x2f\n        /* \"#utility.yul\":1640:1643   */\n      dup4\n        /* \"#utility.yul\":1581:1648   */\n      tag_58\n      jump\t// in\n    tag_77:\n        /* \"#utility.yul\":1574:1648   */\n      swap2\n      pop\n        /* \"#utility.yul\":1657:1750   */\n      tag_78\n        /* \"#utility.yul\":1746:1749   */\n      dup3\n        /* \"#utility.yul\":1657:1750   */\n      tag_59\n      jump\t// in\n    tag_78:\n        /* \"#utility.yul\":1775:1777   */\n      0x40\n        /* \"#utility.yul\":1770:1773   */\n      dup3\n        /* \"#utility.yul\":1766:1778   */\n      add\n        /* \"#utility.yul\":1759:1778   */\n      swap1\n      pop\n        /* \"#utility.yul\":1418:1784   */\n      swap2\n      swap1\n      pop\n      jump\t// out\n        /* \"#utility.yul\":1790:2209   */\n    tag_29:\n        /* \"#utility.yul\":1956:1960   */\n      0x00\n        /* \"#utility.yul\":1994:1996   */\n      0x20\n        /* \"#utility.yul\":1983:1992   */\n      dup3\n        /* \"#utility.yul\":1979:1997   */\n      add\n        /* \"#utility.yul\":1971:1997   */\n      swap1\n      pop\n        /* \"#utility.yul\":2043:2052   */\n      dup2\n        /* \"#utility.yul\":2037:2041   */\n      dup2\n        /* \"#utility.yul\":2033:2053   */\n      sub\n        /* \"#utility.yul\":2029:2030   */\n      0x00\n        /* \"#utility.yul\":2018:2027   */\n      dup4\n        /* \"#utility.yul\":2014:2031   */\n      add\n        /* \"#utility.yul\":2007:2054   */\n      mstore\n        /* \"#utility.yul\":2071:2202   */\n      tag_80\n        /* \"#utility.yul\":2197:2201   */\n      dup2\n        /* \"#utility.yul\":2071:2202   */\n      tag_60\n      jump\t// in\n    tag_80:\n        /* \"#utility.yul\":2063:2202   */\n      swap1\n      pop\n        /* \"#utility.yul\":1790:2209   */\n      swap2\n      swap1\n      pop\n      jump\t// out\n\n    auxdata: 0xa26469706673582212200d0a06e7a602ea8a3748547fa5ee9e0319f41bfcad7e6104447c2ac5a76c21da64736f6c63430008140033\n}\n",
				"bytecode": {
					"linkReferences": {},
					"object": "608060405234801561000f575f80fd5b505f805f6101000a81548160ff0219169083600381111561003357610032610069565b5b02179055507f34005f86e98fae36ecc73c80b3bafd14cd3ad7e4262b76abb4233b35afca581160405160405180910390a1610096565b7f4e487b71000000000000000000000000000000000000000000000000000000005f52602160045260245ffd5b610499806100a35f395ff3fe608060405234801561000f575f80fd5b5060043610610055575f3560e01c80630651e0c3146100595780630af316dc146100635780630c3f6acf1461006d578063378aa7011461008b5780636a816548146100a9575b5f80fd5b6100616100b3565b005b61006b61017e565b005b61007561024a565b60405161008291906103ac565b60405180910390f35b61009361025a565b6040516100a091906103ac565b60405180910390f35b6100b161026e565b005b5f8060038111156100c7576100c6610339565b5b5f8054906101000a900460ff1660038111156100e6576100e5610339565b5b14610126576040517f08c379a000000000000000000000000000000000000000000000000000000000815260040161011d90610445565b60405180910390fd5b60015f806101000a81548160ff0219169083600381111561014a57610149610339565b5b02179055507fd7741a0162a0d06e98893f75cd46ed8f90d5aa2c2271266f70c26a71245d3c6d60405160405180910390a150565b600180600381111561019357610192610339565b5b5f8054906101000a900460ff1660038111156101b2576101b1610339565b5b146101f2576040517f08c379a00000000000000000000000000000000000000000000000000000000081526004016101e990610445565b60405180910390fd5b60025f806101000a81548160ff0219169083600381111561021657610215610339565b5b02179055507f4525af7917994795b47eb2c870945f7b3544b98c90c2aaa29ea0b603eafbd61360405160405180910390a150565b5f8054906101000a900460ff1681565b5f805f9054906101000a900460ff16905090565b5f80600381111561028257610281610339565b5b5f8054906101000a900460ff1660038111156102a1576102a0610339565b5b146102e1576040517f08c379a00000000000000000000000000000000000000000000000000000000081526004016102d890610445565b60405180910390fd5b60035f806101000a81548160ff0219169083600381111561030557610304610339565b5b02179055507fff55f944e5e81a0b0359ad20d72ceae167ab0a2b960e2c2cd67ebf5b43d15f2960405160405180910390a150565b7f4e487b71000000000000000000000000000000000000000000000000000000005f52602160045260245ffd5b6004811061037757610376610339565b5b50565b5f81905061038782610366565b919050565b5f6103968261037a565b9050919050565b6103a68161038c565b82525050565b5f6020820190506103bf5f83018461039d565b92915050565b5f82825260208201905092915050565b7f43757272656e7420737461746520646f6573206e6f74206d61746368207468655f8201527f2070726f76696465642073746174650000000000000000000000000000000000602082015250565b5f61042f602f836103c5565b915061043a826103d5565b604082019050919050565b5f6020820190508181035f83015261045c81610423565b905091905056fea26469706673582212200d0a06e7a602ea8a3748547fa5ee9e0319f41bfcad7e6104447c2ac5a76c21da64736f6c63430008140033",
					"opcodes": "PUSH1 0x80 PUSH1 0x40 MSTORE CALLVALUE DUP1 ISZERO PUSH2 0xF JUMPI PUSH0 DUP1 REVERT JUMPDEST POP PUSH0 DUP1 PUSH0 PUSH2 0x100 EXP DUP2 SLOAD DUP2 PUSH1 0xFF MUL NOT AND SWAP1 DUP4 PUSH1 0x3 DUP2 GT ISZERO PUSH2 0x33 JUMPI PUSH2 0x32 PUSH2 0x69 JUMP JUMPDEST JUMPDEST MUL OR SWAP1 SSTORE POP PUSH32 0x34005F86E98FAE36ECC73C80B3BAFD14CD3AD7E4262B76ABB4233B35AFCA5811 PUSH1 0x40 MLOAD PUSH1 0x40 MLOAD DUP1 SWAP2 SUB SWAP1 LOG1 PUSH2 0x96 JUMP JUMPDEST PUSH32 0x4E487B7100000000000000000000000000000000000000000000000000000000 PUSH0 MSTORE PUSH1 0x21 PUSH1 0x4 MSTORE PUSH1 0x24 PUSH0 REVERT JUMPDEST PUSH2 0x499 DUP1 PUSH2 0xA3 PUSH0 CODECOPY PUSH0 RETURN INVALID PUSH1 0x80 PUSH1 0x40 MSTORE CALLVALUE DUP1 ISZERO PUSH2 0xF JUMPI PUSH0 DUP1 REVERT JUMPDEST POP PUSH1 0x4 CALLDATASIZE LT PUSH2 0x55 JUMPI PUSH0 CALLDATALOAD PUSH1 0xE0 SHR DUP1 PUSH4 0x651E0C3 EQ PUSH2 0x59 JUMPI DUP1 PUSH4 0xAF316DC EQ PUSH2 0x63 JUMPI DUP1 PUSH4 0xC3F6ACF EQ PUSH2 0x6D JUMPI DUP1 PUSH4 0x378AA701 EQ PUSH2 0x8B JUMPI DUP1 PUSH4 0x6A816548 EQ PUSH2 0xA9 JUMPI JUMPDEST PUSH0 DUP1 REVERT JUMPDEST PUSH2 0x61 PUSH2 0xB3 JUMP JUMPDEST STOP JUMPDEST PUSH2 0x6B PUSH2 0x17E JUMP JUMPDEST STOP JUMPDEST PUSH2 0x75 PUSH2 0x24A JUMP JUMPDEST PUSH1 0x40 MLOAD PUSH2 0x82 SWAP2 SWAP1 PUSH2 0x3AC JUMP JUMPDEST PUSH1 0x40 MLOAD DUP1 SWAP2 SUB SWAP1 RETURN JUMPDEST PUSH2 0x93 PUSH2 0x25A JUMP JUMPDEST PUSH1 0x40 MLOAD PUSH2 0xA0 SWAP2 SWAP1 PUSH2 0x3AC JUMP JUMPDEST PUSH1 0x40 MLOAD DUP1 SWAP2 SUB SWAP1 RETURN JUMPDEST PUSH2 0xB1 PUSH2 0x26E JUMP JUMPDEST STOP JUMPDEST PUSH0 DUP1 PUSH1 0x3 DUP2 GT ISZERO PUSH2 0xC7 JUMPI PUSH2 0xC6 PUSH2 0x339 JUMP JUMPDEST JUMPDEST PUSH0 DUP1 SLOAD SWAP1 PUSH2 0x100 EXP SWAP1 DIV PUSH1 0xFF AND PUSH1 0x3 DUP2 GT ISZERO PUSH2 0xE6 JUMPI PUSH2 0xE5 PUSH2 0x339 JUMP JUMPDEST JUMPDEST EQ PUSH2 0x126 JUMPI PUSH1 0x40 MLOAD PUSH32 0x8C379A000000000000000000000000000000000000000000000000000000000 DUP2 MSTORE PUSH1 0x4 ADD PUSH2 0x11D SWAP1 PUSH2 0x445 JUMP JUMPDEST PUSH1 0x40 MLOAD DUP1 SWAP2 SUB SWAP1 REVERT JUMPDEST PUSH1 0x1 PUSH0 DUP1 PUSH2 0x100 EXP DUP2 SLOAD DUP2 PUSH1 0xFF MUL NOT AND SWAP1 DUP4 PUSH1 0x3 DUP2 GT ISZERO PUSH2 0x14A JUMPI PUSH2 0x149 PUSH2 0x339 JUMP JUMPDEST JUMPDEST MUL OR SWAP1 SSTORE POP PUSH32 0xD7741A0162A0D06E98893F75CD46ED8F90D5AA2C2271266F70C26A71245D3C6D PUSH1 0x40 MLOAD PUSH1 0x40 MLOAD DUP1 SWAP2 SUB SWAP1 LOG1 POP JUMP JUMPDEST PUSH1 0x1 DUP1 PUSH1 0x3 DUP2 GT ISZERO PUSH2 0x193 JUMPI PUSH2 0x192 PUSH2 0x339 JUMP JUMPDEST JUMPDEST PUSH0 DUP1 SLOAD SWAP1 PUSH2 0x100 EXP SWAP1 DIV PUSH1 0xFF AND PUSH1 0x3 DUP2 GT ISZERO PUSH2 0x1B2 JUMPI PUSH2 0x1B1 PUSH2 0x339 JUMP JUMPDEST JUMPDEST EQ PUSH2 0x1F2 JUMPI PUSH1 0x40 MLOAD PUSH32 0x8C379A000000000000000000000000000000000000000000000000000000000 DUP2 MSTORE PUSH1 0x4 ADD PUSH2 0x1E9 SWAP1 PUSH2 0x445 JUMP JUMPDEST PUSH1 0x40 MLOAD DUP1 SWAP2 SUB SWAP1 REVERT JUMPDEST PUSH1 0x2 PUSH0 DUP1 PUSH2 0x100 EXP DUP2 SLOAD DUP2 PUSH1 0xFF MUL NOT AND SWAP1 DUP4 PUSH1 0x3 DUP2 GT ISZERO PUSH2 0x216 JUMPI PUSH2 0x215 PUSH2 0x339 JUMP JUMPDEST JUMPDEST MUL OR SWAP1 SSTORE POP PUSH32 0x4525AF7917994795B47EB2C870945F7B3544B98C90C2AAA29EA0B603EAFBD613 PUSH1 0x40 MLOAD PUSH1 0x40 MLOAD DUP1 SWAP2 SUB SWAP1 LOG1 POP JUMP JUMPDEST PUSH0 DUP1 SLOAD SWAP1 PUSH2 0x100 EXP SWAP1 DIV PUSH1 0xFF AND DUP2 JUMP JUMPDEST PUSH0 DUP1 PUSH0 SWAP1 SLOAD SWAP1 PUSH2 0x100 EXP SWAP1 DIV PUSH1 0xFF AND SWAP1 POP SWAP1 JUMP JUMPDEST PUSH0 DUP1 PUSH1 0x3 DUP2 GT ISZERO PUSH2 0x282 JUMPI PUSH2 0x281 PUSH2 0x339 JUMP JUMPDEST JUMPDEST PUSH0 DUP1 SLOAD SWAP1 PUSH2 0x100 EXP SWAP1 DIV PUSH1 0xFF AND PUSH1 0x3 DUP2 GT ISZERO PUSH2 0x2A1 JUMPI PUSH2 0x2A0 PUSH2 0x339 JUMP JUMPDEST JUMPDEST EQ PUSH2 0x2E1 JUMPI PUSH1 0x40 MLOAD PUSH32 0x8C379A000000000000000000000000000000000000000000000000000000000 DUP2 MSTORE PUSH1 0x4 ADD PUSH2 0x2D8 SWAP1 PUSH2 0x445 JUMP JUMPDEST PUSH1 0x40 MLOAD DUP1 SWAP2 SUB SWAP1 REVERT JUMPDEST PUSH1 0x3 PUSH0 DUP1 PUSH2 0x100 EXP DUP2 SLOAD DUP2 PUSH1 0xFF MUL NOT AND SWAP1 DUP4 PUSH1 0x3 DUP2 GT ISZERO PUSH2 0x305 JUMPI PUSH2 0x304 PUSH2 0x339 JUMP JUMPDEST JUMPDEST MUL OR SWAP1 SSTORE POP PUSH32 0xFF55F944E5E81A0B0359AD20D72CEAE167AB0A2B960E2C2CD67EBF5B43D15F29 PUSH1 0x40 MLOAD PUSH1 0x40 MLOAD DUP1 SWAP2 SUB SWAP1 LOG1 POP JUMP JUMPDEST PUSH32 0x4E487B7100000000000000000000000000000000000000000000000000000000 PUSH0 MSTORE PUSH1 0x21 PUSH1 0x4 MSTORE PUSH1 0x24 PUSH0 REVERT JUMPDEST PUSH1 0x4 DUP2 LT PUSH2 0x377 JUMPI PUSH2 0x376 PUSH2 0x339 JUMP JUMPDEST JUMPDEST POP JUMP JUMPDEST PUSH0 DUP2 SWAP1 POP PUSH2 0x387 DUP3 PUSH2 0x366 JUMP JUMPDEST SWAP2 SWAP1 POP JUMP JUMPDEST PUSH0 PUSH2 0x396 DUP3 PUSH2 0x37A JUMP JUMPDEST SWAP1 POP SWAP2 SWAP1 POP JUMP JUMPDEST PUSH2 0x3A6 DUP2 PUSH2 0x38C JUMP JUMPDEST DUP3 MSTORE POP POP JUMP JUMPDEST PUSH0 PUSH1 0x20 DUP3 ADD SWAP1 POP PUSH2 0x3BF PUSH0 DUP4 ADD DUP5 PUSH2 0x39D JUMP JUMPDEST SWAP3 SWAP2 POP POP JUMP JUMPDEST PUSH0 DUP3 DUP3 MSTORE PUSH1 0x20 DUP3 ADD SWAP1 POP SWAP3 SWAP2 POP POP JUMP JUMPDEST PUSH32 0x43757272656E7420737461746520646F6573206E6F74206D6174636820746865 PUSH0 DUP3 ADD MSTORE PUSH32 0x2070726F76696465642073746174650000000000000000000000000000000000 PUSH1 0x20 DUP3 ADD MSTORE POP JUMP JUMPDEST PUSH0 PUSH2 0x42F PUSH1 0x2F DUP4 PUSH2 0x3C5 JUMP JUMPDEST SWAP2 POP PUSH2 0x43A DUP3 PUSH2 0x3D5 JUMP JUMPDEST PUSH1 0x40 DUP3 ADD SWAP1 POP SWAP2 SWAP1 POP JUMP JUMPDEST PUSH0 PUSH1 0x20 DUP3 ADD SWAP1 POP DUP2 DUP2 SUB PUSH0 DUP4 ADD MSTORE PUSH2 0x45C DUP2 PUSH2 0x423 JUMP JUMPDEST SWAP1 POP SWAP2 SWAP1 POP JUMP INVALID LOG2 PUSH5 0x6970667358 0x22 SLT KECCAK256 0xD EXP MOD 0xE7 0xA6 MUL 0xEA DUP11 CALLDATACOPY BASEFEE SLOAD PUSH32 0xA5EE9E0319F41BFCAD7E6104447C2AC5A76C21DA64736F6C6343000814003300 "
				},
				"gasEstimates": {
					"creation": {
						"codeDepositCost": "235400",
						"executionCost": "25347",
						"totalCost": "260747"
					},
					"external": {
						"cancelOrder()": "27483",
						"currentState()": "2573",
						"deliverOrder()": "27418",
						"getCurrentState()": "2605",
						"shipOrder()": "27395"
					}
				},
				"methodIdentifiers": {
					"cancelOrder()": "6a816548",
					"currentState()": "0c3f6acf",
					"deliverOrder()": "0af316dc",
					"getCurrentState()": "378aa701",
					"shipOrder()": "0651e0c3"
				}
			},
			"storageLayout": {
				"storage": [
					{
						"astId": 9,
						"contract": "contracts/StateMachine.sol:OrderStateMachine",
						"label": "currentState",
						"offset": 0,
						"slot": "0",
						"type": "t_enum(OrderState)6"
					}
				],
				"types": {
					"t_enum(OrderState)6": {
						"encoding": "inplace",
						"label": "enum OrderStateMachine.OrderState",
						"numberOfBytes": "1"
					}
				}
			},
			"userdoc": {
				"kind": "user",
				"methods": {},
				"version": 1
			}
		}
	}
}