{
	"contracts/TransferVsCall.sol": {
		"TransferVsCall": {
			"abi": [
				{
					"anonymous": false,
					"inputs": [
						{
							"indexed": true,
							"internalType": "address",
							"name": "recipient",
							"type": "address"
						},
						{
							"indexed": false,
							"internalType": "uint256",
							"name": "amount",
							"type": "uint256"
						},
						{
							"indexed": false,
							"internalType": "string",
							"name": "method",
							"type": "string"
						}
					],
					"name": "EtherSent",
					"type": "event"
				},
				{
					"inputs": [
						{
							"internalType": "address payable",
							"name": "recipient",
							"type": "address"
						}
					],
					"name": "sendViaCall",
					"outputs": [],
					"stateMutability": "payable",
					"type": "function"
				},
				{
					"inputs": [
						{
							"internalType": "address payable",
							"name": "recipient",
							"type": "address"
						}
					],
					"name": "sendViaTransfer",
					"outputs": [],
					"stateMutability": "payable",
					"type": "function"
				},
				{
					"stateMutability": "payable",
					"type": "receive"
				}
			],
			"devdoc": {
				"kind": "dev",
				"methods": {},
				"version": 1
			},
			"evm": {
				"assembly": "    /* \"contracts/TransferVsCall.sol\":243:1255  contract TransferVsCall {... */\n  mstore(0x40, 0x80)\n  callvalue\n  dup1\n  iszero\n  tag_1\n  jumpi\n  0x00\n  dup1\n  revert\ntag_1:\n  pop\n  dataSize(sub_0)\n  dup1\n  dataOffset(sub_0)\n  0x00\n  codecopy\n  0x00\n  return\nstop\n\nsub_0: assembly {\n        /* \"contracts/TransferVsCall.sol\":243:1255  contract TransferVsCall {... */\n      mstore(0x40, 0x80)\n      jumpi(tag_1, lt(calldatasize, 0x04))\n      shr(0xe0, calldataload(0x00))\n      dup1\n      0x636e082b\n      eq\n      tag_3\n      jumpi\n      dup1\n      0x830c29ae\n      eq\n      tag_4\n      jumpi\n      jump(tag_2)\n    tag_1:\n      jumpi(tag_2, calldatasize)\n      stop\n    tag_2:\n      0x00\n      dup1\n      revert\n        /* \"contracts/TransferVsCall.sol\":439:792  function sendViaTransfer(address payable recipient) external payable {... */\n    tag_3:\n      tag_7\n      0x04\n      dup1\n      calldatasize\n      sub\n      dup2\n      add\n      swap1\n      tag_8\n      swap2\n      swap1\n      tag_9\n      jump\t// in\n    tag_8:\n      tag_10\n      jump\t// in\n    tag_7:\n      stop\n        /* \"contracts/TransferVsCall.sol\":842:1215  function sendViaCall(address payable recipient) external payable {... */\n    tag_4:\n      tag_11\n      0x04\n      dup1\n      calldatasize\n      sub\n      dup2\n      add\n      swap1\n      tag_12\n      swap2\n      swap1\n      tag_9\n      jump\t// in\n    tag_12:\n      tag_13\n      jump\t// in\n    tag_11:\n      stop\n        /* \"contracts/TransferVsCall.sol\":439:792  function sendViaTransfer(address payable recipient) external payable {... */\n    tag_10:\n        /* \"contracts/TransferVsCall.sol\":539:540  0 */\n      0x00\n        /* \"contracts/TransferVsCall.sol\":527:536  msg.value */\n      callvalue\n        /* \"contracts/TransferVsCall.sol\":527:540  msg.value > 0 */\n      gt\n        /* \"contracts/TransferVsCall.sol\":519:558  require(msg.value > 0, \"No Ether sent\") */\n      tag_15\n      jumpi\n      mload(0x40)\n      0x08c379a000000000000000000000000000000000000000000000000000000000\n      dup2\n      mstore\n      0x04\n      add\n      tag_16\n      swap1\n      tag_17\n      jump\t// in\n    tag_16:\n      mload(0x40)\n      dup1\n      swap2\n      sub\n      swap1\n      revert\n    tag_15:\n        /* \"contracts/TransferVsCall.sol\":598:599  0 */\n      0x00\n        /* \"contracts/TransferVsCall.sol\":577:600  recipient != address(0) */\n      0xffffffffffffffffffffffffffffffffffffffff\n      and\n        /* \"contracts/TransferVsCall.sol\":577:586  recipient */\n      dup2\n        /* \"contracts/TransferVsCall.sol\":577:600  recipient != address(0) */\n      0xffffffffffffffffffffffffffffffffffffffff\n      and\n      sub\n        /* \"contracts/TransferVsCall.sol\":569:641  require(recipient != address(0), \"Recipient cannot be the zero address\") */\n      tag_18\n      jumpi\n      mload(0x40)\n      0x08c379a000000000000000000000000000000000000000000000000000000000\n      dup2\n      mstore\n      0x04\n      add\n      tag_19\n      swap1\n      tag_20\n      jump\t// in\n    tag_19:\n      mload(0x40)\n      dup1\n      swap2\n      sub\n      swap1\n      revert\n    tag_18:\n        /* \"contracts/TransferVsCall.sol\":696:705  recipient */\n      dup1\n        /* \"contracts/TransferVsCall.sol\":696:714  recipient.transfer */\n      0xffffffffffffffffffffffffffffffffffffffff\n      and\n        /* \"contracts/TransferVsCall.sol\":696:725  recipient.transfer(msg.value) */\n      0x08fc\n        /* \"contracts/TransferVsCall.sol\":715:724  msg.value */\n      callvalue\n        /* \"contracts/TransferVsCall.sol\":696:725  recipient.transfer(msg.value) */\n      swap1\n      dup2\n      iszero\n      mul\n      swap1\n      mload(0x40)\n      0x00\n      mload(0x40)\n      dup1\n      dup4\n      sub\n      dup2\n      dup6\n      dup9\n      dup9\n      call\n      swap4\n      pop\n      pop\n      pop\n      pop\n      iszero\n      dup1\n      iszero\n      tag_22\n      jumpi\n      returndatasize\n      0x00\n      dup1\n      returndatacopy\n      revert(0x00, returndatasize)\n    tag_22:\n      pop\n        /* \"contracts/TransferVsCall.sol\":751:760  recipient */\n      dup1\n        /* \"contracts/TransferVsCall.sol\":741:784  EtherSent(recipient, msg.value, \"transfer\") */\n      0xffffffffffffffffffffffffffffffffffffffff\n      and\n      0x5b5bcab75e47ac8cbe627e56f355a48318d2f03d0832d12fefa63c79e67909e0\n        /* \"contracts/TransferVsCall.sol\":762:771  msg.value */\n      callvalue\n        /* \"contracts/TransferVsCall.sol\":741:784  EtherSent(recipient, msg.value, \"transfer\") */\n      mload(0x40)\n      tag_23\n      swap2\n      swap1\n      tag_24\n      jump\t// in\n    tag_23:\n      mload(0x40)\n      dup1\n      swap2\n      sub\n      swap1\n      log2\n        /* \"contracts/TransferVsCall.sol\":439:792  function sendViaTransfer(address payable recipient) external payable {... */\n      pop\n      jump\t// out\n        /* \"contracts/TransferVsCall.sol\":842:1215  function sendViaCall(address payable recipient) external payable {... */\n    tag_13:\n        /* \"contracts/TransferVsCall.sol\":938:939  0 */\n      0x00\n        /* \"contracts/TransferVsCall.sol\":926:935  msg.value */\n      callvalue\n        /* \"contracts/TransferVsCall.sol\":926:939  msg.value > 0 */\n      gt\n        /* \"contracts/TransferVsCall.sol\":918:957  require(msg.value > 0, \"No Ether sent\") */\n      tag_26\n      jumpi\n      mload(0x40)\n      0x08c379a000000000000000000000000000000000000000000000000000000000\n      dup2\n      mstore\n      0x04\n      add\n      tag_27\n      swap1\n      tag_17\n      jump\t// in\n    tag_27:\n      mload(0x40)\n      dup1\n      swap2\n      sub\n      swap1\n      revert\n    tag_26:\n        /* \"contracts/TransferVsCall.sol\":997:998  0 */\n      0x00\n        /* \"contracts/TransferVsCall.sol\":976:999  recipient != address(0) */\n      0xffffffffffffffffffffffffffffffffffffffff\n      and\n        /* \"contracts/TransferVsCall.sol\":976:985  recipient */\n      dup2\n        /* \"contracts/TransferVsCall.sol\":976:999  recipient != address(0) */\n      0xffffffffffffffffffffffffffffffffffffffff\n      and\n      sub\n        /* \"contracts/TransferVsCall.sol\":968:1040  require(recipient != address(0), \"Recipient cannot be the zero address\") */\n      tag_28\n      jumpi\n      mload(0x40)\n      0x08c379a000000000000000000000000000000000000000000000000000000000\n      dup2\n      mstore\n      0x04\n      add\n      tag_29\n      swap1\n      tag_20\n      jump\t// in\n    tag_29:\n      mload(0x40)\n      dup1\n      swap2\n      sub\n      swap1\n      revert\n    tag_28:\n        /* \"contracts/TransferVsCall.sol\":1054:1066  bool success */\n      0x00\n        /* \"contracts/TransferVsCall.sol\":1072:1081  recipient */\n      dup2\n        /* \"contracts/TransferVsCall.sol\":1072:1086  recipient.call */\n      0xffffffffffffffffffffffffffffffffffffffff\n      and\n        /* \"contracts/TransferVsCall.sol\":1094:1103  msg.value */\n      callvalue\n        /* \"contracts/TransferVsCall.sol\":1072:1108  recipient.call{value: msg.value}(\"\") */\n      mload(0x40)\n      tag_30\n      swap1\n      tag_31\n      jump\t// in\n    tag_30:\n      0x00\n      mload(0x40)\n      dup1\n      dup4\n      sub\n      dup2\n      dup6\n      dup8\n      gas\n      call\n      swap3\n      pop\n      pop\n      pop\n      returndatasize\n      dup1\n      0x00\n      dup2\n      eq\n      tag_34\n      jumpi\n      mload(0x40)\n      swap2\n      pop\n      and(add(returndatasize, 0x3f), not(0x1f))\n      dup3\n      add\n      0x40\n      mstore\n      returndatasize\n      dup3\n      mstore\n      returndatasize\n      0x00\n      0x20\n      dup5\n      add\n      returndatacopy\n      jump(tag_33)\n    tag_34:\n      0x60\n      swap2\n      pop\n    tag_33:\n      pop\n        /* \"contracts/TransferVsCall.sol\":1053:1108  (bool success, ) = recipient.call{value: msg.value}(\"\") */\n      pop\n      swap1\n      pop\n        /* \"contracts/TransferVsCall.sol\":1127:1134  success */\n      dup1\n        /* \"contracts/TransferVsCall.sol\":1119:1150  require(success, \"Call failed\") */\n      tag_35\n      jumpi\n      mload(0x40)\n      0x08c379a000000000000000000000000000000000000000000000000000000000\n      dup2\n      mstore\n      0x04\n      add\n      tag_36\n      swap1\n      tag_37\n      jump\t// in\n    tag_36:\n      mload(0x40)\n      dup1\n      swap2\n      sub\n      swap1\n      revert\n    tag_35:\n        /* \"contracts/TransferVsCall.sol\":1178:1187  recipient */\n      dup2\n        /* \"contracts/TransferVsCall.sol\":1168:1207  EtherSent(recipient, msg.value, \"call\") */\n      0xffffffffffffffffffffffffffffffffffffffff\n      and\n      0x5b5bcab75e47ac8cbe627e56f355a48318d2f03d0832d12fefa63c79e67909e0\n        /* \"contracts/TransferVsCall.sol\":1189:1198  msg.value */\n      callvalue\n        /* \"contracts/TransferVsCall.sol\":1168:1207  EtherSent(recipient, msg.value, \"call\") */\n      mload(0x40)\n      tag_38\n      swap2\n      swap1\n      tag_39\n      jump\t// in\n    tag_38:\n      mload(0x40)\n      dup1\n      swap2\n      sub\n      swap1\n      log2\n        /* \"contracts/TransferVsCall.sol\":907:1215  {... */\n      pop\n        /* \"contracts/TransferVsCall.sol\":842:1215  function sendViaCall(address payable recipient) external payable {... */\n      pop\n      jump\t// out\n        /* \"#utility.yul\":88:205   */\n    tag_41:\n        /* \"#utility.yul\":197:198   */\n      0x00\n        /* \"#utility.yul\":194:195   */\n      dup1\n        /* \"#utility.yul\":187:199   */\n      revert\n        /* \"#utility.yul\":334:460   */\n    tag_43:\n        /* \"#utility.yul\":371:378   */\n      0x00\n        /* \"#utility.yul\":411:453   */\n      0xffffffffffffffffffffffffffffffffffffffff\n        /* \"#utility.yul\":404:409   */\n      dup3\n        /* \"#utility.yul\":400:454   */\n      and\n        /* \"#utility.yul\":389:454   */\n      swap1\n      pop\n        /* \"#utility.yul\":334:460   */\n      swap2\n      swap1\n      pop\n      jump\t// out\n        /* \"#utility.yul\":466:570   */\n    tag_44:\n        /* \"#utility.yul\":511:518   */\n      0x00\n        /* \"#utility.yul\":540:564   */\n      tag_69\n        /* \"#utility.yul\":558:563   */\n      dup3\n        /* \"#utility.yul\":540:564   */\n      tag_43\n      jump\t// in\n    tag_69:\n        /* \"#utility.yul\":529:564   */\n      swap1\n      pop\n        /* \"#utility.yul\":466:570   */\n      swap2\n      swap1\n      pop\n      jump\t// out\n        /* \"#utility.yul\":576:714   */\n    tag_45:\n        /* \"#utility.yul\":657:689   */\n      tag_71\n        /* \"#utility.yul\":683:688   */\n      dup2\n        /* \"#utility.yul\":657:689   */\n      tag_44\n      jump\t// in\n    tag_71:\n        /* \"#utility.yul\":650:655   */\n      dup2\n        /* \"#utility.yul\":647:690   */\n      eq\n        /* \"#utility.yul\":637:708   */\n      tag_72\n      jumpi\n        /* \"#utility.yul\":704:705   */\n      0x00\n        /* \"#utility.yul\":701:702   */\n      dup1\n        /* \"#utility.yul\":694:706   */\n      revert\n        /* \"#utility.yul\":637:708   */\n    tag_72:\n        /* \"#utility.yul\":576:714   */\n      pop\n      jump\t// out\n        /* \"#utility.yul\":720:875   */\n    tag_46:\n        /* \"#utility.yul\":774:779   */\n      0x00\n        /* \"#utility.yul\":812:818   */\n      dup2\n        /* \"#utility.yul\":799:819   */\n      calldataload\n        /* \"#utility.yul\":790:819   */\n      swap1\n      pop\n        /* \"#utility.yul\":828:869   */\n      tag_74\n        /* \"#utility.yul\":863:868   */\n      dup2\n        /* \"#utility.yul\":828:869   */\n      tag_45\n      jump\t// in\n    tag_74:\n        /* \"#utility.yul\":720:875   */\n      swap3\n      swap2\n      pop\n      pop\n      jump\t// out\n        /* \"#utility.yul\":881:1226   */\n    tag_9:\n        /* \"#utility.yul\":948:954   */\n      0x00\n        /* \"#utility.yul\":997:999   */\n      0x20\n        /* \"#utility.yul\":985:994   */\n      dup3\n        /* \"#utility.yul\":976:983   */\n      dup5\n        /* \"#utility.yul\":972:995   */\n      sub\n        /* \"#utility.yul\":968:1000   */\n      slt\n        /* \"#utility.yul\":965:1084   */\n      iszero\n      tag_76\n      jumpi\n        /* \"#utility.yul\":1003:1082   */\n      tag_77\n      tag_41\n      jump\t// in\n    tag_77:\n        /* \"#utility.yul\":965:1084   */\n    tag_76:\n        /* \"#utility.yul\":1123:1124   */\n      0x00\n        /* \"#utility.yul\":1148:1209   */\n      tag_78\n        /* \"#utility.yul\":1201:1208   */\n      dup5\n        /* \"#utility.yul\":1192:1198   */\n      dup3\n        /* \"#utility.yul\":1181:1190   */\n      dup6\n        /* \"#utility.yul\":1177:1199   */\n      add\n        /* \"#utility.yul\":1148:1209   */\n      tag_46\n      jump\t// in\n    tag_78:\n        /* \"#utility.yul\":1138:1209   */\n      swap2\n      pop\n        /* \"#utility.yul\":1094:1219   */\n      pop\n        /* \"#utility.yul\":881:1226   */\n      swap3\n      swap2\n      pop\n      pop\n      jump\t// out\n        /* \"#utility.yul\":1232:1401   */\n    tag_47:\n        /* \"#utility.yul\":1316:1327   */\n      0x00\n        /* \"#utility.yul\":1350:1356   */\n      dup3\n        /* \"#utility.yul\":1345:1348   */\n      dup3\n        /* \"#utility.yul\":1338:1357   */\n      mstore\n        /* \"#utility.yul\":1390:1394   */\n      0x20\n        /* \"#utility.yul\":1385:1388   */\n      dup3\n        /* \"#utility.yul\":1381:1395   */\n      add\n        /* \"#utility.yul\":1366:1395   */\n      swap1\n      pop\n        /* \"#utility.yul\":1232:1401   */\n      swap3\n      swap2\n      pop\n      pop\n      jump\t// out\n        /* \"#utility.yul\":1407:1570   */\n    tag_48:\n        /* \"#utility.yul\":1547:1562   */\n      0x4e6f2045746865722073656e7400000000000000000000000000000000000000\n        /* \"#utility.yul\":1543:1544   */\n      0x00\n        /* \"#utility.yul\":1535:1541   */\n      dup3\n        /* \"#utility.yul\":1531:1545   */\n      add\n        /* \"#utility.yul\":1524:1563   */\n      mstore\n        /* \"#utility.yul\":1407:1570   */\n      pop\n      jump\t// out\n        /* \"#utility.yul\":1576:1942   */\n    tag_49:\n        /* \"#utility.yul\":1718:1721   */\n      0x00\n        /* \"#utility.yul\":1739:1806   */\n      tag_82\n        /* \"#utility.yul\":1803:1805   */\n      0x0d\n        /* \"#utility.yul\":1798:1801   */\n      dup4\n        /* \"#utility.yul\":1739:1806   */\n      tag_47\n      jump\t// in\n    tag_82:\n        /* \"#utility.yul\":1732:1806   */\n      swap2\n      pop\n        /* \"#utility.yul\":1815:1908   */\n      tag_83\n        /* \"#utility.yul\":1904:1907   */\n      dup3\n        /* \"#utility.yul\":1815:1908   */\n      tag_48\n      jump\t// in\n    tag_83:\n        /* \"#utility.yul\":1933:1935   */\n      0x20\n        /* \"#utility.yul\":1928:1931   */\n      dup3\n        /* \"#utility.yul\":1924:1936   */\n      add\n        /* \"#utility.yul\":1917:1936   */\n      swap1\n      pop\n        /* \"#utility.yul\":1576:1942   */\n      swap2\n      swap1\n      pop\n      jump\t// out\n        /* \"#utility.yul\":1948:2367   */\n    tag_17:\n        /* \"#utility.yul\":2114:2118   */\n      0x00\n        /* \"#utility.yul\":2152:2154   */\n      0x20\n        /* \"#utility.yul\":2141:2150   */\n      dup3\n        /* \"#utility.yul\":2137:2155   */\n      add\n        /* \"#utility.yul\":2129:2155   */\n      swap1\n      pop\n        /* \"#utility.yul\":2201:2210   */\n      dup2\n        /* \"#utility.yul\":2195:2199   */\n      dup2\n        /* \"#utility.yul\":2191:2211   */\n      sub\n        /* \"#utility.yul\":2187:2188   */\n      0x00\n        /* \"#utility.yul\":2176:2185   */\n      dup4\n        /* \"#utility.yul\":2172:2189   */\n      add\n        /* \"#utility.yul\":2165:2212   */\n      mstore\n        /* \"#utility.yul\":2229:2360   */\n      tag_85\n        /* \"#utility.yul\":2355:2359   */\n      dup2\n        /* \"#utility.yul\":2229:2360   */\n      tag_49\n      jump\t// in\n    tag_85:\n        /* \"#utility.yul\":2221:2360   */\n      swap1\n      pop\n        /* \"#utility.yul\":1948:2367   */\n      swap2\n      swap1\n      pop\n      jump\t// out\n        /* \"#utility.yul\":2373:2596   */\n    tag_50:\n        /* \"#utility.yul\":2513:2547   */\n      0x526563697069656e742063616e6e6f7420626520746865207a65726f20616464\n        /* \"#utility.yul\":2509:2510   */\n      0x00\n        /* \"#utility.yul\":2501:2507   */\n      dup3\n        /* \"#utility.yul\":2497:2511   */\n      add\n        /* \"#utility.yul\":2490:2548   */\n      mstore\n        /* \"#utility.yul\":2582:2588   */\n      0x7265737300000000000000000000000000000000000000000000000000000000\n        /* \"#utility.yul\":2577:2579   */\n      0x20\n        /* \"#utility.yul\":2569:2575   */\n      dup3\n        /* \"#utility.yul\":2565:2580   */\n      add\n        /* \"#utility.yul\":2558:2589   */\n      mstore\n        /* \"#utility.yul\":2373:2596   */\n      pop\n      jump\t// out\n        /* \"#utility.yul\":2602:2968   */\n    tag_51:\n        /* \"#utility.yul\":2744:2747   */\n      0x00\n        /* \"#utility.yul\":2765:2832   */\n      tag_88\n        /* \"#utility.yul\":2829:2831   */\n      0x24\n        /* \"#utility.yul\":2824:2827   */\n      dup4\n        /* \"#utility.yul\":2765:2832   */\n      tag_47\n      jump\t// in\n    tag_88:\n        /* \"#utility.yul\":2758:2832   */\n      swap2\n      pop\n        /* \"#utility.yul\":2841:2934   */\n      tag_89\n        /* \"#utility.yul\":2930:2933   */\n      dup3\n        /* \"#utility.yul\":2841:2934   */\n      tag_50\n      jump\t// in\n    tag_89:\n        /* \"#utility.yul\":2959:2961   */\n      0x40\n        /* \"#utility.yul\":2954:2957   */\n      dup3\n        /* \"#utility.yul\":2950:2962   */\n      add\n        /* \"#utility.yul\":2943:2962   */\n      swap1\n      pop\n        /* \"#utility.yul\":2602:2968   */\n      swap2\n      swap1\n      pop\n      jump\t// out\n        /* \"#utility.yul\":2974:3393   */\n    tag_20:\n        /* \"#utility.yul\":3140:3144   */\n      0x00\n        /* \"#utility.yul\":3178:3180   */\n      0x20\n        /* \"#utility.yul\":3167:3176   */\n      dup3\n        /* \"#utility.yul\":3163:3181   */\n      add\n        /* \"#utility.yul\":3155:3181   */\n      swap1\n      pop\n        /* \"#utility.yul\":3227:3236   */\n      dup2\n        /* \"#utility.yul\":3221:3225   */\n      dup2\n        /* \"#utility.yul\":3217:3237   */\n      sub\n        /* \"#utility.yul\":3213:3214   */\n      0x00\n        /* \"#utility.yul\":3202:3211   */\n      dup4\n        /* \"#utility.yul\":3198:3215   */\n      add\n        /* \"#utility.yul\":3191:3238   */\n      mstore\n        /* \"#utility.yul\":3255:3386   */\n      tag_91\n        /* \"#utility.yul\":3381:3385   */\n      dup2\n        /* \"#utility.yul\":3255:3386   */\n      tag_51\n      jump\t// in\n    tag_91:\n        /* \"#utility.yul\":3247:3386   */\n      swap1\n      pop\n        /* \"#utility.yul\":2974:3393   */\n      swap2\n      swap1\n      pop\n      jump\t// out\n        /* \"#utility.yul\":3399:3476   */\n    tag_52:\n        /* \"#utility.yul\":3436:3443   */\n      0x00\n        /* \"#utility.yul\":3465:3470   */\n      dup2\n        /* \"#utility.yul\":3454:3470   */\n      swap1\n      pop\n        /* \"#utility.yul\":3399:3476   */\n      swap2\n      swap1\n      pop\n      jump\t// out\n        /* \"#utility.yul\":3482:3600   */\n    tag_53:\n        /* \"#utility.yul\":3569:3593   */\n      tag_94\n        /* \"#utility.yul\":3587:3592   */\n      dup2\n        /* \"#utility.yul\":3569:3593   */\n      tag_52\n      jump\t// in\n    tag_94:\n        /* \"#utility.yul\":3564:3567   */\n      dup3\n        /* \"#utility.yul\":3557:3594   */\n      mstore\n        /* \"#utility.yul\":3482:3600   */\n      pop\n      pop\n      jump\t// out\n        /* \"#utility.yul\":3606:3764   */\n    tag_54:\n        /* \"#utility.yul\":3746:3756   */\n      0x7472616e73666572000000000000000000000000000000000000000000000000\n        /* \"#utility.yul\":3742:3743   */\n      0x00\n        /* \"#utility.yul\":3734:3740   */\n      dup3\n        /* \"#utility.yul\":3730:3744   */\n      add\n        /* \"#utility.yul\":3723:3757   */\n      mstore\n        /* \"#utility.yul\":3606:3764   */\n      pop\n      jump\t// out\n        /* \"#utility.yul\":3770:4135   */\n    tag_55:\n        /* \"#utility.yul\":3912:3915   */\n      0x00\n        /* \"#utility.yul\":3933:3999   */\n      tag_97\n        /* \"#utility.yul\":3997:3998   */\n      0x08\n        /* \"#utility.yul\":3992:3995   */\n      dup4\n        /* \"#utility.yul\":3933:3999   */\n      tag_47\n      jump\t// in\n    tag_97:\n        /* \"#utility.yul\":3926:3999   */\n      swap2\n      pop\n        /* \"#utility.yul\":4008:4101   */\n      tag_98\n        /* \"#utility.yul\":4097:4100   */\n      dup3\n        /* \"#utility.yul\":4008:4101   */\n      tag_54\n      jump\t// in\n    tag_98:\n        /* \"#utility.yul\":4126:4128   */\n      0x20\n        /* \"#utility.yul\":4121:4124   */\n      dup3\n        /* \"#utility.yul\":4117:4129   */\n      add\n        /* \"#utility.yul\":4110:4129   */\n      swap1\n      pop\n        /* \"#utility.yul\":3770:4135   */\n      swap2\n      swap1\n      pop\n      jump\t// out\n        /* \"#utility.yul\":4141:4670   */\n    tag_24:\n        /* \"#utility.yul\":4335:4339   */\n      0x00\n        /* \"#utility.yul\":4373:4375   */\n      0x40\n        /* \"#utility.yul\":4362:4371   */\n      dup3\n        /* \"#utility.yul\":4358:4376   */\n      add\n        /* \"#utility.yul\":4350:4376   */\n      swap1\n      pop\n        /* \"#utility.yul\":4386:4457   */\n      tag_100\n        /* \"#utility.yul\":4454:4455   */\n      0x00\n        /* \"#utility.yul\":4443:4452   */\n      dup4\n        /* \"#utility.yul\":4439:4456   */\n      add\n        /* \"#utility.yul\":4430:4436   */\n      dup5\n        /* \"#utility.yul\":4386:4457   */\n      tag_53\n      jump\t// in\n    tag_100:\n        /* \"#utility.yul\":4504:4513   */\n      dup2\n        /* \"#utility.yul\":4498:4502   */\n      dup2\n        /* \"#utility.yul\":4494:4514   */\n      sub\n        /* \"#utility.yul\":4489:4491   */\n      0x20\n        /* \"#utility.yul\":4478:4487   */\n      dup4\n        /* \"#utility.yul\":4474:4492   */\n      add\n        /* \"#utility.yul\":4467:4515   */\n      mstore\n        /* \"#utility.yul\":4532:4663   */\n      tag_101\n        /* \"#utility.yul\":4658:4662   */\n      dup2\n        /* \"#utility.yul\":4532:4663   */\n      tag_55\n      jump\t// in\n    tag_101:\n        /* \"#utility.yul\":4524:4663   */\n      swap1\n      pop\n        /* \"#utility.yul\":4141:4670   */\n      swap3\n      swap2\n      pop\n      pop\n      jump\t// out\n        /* \"#utility.yul\":4676:4823   */\n    tag_56:\n        /* \"#utility.yul\":4777:4788   */\n      0x00\n        /* \"#utility.yul\":4814:4817   */\n      dup2\n        /* \"#utility.yul\":4799:4817   */\n      swap1\n      pop\n        /* \"#utility.yul\":4676:4823   */\n      swap3\n      swap2\n      pop\n      pop\n      jump\t// out\n        /* \"#utility.yul\":4829:4943   */\n    tag_57:\n      pop\n      jump\t// out\n        /* \"#utility.yul\":4949:5347   */\n    tag_58:\n        /* \"#utility.yul\":5108:5111   */\n      0x00\n        /* \"#utility.yul\":5129:5212   */\n      tag_105\n        /* \"#utility.yul\":5210:5211   */\n      0x00\n        /* \"#utility.yul\":5205:5208   */\n      dup4\n        /* \"#utility.yul\":5129:5212   */\n      tag_56\n      jump\t// in\n    tag_105:\n        /* \"#utility.yul\":5122:5212   */\n      swap2\n      pop\n        /* \"#utility.yul\":5221:5314   */\n      tag_106\n        /* \"#utility.yul\":5310:5313   */\n      dup3\n        /* \"#utility.yul\":5221:5314   */\n      tag_57\n      jump\t// in\n    tag_106:\n        /* \"#utility.yul\":5339:5340   */\n      0x00\n        /* \"#utility.yul\":5334:5337   */\n      dup3\n        /* \"#utility.yul\":5330:5341   */\n      add\n        /* \"#utility.yul\":5323:5341   */\n      swap1\n      pop\n        /* \"#utility.yul\":4949:5347   */\n      swap2\n      swap1\n      pop\n      jump\t// out\n        /* \"#utility.yul\":5353:5732   */\n    tag_31:\n        /* \"#utility.yul\":5537:5540   */\n      0x00\n        /* \"#utility.yul\":5559:5706   */\n      tag_108\n        /* \"#utility.yul\":5702:5705   */\n      dup3\n        /* \"#utility.yul\":5559:5706   */\n      tag_58\n      jump\t// in\n    tag_108:\n        /* \"#utility.yul\":5552:5706   */\n      swap2\n      pop\n        /* \"#utility.yul\":5723:5726   */\n      dup2\n        /* \"#utility.yul\":5716:5726   */\n      swap1\n      pop\n        /* \"#utility.yul\":5353:5732   */\n      swap2\n      swap1\n      pop\n      jump\t// out\n        /* \"#utility.yul\":5738:5899   */\n    tag_59:\n        /* \"#utility.yul\":5878:5891   */\n      0x43616c6c206661696c6564000000000000000000000000000000000000000000\n        /* \"#utility.yul\":5874:5875   */\n      0x00\n        /* \"#utility.yul\":5866:5872   */\n      dup3\n        /* \"#utility.yul\":5862:5876   */\n      add\n        /* \"#utility.yul\":5855:5892   */\n      mstore\n        /* \"#utility.yul\":5738:5899   */\n      pop\n      jump\t// out\n        /* \"#utility.yul\":5905:6271   */\n    tag_60:\n        /* \"#utility.yul\":6047:6050   */\n      0x00\n        /* \"#utility.yul\":6068:6135   */\n      tag_111\n        /* \"#utility.yul\":6132:6134   */\n      0x0b\n        /* \"#utility.yul\":6127:6130   */\n      dup4\n        /* \"#utility.yul\":6068:6135   */\n      tag_47\n      jump\t// in\n    tag_111:\n        /* \"#utility.yul\":6061:6135   */\n      swap2\n      pop\n        /* \"#utility.yul\":6144:6237   */\n      tag_112\n        /* \"#utility.yul\":6233:6236   */\n      dup3\n        /* \"#utility.yul\":6144:6237   */\n      tag_59\n      jump\t// in\n    tag_112:\n        /* \"#utility.yul\":6262:6264   */\n      0x20\n        /* \"#utility.yul\":6257:6260   */\n      dup3\n        /* \"#utility.yul\":6253:6265   */\n      add\n        /* \"#utility.yul\":6246:6265   */\n      swap1\n      pop\n        /* \"#utility.yul\":5905:6271   */\n      swap2\n      swap1\n      pop\n      jump\t// out\n        /* \"#utility.yul\":6277:6696   */\n    tag_37:\n        /* \"#utility.yul\":6443:6447   */\n      0x00\n        /* \"#utility.yul\":6481:6483   */\n      0x20\n        /* \"#utility.yul\":6470:6479   */\n      dup3\n        /* \"#utility.yul\":6466:6484   */\n      add\n        /* \"#utility.yul\":6458:6484   */\n      swap1\n      pop\n        /* \"#utility.yul\":6530:6539   */\n      dup2\n        /* \"#utility.yul\":6524:6528   */\n      dup2\n        /* \"#utility.yul\":6520:6540   */\n      sub\n        /* \"#utility.yul\":6516:6517   */\n      0x00\n        /* \"#utility.yul\":6505:6514   */\n      dup4\n        /* \"#utility.yul\":6501:6518   */\n      add\n        /* \"#utility.yul\":6494:6541   */\n      mstore\n        /* \"#utility.yul\":6558:6689   */\n      tag_114\n        /* \"#utility.yul\":6684:6688   */\n      dup2\n        /* \"#utility.yul\":6558:6689   */\n      tag_60\n      jump\t// in\n    tag_114:\n        /* \"#utility.yul\":6550:6689   */\n      swap1\n      pop\n        /* \"#utility.yul\":6277:6696   */\n      swap2\n      swap1\n      pop\n      jump\t// out\n        /* \"#utility.yul\":6702:6856   */\n    tag_61:\n        /* \"#utility.yul\":6842:6848   */\n      0x63616c6c00000000000000000000000000000000000000000000000000000000\n        /* \"#utility.yul\":6838:6839   */\n      0x00\n        /* \"#utility.yul\":6830:6836   */\n      dup3\n        /* \"#utility.yul\":6826:6840   */\n      add\n        /* \"#utility.yul\":6819:6849   */\n      mstore\n        /* \"#utility.yul\":6702:6856   */\n      pop\n      jump\t// out\n        /* \"#utility.yul\":6862:7227   */\n    tag_62:\n        /* \"#utility.yul\":7004:7007   */\n      0x00\n        /* \"#utility.yul\":7025:7091   */\n      tag_117\n        /* \"#utility.yul\":7089:7090   */\n      0x04\n        /* \"#utility.yul\":7084:7087   */\n      dup4\n        /* \"#utility.yul\":7025:7091   */\n      tag_47\n      jump\t// in\n    tag_117:\n        /* \"#utility.yul\":7018:7091   */\n      swap2\n      pop\n        /* \"#utility.yul\":7100:7193   */\n      tag_118\n        /* \"#utility.yul\":7189:7192   */\n      dup3\n        /* \"#utility.yul\":7100:7193   */\n      tag_61\n      jump\t// in\n    tag_118:\n        /* \"#utility.yul\":7218:7220   */\n      0x20\n        /* \"#utility.yul\":7213:7216   */\n      dup3\n        /* \"#utility.yul\":7209:7221   */\n      add\n        /* \"#utility.yul\":7202:7221   */\n      swap1\n      pop\n        /* \"#utility.yul\":6862:7227   */\n      swap2\n      swap1\n      pop\n      jump\t// out\n        /* \"#utility.yul\":7233:7762   */\n    tag_39:\n        /* \"#utility.yul\":7427:7431   */\n      0x00\n        /* \"#utility.yul\":7465:7467   */\n      0x40\n        /* \"#utility.yul\":7454:7463   */\n      dup3\n        /* \"#utility.yul\":7450:7468   */\n      add\n        /* \"#utility.yul\":7442:7468   */\n      swap1\n      pop\n        /* \"#utility.yul\":7478:7549   */\n      tag_120\n        /* \"#utility.yul\":7546:7547   */\n      0x00\n        /* \"#utility.yul\":7535:7544   */\n      dup4\n        /* \"#utility.yul\":7531:7548   */\n      add\n        /* \"#utility.yul\":7522:7528   */\n      dup5\n        /* \"#utility.yul\":7478:7549   */\n      tag_53\n      jump\t// in\n    tag_120:\n        /* \"#utility.yul\":7596:7605   */\n      dup2\n        /* \"#utility.yul\":7590:7594   */\n      dup2\n        /* \"#utility.yul\":7586:7606   */\n      sub\n        /* \"#utility.yul\":7581:7583   */\n      0x20\n        /* \"#utility.yul\":7570:7579   */\n      dup4\n        /* \"#utility.yul\":7566:7584   */\n      add\n        /* \"#utility.yul\":7559:7607   */\n      mstore\n        /* \"#utility.yul\":7624:7755   */\n      tag_121\n        /* \"#utility.yul\":7750:7754   */\n      dup2\n        /* \"#utility.yul\":7624:7755   */\n      tag_62\n      jump\t// in\n    tag_121:\n        /* \"#utility.yul\":7616:7755   */\n      swap1\n      pop\n        /* \"#utility.yul\":7233:7762   */\n      swap3\n      swap2\n      pop\n      pop\n      jump\t// out\n\n    auxdata: 0xa2646970667358221220abf73a966ae4885211b5d00a8dff38e80a89d7eb9caa4e52d35046bf57e6ee1e64736f6c63430008140033\n}\n",
				"bytecode": {
					"linkReferences": {},
					"object": "608060405234801561000f575f80fd5b506106d08061001d5f395ff3fe60806040526004361061002c575f3560e01c8063636e082b14610037578063830c29ae1461005357610033565b3661003357005b5f80fd5b610051600480360381019061004c91906103bc565b61006f565b005b61006d600480360381019061006891906103bc565b6101b4565b005b5f34116100b1576040517f08c379a00000000000000000000000000000000000000000000000000000000081526004016100a890610441565b60405180910390fd5b5f73ffffffffffffffffffffffffffffffffffffffff168173ffffffffffffffffffffffffffffffffffffffff160361011f576040517f08c379a0000000000000000000000000000000000000000000000000000000008152600401610116906104cf565b60405180910390fd5b8073ffffffffffffffffffffffffffffffffffffffff166108fc3490811502906040515f60405180830381858888f19350505050158015610162573d5f803e3d5ffd5b508073ffffffffffffffffffffffffffffffffffffffff167f5b5bcab75e47ac8cbe627e56f355a48318d2f03d0832d12fefa63c79e67909e0346040516101a9919061054f565b60405180910390a250565b5f34116101f6576040517f08c379a00000000000000000000000000000000000000000000000000000000081526004016101ed90610441565b60405180910390fd5b5f73ffffffffffffffffffffffffffffffffffffffff168173ffffffffffffffffffffffffffffffffffffffff1603610264576040517f08c379a000000000000000000000000000000000000000000000000000000000815260040161025b906104cf565b60405180910390fd5b5f8173ffffffffffffffffffffffffffffffffffffffff1634604051610289906105a8565b5f6040518083038185875af1925050503d805f81146102c3576040519150601f19603f3d011682016040523d82523d5f602084013e6102c8565b606091505b505090508061030c576040517f08c379a000000000000000000000000000000000000000000000000000000000815260040161030390610606565b60405180910390fd5b8173ffffffffffffffffffffffffffffffffffffffff167f5b5bcab75e47ac8cbe627e56f355a48318d2f03d0832d12fefa63c79e67909e034604051610352919061066e565b60405180910390a25050565b5f80fd5b5f73ffffffffffffffffffffffffffffffffffffffff82169050919050565b5f61038b82610362565b9050919050565b61039b81610381565b81146103a5575f80fd5b50565b5f813590506103b681610392565b92915050565b5f602082840312156103d1576103d061035e565b5b5f6103de848285016103a8565b91505092915050565b5f82825260208201905092915050565b7f4e6f2045746865722073656e74000000000000000000000000000000000000005f82015250565b5f61042b600d836103e7565b9150610436826103f7565b602082019050919050565b5f6020820190508181035f8301526104588161041f565b9050919050565b7f526563697069656e742063616e6e6f7420626520746865207a65726f206164645f8201527f7265737300000000000000000000000000000000000000000000000000000000602082015250565b5f6104b96024836103e7565b91506104c48261045f565b604082019050919050565b5f6020820190508181035f8301526104e6816104ad565b9050919050565b5f819050919050565b6104ff816104ed565b82525050565b7f7472616e736665720000000000000000000000000000000000000000000000005f82015250565b5f6105396008836103e7565b915061054482610505565b602082019050919050565b5f6040820190506105625f8301846104f6565b81810360208301526105738161052d565b905092915050565b5f81905092915050565b50565b5f6105935f8361057b565b915061059e82610585565b5f82019050919050565b5f6105b282610588565b9150819050919050565b7f43616c6c206661696c65640000000000000000000000000000000000000000005f82015250565b5f6105f0600b836103e7565b91506105fb826105bc565b602082019050919050565b5f6020820190508181035f83015261061d816105e4565b9050919050565b7f63616c6c000000000000000000000000000000000000000000000000000000005f82015250565b5f6106586004836103e7565b915061066382610624565b602082019050919050565b5f6040820190506106815f8301846104f6565b81810360208301526106928161064c565b90509291505056fea2646970667358221220abf73a966ae4885211b5d00a8dff38e80a89d7eb9caa4e52d35046bf57e6ee1e64736f6c63430008140033",
					"opcodes": "PUSH1 0x80 PUSH1 0x40 MSTORE CALLVALUE DUP1 ISZERO PUSH2 0xF JUMPI PUSH0 DUP1 REVERT JUMPDEST POP PUSH2 0x6D0 DUP1 PUSH2 0x1D PUSH0 CODECOPY PUSH0 RETURN INVALID PUSH1 0x80 PUSH1 0x40 MSTORE PUSH1 0x4 CALLDATASIZE LT PUSH2 0x2C JUMPI PUSH0 CALLDATALOAD PUSH1 0xE0 SHR DUP1 PUSH4 0x636E082B EQ PUSH2 0x37 JUMPI DUP1 PUSH4 0x830C29AE EQ PUSH2 0x53 JUMPI PUSH2 0x33 JUMP JUMPDEST CALLDATASIZE PUSH2 0x33 JUMPI STOP JUMPDEST PUSH0 DUP1 REVERT JUMPDEST PUSH2 0x51 PUSH1 0x4 DUP1 CALLDATASIZE SUB DUP2 ADD SWAP1 PUSH2 0x4C SWAP2 SWAP1 PUSH2 0x3BC JUMP JUMPDEST PUSH2 0x6F JUMP JUMPDEST STOP JUMPDEST PUSH2 0x6D PUSH1 0x4 DUP1 CALLDATASIZE SUB DUP2 ADD SWAP1 PUSH2 0x68 SWAP2 SWAP1 PUSH2 0x3BC JUMP JUMPDEST PUSH2 0x1B4 JUMP JUMPDEST STOP JUMPDEST PUSH0 CALLVALUE GT PUSH2 0xB1 JUMPI PUSH1 0x40 MLOAD PUSH32 0x8C379A000000000000000000000000000000000000000000000000000000000 DUP2 MSTORE PUSH1 0x4 ADD PUSH2 0xA8 SWAP1 PUSH2 0x441 JUMP JUMPDEST PUSH1 0x40 MLOAD DUP1 SWAP2 SUB SWAP1 REVERT JUMPDEST PUSH0 PUSH20 0xFFFFFFFFFFFFFFFFFFFFFFFFFFFFFFFFFFFFFFFF AND DUP2 PUSH20 0xFFFFFFFFFFFFFFFFFFFFFFFFFFFFFFFFFFFFFFFF AND SUB PUSH2 0x11F JUMPI PUSH1 0x40 MLOAD PUSH32 0x8C379A000000000000000000000000000000000000000000000000000000000 DUP2 MSTORE PUSH1 0x4 ADD PUSH2 0x116 SWAP1 PUSH2 0x4CF JUMP JUMPDEST PUSH1 0x40 MLOAD DUP1 SWAP2 SUB SWAP1 REVERT JUMPDEST DUP1 PUSH20 0xFFFFFFFFFFFFFFFFFFFFFFFFFFFFFFFFFFFFFFFF AND PUSH2 0x8FC CALLVALUE SWAP1 DUP2 ISZERO MUL SWAP1 PUSH1 0x40 MLOAD PUSH0 PUSH1 0x40 MLOAD DUP1 DUP4 SUB DUP2 DUP6 DUP9 DUP9 CALL SWAP4 POP POP POP POP ISZERO DUP1 ISZERO PUSH2 0x162 JUMPI RETURNDATASIZE PUSH0 DUP1 RETURNDATACOPY RETURNDATASIZE PUSH0 REVERT JUMPDEST POP DUP1 PUSH20 0xFFFFFFFFFFFFFFFFFFFFFFFFFFFFFFFFFFFFFFFF AND PUSH32 0x5B5BCAB75E47AC8CBE627E56F355A48318D2F03D0832D12FEFA63C79E67909E0 CALLVALUE PUSH1 0x40 MLOAD PUSH2 0x1A9 SWAP2 SWAP1 PUSH2 0x54F JUMP JUMPDEST PUSH1 0x40 MLOAD DUP1 SWAP2 SUB SWAP1 LOG2 POP JUMP JUMPDEST PUSH0 CALLVALUE GT PUSH2 0x1F6 JUMPI PUSH1 0x40 MLOAD PUSH32 0x8C379A000000000000000000000000000000000000000000000000000000000 DUP2 MSTORE PUSH1 0x4 ADD PUSH2 0x1ED SWAP1 PUSH2 0x441 JUMP JUMPDEST PUSH1 0x40 MLOAD DUP1 SWAP2 SUB SWAP1 REVERT JUMPDEST PUSH0 PUSH20 0xFFFFFFFFFFFFFFFFFFFFFFFFFFFFFFFFFFFFFFFF AND DUP2 PUSH20 0xFFFFFFFFFFFFFFFFFFFFFFFFFFFFFFFFFFFFFFFF AND SUB PUSH2 0x264 JUMPI PUSH1 0x40 MLOAD PUSH32 0x8C379A000000000000000000000000000000000000000000000000000000000 DUP2 MSTORE PUSH1 0x4 ADD PUSH2 0x25B SWAP1 PUSH2 0x4CF JUMP JUMPDEST PUSH1 0x40 MLOAD DUP1 SWAP2 SUB SWAP1 REVERT JUMPDEST PUSH0 DUP2 PUSH20 0xFFFFFFFFFFFFFFFFFFFFFFFFFFFFFFFFFFFFFFFF AND CALLVALUE PUSH1 0x40 MLOAD PUSH2 0x289 SWAP1 PUSH2 0x5A8 JUMP JUMPDEST PUSH0 PUSH1 0x40 MLOAD DUP1 DUP4 SUB DUP2 DUP6 DUP8 GAS CALL SWAP3 POP POP POP RETURNDATASIZE DUP1 PUSH0 DUP2 EQ PUSH2 0x2C3 JUMPI PUSH1 0x40 MLOAD SWAP2 POP PUSH1 0x1F NOT PUSH1 0x3F RETURNDATASIZE ADD AND DUP3 ADD PUSH1 0x40 MSTORE RETURNDATASIZE DUP3 MSTORE RETURNDATASIZE PUSH0 PUSH1 0x20 DUP5 ADD RETURNDATACOPY PUSH2 0x2C8 JUMP JUMPDEST PUSH1 0x60 SWAP2 POP JUMPDEST POP POP SWAP1 POP DUP1 PUSH2 0x30C JUMPI PUSH1 0x40 MLOAD PUSH32 0x8C379A000000000000000000000000000000000000000000000000000000000 DUP2 MSTORE PUSH1 0x4 ADD PUSH2 0x303 SWAP1 PUSH2 0x606 JUMP JUMPDEST PUSH1 0x40 MLOAD DUP1 SWAP2 SUB SWAP1 REVERT JUMPDEST DUP2 PUSH20 0xFFFFFFFFFFFFFFFFFFFFFFFFFFFFFFFFFFFFFFFF AND PUSH32 0x5B5BCAB75E47AC8CBE627E56F355A48318D2F03D0832D12FEFA63C79E67909E0 CALLVALUE PUSH1 0x40 MLOAD PUSH2 0x352 SWAP2 SWAP1 PUSH2 0x66E JUMP JUMPDEST PUSH1 0x40 MLOAD DUP1 SWAP2 SUB SWAP1 LOG2 POP POP JUMP JUMPDEST PUSH0 DUP1 REVERT JUMPDEST PUSH0 PUSH20 0xFFFFFFFFFFFFFFFFFFFFFFFFFFFFFFFFFFFFFFFF DUP3 AND SWAP1 POP SWAP2 SWAP1 POP JUMP JUMPDEST PUSH0 PUSH2 0x38B DUP3 PUSH2 0x362 JUMP JUMPDEST SWAP1 POP SWAP2 SWAP1 POP JUMP JUMPDEST PUSH2 0x39B DUP2 PUSH2 0x381 JUMP JUMPDEST DUP2 EQ PUSH2 0x3A5 JUMPI PUSH0 DUP1 REVERT JUMPDEST POP JUMP JUMPDEST PUSH0 DUP2 CALLDATALOAD SWAP1 POP PUSH2 0x3B6 DUP2 PUSH2 0x392 JUMP JUMPDEST SWAP3 SWAP2 POP POP JUMP JUMPDEST PUSH0 PUSH1 0x20 DUP3 DUP5 SUB SLT ISZERO PUSH2 0x3D1 JUMPI PUSH2 0x3D0 PUSH2 0x35E JUMP JUMPDEST JUMPDEST PUSH0 PUSH2 0x3DE DUP5 DUP3 DUP6 ADD PUSH2 0x3A8 JUMP JUMPDEST SWAP2 POP POP SWAP3 SWAP2 POP POP JUMP JUMPDEST PUSH0 DUP3 DUP3 MSTORE PUSH1 0x20 DUP3 ADD SWAP1 POP SWAP3 SWAP2 POP POP JUMP JUMPDEST PUSH32 0x4E6F2045746865722073656E7400000000000000000000000000000000000000 PUSH0 DUP3 ADD MSTORE POP JUMP JUMPDEST PUSH0 PUSH2 0x42B PUSH1 0xD DUP4 PUSH2 0x3E7 JUMP JUMPDEST SWAP2 POP PUSH2 0x436 DUP3 PUSH2 0x3F7 JUMP JUMPDEST PUSH1 0x20 DUP3 ADD SWAP1 POP SWAP2 SWAP1 POP JUMP JUMPDEST PUSH0 PUSH1 0x20 DUP3 ADD SWAP1 POP DUP2 DUP2 SUB PUSH0 DUP4 ADD MSTORE PUSH2 0x458 DUP2 PUSH2 0x41F JUMP JUMPDEST SWAP1 POP SWAP2 SWAP1 POP JUMP JUMPDEST PUSH32 0x526563697069656E742063616E6E6F7420626520746865207A65726F20616464 PUSH0 DUP3 ADD MSTORE PUSH32 0x7265737300000000000000000000000000000000000000000000000000000000 PUSH1 0x20 DUP3 ADD MSTORE POP JUMP JUMPDEST PUSH0 PUSH2 0x4B9 PUSH1 0x24 DUP4 PUSH2 0x3E7 JUMP JUMPDEST SWAP2 POP PUSH2 0x4C4 DUP3 PUSH2 0x45F JUMP JUMPDEST PUSH1 0x40 DUP3 ADD SWAP1 POP SWAP2 SWAP1 POP JUMP JUMPDEST PUSH0 PUSH1 0x20 DUP3 ADD SWAP1 POP DUP2 DUP2 SUB PUSH0 DUP4 ADD MSTORE PUSH2 0x4E6 DUP2 PUSH2 0x4AD JUMP JUMPDEST SWAP1 POP SWAP2 SWAP1 POP JUMP JUMPDEST PUSH0 DUP2 SWAP1 POP SWAP2 SWAP1 POP JUMP JUMPDEST PUSH2 0x4FF DUP2 PUSH2 0x4ED JUMP JUMPDEST DUP3 MSTORE POP POP JUMP JUMPDEST PUSH32 0x7472616E73666572000000000000000000000000000000000000000000000000 PUSH0 DUP3 ADD MSTORE POP JUMP JUMPDEST PUSH0 PUSH2 0x539 PUSH1 0x8 DUP4 PUSH2 0x3E7 JUMP JUMPDEST SWAP2 POP PUSH2 0x544 DUP3 PUSH2 0x505 JUMP JUMPDEST PUSH1 0x20 DUP3 ADD SWAP1 POP SWAP2 SWAP1 POP JUMP JUMPDEST PUSH0 PUSH1 0x40 DUP3 ADD SWAP1 POP PUSH2 0x562 PUSH0 DUP4 ADD DUP5 PUSH2 0x4F6 JUMP JUMPDEST DUP2 DUP2 SUB PUSH1 0x20 DUP4 ADD MSTORE PUSH2 0x573 DUP2 PUSH2 0x52D JUMP JUMPDEST SWAP1 POP SWAP3 SWAP2 POP POP JUMP JUMPDEST PUSH0 DUP2 SWAP1 POP SWAP3 SWAP2 POP POP JUMP JUMPDEST POP JUMP JUMPDEST PUSH0 PUSH2 0x593 PUSH0 DUP4 PUSH2 0x57B JUMP JUMPDEST SWAP2 POP PUSH2 0x59E DUP3 PUSH2 0x585 JUMP JUMPDEST PUSH0 DUP3 ADD SWAP1 POP SWAP2 SWAP1 POP JUMP JUMPDEST PUSH0 PUSH2 0x5B2 DUP3 PUSH2 0x588 JUMP JUMPDEST SWAP2 POP DUP2 SWAP1 POP SWAP2 SWAP1 POP JUMP JUMPDEST PUSH32 0x43616C6C206661696C6564000000000000000000000000000000000000000000 PUSH0 DUP3 ADD MSTORE POP JUMP JUMPDEST PUSH0 PUSH2 0x5F0 PUSH1 0xB DUP4 PUSH2 0x3E7 JUMP JUMPDEST SWAP2 POP PUSH2 0x5FB DUP3 PUSH2 0x5BC JUMP JUMPDEST PUSH1 0x20 DUP3 ADD SWAP1 POP SWAP2 SWAP1 POP JUMP JUMPDEST PUSH0 PUSH1 0x20 DUP3 ADD SWAP1 POP DUP2 DUP2 SUB PUSH0 DUP4 ADD MSTORE PUSH2 0x61D DUP2 PUSH2 0x5E4 JUMP JUMPDEST SWAP1 POP SWAP2 SWAP1 POP JUMP JUMPDEST PUSH32 0x63616C6C00000000000000000000000000000000000000000000000000000000 PUSH0 DUP3 ADD MSTORE POP JUMP JUMPDEST PUSH0 PUSH2 0x658 PUSH1 0x4 DUP4 PUSH2 0x3E7 JUMP JUMPDEST SWAP2 POP PUSH2 0x663 DUP3 PUSH2 0x624 JUMP JUMPDEST PUSH1 0x20 DUP3 ADD SWAP1 POP SWAP2 SWAP1 POP JUMP JUMPDEST PUSH0 PUSH1 0x40 DUP3 ADD SWAP1 POP PUSH2 0x681 PUSH0 DUP4 ADD DUP5 PUSH2 0x4F6 JUMP JUMPDEST DUP2 DUP2 SUB PUSH1 0x20 DUP4 ADD MSTORE PUSH2 0x692 DUP2 PUSH2 0x64C JUMP JUMPDEST SWAP1 POP SWAP3 SWAP2 POP POP JUMP INVALID LOG2 PUSH5 0x6970667358 0x22 SLT KECCAK256 0xAB 0xF7 GASPRICE SWAP7 PUSH11 0xE4885211B5D00A8DFF38E8 EXP DUP10 0xD7 0xEB SWAP13 0xAA 0x4E MSTORE 0xD3 POP CHAINID 0xBF JUMPI 0xE6 0xEE 0x1E PUSH5 0x736F6C6343 STOP ADDMOD EQ STOP CALLER "
				},
				"gasEstimates": {
					"creation": {
						"codeDepositCost": "348800",
						"executionCost": "384",
						"totalCost": "349184"
					},
					"external": {
						"sendViaCall(address)": "infinite",
						"sendViaTransfer(address)": "infinite"
					}
				},
				"methodIdentifiers": {
					"sendViaCall(address)": "830c29ae",
					"sendViaTransfer(address)": "636e082b"
				}
			},
			"storageLayout": {
				"storage": [],
				"types": null
			},
			"userdoc": {
				"kind": "user",
				"methods": {},
				"notice": "In Solidity, both transfer and call are used to send Ether to an address. but they have significant differences in terms of gas limits, error handling, and flexibility.",
				"version": 1
			}
		}
	}
}