{
	"contracts/EWasteToken.sol": {
		"EWasteToken": {
			"abi": [
				{
					"inputs": [],
					"stateMutability": "nonpayable",
					"type": "constructor"
				},
				{
					"inputs": [],
					"name": "AccessControlBadConfirmation",
					"type": "error"
				},
				{
					"inputs": [
						{
							"internalType": "address",
							"name": "account",
							"type": "address"
						},
						{
							"internalType": "bytes32",
							"name": "neededRole",
							"type": "bytes32"
						}
					],
					"name": "AccessControlUnauthorizedAccount",
					"type": "error"
				},
				{
					"inputs": [
						{
							"internalType": "address",
							"name": "spender",
							"type": "address"
						},
						{
							"internalType": "uint256",
							"name": "allowance",
							"type": "uint256"
						},
						{
							"internalType": "uint256",
							"name": "needed",
							"type": "uint256"
						}
					],
					"name": "ERC20InsufficientAllowance",
					"type": "error"
				},
				{
					"inputs": [
						{
							"internalType": "address",
							"name": "sender",
							"type": "address"
						},
						{
							"internalType": "uint256",
							"name": "balance",
							"type": "uint256"
						},
						{
							"internalType": "uint256",
							"name": "needed",
							"type": "uint256"
						}
					],
					"name": "ERC20InsufficientBalance",
					"type": "error"
				},
				{
					"inputs": [
						{
							"internalType": "address",
							"name": "approver",
							"type": "address"
						}
					],
					"name": "ERC20InvalidApprover",
					"type": "error"
				},
				{
					"inputs": [
						{
							"internalType": "address",
							"name": "receiver",
							"type": "address"
						}
					],
					"name": "ERC20InvalidReceiver",
					"type": "error"
				},
				{
					"inputs": [
						{
							"internalType": "address",
							"name": "sender",
							"type": "address"
						}
					],
					"name": "ERC20InvalidSender",
					"type": "error"
				},
				{
					"inputs": [
						{
							"internalType": "address",
							"name": "spender",
							"type": "address"
						}
					],
					"name": "ERC20InvalidSpender",
					"type": "error"
				},
				{
					"anonymous": false,
					"inputs": [
						{
							"indexed": true,
							"internalType": "address",
							"name": "owner",
							"type": "address"
						},
						{
							"indexed": true,
							"internalType": "address",
							"name": "spender",
							"type": "address"
						},
						{
							"indexed": false,
							"internalType": "uint256",
							"name": "value",
							"type": "uint256"
						}
					],
					"name": "Approval",
					"type": "event"
				},
				{
					"anonymous": false,
					"inputs": [
						{
							"indexed": true,
							"internalType": "uint256",
							"name": "id",
							"type": "uint256"
						},
						{
							"indexed": true,
							"internalType": "address",
							"name": "collector",
							"type": "address"
						},
						{
							"indexed": false,
							"internalType": "uint256",
							"name": "reward",
							"type": "uint256"
						}
					],
					"name": "ItemCollected",
					"type": "event"
				},
				{
					"anonymous": false,
					"inputs": [
						{
							"indexed": true,
							"internalType": "uint256",
							"name": "id",
							"type": "uint256"
						},
						{
							"indexed": true,
							"internalType": "address",
							"name": "creator",
							"type": "address"
						},
						{
							"indexed": false,
							"internalType": "uint256",
							"name": "quantity",
							"type": "uint256"
						},
						{
							"indexed": false,
							"internalType": "uint256",
							"name": "weight",
							"type": "uint256"
						}
					],
					"name": "ItemCreated",
					"type": "event"
				},
				{
					"anonymous": false,
					"inputs": [
						{
							"indexed": true,
							"internalType": "uint256",
							"name": "id",
							"type": "uint256"
						},
						{
							"indexed": true,
							"internalType": "address",
							"name": "dismantler",
							"type": "address"
						},
						{
							"indexed": false,
							"internalType": "uint256",
							"name": "reward",
							"type": "uint256"
						}
					],
					"name": "ItemDismantled",
					"type": "event"
				},
				{
					"anonymous": false,
					"inputs": [
						{
							"indexed": true,
							"internalType": "uint256",
							"name": "id",
							"type": "uint256"
						},
						{
							"indexed": true,
							"internalType": "address",
							"name": "collector",
							"type": "address"
						}
					],
					"name": "ItemMarkedRepairable",
					"type": "event"
				},
				{
					"anonymous": false,
					"inputs": [
						{
							"indexed": true,
							"internalType": "uint256",
							"name": "id",
							"type": "uint256"
						},
						{
							"indexed": true,
							"internalType": "address",
							"name": "recycler",
							"type": "address"
						},
						{
							"indexed": false,
							"internalType": "uint256",
							"name": "reward",
							"type": "uint256"
						}
					],
					"name": "ItemRecycled",
					"type": "event"
				},
				{
					"anonymous": false,
					"inputs": [
						{
							"indexed": true,
							"internalType": "uint256",
							"name": "id",
							"type": "uint256"
						},
						{
							"indexed": true,
							"internalType": "address",
							"name": "repairer",
							"type": "address"
						},
						{
							"indexed": false,
							"internalType": "uint256",
							"name": "reward",
							"type": "uint256"
						}
					],
					"name": "ItemRepaired",
					"type": "event"
				},
				{
					"anonymous": false,
					"inputs": [
						{
							"indexed": true,
							"internalType": "uint256",
							"name": "id",
							"type": "uint256"
						},
						{
							"indexed": true,
							"internalType": "address",
							"name": "seller",
							"type": "address"
						}
					],
					"name": "ItemResold",
					"type": "event"
				},
				{
					"anonymous": false,
					"inputs": [
						{
							"indexed": true,
							"internalType": "uint256",
							"name": "id",
							"type": "uint256"
						},
						{
							"indexed": false,
							"internalType": "enum EWasteToken.Status",
							"name": "status",
							"type": "uint8"
						},
						{
							"indexed": false,
							"internalType": "uint256",
							"name": "baseReward",
							"type": "uint256"
						},
						{
							"indexed": false,
							"internalType": "uint256",
							"name": "quantityBonus",
							"type": "uint256"
						},
						{
							"indexed": false,
							"internalType": "uint256",
							"name": "weightBonus",
							"type": "uint256"
						},
						{
							"indexed": false,
							"internalType": "uint256",
							"name": "totalReward",
							"type": "uint256"
						}
					],
					"name": "RewardCalculated",
					"type": "event"
				},
				{
					"anonymous": false,
					"inputs": [
						{
							"indexed": true,
							"internalType": "bytes32",
							"name": "role",
							"type": "bytes32"
						},
						{
							"indexed": true,
							"internalType": "bytes32",
							"name": "previousAdminRole",
							"type": "bytes32"
						},
						{
							"indexed": true,
							"internalType": "bytes32",
							"name": "newAdminRole",
							"type": "bytes32"
						}
					],
					"name": "RoleAdminChanged",
					"type": "event"
				},
				{
					"anonymous": false,
					"inputs": [
						{
							"indexed": true,
							"internalType": "bytes32",
							"name": "role",
							"type": "bytes32"
						},
						{
							"indexed": true,
							"internalType": "address",
							"name": "account",
							"type": "address"
						},
						{
							"indexed": true,
							"internalType": "address",
							"name": "sender",
							"type": "address"
						}
					],
					"name": "RoleGranted",
					"type": "event"
				},
				{
					"anonymous": false,
					"inputs": [
						{
							"indexed": true,
							"internalType": "bytes32",
							"name": "role",
							"type": "bytes32"
						},
						{
							"indexed": true,
							"internalType": "address",
							"name": "account",
							"type": "address"
						},
						{
							"indexed": true,
							"internalType": "address",
							"name": "sender",
							"type": "address"
						}
					],
					"name": "RoleRevoked",
					"type": "event"
				},
				{
					"anonymous": false,
					"inputs": [
						{
							"indexed": true,
							"internalType": "address",
							"name": "from",
							"type": "address"
						},
						{
							"indexed": true,
							"internalType": "address",
							"name": "to",
							"type": "address"
						},
						{
							"indexed": false,
							"internalType": "uint256",
							"name": "value",
							"type": "uint256"
						}
					],
					"name": "Transfer",
					"type": "event"
				},
				{
					"inputs": [],
					"name": "ADMIN_ROLE",
					"outputs": [
						{
							"internalType": "bytes32",
							"name": "",
							"type": "bytes32"
						}
					],
					"stateMutability": "view",
					"type": "function"
				},
				{
					"inputs": [],
					"name": "BASE_COLLECTION_REWARD",
					"outputs": [
						{
							"internalType": "uint256",
							"name": "",
							"type": "uint256"
						}
					],
					"stateMutability": "view",
					"type": "function"
				},
				{
					"inputs": [],
					"name": "BASE_DISMANTLE_REWARD",
					"outputs": [
						{
							"internalType": "uint256",
							"name": "",
							"type": "uint256"
						}
					],
					"stateMutability": "view",
					"type": "function"
				},
				{
					"inputs": [],
					"name": "BASE_DISPOSAL_REWARD",
					"outputs": [
						{
							"internalType": "uint256",
							"name": "",
							"type": "uint256"
						}
					],
					"stateMutability": "view",
					"type": "function"
				},
				{
					"inputs": [],
					"name": "BASE_RECYCLING_REWARD",
					"outputs": [
						{
							"internalType": "uint256",
							"name": "",
							"type": "uint256"
						}
					],
					"stateMutability": "view",
					"type": "function"
				},
				{
					"inputs": [],
					"name": "BASE_REPAIR_REWARD",
					"outputs": [
						{
							"internalType": "uint256",
							"name": "",
							"type": "uint256"
						}
					],
					"stateMutability": "view",
					"type": "function"
				},
				{
					"inputs": [],
					"name": "COLLECTOR_ROLE",
					"outputs": [
						{
							"internalType": "bytes32",
							"name": "",
							"type": "bytes32"
						}
					],
					"stateMutability": "view",
					"type": "function"
				},
				{
					"inputs": [],
					"name": "DEFAULT_ADMIN_ROLE",
					"outputs": [
						{
							"internalType": "bytes32",
							"name": "",
							"type": "bytes32"
						}
					],
					"stateMutability": "view",
					"type": "function"
				},
				{
					"inputs": [],
					"name": "DISMANTLER_ROLE",
					"outputs": [
						{
							"internalType": "bytes32",
							"name": "",
							"type": "bytes32"
						}
					],
					"stateMutability": "view",
					"type": "function"
				},
				{
					"inputs": [],
					"name": "PER_GRAM_REWARD",
					"outputs": [
						{
							"internalType": "uint256",
							"name": "",
							"type": "uint256"
						}
					],
					"stateMutability": "view",
					"type": "function"
				},
				{
					"inputs": [],
					"name": "PER_ITEM_REWARD",
					"outputs": [
						{
							"internalType": "uint256",
							"name": "",
							"type": "uint256"
						}
					],
					"stateMutability": "view",
					"type": "function"
				},
				{
					"inputs": [],
					"name": "RECYCLER_ROLE",
					"outputs": [
						{
							"internalType": "bytes32",
							"name": "",
							"type": "bytes32"
						}
					],
					"stateMutability": "view",
					"type": "function"
				},
				{
					"inputs": [],
					"name": "REPAIRER_ROLE",
					"outputs": [
						{
							"internalType": "bytes32",
							"name": "",
							"type": "bytes32"
						}
					],
					"stateMutability": "view",
					"type": "function"
				},
				{
					"inputs": [
						{
							"internalType": "address",
							"name": "_account",
							"type": "address"
						},
						{
							"internalType": "bytes32",
							"name": "_role",
							"type": "bytes32"
						}
					],
					"name": "addRole",
					"outputs": [],
					"stateMutability": "nonpayable",
					"type": "function"
				},
				{
					"inputs": [
						{
							"internalType": "address",
							"name": "owner",
							"type": "address"
						},
						{
							"internalType": "address",
							"name": "spender",
							"type": "address"
						}
					],
					"name": "allowance",
					"outputs": [
						{
							"internalType": "uint256",
							"name": "",
							"type": "uint256"
						}
					],
					"stateMutability": "view",
					"type": "function"
				},
				{
					"inputs": [
						{
							"internalType": "address",
							"name": "spender",
							"type": "address"
						},
						{
							"internalType": "uint256",
							"name": "value",
							"type": "uint256"
						}
					],
					"name": "approve",
					"outputs": [
						{
							"internalType": "bool",
							"name": "",
							"type": "bool"
						}
					],
					"stateMutability": "nonpayable",
					"type": "function"
				},
				{
					"inputs": [
						{
							"internalType": "address",
							"name": "account",
							"type": "address"
						}
					],
					"name": "balanceOf",
					"outputs": [
						{
							"internalType": "uint256",
							"name": "",
							"type": "uint256"
						}
					],
					"stateMutability": "view",
					"type": "function"
				},
				{
					"inputs": [
						{
							"internalType": "uint256",
							"name": "_id",
							"type": "uint256"
						}
					],
					"name": "collectItem",
					"outputs": [],
					"stateMutability": "nonpayable",
					"type": "function"
				},
				{
					"inputs": [
						{
							"internalType": "string",
							"name": "_itemType",
							"type": "string"
						},
						{
							"internalType": "uint256",
							"name": "_weight",
							"type": "uint256"
						},
						{
							"internalType": "uint256",
							"name": "_quantity",
							"type": "uint256"
						},
						{
							"internalType": "bool",
							"name": "_isRepairable",
							"type": "bool"
						}
					],
					"name": "createItem",
					"outputs": [],
					"stateMutability": "nonpayable",
					"type": "function"
				},
				{
					"inputs": [],
					"name": "decimals",
					"outputs": [
						{
							"internalType": "uint8",
							"name": "",
							"type": "uint8"
						}
					],
					"stateMutability": "view",
					"type": "function"
				},
				{
					"inputs": [
						{
							"internalType": "uint256",
							"name": "_id",
							"type": "uint256"
						}
					],
					"name": "dismantleItem",
					"outputs": [],
					"stateMutability": "nonpayable",
					"type": "function"
				},
				{
					"inputs": [
						{
							"internalType": "bytes32",
							"name": "role",
							"type": "bytes32"
						}
					],
					"name": "getRoleAdmin",
					"outputs": [
						{
							"internalType": "bytes32",
							"name": "",
							"type": "bytes32"
						}
					],
					"stateMutability": "view",
					"type": "function"
				},
				{
					"inputs": [
						{
							"internalType": "bytes32",
							"name": "role",
							"type": "bytes32"
						},
						{
							"internalType": "address",
							"name": "account",
							"type": "address"
						}
					],
					"name": "grantRole",
					"outputs": [],
					"stateMutability": "nonpayable",
					"type": "function"
				},
				{
					"inputs": [
						{
							"internalType": "bytes32",
							"name": "role",
							"type": "bytes32"
						},
						{
							"internalType": "address",
							"name": "account",
							"type": "address"
						}
					],
					"name": "hasRole",
					"outputs": [
						{
							"internalType": "bool",
							"name": "",
							"type": "bool"
						}
					],
					"stateMutability": "view",
					"type": "function"
				},
				{
					"inputs": [],
					"name": "itemCounter",
					"outputs": [
						{
							"internalType": "uint256",
							"name": "",
							"type": "uint256"
						}
					],
					"stateMutability": "view",
					"type": "function"
				},
				{
					"inputs": [
						{
							"internalType": "uint256",
							"name": "_id",
							"type": "uint256"
						}
					],
					"name": "markAsRepairable",
					"outputs": [],
					"stateMutability": "nonpayable",
					"type": "function"
				},
				{
					"inputs": [
						{
							"internalType": "address",
							"name": "_to",
							"type": "address"
						},
						{
							"internalType": "uint256",
							"name": "_amount",
							"type": "uint256"
						}
					],
					"name": "mintTokens",
					"outputs": [],
					"stateMutability": "nonpayable",
					"type": "function"
				},
				{
					"inputs": [],
					"name": "name",
					"outputs": [
						{
							"internalType": "string",
							"name": "",
							"type": "string"
						}
					],
					"stateMutability": "view",
					"type": "function"
				},
				{
					"inputs": [
						{
							"internalType": "uint256",
							"name": "_id",
							"type": "uint256"
						}
					],
					"name": "recycleItem",
					"outputs": [],
					"stateMutability": "nonpayable",
					"type": "function"
				},
				{
					"inputs": [
						{
							"internalType": "bytes32",
							"name": "role",
							"type": "bytes32"
						},
						{
							"internalType": "address",
							"name": "callerConfirmation",
							"type": "address"
						}
					],
					"name": "renounceRole",
					"outputs": [],
					"stateMutability": "nonpayable",
					"type": "function"
				},
				{
					"inputs": [
						{
							"internalType": "uint256",
							"name": "_id",
							"type": "uint256"
						}
					],
					"name": "repairItem",
					"outputs": [],
					"stateMutability": "nonpayable",
					"type": "function"
				},
				{
					"inputs": [
						{
							"internalType": "uint256",
							"name": "_id",
							"type": "uint256"
						}
					],
					"name": "resellItem",
					"outputs": [],
					"stateMutability": "nonpayable",
					"type": "function"
				},
				{
					"inputs": [
						{
							"internalType": "bytes32",
							"name": "role",
							"type": "bytes32"
						},
						{
							"internalType": "address",
							"name": "account",
							"type": "address"
						}
					],
					"name": "revokeRole",
					"outputs": [],
					"stateMutability": "nonpayable",
					"type": "function"
				},
				{
					"inputs": [
						{
							"internalType": "bytes4",
							"name": "interfaceId",
							"type": "bytes4"
						}
					],
					"name": "supportsInterface",
					"outputs": [
						{
							"internalType": "bool",
							"name": "",
							"type": "bool"
						}
					],
					"stateMutability": "view",
					"type": "function"
				},
				{
					"inputs": [],
					"name": "symbol",
					"outputs": [
						{
							"internalType": "string",
							"name": "",
							"type": "string"
						}
					],
					"stateMutability": "view",
					"type": "function"
				},
				{
					"inputs": [],
					"name": "totalSupply",
					"outputs": [
						{
							"internalType": "uint256",
							"name": "",
							"type": "uint256"
						}
					],
					"stateMutability": "view",
					"type": "function"
				},
				{
					"inputs": [
						{
							"internalType": "address",
							"name": "to",
							"type": "address"
						},
						{
							"internalType": "uint256",
							"name": "value",
							"type": "uint256"
						}
					],
					"name": "transfer",
					"outputs": [
						{
							"internalType": "bool",
							"name": "",
							"type": "bool"
						}
					],
					"stateMutability": "nonpayable",
					"type": "function"
				},
				{
					"inputs": [
						{
							"internalType": "address",
							"name": "from",
							"type": "address"
						},
						{
							"internalType": "address",
							"name": "to",
							"type": "address"
						},
						{
							"internalType": "uint256",
							"name": "value",
							"type": "uint256"
						}
					],
					"name": "transferFrom",
					"outputs": [
						{
							"internalType": "bool",
							"name": "",
							"type": "bool"
						}
					],
					"stateMutability": "nonpayable",
					"type": "function"
				},
				{
					"inputs": [
						{
							"internalType": "uint256",
							"name": "",
							"type": "uint256"
						}
					],
					"name": "wasteItems",
					"outputs": [
						{
							"internalType": "uint256",
							"name": "id",
							"type": "uint256"
						},
						{
							"internalType": "address",
							"name": "creator",
							"type": "address"
						},
						{
							"internalType": "string",
							"name": "itemType",
							"type": "string"
						},
						{
							"internalType": "uint256",
							"name": "weight",
							"type": "uint256"
						},
						{
							"internalType": "uint256",
							"name": "quantity",
							"type": "uint256"
						},
						{
							"internalType": "enum EWasteToken.Status",
							"name": "status",
							"type": "uint8"
						},
						{
							"internalType": "address",
							"name": "currentHandler",
							"type": "address"
						},
						{
							"internalType": "bool",
							"name": "isRepairable",
							"type": "bool"
						}
					],
					"stateMutability": "view",
					"type": "function"
				}
			],
			"devdoc": {
				"errors": {
					"AccessControlBadConfirmation()": [
						{
							"details": "The caller of a function is not the expected one. NOTE: Don't confuse with {AccessControlUnauthorizedAccount}."
						}
					],
					"AccessControlUnauthorizedAccount(address,bytes32)": [
						{
							"details": "The `account` is missing a role."
						}
					],
					"ERC20InsufficientAllowance(address,uint256,uint256)": [
						{
							"details": "Indicates a failure with the `spender`’s `allowance`. Used in transfers.",
							"params": {
								"allowance": "Amount of tokens a `spender` is allowed to operate with.",
								"needed": "Minimum amount required to perform a transfer.",
								"spender": "Address that may be allowed to operate on tokens without being their owner."
							}
						}
					],
					"ERC20InsufficientBalance(address,uint256,uint256)": [
						{
							"details": "Indicates an error related to the current `balance` of a `sender`. Used in transfers.",
							"params": {
								"balance": "Current balance for the interacting account.",
								"needed": "Minimum amount required to perform a transfer.",
								"sender": "Address whose tokens are being transferred."
							}
						}
					],
					"ERC20InvalidApprover(address)": [
						{
							"details": "Indicates a failure with the `approver` of a token to be approved. Used in approvals.",
							"params": {
								"approver": "Address initiating an approval operation."
							}
						}
					],
					"ERC20InvalidReceiver(address)": [
						{
							"details": "Indicates a failure with the token `receiver`. Used in transfers.",
							"params": {
								"receiver": "Address to which tokens are being transferred."
							}
						}
					],
					"ERC20InvalidSender(address)": [
						{
							"details": "Indicates a failure with the token `sender`. Used in transfers.",
							"params": {
								"sender": "Address whose tokens are being transferred."
							}
						}
					],
					"ERC20InvalidSpender(address)": [
						{
							"details": "Indicates a failure with the `spender` to be approved. Used in approvals.",
							"params": {
								"spender": "Address that may be allowed to operate on tokens without being their owner."
							}
						}
					]
				},
				"events": {
					"Approval(address,address,uint256)": {
						"details": "Emitted when the allowance of a `spender` for an `owner` is set by a call to {approve}. `value` is the new allowance."
					},
					"RoleAdminChanged(bytes32,bytes32,bytes32)": {
						"details": "Emitted when `newAdminRole` is set as ``role``'s admin role, replacing `previousAdminRole` `DEFAULT_ADMIN_ROLE` is the starting admin for all roles, despite {RoleAdminChanged} not being emitted signaling this."
					},
					"RoleGranted(bytes32,address,address)": {
						"details": "Emitted when `account` is granted `role`. `sender` is the account that originated the contract call. This account bears the admin role (for the granted role). Expected in cases where the role was granted using the internal {AccessControl-_grantRole}."
					},
					"RoleRevoked(bytes32,address,address)": {
						"details": "Emitted when `account` is revoked `role`. `sender` is the account that originated the contract call:   - if using `revokeRole`, it is the admin role bearer   - if using `renounceRole`, it is the role bearer (i.e. `account`)"
					},
					"Transfer(address,address,uint256)": {
						"details": "Emitted when `value` tokens are moved from one account (`from`) to another (`to`). Note that `value` may be zero."
					}
				},
				"kind": "dev",
				"methods": {
					"allowance(address,address)": {
						"details": "See {IERC20-allowance}."
					},
					"approve(address,uint256)": {
						"details": "See {IERC20-approve}. NOTE: If `value` is the maximum `uint256`, the allowance is not updated on `transferFrom`. This is semantically equivalent to an infinite approval. Requirements: - `spender` cannot be the zero address."
					},
					"balanceOf(address)": {
						"details": "See {IERC20-balanceOf}."
					},
					"decimals()": {
						"details": "Returns the number of decimals used to get its user representation. For example, if `decimals` equals `2`, a balance of `505` tokens should be displayed to a user as `5.05` (`505 / 10 ** 2`). Tokens usually opt for a value of 18, imitating the relationship between Ether and Wei. This is the default value returned by this function, unless it's overridden. NOTE: This information is only used for _display_ purposes: it in no way affects any of the arithmetic of the contract, including {IERC20-balanceOf} and {IERC20-transfer}."
					},
					"getRoleAdmin(bytes32)": {
						"details": "Returns the admin role that controls `role`. See {grantRole} and {revokeRole}. To change a role's admin, use {_setRoleAdmin}."
					},
					"grantRole(bytes32,address)": {
						"details": "Grants `role` to `account`. If `account` had not been already granted `role`, emits a {RoleGranted} event. Requirements: - the caller must have ``role``'s admin role. May emit a {RoleGranted} event."
					},
					"hasRole(bytes32,address)": {
						"details": "Returns `true` if `account` has been granted `role`."
					},
					"name()": {
						"details": "Returns the name of the token."
					},
					"renounceRole(bytes32,address)": {
						"details": "Revokes `role` from the calling account. Roles are often managed via {grantRole} and {revokeRole}: this function's purpose is to provide a mechanism for accounts to lose their privileges if they are compromised (such as when a trusted device is misplaced). If the calling account had been revoked `role`, emits a {RoleRevoked} event. Requirements: - the caller must be `callerConfirmation`. May emit a {RoleRevoked} event."
					},
					"revokeRole(bytes32,address)": {
						"details": "Revokes `role` from `account`. If `account` had been granted `role`, emits a {RoleRevoked} event. Requirements: - the caller must have ``role``'s admin role. May emit a {RoleRevoked} event."
					},
					"supportsInterface(bytes4)": {
						"details": "See {IERC165-supportsInterface}."
					},
					"symbol()": {
						"details": "Returns the symbol of the token, usually a shorter version of the name."
					},
					"totalSupply()": {
						"details": "See {IERC20-totalSupply}."
					},
					"transfer(address,uint256)": {
						"details": "See {IERC20-transfer}. Requirements: - `to` cannot be the zero address. - the caller must have a balance of at least `value`."
					},
					"transferFrom(address,address,uint256)": {
						"details": "See {IERC20-transferFrom}. Skips emitting an {Approval} event indicating an allowance update. This is not required by the ERC. See {xref-ERC20-_approve-address-address-uint256-bool-}[_approve]. NOTE: Does not update the allowance if the current allowance is the maximum `uint256`. Requirements: - `from` and `to` cannot be the zero address. - `from` must have a balance of at least `value`. - the caller must have allowance for ``from``'s tokens of at least `value`."
					}
				},
				"version": 1
			},
			"evm": {
				"assembly": "    /* \"contracts/EWasteToken.sol\":179:8005  contract EWasteToken is ERC20, AccessControl {... */\n  mstore(0x40, 0x80)\n    /* \"contracts/EWasteToken.sol\":2461:2666  constructor() ERC20(\"EWasteToken\", \"EWT\") {... */\n  callvalue\n  dup1\n  iszero\n  tag_1\n  jumpi\n  0x00\n  dup1\n  revert\ntag_1:\n  pop\n    /* \"@openzeppelin/contracts/token/ERC20/ERC20.sol\":1601:1714  constructor(string memory name_, string memory symbol_) {... */\n  mload(0x40)\n  dup1\n  0x40\n  add\n  0x40\n  mstore\n  dup1\n  0x0b\n  dup2\n  mstore\n  0x20\n  add\n  0x455761737465546f6b656e000000000000000000000000000000000000000000\n  dup2\n  mstore\n  pop\n  mload(0x40)\n  dup1\n  0x40\n  add\n  0x40\n  mstore\n  dup1\n  0x03\n  dup2\n  mstore\n  0x20\n  add\n  0x4557540000000000000000000000000000000000000000000000000000000000\n  dup2\n  mstore\n  pop\n    /* \"@openzeppelin/contracts/token/ERC20/ERC20.sol\":1675:1680  name_ */\n  dup2\n    /* \"@openzeppelin/contracts/token/ERC20/ERC20.sol\":1667:1672  _name */\n  0x03\n    /* \"@openzeppelin/contracts/token/ERC20/ERC20.sol\":1667:1680  _name = name_ */\n  swap1\n  dup2\n  tag_5\n  swap2\n  swap1\n  tag_6\n  jump\t// in\ntag_5:\n  pop\n    /* \"@openzeppelin/contracts/token/ERC20/ERC20.sol\":1700:1707  symbol_ */\n  dup1\n    /* \"@openzeppelin/contracts/token/ERC20/ERC20.sol\":1690:1697  _symbol */\n  0x04\n    /* \"@openzeppelin/contracts/token/ERC20/ERC20.sol\":1690:1707  _symbol = symbol_ */\n  swap1\n  dup2\n  tag_7\n  swap2\n  swap1\n  tag_6\n  jump\t// in\ntag_7:\n  pop\n    /* \"@openzeppelin/contracts/token/ERC20/ERC20.sol\":1601:1714  constructor(string memory name_, string memory symbol_) {... */\n  pop\n  pop\n    /* \"contracts/EWasteToken.sol\":2514:2556  _grantRole(DEFAULT_ADMIN_ROLE, msg.sender) */\n  tag_9\n    /* \"@openzeppelin/contracts/access/AccessControl.sol\":2232:2236  0x00 */\n  0x00\n    /* \"contracts/EWasteToken.sol\":2525:2543  DEFAULT_ADMIN_ROLE */\n  dup1\n  shl\n    /* \"contracts/EWasteToken.sol\":2545:2555  msg.sender */\n  caller\n    /* \"contracts/EWasteToken.sol\":2514:2524  _grantRole */\n  shl(0x20, tag_10)\n    /* \"contracts/EWasteToken.sol\":2514:2556  _grantRole(DEFAULT_ADMIN_ROLE, msg.sender) */\n  0x20\n  shr\n  jump\t// in\ntag_9:\n  pop\n    /* \"contracts/EWasteToken.sol\":2567:2601  _grantRole(ADMIN_ROLE, msg.sender) */\n  tag_11\n    /* \"contracts/EWasteToken.sol\":580:603  keccak256(\"ADMIN_ROLE\") */\n  0xa49807205ce4d355092ef5a8a18f56e8913cf4a201fbe287825b095693c21775\n    /* \"contracts/EWasteToken.sol\":2590:2600  msg.sender */\n  caller\n    /* \"contracts/EWasteToken.sol\":2567:2577  _grantRole */\n  shl(0x20, tag_10)\n    /* \"contracts/EWasteToken.sol\":2567:2601  _grantRole(ADMIN_ROLE, msg.sender) */\n  0x20\n  shr\n  jump\t// in\ntag_11:\n  pop\n    /* \"contracts/EWasteToken.sol\":2612:2658  _mint(msg.sender, 10_000_000 * 10**decimals()) */\n  tag_12\n    /* \"contracts/EWasteToken.sol\":2618:2628  msg.sender */\n  caller\n    /* \"contracts/EWasteToken.sol\":2647:2657  decimals() */\n  tag_13\n    /* \"contracts/EWasteToken.sol\":2647:2655  decimals */\n  shl(0x20, tag_14)\n    /* \"contracts/EWasteToken.sol\":2647:2657  decimals() */\n  0x20\n  shr\n  jump\t// in\ntag_13:\n    /* \"contracts/EWasteToken.sol\":2643:2645  10 */\n  0x0a\n    /* \"contracts/EWasteToken.sol\":2643:2657  10**decimals() */\n  tag_15\n  swap2\n  swap1\n  tag_16\n  jump\t// in\ntag_15:\n    /* \"contracts/EWasteToken.sol\":2630:2640  10_000_000 */\n  0x989680\n    /* \"contracts/EWasteToken.sol\":2630:2657  10_000_000 * 10**decimals() */\n  tag_17\n  swap2\n  swap1\n  tag_18\n  jump\t// in\ntag_17:\n    /* \"contracts/EWasteToken.sol\":2612:2617  _mint */\n  shl(0x20, tag_19)\n    /* \"contracts/EWasteToken.sol\":2612:2658  _mint(msg.sender, 10_000_000 * 10**decimals()) */\n  0x20\n  shr\n  jump\t// in\ntag_12:\n    /* \"contracts/EWasteToken.sol\":179:8005  contract EWasteToken is ERC20, AccessControl {... */\n  jump(tag_20)\n    /* \"@openzeppelin/contracts/access/AccessControl.sol\":6179:6495  function _grantRole(bytes32 role, address account) internal virtual returns (bool) {... */\ntag_10:\n    /* \"@openzeppelin/contracts/access/AccessControl.sol\":6256:6260  bool */\n  0x00\n    /* \"@openzeppelin/contracts/access/AccessControl.sol\":6277:6299  hasRole(role, account) */\n  tag_22\n    /* \"@openzeppelin/contracts/access/AccessControl.sol\":6285:6289  role */\n  dup4\n    /* \"@openzeppelin/contracts/access/AccessControl.sol\":6291:6298  account */\n  dup4\n    /* \"@openzeppelin/contracts/access/AccessControl.sol\":6277:6284  hasRole */\n  shl(0x20, tag_23)\n    /* \"@openzeppelin/contracts/access/AccessControl.sol\":6277:6299  hasRole(role, account) */\n  0x20\n  shr\n  jump\t// in\ntag_22:\n    /* \"@openzeppelin/contracts/access/AccessControl.sol\":6272:6489  if (!hasRole(role, account)) {... */\n  tag_24\n  jumpi\n    /* \"@openzeppelin/contracts/access/AccessControl.sol\":6347:6351  true */\n  0x01\n    /* \"@openzeppelin/contracts/access/AccessControl.sol\":6315:6321  _roles */\n  0x05\n    /* \"@openzeppelin/contracts/access/AccessControl.sol\":6315:6327  _roles[role] */\n  0x00\n    /* \"@openzeppelin/contracts/access/AccessControl.sol\":6322:6326  role */\n  dup6\n    /* \"@openzeppelin/contracts/access/AccessControl.sol\":6315:6327  _roles[role] */\n  dup2\n  mstore\n  0x20\n  add\n  swap1\n  dup2\n  mstore\n  0x20\n  add\n  0x00\n  keccak256\n    /* \"@openzeppelin/contracts/access/AccessControl.sol\":6315:6335  _roles[role].hasRole */\n  0x00\n  add\n    /* \"@openzeppelin/contracts/access/AccessControl.sol\":6315:6344  _roles[role].hasRole[account] */\n  0x00\n    /* \"@openzeppelin/contracts/access/AccessControl.sol\":6336:6343  account */\n  dup5\n    /* \"@openzeppelin/contracts/access/AccessControl.sol\":6315:6344  _roles[role].hasRole[account] */\n  0xffffffffffffffffffffffffffffffffffffffff\n  and\n  0xffffffffffffffffffffffffffffffffffffffff\n  and\n  dup2\n  mstore\n  0x20\n  add\n  swap1\n  dup2\n  mstore\n  0x20\n  add\n  0x00\n  keccak256\n  0x00\n    /* \"@openzeppelin/contracts/access/AccessControl.sol\":6315:6351  _roles[role].hasRole[account] = true */\n  0x0100\n  exp\n  dup2\n  sload\n  dup2\n  0xff\n  mul\n  not\n  and\n  swap1\n  dup4\n  iszero\n  iszero\n  mul\n  or\n  swap1\n  sstore\n  pop\n    /* \"@openzeppelin/contracts/access/AccessControl.sol\":6397:6409  _msgSender() */\n  tag_25\n    /* \"@openzeppelin/contracts/access/AccessControl.sol\":6397:6407  _msgSender */\n  shl(0x20, tag_26)\n    /* \"@openzeppelin/contracts/access/AccessControl.sol\":6397:6409  _msgSender() */\n  0x20\n  shr\n  jump\t// in\ntag_25:\n    /* \"@openzeppelin/contracts/access/AccessControl.sol\":6370:6410  RoleGranted(role, account, _msgSender()) */\n  0xffffffffffffffffffffffffffffffffffffffff\n  and\n    /* \"@openzeppelin/contracts/access/AccessControl.sol\":6388:6395  account */\n  dup3\n    /* \"@openzeppelin/contracts/access/AccessControl.sol\":6370:6410  RoleGranted(role, account, _msgSender()) */\n  0xffffffffffffffffffffffffffffffffffffffff\n  and\n    /* \"@openzeppelin/contracts/access/AccessControl.sol\":6382:6386  role */\n  dup5\n    /* \"@openzeppelin/contracts/access/AccessControl.sol\":6370:6410  RoleGranted(role, account, _msgSender()) */\n  0x2f8788117e7eff1d82e926ec794901d17c78024a50270940304540a733656f0d\n  mload(0x40)\n  mload(0x40)\n  dup1\n  swap2\n  sub\n  swap1\n  log4\n    /* \"@openzeppelin/contracts/access/AccessControl.sol\":6431:6435  true */\n  0x01\n    /* \"@openzeppelin/contracts/access/AccessControl.sol\":6424:6435  return true */\n  swap1\n  pop\n  jump(tag_21)\n    /* \"@openzeppelin/contracts/access/AccessControl.sol\":6272:6489  if (!hasRole(role, account)) {... */\ntag_24:\n    /* \"@openzeppelin/contracts/access/AccessControl.sol\":6473:6478  false */\n  0x00\n    /* \"@openzeppelin/contracts/access/AccessControl.sol\":6466:6478  return false */\n  swap1\n  pop\n    /* \"@openzeppelin/contracts/access/AccessControl.sol\":6179:6495  function _grantRole(bytes32 role, address account) internal virtual returns (bool) {... */\ntag_21:\n  swap3\n  swap2\n  pop\n  pop\n  jump\t// out\n    /* \"@openzeppelin/contracts/token/ERC20/ERC20.sol\":2707:2789  function decimals() public view virtual returns (uint8) {... */\ntag_14:\n    /* \"@openzeppelin/contracts/token/ERC20/ERC20.sol\":2756:2761  uint8 */\n  0x00\n    /* \"@openzeppelin/contracts/token/ERC20/ERC20.sol\":2780:2782  18 */\n  0x12\n    /* \"@openzeppelin/contracts/token/ERC20/ERC20.sol\":2773:2782  return 18 */\n  swap1\n  pop\n    /* \"@openzeppelin/contracts/token/ERC20/ERC20.sol\":2707:2789  function decimals() public view virtual returns (uint8) {... */\n  swap1\n  jump\t// out\n    /* \"@openzeppelin/contracts/token/ERC20/ERC20.sol\":7458:7666  function _mint(address account, uint256 value) internal {... */\ntag_19:\n    /* \"@openzeppelin/contracts/token/ERC20/ERC20.sol\":7547:7548  0 */\n  0x00\n    /* \"@openzeppelin/contracts/token/ERC20/ERC20.sol\":7528:7549  account == address(0) */\n  0xffffffffffffffffffffffffffffffffffffffff\n  and\n    /* \"@openzeppelin/contracts/token/ERC20/ERC20.sol\":7528:7535  account */\n  dup3\n    /* \"@openzeppelin/contracts/token/ERC20/ERC20.sol\":7528:7549  account == address(0) */\n  0xffffffffffffffffffffffffffffffffffffffff\n  and\n  sub\n    /* \"@openzeppelin/contracts/token/ERC20/ERC20.sol\":7524:7615  if (account == address(0)) {... */\n  tag_30\n  jumpi\n    /* \"@openzeppelin/contracts/token/ERC20/ERC20.sol\":7601:7602  0 */\n  0x00\n    /* \"@openzeppelin/contracts/token/ERC20/ERC20.sol\":7572:7604  ERC20InvalidReceiver(address(0)) */\n  mload(0x40)\n  0xec442f0500000000000000000000000000000000000000000000000000000000\n  dup2\n  mstore\n  0x04\n  add\n  tag_31\n  swap2\n  swap1\n  tag_32\n  jump\t// in\ntag_31:\n  mload(0x40)\n  dup1\n  swap2\n  sub\n  swap1\n  revert\n    /* \"@openzeppelin/contracts/token/ERC20/ERC20.sol\":7524:7615  if (account == address(0)) {... */\ntag_30:\n    /* \"@openzeppelin/contracts/token/ERC20/ERC20.sol\":7624:7659  _update(address(0), account, value) */\n  tag_33\n    /* \"@openzeppelin/contracts/token/ERC20/ERC20.sol\":7640:7641  0 */\n  0x00\n    /* \"@openzeppelin/contracts/token/ERC20/ERC20.sol\":7644:7651  account */\n  dup4\n    /* \"@openzeppelin/contracts/token/ERC20/ERC20.sol\":7653:7658  value */\n  dup4\n    /* \"@openzeppelin/contracts/token/ERC20/ERC20.sol\":7624:7631  _update */\n  shl(0x20, tag_34)\n    /* \"@openzeppelin/contracts/token/ERC20/ERC20.sol\":7624:7659  _update(address(0), account, value) */\n  0x20\n  shr\n  jump\t// in\ntag_33:\n    /* \"@openzeppelin/contracts/token/ERC20/ERC20.sol\":7458:7666  function _mint(address account, uint256 value) internal {... */\n  pop\n  pop\n  jump\t// out\n    /* \"@openzeppelin/contracts/access/AccessControl.sol\":2854:2990  function hasRole(bytes32 role, address account) public view virtual returns (bool) {... */\ntag_23:\n    /* \"@openzeppelin/contracts/access/AccessControl.sol\":2931:2935  bool */\n  0x00\n    /* \"@openzeppelin/contracts/access/AccessControl.sol\":2954:2960  _roles */\n  0x05\n    /* \"@openzeppelin/contracts/access/AccessControl.sol\":2954:2966  _roles[role] */\n  0x00\n    /* \"@openzeppelin/contracts/access/AccessControl.sol\":2961:2965  role */\n  dup5\n    /* \"@openzeppelin/contracts/access/AccessControl.sol\":2954:2966  _roles[role] */\n  dup2\n  mstore\n  0x20\n  add\n  swap1\n  dup2\n  mstore\n  0x20\n  add\n  0x00\n  keccak256\n    /* \"@openzeppelin/contracts/access/AccessControl.sol\":2954:2974  _roles[role].hasRole */\n  0x00\n  add\n    /* \"@openzeppelin/contracts/access/AccessControl.sol\":2954:2983  _roles[role].hasRole[account] */\n  0x00\n    /* \"@openzeppelin/contracts/access/AccessControl.sol\":2975:2982  account */\n  dup4\n    /* \"@openzeppelin/contracts/access/AccessControl.sol\":2954:2983  _roles[role].hasRole[account] */\n  0xffffffffffffffffffffffffffffffffffffffff\n  and\n  0xffffffffffffffffffffffffffffffffffffffff\n  and\n  dup2\n  mstore\n  0x20\n  add\n  swap1\n  dup2\n  mstore\n  0x20\n  add\n  0x00\n  keccak256\n  0x00\n  swap1\n  sload\n  swap1\n  0x0100\n  exp\n  swap1\n  div\n  0xff\n  and\n    /* \"@openzeppelin/contracts/access/AccessControl.sol\":2947:2983  return _roles[role].hasRole[account] */\n  swap1\n  pop\n    /* \"@openzeppelin/contracts/access/AccessControl.sol\":2854:2990  function hasRole(bytes32 role, address account) public view virtual returns (bool) {... */\n  swap3\n  swap2\n  pop\n  pop\n  jump\t// out\n    /* \"@openzeppelin/contracts/utils/Context.sol\":656:752  function _msgSender() internal view virtual returns (address) {... */\ntag_26:\n    /* \"@openzeppelin/contracts/utils/Context.sol\":709:716  address */\n  0x00\n    /* \"@openzeppelin/contracts/utils/Context.sol\":735:745  msg.sender */\n  caller\n    /* \"@openzeppelin/contracts/utils/Context.sol\":728:745  return msg.sender */\n  swap1\n  pop\n    /* \"@openzeppelin/contracts/utils/Context.sol\":656:752  function _msgSender() internal view virtual returns (address) {... */\n  swap1\n  jump\t// out\n    /* \"@openzeppelin/contracts/token/ERC20/ERC20.sol\":6008:7115  function _update(address from, address to, uint256 value) internal virtual {... */\ntag_34:\n    /* \"@openzeppelin/contracts/token/ERC20/ERC20.sol\":6113:6114  0 */\n  0x00\n    /* \"@openzeppelin/contracts/token/ERC20/ERC20.sol\":6097:6115  from == address(0) */\n  0xffffffffffffffffffffffffffffffffffffffff\n  and\n    /* \"@openzeppelin/contracts/token/ERC20/ERC20.sol\":6097:6101  from */\n  dup4\n    /* \"@openzeppelin/contracts/token/ERC20/ERC20.sol\":6097:6115  from == address(0) */\n  0xffffffffffffffffffffffffffffffffffffffff\n  and\n  sub\n    /* \"@openzeppelin/contracts/token/ERC20/ERC20.sol\":6093:6633  if (from == address(0)) {... */\n  tag_38\n  jumpi\n    /* \"@openzeppelin/contracts/token/ERC20/ERC20.sol\":6249:6254  value */\n  dup1\n    /* \"@openzeppelin/contracts/token/ERC20/ERC20.sol\":6233:6245  _totalSupply */\n  0x02\n  0x00\n    /* \"@openzeppelin/contracts/token/ERC20/ERC20.sol\":6233:6254  _totalSupply += value */\n  dup3\n  dup3\n  sload\n  tag_39\n  swap2\n  swap1\n  tag_40\n  jump\t// in\ntag_39:\n  swap3\n  pop\n  pop\n  dup2\n  swap1\n  sstore\n  pop\n    /* \"@openzeppelin/contracts/token/ERC20/ERC20.sol\":6093:6633  if (from == address(0)) {... */\n  jump(tag_41)\ntag_38:\n    /* \"@openzeppelin/contracts/token/ERC20/ERC20.sol\":6285:6304  uint256 fromBalance */\n  0x00\n    /* \"@openzeppelin/contracts/token/ERC20/ERC20.sol\":6307:6316  _balances */\n  dup1\n    /* \"@openzeppelin/contracts/token/ERC20/ERC20.sol\":6307:6322  _balances[from] */\n  0x00\n    /* \"@openzeppelin/contracts/token/ERC20/ERC20.sol\":6317:6321  from */\n  dup6\n    /* \"@openzeppelin/contracts/token/ERC20/ERC20.sol\":6307:6322  _balances[from] */\n  0xffffffffffffffffffffffffffffffffffffffff\n  and\n  0xffffffffffffffffffffffffffffffffffffffff\n  and\n  dup2\n  mstore\n  0x20\n  add\n  swap1\n  dup2\n  mstore\n  0x20\n  add\n  0x00\n  keccak256\n  sload\n    /* \"@openzeppelin/contracts/token/ERC20/ERC20.sol\":6285:6322  uint256 fromBalance = _balances[from] */\n  swap1\n  pop\n    /* \"@openzeppelin/contracts/token/ERC20/ERC20.sol\":6354:6359  value */\n  dup2\n    /* \"@openzeppelin/contracts/token/ERC20/ERC20.sol\":6340:6351  fromBalance */\n  dup2\n    /* \"@openzeppelin/contracts/token/ERC20/ERC20.sol\":6340:6359  fromBalance < value */\n  lt\n    /* \"@openzeppelin/contracts/token/ERC20/ERC20.sol\":6336:6451  if (fromBalance < value) {... */\n  iszero\n  tag_42\n  jumpi\n    /* \"@openzeppelin/contracts/token/ERC20/ERC20.sol\":6411:6415  from */\n  dup4\n    /* \"@openzeppelin/contracts/token/ERC20/ERC20.sol\":6417:6428  fromBalance */\n  dup2\n    /* \"@openzeppelin/contracts/token/ERC20/ERC20.sol\":6430:6435  value */\n  dup4\n    /* \"@openzeppelin/contracts/token/ERC20/ERC20.sol\":6386:6436  ERC20InsufficientBalance(from, fromBalance, value) */\n  mload(0x40)\n  0xe450d38c00000000000000000000000000000000000000000000000000000000\n  dup2\n  mstore\n  0x04\n  add\n  tag_43\n  swap4\n  swap3\n  swap2\n  swap1\n  tag_44\n  jump\t// in\ntag_43:\n  mload(0x40)\n  dup1\n  swap2\n  sub\n  swap1\n  revert\n    /* \"@openzeppelin/contracts/token/ERC20/ERC20.sol\":6336:6451  if (fromBalance < value) {... */\ntag_42:\n    /* \"@openzeppelin/contracts/token/ERC20/ERC20.sol\":6603:6608  value */\n  dup2\n    /* \"@openzeppelin/contracts/token/ERC20/ERC20.sol\":6589:6600  fromBalance */\n  dup2\n    /* \"@openzeppelin/contracts/token/ERC20/ERC20.sol\":6589:6608  fromBalance - value */\n  sub\n    /* \"@openzeppelin/contracts/token/ERC20/ERC20.sol\":6571:6580  _balances */\n  0x00\n    /* \"@openzeppelin/contracts/token/ERC20/ERC20.sol\":6571:6586  _balances[from] */\n  dup1\n    /* \"@openzeppelin/contracts/token/ERC20/ERC20.sol\":6581:6585  from */\n  dup7\n    /* \"@openzeppelin/contracts/token/ERC20/ERC20.sol\":6571:6586  _balances[from] */\n  0xffffffffffffffffffffffffffffffffffffffff\n  and\n  0xffffffffffffffffffffffffffffffffffffffff\n  and\n  dup2\n  mstore\n  0x20\n  add\n  swap1\n  dup2\n  mstore\n  0x20\n  add\n  0x00\n  keccak256\n    /* \"@openzeppelin/contracts/token/ERC20/ERC20.sol\":6571:6608  _balances[from] = fromBalance - value */\n  dup2\n  swap1\n  sstore\n  pop\n    /* \"@openzeppelin/contracts/token/ERC20/ERC20.sol\":6271:6633  {... */\n  pop\n    /* \"@openzeppelin/contracts/token/ERC20/ERC20.sol\":6093:6633  if (from == address(0)) {... */\ntag_41:\n    /* \"@openzeppelin/contracts/token/ERC20/ERC20.sol\":6661:6662  0 */\n  0x00\n    /* \"@openzeppelin/contracts/token/ERC20/ERC20.sol\":6647:6663  to == address(0) */\n  0xffffffffffffffffffffffffffffffffffffffff\n  and\n    /* \"@openzeppelin/contracts/token/ERC20/ERC20.sol\":6647:6649  to */\n  dup3\n    /* \"@openzeppelin/contracts/token/ERC20/ERC20.sol\":6647:6663  to == address(0) */\n  0xffffffffffffffffffffffffffffffffffffffff\n  and\n  sub\n    /* \"@openzeppelin/contracts/token/ERC20/ERC20.sol\":6643:7068  if (to == address(0)) {... */\n  tag_45\n  jumpi\n    /* \"@openzeppelin/contracts/token/ERC20/ERC20.sol\":6826:6831  value */\n  dup1\n    /* \"@openzeppelin/contracts/token/ERC20/ERC20.sol\":6810:6822  _totalSupply */\n  0x02\n  0x00\n    /* \"@openzeppelin/contracts/token/ERC20/ERC20.sol\":6810:6831  _totalSupply -= value */\n  dup3\n  dup3\n  sload\n  sub\n  swap3\n  pop\n  pop\n  dup2\n  swap1\n  sstore\n  pop\n    /* \"@openzeppelin/contracts/token/ERC20/ERC20.sol\":6643:7068  if (to == address(0)) {... */\n  jump(tag_46)\ntag_45:\n    /* \"@openzeppelin/contracts/token/ERC20/ERC20.sol\":7038:7043  value */\n  dup1\n    /* \"@openzeppelin/contracts/token/ERC20/ERC20.sol\":7021:7030  _balances */\n  0x00\n    /* \"@openzeppelin/contracts/token/ERC20/ERC20.sol\":7021:7034  _balances[to] */\n  dup1\n    /* \"@openzeppelin/contracts/token/ERC20/ERC20.sol\":7031:7033  to */\n  dup5\n    /* \"@openzeppelin/contracts/token/ERC20/ERC20.sol\":7021:7034  _balances[to] */\n  0xffffffffffffffffffffffffffffffffffffffff\n  and\n  0xffffffffffffffffffffffffffffffffffffffff\n  and\n  dup2\n  mstore\n  0x20\n  add\n  swap1\n  dup2\n  mstore\n  0x20\n  add\n  0x00\n  keccak256\n  0x00\n    /* \"@openzeppelin/contracts/token/ERC20/ERC20.sol\":7021:7043  _balances[to] += value */\n  dup3\n  dup3\n  sload\n  add\n  swap3\n  pop\n  pop\n  dup2\n  swap1\n  sstore\n  pop\n    /* \"@openzeppelin/contracts/token/ERC20/ERC20.sol\":6643:7068  if (to == address(0)) {... */\ntag_46:\n    /* \"@openzeppelin/contracts/token/ERC20/ERC20.sol\":7098:7100  to */\n  dup2\n    /* \"@openzeppelin/contracts/token/ERC20/ERC20.sol\":7083:7108  Transfer(from, to, value) */\n  0xffffffffffffffffffffffffffffffffffffffff\n  and\n    /* \"@openzeppelin/contracts/token/ERC20/ERC20.sol\":7092:7096  from */\n  dup4\n    /* \"@openzeppelin/contracts/token/ERC20/ERC20.sol\":7083:7108  Transfer(from, to, value) */\n  0xffffffffffffffffffffffffffffffffffffffff\n  and\n  0xddf252ad1be2c89b69c2b068fc378daa952ba7f163c4a11628f55a4df523b3ef\n    /* \"@openzeppelin/contracts/token/ERC20/ERC20.sol\":7102:7107  value */\n  dup4\n    /* \"@openzeppelin/contracts/token/ERC20/ERC20.sol\":7083:7108  Transfer(from, to, value) */\n  mload(0x40)\n  tag_47\n  swap2\n  swap1\n  tag_48\n  jump\t// in\ntag_47:\n  mload(0x40)\n  dup1\n  swap2\n  sub\n  swap1\n  log3\n    /* \"@openzeppelin/contracts/token/ERC20/ERC20.sol\":6008:7115  function _update(address from, address to, uint256 value) internal virtual {... */\n  pop\n  pop\n  pop\n  jump\t// out\n    /* \"#utility.yul\":7:106   */\ntag_49:\n    /* \"#utility.yul\":59:65   */\n  0x00\n    /* \"#utility.yul\":93:98   */\n  dup2\n    /* \"#utility.yul\":87:99   */\n  mload\n    /* \"#utility.yul\":77:99   */\n  swap1\n  pop\n    /* \"#utility.yul\":7:106   */\n  swap2\n  swap1\n  pop\n  jump\t// out\n    /* \"#utility.yul\":112:292   */\ntag_50:\n    /* \"#utility.yul\":160:237   */\n  0x4e487b7100000000000000000000000000000000000000000000000000000000\n    /* \"#utility.yul\":157:158   */\n  0x00\n    /* \"#utility.yul\":150:238   */\n  mstore\n    /* \"#utility.yul\":257:261   */\n  0x41\n    /* \"#utility.yul\":254:255   */\n  0x04\n    /* \"#utility.yul\":247:262   */\n  mstore\n    /* \"#utility.yul\":281:285   */\n  0x24\n    /* \"#utility.yul\":278:279   */\n  0x00\n    /* \"#utility.yul\":271:286   */\n  revert\n    /* \"#utility.yul\":298:478   */\ntag_51:\n    /* \"#utility.yul\":346:423   */\n  0x4e487b7100000000000000000000000000000000000000000000000000000000\n    /* \"#utility.yul\":343:344   */\n  0x00\n    /* \"#utility.yul\":336:424   */\n  mstore\n    /* \"#utility.yul\":443:447   */\n  0x22\n    /* \"#utility.yul\":440:441   */\n  0x04\n    /* \"#utility.yul\":433:448   */\n  mstore\n    /* \"#utility.yul\":467:471   */\n  0x24\n    /* \"#utility.yul\":464:465   */\n  0x00\n    /* \"#utility.yul\":457:472   */\n  revert\n    /* \"#utility.yul\":484:804   */\ntag_52:\n    /* \"#utility.yul\":528:534   */\n  0x00\n    /* \"#utility.yul\":565:566   */\n  0x02\n    /* \"#utility.yul\":559:563   */\n  dup3\n    /* \"#utility.yul\":555:567   */\n  div\n    /* \"#utility.yul\":545:567   */\n  swap1\n  pop\n    /* \"#utility.yul\":612:613   */\n  0x01\n    /* \"#utility.yul\":606:610   */\n  dup3\n    /* \"#utility.yul\":602:614   */\n  and\n    /* \"#utility.yul\":633:651   */\n  dup1\n    /* \"#utility.yul\":623:704   */\n  tag_83\n  jumpi\n    /* \"#utility.yul\":689:693   */\n  0x7f\n    /* \"#utility.yul\":681:687   */\n  dup3\n    /* \"#utility.yul\":677:694   */\n  and\n    /* \"#utility.yul\":667:694   */\n  swap2\n  pop\n    /* \"#utility.yul\":623:704   */\ntag_83:\n    /* \"#utility.yul\":751:753   */\n  0x20\n    /* \"#utility.yul\":743:749   */\n  dup3\n    /* \"#utility.yul\":740:754   */\n  lt\n    /* \"#utility.yul\":720:738   */\n  dup2\n    /* \"#utility.yul\":717:755   */\n  sub\n    /* \"#utility.yul\":714:798   */\n  tag_84\n  jumpi\n    /* \"#utility.yul\":770:788   */\n  tag_85\n  tag_51\n  jump\t// in\ntag_85:\n    /* \"#utility.yul\":714:798   */\ntag_84:\n    /* \"#utility.yul\":535:804   */\n  pop\n    /* \"#utility.yul\":484:804   */\n  swap2\n  swap1\n  pop\n  jump\t// out\n    /* \"#utility.yul\":810:951   */\ntag_53:\n    /* \"#utility.yul\":859:863   */\n  0x00\n    /* \"#utility.yul\":882:885   */\n  dup2\n    /* \"#utility.yul\":874:885   */\n  swap1\n  pop\n    /* \"#utility.yul\":905:908   */\n  dup2\n    /* \"#utility.yul\":902:903   */\n  0x00\n    /* \"#utility.yul\":895:909   */\n  mstore\n    /* \"#utility.yul\":939:943   */\n  0x20\n    /* \"#utility.yul\":936:937   */\n  0x00\n    /* \"#utility.yul\":926:944   */\n  keccak256\n    /* \"#utility.yul\":918:944   */\n  swap1\n  pop\n    /* \"#utility.yul\":810:951   */\n  swap2\n  swap1\n  pop\n  jump\t// out\n    /* \"#utility.yul\":957:1050   */\ntag_54:\n    /* \"#utility.yul\":994:1000   */\n  0x00\n    /* \"#utility.yul\":1041:1043   */\n  0x20\n    /* \"#utility.yul\":1036:1038   */\n  0x1f\n    /* \"#utility.yul\":1029:1034   */\n  dup4\n    /* \"#utility.yul\":1025:1039   */\n  add\n    /* \"#utility.yul\":1021:1044   */\n  div\n    /* \"#utility.yul\":1011:1044   */\n  swap1\n  pop\n    /* \"#utility.yul\":957:1050   */\n  swap2\n  swap1\n  pop\n  jump\t// out\n    /* \"#utility.yul\":1056:1163   */\ntag_55:\n    /* \"#utility.yul\":1100:1108   */\n  0x00\n    /* \"#utility.yul\":1150:1155   */\n  dup3\n    /* \"#utility.yul\":1144:1148   */\n  dup3\n    /* \"#utility.yul\":1140:1156   */\n  shl\n    /* \"#utility.yul\":1119:1156   */\n  swap1\n  pop\n    /* \"#utility.yul\":1056:1163   */\n  swap3\n  swap2\n  pop\n  pop\n  jump\t// out\n    /* \"#utility.yul\":1169:1562   */\ntag_56:\n    /* \"#utility.yul\":1238:1244   */\n  0x00\n    /* \"#utility.yul\":1288:1289   */\n  0x08\n    /* \"#utility.yul\":1276:1286   */\n  dup4\n    /* \"#utility.yul\":1272:1290   */\n  mul\n    /* \"#utility.yul\":1311:1408   */\n  tag_90\n    /* \"#utility.yul\":1341:1407   */\n  0xffffffffffffffffffffffffffffffffffffffffffffffffffffffffffffffff\n    /* \"#utility.yul\":1330:1339   */\n  dup3\n    /* \"#utility.yul\":1311:1408   */\n  tag_55\n  jump\t// in\ntag_90:\n    /* \"#utility.yul\":1429:1468   */\n  tag_91\n    /* \"#utility.yul\":1459:1467   */\n  dup7\n    /* \"#utility.yul\":1448:1457   */\n  dup4\n    /* \"#utility.yul\":1429:1468   */\n  tag_55\n  jump\t// in\ntag_91:\n    /* \"#utility.yul\":1417:1468   */\n  swap6\n  pop\n    /* \"#utility.yul\":1501:1505   */\n  dup1\n    /* \"#utility.yul\":1497:1506   */\n  not\n    /* \"#utility.yul\":1490:1495   */\n  dup5\n    /* \"#utility.yul\":1486:1507   */\n  and\n    /* \"#utility.yul\":1477:1507   */\n  swap4\n  pop\n    /* \"#utility.yul\":1550:1554   */\n  dup1\n    /* \"#utility.yul\":1540:1548   */\n  dup7\n    /* \"#utility.yul\":1536:1555   */\n  and\n    /* \"#utility.yul\":1529:1534   */\n  dup5\n    /* \"#utility.yul\":1526:1556   */\n  or\n    /* \"#utility.yul\":1516:1556   */\n  swap3\n  pop\n    /* \"#utility.yul\":1245:1562   */\n  pop\n  pop\n    /* \"#utility.yul\":1169:1562   */\n  swap4\n  swap3\n  pop\n  pop\n  pop\n  jump\t// out\n    /* \"#utility.yul\":1568:1645   */\ntag_57:\n    /* \"#utility.yul\":1605:1612   */\n  0x00\n    /* \"#utility.yul\":1634:1639   */\n  dup2\n    /* \"#utility.yul\":1623:1639   */\n  swap1\n  pop\n    /* \"#utility.yul\":1568:1645   */\n  swap2\n  swap1\n  pop\n  jump\t// out\n    /* \"#utility.yul\":1651:1711   */\ntag_58:\n    /* \"#utility.yul\":1679:1682   */\n  0x00\n    /* \"#utility.yul\":1700:1705   */\n  dup2\n    /* \"#utility.yul\":1693:1705   */\n  swap1\n  pop\n    /* \"#utility.yul\":1651:1711   */\n  swap2\n  swap1\n  pop\n  jump\t// out\n    /* \"#utility.yul\":1717:1859   */\ntag_59:\n    /* \"#utility.yul\":1767:1776   */\n  0x00\n    /* \"#utility.yul\":1800:1853   */\n  tag_95\n    /* \"#utility.yul\":1818:1852   */\n  tag_96\n    /* \"#utility.yul\":1827:1851   */\n  tag_97\n    /* \"#utility.yul\":1845:1850   */\n  dup5\n    /* \"#utility.yul\":1827:1851   */\n  tag_57\n  jump\t// in\ntag_97:\n    /* \"#utility.yul\":1818:1852   */\n  tag_58\n  jump\t// in\ntag_96:\n    /* \"#utility.yul\":1800:1853   */\n  tag_57\n  jump\t// in\ntag_95:\n    /* \"#utility.yul\":1787:1853   */\n  swap1\n  pop\n    /* \"#utility.yul\":1717:1859   */\n  swap2\n  swap1\n  pop\n  jump\t// out\n    /* \"#utility.yul\":1865:1940   */\ntag_60:\n    /* \"#utility.yul\":1908:1911   */\n  0x00\n    /* \"#utility.yul\":1929:1934   */\n  dup2\n    /* \"#utility.yul\":1922:1934   */\n  swap1\n  pop\n    /* \"#utility.yul\":1865:1940   */\n  swap2\n  swap1\n  pop\n  jump\t// out\n    /* \"#utility.yul\":1946:2215   */\ntag_61:\n    /* \"#utility.yul\":2056:2095   */\n  tag_100\n    /* \"#utility.yul\":2087:2094   */\n  dup4\n    /* \"#utility.yul\":2056:2095   */\n  tag_59\n  jump\t// in\ntag_100:\n    /* \"#utility.yul\":2117:2208   */\n  tag_101\n    /* \"#utility.yul\":2166:2207   */\n  tag_102\n    /* \"#utility.yul\":2190:2206   */\n  dup3\n    /* \"#utility.yul\":2166:2207   */\n  tag_60\n  jump\t// in\ntag_102:\n    /* \"#utility.yul\":2158:2164   */\n  dup5\n    /* \"#utility.yul\":2151:2155   */\n  dup5\n    /* \"#utility.yul\":2145:2156   */\n  sload\n    /* \"#utility.yul\":2117:2208   */\n  tag_56\n  jump\t// in\ntag_101:\n    /* \"#utility.yul\":2111:2115   */\n  dup3\n    /* \"#utility.yul\":2104:2209   */\n  sstore\n    /* \"#utility.yul\":2022:2215   */\n  pop\n    /* \"#utility.yul\":1946:2215   */\n  pop\n  pop\n  pop\n  jump\t// out\n    /* \"#utility.yul\":2221:2294   */\ntag_62:\n    /* \"#utility.yul\":2266:2269   */\n  0x00\n    /* \"#utility.yul\":2221:2294   */\n  swap1\n  jump\t// out\n    /* \"#utility.yul\":2300:2489   */\ntag_63:\n    /* \"#utility.yul\":2377:2409   */\n  tag_105\n  tag_62\n  jump\t// in\ntag_105:\n    /* \"#utility.yul\":2418:2483   */\n  tag_106\n    /* \"#utility.yul\":2476:2482   */\n  dup2\n    /* \"#utility.yul\":2468:2474   */\n  dup5\n    /* \"#utility.yul\":2462:2466   */\n  dup5\n    /* \"#utility.yul\":2418:2483   */\n  tag_61\n  jump\t// in\ntag_106:\n    /* \"#utility.yul\":2353:2489   */\n  pop\n    /* \"#utility.yul\":2300:2489   */\n  pop\n  pop\n  jump\t// out\n    /* \"#utility.yul\":2495:2681   */\ntag_64:\n    /* \"#utility.yul\":2555:2675   */\ntag_108:\n    /* \"#utility.yul\":2572:2575   */\n  dup2\n    /* \"#utility.yul\":2565:2570   */\n  dup2\n    /* \"#utility.yul\":2562:2576   */\n  lt\n    /* \"#utility.yul\":2555:2675   */\n  iszero\n  tag_110\n  jumpi\n    /* \"#utility.yul\":2626:2665   */\n  tag_111\n    /* \"#utility.yul\":2663:2664   */\n  0x00\n    /* \"#utility.yul\":2656:2661   */\n  dup3\n    /* \"#utility.yul\":2626:2665   */\n  tag_63\n  jump\t// in\ntag_111:\n    /* \"#utility.yul\":2599:2600   */\n  0x01\n    /* \"#utility.yul\":2592:2597   */\n  dup2\n    /* \"#utility.yul\":2588:2601   */\n  add\n    /* \"#utility.yul\":2579:2601   */\n  swap1\n  pop\n    /* \"#utility.yul\":2555:2675   */\n  jump(tag_108)\ntag_110:\n    /* \"#utility.yul\":2495:2681   */\n  pop\n  pop\n  jump\t// out\n    /* \"#utility.yul\":2687:3230   */\ntag_65:\n    /* \"#utility.yul\":2788:2790   */\n  0x1f\n    /* \"#utility.yul\":2783:2786   */\n  dup3\n    /* \"#utility.yul\":2780:2791   */\n  gt\n    /* \"#utility.yul\":2777:3223   */\n  iszero\n  tag_113\n  jumpi\n    /* \"#utility.yul\":2822:2860   */\n  tag_114\n    /* \"#utility.yul\":2854:2859   */\n  dup2\n    /* \"#utility.yul\":2822:2860   */\n  tag_53\n  jump\t// in\ntag_114:\n    /* \"#utility.yul\":2906:2935   */\n  tag_115\n    /* \"#utility.yul\":2924:2934   */\n  dup5\n    /* \"#utility.yul\":2906:2935   */\n  tag_54\n  jump\t// in\ntag_115:\n    /* \"#utility.yul\":2896:2904   */\n  dup2\n    /* \"#utility.yul\":2892:2936   */\n  add\n    /* \"#utility.yul\":3089:3091   */\n  0x20\n    /* \"#utility.yul\":3077:3087   */\n  dup6\n    /* \"#utility.yul\":3074:3092   */\n  lt\n    /* \"#utility.yul\":3071:3120   */\n  iszero\n  tag_116\n  jumpi\n    /* \"#utility.yul\":3110:3118   */\n  dup2\n    /* \"#utility.yul\":3095:3118   */\n  swap1\n  pop\n    /* \"#utility.yul\":3071:3120   */\ntag_116:\n    /* \"#utility.yul\":3133:3213   */\n  tag_117\n    /* \"#utility.yul\":3189:3211   */\n  tag_118\n    /* \"#utility.yul\":3207:3210   */\n  dup6\n    /* \"#utility.yul\":3189:3211   */\n  tag_54\n  jump\t// in\ntag_118:\n    /* \"#utility.yul\":3179:3187   */\n  dup4\n    /* \"#utility.yul\":3175:3212   */\n  add\n    /* \"#utility.yul\":3162:3173   */\n  dup3\n    /* \"#utility.yul\":3133:3213   */\n  tag_64\n  jump\t// in\ntag_117:\n    /* \"#utility.yul\":2792:3223   */\n  pop\n  pop\n    /* \"#utility.yul\":2777:3223   */\ntag_113:\n    /* \"#utility.yul\":2687:3230   */\n  pop\n  pop\n  pop\n  jump\t// out\n    /* \"#utility.yul\":3236:3353   */\ntag_66:\n    /* \"#utility.yul\":3290:3298   */\n  0x00\n    /* \"#utility.yul\":3340:3345   */\n  dup3\n    /* \"#utility.yul\":3334:3338   */\n  dup3\n    /* \"#utility.yul\":3330:3346   */\n  shr\n    /* \"#utility.yul\":3309:3346   */\n  swap1\n  pop\n    /* \"#utility.yul\":3236:3353   */\n  swap3\n  swap2\n  pop\n  pop\n  jump\t// out\n    /* \"#utility.yul\":3359:3528   */\ntag_67:\n    /* \"#utility.yul\":3403:3409   */\n  0x00\n    /* \"#utility.yul\":3436:3487   */\n  tag_121\n    /* \"#utility.yul\":3484:3485   */\n  0x00\n    /* \"#utility.yul\":3480:3486   */\n  not\n    /* \"#utility.yul\":3472:3477   */\n  dup5\n    /* \"#utility.yul\":3469:3470   */\n  0x08\n    /* \"#utility.yul\":3465:3478   */\n  mul\n    /* \"#utility.yul\":3436:3487   */\n  tag_66\n  jump\t// in\ntag_121:\n    /* \"#utility.yul\":3432:3488   */\n  not\n    /* \"#utility.yul\":3517:3521   */\n  dup1\n    /* \"#utility.yul\":3511:3515   */\n  dup4\n    /* \"#utility.yul\":3507:3522   */\n  and\n    /* \"#utility.yul\":3497:3522   */\n  swap2\n  pop\n    /* \"#utility.yul\":3410:3528   */\n  pop\n    /* \"#utility.yul\":3359:3528   */\n  swap3\n  swap2\n  pop\n  pop\n  jump\t// out\n    /* \"#utility.yul\":3533:3828   */\ntag_68:\n    /* \"#utility.yul\":3609:3613   */\n  0x00\n    /* \"#utility.yul\":3755:3784   */\n  tag_123\n    /* \"#utility.yul\":3780:3783   */\n  dup4\n    /* \"#utility.yul\":3774:3778   */\n  dup4\n    /* \"#utility.yul\":3755:3784   */\n  tag_67\n  jump\t// in\ntag_123:\n    /* \"#utility.yul\":3747:3784   */\n  swap2\n  pop\n    /* \"#utility.yul\":3817:3820   */\n  dup3\n    /* \"#utility.yul\":3814:3815   */\n  0x02\n    /* \"#utility.yul\":3810:3821   */\n  mul\n    /* \"#utility.yul\":3804:3808   */\n  dup3\n    /* \"#utility.yul\":3801:3822   */\n  or\n    /* \"#utility.yul\":3793:3822   */\n  swap1\n  pop\n    /* \"#utility.yul\":3533:3828   */\n  swap3\n  swap2\n  pop\n  pop\n  jump\t// out\n    /* \"#utility.yul\":3833:5228   */\ntag_6:\n    /* \"#utility.yul\":3950:3987   */\n  tag_125\n    /* \"#utility.yul\":3983:3986   */\n  dup3\n    /* \"#utility.yul\":3950:3987   */\n  tag_49\n  jump\t// in\ntag_125:\n    /* \"#utility.yul\":4052:4070   */\n  0xffffffffffffffff\n    /* \"#utility.yul\":4044:4050   */\n  dup2\n    /* \"#utility.yul\":4041:4071   */\n  gt\n    /* \"#utility.yul\":4038:4094   */\n  iszero\n  tag_126\n  jumpi\n    /* \"#utility.yul\":4074:4092   */\n  tag_127\n  tag_50\n  jump\t// in\ntag_127:\n    /* \"#utility.yul\":4038:4094   */\ntag_126:\n    /* \"#utility.yul\":4118:4156   */\n  tag_128\n    /* \"#utility.yul\":4150:4154   */\n  dup3\n    /* \"#utility.yul\":4144:4155   */\n  sload\n    /* \"#utility.yul\":4118:4156   */\n  tag_52\n  jump\t// in\ntag_128:\n    /* \"#utility.yul\":4203:4270   */\n  tag_129\n    /* \"#utility.yul\":4263:4269   */\n  dup3\n    /* \"#utility.yul\":4255:4261   */\n  dup3\n    /* \"#utility.yul\":4249:4253   */\n  dup6\n    /* \"#utility.yul\":4203:4270   */\n  tag_65\n  jump\t// in\ntag_129:\n    /* \"#utility.yul\":4297:4298   */\n  0x00\n    /* \"#utility.yul\":4321:4325   */\n  0x20\n    /* \"#utility.yul\":4308:4325   */\n  swap1\n  pop\n    /* \"#utility.yul\":4353:4355   */\n  0x1f\n    /* \"#utility.yul\":4345:4351   */\n  dup4\n    /* \"#utility.yul\":4342:4356   */\n  gt\n    /* \"#utility.yul\":4370:4371   */\n  0x01\n    /* \"#utility.yul\":4365:4983   */\n  dup2\n  eq\n  tag_131\n  jumpi\n    /* \"#utility.yul\":5027:5028   */\n  0x00\n    /* \"#utility.yul\":5044:5050   */\n  dup5\n    /* \"#utility.yul\":5041:5118   */\n  iszero\n  tag_132\n  jumpi\n    /* \"#utility.yul\":5093:5102   */\n  dup3\n    /* \"#utility.yul\":5088:5091   */\n  dup8\n    /* \"#utility.yul\":5084:5103   */\n  add\n    /* \"#utility.yul\":5078:5104   */\n  mload\n    /* \"#utility.yul\":5069:5104   */\n  swap1\n  pop\n    /* \"#utility.yul\":5041:5118   */\ntag_132:\n    /* \"#utility.yul\":5144:5211   */\n  tag_133\n    /* \"#utility.yul\":5204:5210   */\n  dup6\n    /* \"#utility.yul\":5197:5202   */\n  dup3\n    /* \"#utility.yul\":5144:5211   */\n  tag_68\n  jump\t// in\ntag_133:\n    /* \"#utility.yul\":5138:5142   */\n  dup7\n    /* \"#utility.yul\":5131:5212   */\n  sstore\n    /* \"#utility.yul\":5000:5222   */\n  pop\n    /* \"#utility.yul\":4335:5222   */\n  jump(tag_130)\n    /* \"#utility.yul\":4365:4983   */\ntag_131:\n    /* \"#utility.yul\":4417:4421   */\n  0x1f\n    /* \"#utility.yul\":4413:4422   */\n  not\n    /* \"#utility.yul\":4405:4411   */\n  dup5\n    /* \"#utility.yul\":4401:4423   */\n  and\n    /* \"#utility.yul\":4451:4488   */\n  tag_134\n    /* \"#utility.yul\":4483:4487   */\n  dup7\n    /* \"#utility.yul\":4451:4488   */\n  tag_53\n  jump\t// in\ntag_134:\n    /* \"#utility.yul\":4510:4511   */\n  0x00\n    /* \"#utility.yul\":4524:4732   */\ntag_135:\n    /* \"#utility.yul\":4538:4545   */\n  dup3\n    /* \"#utility.yul\":4535:4536   */\n  dup2\n    /* \"#utility.yul\":4532:4546   */\n  lt\n    /* \"#utility.yul\":4524:4732   */\n  iszero\n  tag_137\n  jumpi\n    /* \"#utility.yul\":4617:4626   */\n  dup5\n    /* \"#utility.yul\":4612:4615   */\n  dup10\n    /* \"#utility.yul\":4608:4627   */\n  add\n    /* \"#utility.yul\":4602:4628   */\n  mload\n    /* \"#utility.yul\":4594:4600   */\n  dup3\n    /* \"#utility.yul\":4587:4629   */\n  sstore\n    /* \"#utility.yul\":4668:4669   */\n  0x01\n    /* \"#utility.yul\":4660:4666   */\n  dup3\n    /* \"#utility.yul\":4656:4670   */\n  add\n    /* \"#utility.yul\":4646:4670   */\n  swap2\n  pop\n    /* \"#utility.yul\":4715:4717   */\n  0x20\n    /* \"#utility.yul\":4704:4713   */\n  dup6\n    /* \"#utility.yul\":4700:4718   */\n  add\n    /* \"#utility.yul\":4687:4718   */\n  swap5\n  pop\n    /* \"#utility.yul\":4561:4565   */\n  0x20\n    /* \"#utility.yul\":4558:4559   */\n  dup2\n    /* \"#utility.yul\":4554:4566   */\n  add\n    /* \"#utility.yul\":4549:4566   */\n  swap1\n  pop\n    /* \"#utility.yul\":4524:4732   */\n  jump(tag_135)\ntag_137:\n    /* \"#utility.yul\":4760:4766   */\n  dup7\n    /* \"#utility.yul\":4751:4758   */\n  dup4\n    /* \"#utility.yul\":4748:4767   */\n  lt\n    /* \"#utility.yul\":4745:4924   */\n  iszero\n  tag_138\n  jumpi\n    /* \"#utility.yul\":4818:4827   */\n  dup5\n    /* \"#utility.yul\":4813:4816   */\n  dup10\n    /* \"#utility.yul\":4809:4828   */\n  add\n    /* \"#utility.yul\":4803:4829   */\n  mload\n    /* \"#utility.yul\":4861:4909   */\n  tag_139\n    /* \"#utility.yul\":4903:4907   */\n  0x1f\n    /* \"#utility.yul\":4895:4901   */\n  dup10\n    /* \"#utility.yul\":4891:4908   */\n  and\n    /* \"#utility.yul\":4880:4889   */\n  dup3\n    /* \"#utility.yul\":4861:4909   */\n  tag_67\n  jump\t// in\ntag_139:\n    /* \"#utility.yul\":4853:4859   */\n  dup4\n    /* \"#utility.yul\":4846:4910   */\n  sstore\n    /* \"#utility.yul\":4768:4924   */\n  pop\n    /* \"#utility.yul\":4745:4924   */\ntag_138:\n    /* \"#utility.yul\":4970:4971   */\n  0x01\n    /* \"#utility.yul\":4966:4967   */\n  0x02\n    /* \"#utility.yul\":4958:4964   */\n  dup9\n    /* \"#utility.yul\":4954:4968   */\n  mul\n    /* \"#utility.yul\":4950:4972   */\n  add\n    /* \"#utility.yul\":4944:4948   */\n  dup9\n    /* \"#utility.yul\":4937:4973   */\n  sstore\n    /* \"#utility.yul\":4372:4983   */\n  pop\n  pop\n  pop\n    /* \"#utility.yul\":4335:5222   */\ntag_130:\n  pop\n    /* \"#utility.yul\":3925:5228   */\n  pop\n  pop\n  pop\n    /* \"#utility.yul\":3833:5228   */\n  pop\n  pop\n  jump\t// out\n    /* \"#utility.yul\":5234:5414   */\ntag_69:\n    /* \"#utility.yul\":5282:5359   */\n  0x4e487b7100000000000000000000000000000000000000000000000000000000\n    /* \"#utility.yul\":5279:5280   */\n  0x00\n    /* \"#utility.yul\":5272:5360   */\n  mstore\n    /* \"#utility.yul\":5379:5383   */\n  0x11\n    /* \"#utility.yul\":5376:5377   */\n  0x04\n    /* \"#utility.yul\":5369:5384   */\n  mstore\n    /* \"#utility.yul\":5403:5407   */\n  0x24\n    /* \"#utility.yul\":5400:5401   */\n  0x00\n    /* \"#utility.yul\":5393:5408   */\n  revert\n    /* \"#utility.yul\":5420:5522   */\ntag_70:\n    /* \"#utility.yul\":5462:5470   */\n  0x00\n    /* \"#utility.yul\":5509:5514   */\n  dup2\n    /* \"#utility.yul\":5506:5507   */\n  0x01\n    /* \"#utility.yul\":5502:5515   */\n  shr\n    /* \"#utility.yul\":5481:5515   */\n  swap1\n  pop\n    /* \"#utility.yul\":5420:5522   */\n  swap2\n  swap1\n  pop\n  jump\t// out\n    /* \"#utility.yul\":5528:6376   */\ntag_71:\n    /* \"#utility.yul\":5589:5594   */\n  0x00\n    /* \"#utility.yul\":5596:5600   */\n  dup1\n    /* \"#utility.yul\":5620:5626   */\n  dup3\n    /* \"#utility.yul\":5611:5626   */\n  swap2\n  pop\n    /* \"#utility.yul\":5644:5649   */\n  dup4\n    /* \"#utility.yul\":5635:5649   */\n  swap1\n  pop\n    /* \"#utility.yul\":5658:6370   */\ntag_143:\n    /* \"#utility.yul\":5679:5680   */\n  0x01\n    /* \"#utility.yul\":5669:5677   */\n  dup6\n    /* \"#utility.yul\":5666:5681   */\n  gt\n    /* \"#utility.yul\":5658:6370   */\n  iszero\n  tag_145\n  jumpi\n    /* \"#utility.yul\":5774:5778   */\n  dup1\n    /* \"#utility.yul\":5769:5772   */\n  dup7\n    /* \"#utility.yul\":5765:5779   */\n  div\n    /* \"#utility.yul\":5759:5763   */\n  dup2\n    /* \"#utility.yul\":5756:5780   */\n  gt\n    /* \"#utility.yul\":5753:5803   */\n  iszero\n  tag_146\n  jumpi\n    /* \"#utility.yul\":5783:5801   */\n  tag_147\n  tag_69\n  jump\t// in\ntag_147:\n    /* \"#utility.yul\":5753:5803   */\ntag_146:\n    /* \"#utility.yul\":5833:5834   */\n  0x01\n    /* \"#utility.yul\":5823:5831   */\n  dup6\n    /* \"#utility.yul\":5819:5835   */\n  and\n    /* \"#utility.yul\":5816:6267   */\n  iszero\n  tag_148\n  jumpi\n    /* \"#utility.yul\":6248:6252   */\n  dup1\n    /* \"#utility.yul\":6241:6246   */\n  dup3\n    /* \"#utility.yul\":6237:6253   */\n  mul\n    /* \"#utility.yul\":6228:6253   */\n  swap2\n  pop\n    /* \"#utility.yul\":5816:6267   */\ntag_148:\n    /* \"#utility.yul\":6298:6302   */\n  dup1\n    /* \"#utility.yul\":6292:6296   */\n  dup2\n    /* \"#utility.yul\":6288:6303   */\n  mul\n    /* \"#utility.yul\":6280:6303   */\n  swap1\n  pop\n    /* \"#utility.yul\":6328:6360   */\n  tag_149\n    /* \"#utility.yul\":6351:6359   */\n  dup6\n    /* \"#utility.yul\":6328:6360   */\n  tag_70\n  jump\t// in\ntag_149:\n    /* \"#utility.yul\":6316:6360   */\n  swap5\n  pop\n    /* \"#utility.yul\":5658:6370   */\n  jump(tag_143)\ntag_145:\n    /* \"#utility.yul\":5528:6376   */\n  swap5\n  pop\n  swap5\n  swap3\n  pop\n  pop\n  pop\n  jump\t// out\n    /* \"#utility.yul\":6382:7455   */\ntag_72:\n    /* \"#utility.yul\":6436:6441   */\n  0x00\n    /* \"#utility.yul\":6627:6635   */\n  dup3\n    /* \"#utility.yul\":6617:6657   */\n  tag_151\n  jumpi\n    /* \"#utility.yul\":6648:6649   */\n  0x01\n    /* \"#utility.yul\":6639:6649   */\n  swap1\n  pop\n    /* \"#utility.yul\":6650:6655   */\n  jump(tag_150)\n    /* \"#utility.yul\":6617:6657   */\ntag_151:\n    /* \"#utility.yul\":6676:6680   */\n  dup2\n    /* \"#utility.yul\":6666:6702   */\n  tag_152\n  jumpi\n    /* \"#utility.yul\":6693:6694   */\n  0x00\n    /* \"#utility.yul\":6684:6694   */\n  swap1\n  pop\n    /* \"#utility.yul\":6695:6700   */\n  jump(tag_150)\n    /* \"#utility.yul\":6666:6702   */\ntag_152:\n    /* \"#utility.yul\":6762:6766   */\n  dup2\n    /* \"#utility.yul\":6810:6811   */\n  0x01\n    /* \"#utility.yul\":6805:6832   */\n  dup2\n  eq\n  tag_154\n  jumpi\n    /* \"#utility.yul\":6846:6847   */\n  0x02\n    /* \"#utility.yul\":6841:7032   */\n  dup2\n  eq\n  tag_155\n  jumpi\n    /* \"#utility.yul\":6755:7032   */\n  jump(tag_153)\n    /* \"#utility.yul\":6805:6832   */\ntag_154:\n    /* \"#utility.yul\":6823:6824   */\n  0x01\n    /* \"#utility.yul\":6814:6824   */\n  swap2\n  pop\n    /* \"#utility.yul\":6825:6830   */\n  pop\n  jump(tag_150)\n    /* \"#utility.yul\":6841:7032   */\ntag_155:\n    /* \"#utility.yul\":6886:6889   */\n  0xff\n    /* \"#utility.yul\":6876:6884   */\n  dup5\n    /* \"#utility.yul\":6873:6890   */\n  gt\n    /* \"#utility.yul\":6870:6913   */\n  iszero\n  tag_156\n  jumpi\n    /* \"#utility.yul\":6893:6911   */\n  tag_157\n  tag_69\n  jump\t// in\ntag_157:\n    /* \"#utility.yul\":6870:6913   */\ntag_156:\n    /* \"#utility.yul\":6942:6950   */\n  dup4\n    /* \"#utility.yul\":6939:6940   */\n  0x02\n    /* \"#utility.yul\":6935:6951   */\n  exp\n    /* \"#utility.yul\":6926:6951   */\n  swap2\n  pop\n    /* \"#utility.yul\":6977:6980   */\n  dup5\n    /* \"#utility.yul\":6970:6975   */\n  dup3\n    /* \"#utility.yul\":6967:6981   */\n  gt\n    /* \"#utility.yul\":6964:7004   */\n  iszero\n  tag_158\n  jumpi\n    /* \"#utility.yul\":6984:7002   */\n  tag_159\n  tag_69\n  jump\t// in\ntag_159:\n    /* \"#utility.yul\":6964:7004   */\ntag_158:\n    /* \"#utility.yul\":7017:7022   */\n  pop\n  jump(tag_150)\n    /* \"#utility.yul\":6755:7032   */\ntag_153:\n  pop\n    /* \"#utility.yul\":7141:7143   */\n  0x20\n    /* \"#utility.yul\":7131:7139   */\n  dup4\n    /* \"#utility.yul\":7128:7144   */\n  lt\n    /* \"#utility.yul\":7122:7125   */\n  0x0133\n    /* \"#utility.yul\":7116:7120   */\n  dup4\n    /* \"#utility.yul\":7113:7126   */\n  lt\n    /* \"#utility.yul\":7109:7145   */\n  and\n    /* \"#utility.yul\":7091:7093   */\n  0x4e\n    /* \"#utility.yul\":7081:7089   */\n  dup5\n    /* \"#utility.yul\":7078:7094   */\n  lt\n    /* \"#utility.yul\":7073:7075   */\n  0x0b\n    /* \"#utility.yul\":7067:7071   */\n  dup5\n    /* \"#utility.yul\":7064:7076   */\n  lt\n    /* \"#utility.yul\":7060:7095   */\n  and\n    /* \"#utility.yul\":7044:7155   */\n  or\n    /* \"#utility.yul\":7041:7287   */\n  iszero\n  tag_160\n  jumpi\n    /* \"#utility.yul\":7197:7205   */\n  dup3\n    /* \"#utility.yul\":7191:7195   */\n  dup3\n    /* \"#utility.yul\":7187:7206   */\n  exp\n    /* \"#utility.yul\":7178:7206   */\n  swap1\n  pop\n    /* \"#utility.yul\":7232:7235   */\n  dup4\n    /* \"#utility.yul\":7225:7230   */\n  dup2\n    /* \"#utility.yul\":7222:7236   */\n  gt\n    /* \"#utility.yul\":7219:7259   */\n  iszero\n  tag_161\n  jumpi\n    /* \"#utility.yul\":7239:7257   */\n  tag_162\n  tag_69\n  jump\t// in\ntag_162:\n    /* \"#utility.yul\":7219:7259   */\ntag_161:\n    /* \"#utility.yul\":7272:7277   */\n  jump(tag_150)\n    /* \"#utility.yul\":7041:7287   */\ntag_160:\n    /* \"#utility.yul\":7312:7354   */\n  tag_163\n    /* \"#utility.yul\":7350:7353   */\n  dup5\n    /* \"#utility.yul\":7340:7348   */\n  dup5\n    /* \"#utility.yul\":7334:7338   */\n  dup5\n    /* \"#utility.yul\":7331:7332   */\n  0x01\n    /* \"#utility.yul\":7312:7354   */\n  tag_71\n  jump\t// in\ntag_163:\n    /* \"#utility.yul\":7297:7354   */\n  swap3\n  pop\n  swap1\n  pop\n    /* \"#utility.yul\":7386:7390   */\n  dup2\n    /* \"#utility.yul\":7381:7384   */\n  dup5\n    /* \"#utility.yul\":7377:7391   */\n  div\n    /* \"#utility.yul\":7370:7375   */\n  dup2\n    /* \"#utility.yul\":7367:7392   */\n  gt\n    /* \"#utility.yul\":7364:7415   */\n  iszero\n  tag_164\n  jumpi\n    /* \"#utility.yul\":7395:7413   */\n  tag_165\n  tag_69\n  jump\t// in\ntag_165:\n    /* \"#utility.yul\":7364:7415   */\ntag_164:\n    /* \"#utility.yul\":7444:7448   */\n  dup2\n    /* \"#utility.yul\":7437:7442   */\n  dup2\n    /* \"#utility.yul\":7433:7449   */\n  mul\n    /* \"#utility.yul\":7424:7449   */\n  swap1\n  pop\n    /* \"#utility.yul\":6382:7455   */\ntag_150:\n  swap4\n  swap3\n  pop\n  pop\n  pop\n  jump\t// out\n    /* \"#utility.yul\":7461:7547   */\ntag_73:\n    /* \"#utility.yul\":7496:7503   */\n  0x00\n    /* \"#utility.yul\":7536:7540   */\n  0xff\n    /* \"#utility.yul\":7529:7534   */\n  dup3\n    /* \"#utility.yul\":7525:7541   */\n  and\n    /* \"#utility.yul\":7514:7541   */\n  swap1\n  pop\n    /* \"#utility.yul\":7461:7547   */\n  swap2\n  swap1\n  pop\n  jump\t// out\n    /* \"#utility.yul\":7553:7834   */\ntag_16:\n    /* \"#utility.yul\":7611:7616   */\n  0x00\n    /* \"#utility.yul\":7635:7658   */\n  tag_168\n    /* \"#utility.yul\":7653:7657   */\n  dup3\n    /* \"#utility.yul\":7635:7658   */\n  tag_57\n  jump\t// in\ntag_168:\n    /* \"#utility.yul\":7627:7658   */\n  swap2\n  pop\n    /* \"#utility.yul\":7679:7704   */\n  tag_169\n    /* \"#utility.yul\":7695:7703   */\n  dup4\n    /* \"#utility.yul\":7679:7704   */\n  tag_73\n  jump\t// in\ntag_169:\n    /* \"#utility.yul\":7667:7704   */\n  swap3\n  pop\n    /* \"#utility.yul\":7723:7827   */\n  tag_170\n    /* \"#utility.yul\":7760:7826   */\n  0xffffffffffffffffffffffffffffffffffffffffffffffffffffffffffffffff\n    /* \"#utility.yul\":7750:7758   */\n  dup5\n    /* \"#utility.yul\":7744:7748   */\n  dup5\n    /* \"#utility.yul\":7723:7827   */\n  tag_72\n  jump\t// in\ntag_170:\n    /* \"#utility.yul\":7714:7827   */\n  swap1\n  pop\n    /* \"#utility.yul\":7553:7834   */\n  swap3\n  swap2\n  pop\n  pop\n  jump\t// out\n    /* \"#utility.yul\":7840:8250   */\ntag_18:\n    /* \"#utility.yul\":7880:7887   */\n  0x00\n    /* \"#utility.yul\":7903:7923   */\n  tag_172\n    /* \"#utility.yul\":7921:7922   */\n  dup3\n    /* \"#utility.yul\":7903:7923   */\n  tag_57\n  jump\t// in\ntag_172:\n    /* \"#utility.yul\":7898:7923   */\n  swap2\n  pop\n    /* \"#utility.yul\":7937:7957   */\n  tag_173\n    /* \"#utility.yul\":7955:7956   */\n  dup4\n    /* \"#utility.yul\":7937:7957   */\n  tag_57\n  jump\t// in\ntag_173:\n    /* \"#utility.yul\":7932:7957   */\n  swap3\n  pop\n    /* \"#utility.yul\":7992:7993   */\n  dup3\n    /* \"#utility.yul\":7989:7990   */\n  dup3\n    /* \"#utility.yul\":7985:7994   */\n  mul\n    /* \"#utility.yul\":8014:8044   */\n  tag_174\n    /* \"#utility.yul\":8032:8043   */\n  dup2\n    /* \"#utility.yul\":8014:8044   */\n  tag_57\n  jump\t// in\ntag_174:\n    /* \"#utility.yul\":8003:8044   */\n  swap2\n  pop\n    /* \"#utility.yul\":8193:8194   */\n  dup3\n    /* \"#utility.yul\":8184:8191   */\n  dup3\n    /* \"#utility.yul\":8180:8195   */\n  div\n    /* \"#utility.yul\":8177:8178   */\n  dup5\n    /* \"#utility.yul\":8174:8196   */\n  eq\n    /* \"#utility.yul\":8154:8155   */\n  dup4\n    /* \"#utility.yul\":8147:8156   */\n  iszero\n    /* \"#utility.yul\":8127:8210   */\n  or\n    /* \"#utility.yul\":8104:8243   */\n  tag_175\n  jumpi\n    /* \"#utility.yul\":8223:8241   */\n  tag_176\n  tag_69\n  jump\t// in\ntag_176:\n    /* \"#utility.yul\":8104:8243   */\ntag_175:\n    /* \"#utility.yul\":7888:8250   */\n  pop\n    /* \"#utility.yul\":7840:8250   */\n  swap3\n  swap2\n  pop\n  pop\n  jump\t// out\n    /* \"#utility.yul\":8256:8382   */\ntag_74:\n    /* \"#utility.yul\":8293:8300   */\n  0x00\n    /* \"#utility.yul\":8333:8375   */\n  0xffffffffffffffffffffffffffffffffffffffff\n    /* \"#utility.yul\":8326:8331   */\n  dup3\n    /* \"#utility.yul\":8322:8376   */\n  and\n    /* \"#utility.yul\":8311:8376   */\n  swap1\n  pop\n    /* \"#utility.yul\":8256:8382   */\n  swap2\n  swap1\n  pop\n  jump\t// out\n    /* \"#utility.yul\":8388:8484   */\ntag_75:\n    /* \"#utility.yul\":8425:8432   */\n  0x00\n    /* \"#utility.yul\":8454:8478   */\n  tag_179\n    /* \"#utility.yul\":8472:8477   */\n  dup3\n    /* \"#utility.yul\":8454:8478   */\n  tag_74\n  jump\t// in\ntag_179:\n    /* \"#utility.yul\":8443:8478   */\n  swap1\n  pop\n    /* \"#utility.yul\":8388:8484   */\n  swap2\n  swap1\n  pop\n  jump\t// out\n    /* \"#utility.yul\":8490:8608   */\ntag_76:\n    /* \"#utility.yul\":8577:8601   */\n  tag_181\n    /* \"#utility.yul\":8595:8600   */\n  dup2\n    /* \"#utility.yul\":8577:8601   */\n  tag_75\n  jump\t// in\ntag_181:\n    /* \"#utility.yul\":8572:8575   */\n  dup3\n    /* \"#utility.yul\":8565:8602   */\n  mstore\n    /* \"#utility.yul\":8490:8608   */\n  pop\n  pop\n  jump\t// out\n    /* \"#utility.yul\":8614:8836   */\ntag_32:\n    /* \"#utility.yul\":8707:8711   */\n  0x00\n    /* \"#utility.yul\":8745:8747   */\n  0x20\n    /* \"#utility.yul\":8734:8743   */\n  dup3\n    /* \"#utility.yul\":8730:8748   */\n  add\n    /* \"#utility.yul\":8722:8748   */\n  swap1\n  pop\n    /* \"#utility.yul\":8758:8829   */\n  tag_183\n    /* \"#utility.yul\":8826:8827   */\n  0x00\n    /* \"#utility.yul\":8815:8824   */\n  dup4\n    /* \"#utility.yul\":8811:8828   */\n  add\n    /* \"#utility.yul\":8802:8808   */\n  dup5\n    /* \"#utility.yul\":8758:8829   */\n  tag_76\n  jump\t// in\ntag_183:\n    /* \"#utility.yul\":8614:8836   */\n  swap3\n  swap2\n  pop\n  pop\n  jump\t// out\n    /* \"#utility.yul\":8842:9033   */\ntag_40:\n    /* \"#utility.yul\":8882:8885   */\n  0x00\n    /* \"#utility.yul\":8901:8921   */\n  tag_185\n    /* \"#utility.yul\":8919:8920   */\n  dup3\n    /* \"#utility.yul\":8901:8921   */\n  tag_57\n  jump\t// in\ntag_185:\n    /* \"#utility.yul\":8896:8921   */\n  swap2\n  pop\n    /* \"#utility.yul\":8935:8955   */\n  tag_186\n    /* \"#utility.yul\":8953:8954   */\n  dup4\n    /* \"#utility.yul\":8935:8955   */\n  tag_57\n  jump\t// in\ntag_186:\n    /* \"#utility.yul\":8930:8955   */\n  swap3\n  pop\n    /* \"#utility.yul\":8978:8979   */\n  dup3\n    /* \"#utility.yul\":8975:8976   */\n  dup3\n    /* \"#utility.yul\":8971:8980   */\n  add\n    /* \"#utility.yul\":8964:8980   */\n  swap1\n  pop\n    /* \"#utility.yul\":8999:9002   */\n  dup1\n    /* \"#utility.yul\":8996:8997   */\n  dup3\n    /* \"#utility.yul\":8993:9003   */\n  gt\n    /* \"#utility.yul\":8990:9026   */\n  iszero\n  tag_187\n  jumpi\n    /* \"#utility.yul\":9006:9024   */\n  tag_188\n  tag_69\n  jump\t// in\ntag_188:\n    /* \"#utility.yul\":8990:9026   */\ntag_187:\n    /* \"#utility.yul\":8842:9033   */\n  swap3\n  swap2\n  pop\n  pop\n  jump\t// out\n    /* \"#utility.yul\":9039:9157   */\ntag_77:\n    /* \"#utility.yul\":9126:9150   */\n  tag_190\n    /* \"#utility.yul\":9144:9149   */\n  dup2\n    /* \"#utility.yul\":9126:9150   */\n  tag_57\n  jump\t// in\ntag_190:\n    /* \"#utility.yul\":9121:9124   */\n  dup3\n    /* \"#utility.yul\":9114:9151   */\n  mstore\n    /* \"#utility.yul\":9039:9157   */\n  pop\n  pop\n  jump\t// out\n    /* \"#utility.yul\":9163:9605   */\ntag_44:\n    /* \"#utility.yul\":9312:9316   */\n  0x00\n    /* \"#utility.yul\":9350:9352   */\n  0x60\n    /* \"#utility.yul\":9339:9348   */\n  dup3\n    /* \"#utility.yul\":9335:9353   */\n  add\n    /* \"#utility.yul\":9327:9353   */\n  swap1\n  pop\n    /* \"#utility.yul\":9363:9434   */\n  tag_192\n    /* \"#utility.yul\":9431:9432   */\n  0x00\n    /* \"#utility.yul\":9420:9429   */\n  dup4\n    /* \"#utility.yul\":9416:9433   */\n  add\n    /* \"#utility.yul\":9407:9413   */\n  dup7\n    /* \"#utility.yul\":9363:9434   */\n  tag_76\n  jump\t// in\ntag_192:\n    /* \"#utility.yul\":9444:9516   */\n  tag_193\n    /* \"#utility.yul\":9512:9514   */\n  0x20\n    /* \"#utility.yul\":9501:9510   */\n  dup4\n    /* \"#utility.yul\":9497:9515   */\n  add\n    /* \"#utility.yul\":9488:9494   */\n  dup6\n    /* \"#utility.yul\":9444:9516   */\n  tag_77\n  jump\t// in\ntag_193:\n    /* \"#utility.yul\":9526:9598   */\n  tag_194\n    /* \"#utility.yul\":9594:9596   */\n  0x40\n    /* \"#utility.yul\":9583:9592   */\n  dup4\n    /* \"#utility.yul\":9579:9597   */\n  add\n    /* \"#utility.yul\":9570:9576   */\n  dup5\n    /* \"#utility.yul\":9526:9598   */\n  tag_77\n  jump\t// in\ntag_194:\n    /* \"#utility.yul\":9163:9605   */\n  swap5\n  swap4\n  pop\n  pop\n  pop\n  pop\n  jump\t// out\n    /* \"#utility.yul\":9611:9833   */\ntag_48:\n    /* \"#utility.yul\":9704:9708   */\n  0x00\n    /* \"#utility.yul\":9742:9744   */\n  0x20\n    /* \"#utility.yul\":9731:9740   */\n  dup3\n    /* \"#utility.yul\":9727:9745   */\n  add\n    /* \"#utility.yul\":9719:9745   */\n  swap1\n  pop\n    /* \"#utility.yul\":9755:9826   */\n  tag_196\n    /* \"#utility.yul\":9823:9824   */\n  0x00\n    /* \"#utility.yul\":9812:9821   */\n  dup4\n    /* \"#utility.yul\":9808:9825   */\n  add\n    /* \"#utility.yul\":9799:9805   */\n  dup5\n    /* \"#utility.yul\":9755:9826   */\n  tag_77\n  jump\t// in\ntag_196:\n    /* \"#utility.yul\":9611:9833   */\n  swap3\n  swap2\n  pop\n  pop\n  jump\t// out\n    /* \"contracts/EWasteToken.sol\":179:8005  contract EWasteToken is ERC20, AccessControl {... */\ntag_20:\n  dataSize(sub_0)\n  dup1\n  dataOffset(sub_0)\n  0x00\n  codecopy\n  0x00\n  return\nstop\n\nsub_0: assembly {\n        /* \"contracts/EWasteToken.sol\":179:8005  contract EWasteToken is ERC20, AccessControl {... */\n      mstore(0x40, 0x80)\n      callvalue\n      dup1\n      iszero\n      tag_1\n      jumpi\n      0x00\n      dup1\n      revert\n    tag_1:\n      pop\n      jumpi(tag_2, lt(calldatasize, 0x04))\n      shr(0xe0, calldataload(0x00))\n      dup1\n      0x8287662c\n      gt\n      tag_42\n      jumpi\n      dup1\n      0xb8fe58e4\n      gt\n      tag_43\n      jumpi\n      dup1\n      0xd547741f\n      gt\n      tag_44\n      jumpi\n      dup1\n      0xd547741f\n      eq\n      tag_37\n      jumpi\n      dup1\n      0xd8101dcd\n      eq\n      tag_38\n      jumpi\n      dup1\n      0xdd62ed3e\n      eq\n      tag_39\n      jumpi\n      dup1\n      0xed276caf\n      eq\n      tag_40\n      jumpi\n      dup1\n      0xf0dda65c\n      eq\n      tag_41\n      jumpi\n      jump(tag_2)\n    tag_44:\n      dup1\n      0xb8fe58e4\n      eq\n      tag_32\n      jumpi\n      dup1\n      0xbe651316\n      eq\n      tag_33\n      jumpi\n      dup1\n      0xbf313778\n      eq\n      tag_34\n      jumpi\n      dup1\n      0xc53b4b09\n      eq\n      tag_35\n      jumpi\n      dup1\n      0xcb963a39\n      eq\n      tag_36\n      jumpi\n      jump(tag_2)\n    tag_43:\n      dup1\n      0x990281b8\n      gt\n      tag_45\n      jumpi\n      dup1\n      0x990281b8\n      eq\n      tag_27\n      jumpi\n      dup1\n      0x9ca39ae9\n      eq\n      tag_28\n      jumpi\n      dup1\n      0xa217fddf\n      eq\n      tag_29\n      jumpi\n      dup1\n      0xa73f7f8a\n      eq\n      tag_30\n      jumpi\n      dup1\n      0xa9059cbb\n      eq\n      tag_31\n      jumpi\n      jump(tag_2)\n    tag_45:\n      dup1\n      0x8287662c\n      eq\n      tag_22\n      jumpi\n      dup1\n      0x855c72fb\n      eq\n      tag_23\n      jumpi\n      dup1\n      0x91810674\n      eq\n      tag_24\n      jumpi\n      dup1\n      0x91d14854\n      eq\n      tag_25\n      jumpi\n      dup1\n      0x95d89b41\n      eq\n      tag_26\n      jumpi\n      jump(tag_2)\n    tag_42:\n      dup1\n      0x313ce567\n      gt\n      tag_46\n      jumpi\n      dup1\n      0x65258b66\n      gt\n      tag_47\n      jumpi\n      dup1\n      0x65258b66\n      eq\n      tag_17\n      jumpi\n      dup1\n      0x6d6d00ed\n      eq\n      tag_18\n      jumpi\n      dup1\n      0x70a08231\n      eq\n      tag_19\n      jumpi\n      dup1\n      0x74e4d700\n      eq\n      tag_20\n      jumpi\n      dup1\n      0x75b238fc\n      eq\n      tag_21\n      jumpi\n      jump(tag_2)\n    tag_47:\n      dup1\n      0x313ce567\n      eq\n      tag_12\n      jumpi\n      dup1\n      0x352b6dc3\n      eq\n      tag_13\n      jumpi\n      dup1\n      0x3609a1eb\n      eq\n      tag_14\n      jumpi\n      dup1\n      0x36568abe\n      eq\n      tag_15\n      jumpi\n      dup1\n      0x579108f7\n      eq\n      tag_16\n      jumpi\n      jump(tag_2)\n    tag_46:\n      dup1\n      0x0f555c54\n      gt\n      tag_48\n      jumpi\n      dup1\n      0x0f555c54\n      eq\n      tag_7\n      jumpi\n      dup1\n      0x18160ddd\n      eq\n      tag_8\n      jumpi\n      dup1\n      0x23b872dd\n      eq\n      tag_9\n      jumpi\n      dup1\n      0x248a9ca3\n      eq\n      tag_10\n      jumpi\n      dup1\n      0x2f2ff15d\n      eq\n      tag_11\n      jumpi\n      jump(tag_2)\n    tag_48:\n      dup1\n      0x01ffc9a7\n      eq\n      tag_3\n      jumpi\n      dup1\n      0x06fdde03\n      eq\n      tag_4\n      jumpi\n      dup1\n      0x091929c0\n      eq\n      tag_5\n      jumpi\n      dup1\n      0x095ea7b3\n      eq\n      tag_6\n      jumpi\n    tag_2:\n      0x00\n      dup1\n      revert\n        /* \"@openzeppelin/contracts/access/AccessControl.sol\":2565:2767  function supportsInterface(bytes4 interfaceId) public view virtual override returns (bool) {... */\n    tag_3:\n      tag_49\n      0x04\n      dup1\n      calldatasize\n      sub\n      dup2\n      add\n      swap1\n      tag_50\n      swap2\n      swap1\n      tag_51\n      jump\t// in\n    tag_50:\n      tag_52\n      jump\t// in\n    tag_49:\n      mload(0x40)\n      tag_53\n      swap2\n      swap1\n      tag_54\n      jump\t// in\n    tag_53:\n      mload(0x40)\n      dup1\n      swap2\n      sub\n      swap1\n      return\n        /* \"@openzeppelin/contracts/token/ERC20/ERC20.sol\":1779:1868  function name() public view virtual returns (string memory) {... */\n    tag_4:\n      tag_55\n      tag_56\n      jump\t// in\n    tag_55:\n      mload(0x40)\n      tag_57\n      swap2\n      swap1\n      tag_58\n      jump\t// in\n    tag_57:\n      mload(0x40)\n      dup1\n      swap2\n      sub\n      swap1\n      return\n        /* \"contracts/EWasteToken.sol\":1473:1520  mapping(uint256 => WasteItem) public wasteItems */\n    tag_5:\n      tag_59\n      0x04\n      dup1\n      calldatasize\n      sub\n      dup2\n      add\n      swap1\n      tag_60\n      swap2\n      swap1\n      tag_61\n      jump\t// in\n    tag_60:\n      tag_62\n      jump\t// in\n    tag_59:\n      mload(0x40)\n      tag_63\n      swap9\n      swap8\n      swap7\n      swap6\n      swap5\n      swap4\n      swap3\n      swap2\n      swap1\n      tag_64\n      jump\t// in\n    tag_63:\n      mload(0x40)\n      dup1\n      swap2\n      sub\n      swap1\n      return\n        /* \"@openzeppelin/contracts/token/ERC20/ERC20.sol\":3998:4184  function approve(address spender, uint256 value) public virtual returns (bool) {... */\n    tag_6:\n      tag_65\n      0x04\n      dup1\n      calldatasize\n      sub\n      dup2\n      add\n      swap1\n      tag_66\n      swap2\n      swap1\n      tag_67\n      jump\t// in\n    tag_66:\n      tag_68\n      jump\t// in\n    tag_65:\n      mload(0x40)\n      tag_69\n      swap2\n      swap1\n      tag_54\n      jump\t// in\n    tag_69:\n      mload(0x40)\n      dup1\n      swap2\n      sub\n      swap1\n      return\n        /* \"contracts/EWasteToken.sol\":945:994  uint256 public constant PER_ITEM_REWARD = 1 ether */\n    tag_7:\n      tag_70\n      tag_71\n      jump\t// in\n    tag_70:\n      mload(0x40)\n      tag_72\n      swap2\n      swap1\n      tag_73\n      jump\t// in\n    tag_72:\n      mload(0x40)\n      dup1\n      swap2\n      sub\n      swap1\n      return\n        /* \"@openzeppelin/contracts/token/ERC20/ERC20.sol\":2849:2946  function totalSupply() public view virtual returns (uint256) {... */\n    tag_8:\n      tag_74\n      tag_75\n      jump\t// in\n    tag_74:\n      mload(0x40)\n      tag_76\n      swap2\n      swap1\n      tag_73\n      jump\t// in\n    tag_76:\n      mload(0x40)\n      dup1\n      swap2\n      sub\n      swap1\n      return\n        /* \"@openzeppelin/contracts/token/ERC20/ERC20.sol\":4776:5020  function transferFrom(address from, address to, uint256 value) public virtual returns (bool) {... */\n    tag_9:\n      tag_77\n      0x04\n      dup1\n      calldatasize\n      sub\n      dup2\n      add\n      swap1\n      tag_78\n      swap2\n      swap1\n      tag_79\n      jump\t// in\n    tag_78:\n      tag_80\n      jump\t// in\n    tag_77:\n      mload(0x40)\n      tag_81\n      swap2\n      swap1\n      tag_54\n      jump\t// in\n    tag_81:\n      mload(0x40)\n      dup1\n      swap2\n      sub\n      swap1\n      return\n        /* \"@openzeppelin/contracts/access/AccessControl.sol\":3810:3930  function getRoleAdmin(bytes32 role) public view virtual returns (bytes32) {... */\n    tag_10:\n      tag_82\n      0x04\n      dup1\n      calldatasize\n      sub\n      dup2\n      add\n      swap1\n      tag_83\n      swap2\n      swap1\n      tag_84\n      jump\t// in\n    tag_83:\n      tag_85\n      jump\t// in\n    tag_82:\n      mload(0x40)\n      tag_86\n      swap2\n      swap1\n      tag_87\n      jump\t// in\n    tag_86:\n      mload(0x40)\n      dup1\n      swap2\n      sub\n      swap1\n      return\n        /* \"@openzeppelin/contracts/access/AccessControl.sol\":4226:4362  function grantRole(bytes32 role, address account) public virtual onlyRole(getRoleAdmin(role)) {... */\n    tag_11:\n      tag_88\n      0x04\n      dup1\n      calldatasize\n      sub\n      dup2\n      add\n      swap1\n      tag_89\n      swap2\n      swap1\n      tag_90\n      jump\t// in\n    tag_89:\n      tag_91\n      jump\t// in\n    tag_88:\n      stop\n        /* \"@openzeppelin/contracts/token/ERC20/ERC20.sol\":2707:2789  function decimals() public view virtual returns (uint8) {... */\n    tag_12:\n      tag_92\n      tag_93\n      jump\t// in\n    tag_92:\n      mload(0x40)\n      tag_94\n      swap2\n      swap1\n      tag_95\n      jump\t// in\n    tag_94:\n      mload(0x40)\n      dup1\n      swap2\n      sub\n      swap1\n      return\n        /* \"contracts/EWasteToken.sol\":2674:3424  function createItem(... */\n    tag_13:\n      tag_96\n      0x04\n      dup1\n      calldatasize\n      sub\n      dup2\n      add\n      swap1\n      tag_97\n      swap2\n      swap1\n      tag_98\n      jump\t// in\n    tag_97:\n      tag_99\n      jump\t// in\n    tag_96:\n      stop\n        /* \"contracts/EWasteToken.sol\":3432:3830  function collectItem(uint256 _id) external onlyRole(COLLECTOR_ROLE) {... */\n    tag_14:\n      tag_100\n      0x04\n      dup1\n      calldatasize\n      sub\n      dup2\n      add\n      swap1\n      tag_101\n      swap2\n      swap1\n      tag_61\n      jump\t// in\n    tag_101:\n      tag_102\n      jump\t// in\n    tag_100:\n      stop\n        /* \"@openzeppelin/contracts/access/AccessControl.sol\":5328:5573  function renounceRole(bytes32 role, address callerConfirmation) public virtual {... */\n    tag_15:\n      tag_103\n      0x04\n      dup1\n      calldatasize\n      sub\n      dup2\n      add\n      swap1\n      tag_104\n      swap2\n      swap1\n      tag_90\n      jump\t// in\n    tag_104:\n      tag_105\n      jump\t// in\n    tag_103:\n      stop\n        /* \"contracts/EWasteToken.sol\":393:463  bytes32 public constant DISMANTLER_ROLE = keccak256(\"DISMANTLER_ROLE\") */\n    tag_16:\n      tag_106\n      tag_107\n      jump\t// in\n    tag_106:\n      mload(0x40)\n      tag_108\n      swap2\n      swap1\n      tag_87\n      jump\t// in\n    tag_108:\n      mload(0x40)\n      dup1\n      swap2\n      sub\n      swap1\n      return\n        /* \"contracts/EWasteToken.sol\":1001:1053  uint256 public constant PER_GRAM_REWARD = 0.01 ether */\n    tag_17:\n      tag_109\n      tag_110\n      jump\t// in\n    tag_109:\n      mload(0x40)\n      tag_111\n      swap2\n      swap1\n      tag_73\n      jump\t// in\n    tag_111:\n      mload(0x40)\n      dup1\n      swap2\n      sub\n      swap1\n      return\n        /* \"contracts/EWasteToken.sol\":1527:1553  uint256 public itemCounter */\n    tag_18:\n      tag_112\n      tag_113\n      jump\t// in\n    tag_112:\n      mload(0x40)\n      tag_114\n      swap2\n      swap1\n      tag_73\n      jump\t// in\n    tag_114:\n      mload(0x40)\n      dup1\n      swap2\n      sub\n      swap1\n      return\n        /* \"@openzeppelin/contracts/token/ERC20/ERC20.sol\":3004:3120  function balanceOf(address account) public view virtual returns (uint256) {... */\n    tag_19:\n      tag_115\n      0x04\n      dup1\n      calldatasize\n      sub\n      dup2\n      add\n      swap1\n      tag_116\n      swap2\n      swap1\n      tag_117\n      jump\t// in\n    tag_116:\n      tag_118\n      jump\t// in\n    tag_115:\n      mload(0x40)\n      tag_119\n      swap2\n      swap1\n      tag_73\n      jump\t// in\n    tag_119:\n      mload(0x40)\n      dup1\n      swap2\n      sub\n      swap1\n      return\n        /* \"contracts/EWasteToken.sol\":637:692  uint256 public constant BASE_DISPOSAL_REWARD = 10 ether */\n    tag_20:\n      tag_120\n      tag_121\n      jump\t// in\n    tag_120:\n      mload(0x40)\n      tag_122\n      swap2\n      swap1\n      tag_73\n      jump\t// in\n    tag_122:\n      mload(0x40)\n      dup1\n      swap2\n      sub\n      swap1\n      return\n        /* \"contracts/EWasteToken.sol\":543:603  bytes32 public constant ADMIN_ROLE = keccak256(\"ADMIN_ROLE\") */\n    tag_21:\n      tag_123\n      tag_124\n      jump\t// in\n    tag_123:\n      mload(0x40)\n      tag_125\n      swap2\n      swap1\n      tag_87\n      jump\t// in\n    tag_125:\n      mload(0x40)\n      dup1\n      swap2\n      sub\n      swap1\n      return\n        /* \"contracts/EWasteToken.sol\":4194:4600  function repairItem(uint256 _id) external onlyRole(REPAIRER_ROLE) {... */\n    tag_22:\n      tag_126\n      0x04\n      dup1\n      calldatasize\n      sub\n      dup2\n      add\n      swap1\n      tag_127\n      swap2\n      swap1\n      tag_61\n      jump\t// in\n    tag_127:\n      tag_128\n      jump\t// in\n    tag_126:\n      stop\n        /* \"contracts/EWasteToken.sol\":4608:5110  function recycleItem(uint256 _id) external onlyRole(RECYCLER_ROLE) {... */\n    tag_23:\n      tag_129\n      0x04\n      dup1\n      calldatasize\n      sub\n      dup2\n      add\n      swap1\n      tag_130\n      swap2\n      swap1\n      tag_61\n      jump\t// in\n    tag_130:\n      tag_131\n      jump\t// in\n    tag_129:\n      stop\n        /* \"contracts/EWasteToken.sol\":5118:5533  function dismantleItem(uint256 _id) external onlyRole(DISMANTLER_ROLE) {... */\n    tag_24:\n      tag_132\n      0x04\n      dup1\n      calldatasize\n      sub\n      dup2\n      add\n      swap1\n      tag_133\n      swap2\n      swap1\n      tag_61\n      jump\t// in\n    tag_133:\n      tag_134\n      jump\t// in\n    tag_132:\n      stop\n        /* \"@openzeppelin/contracts/access/AccessControl.sol\":2854:2990  function hasRole(bytes32 role, address account) public view virtual returns (bool) {... */\n    tag_25:\n      tag_135\n      0x04\n      dup1\n      calldatasize\n      sub\n      dup2\n      add\n      swap1\n      tag_136\n      swap2\n      swap1\n      tag_90\n      jump\t// in\n    tag_136:\n      tag_137\n      jump\t// in\n    tag_135:\n      mload(0x40)\n      tag_138\n      swap2\n      swap1\n      tag_54\n      jump\t// in\n    tag_138:\n      mload(0x40)\n      dup1\n      swap2\n      sub\n      swap1\n      return\n        /* \"@openzeppelin/contracts/token/ERC20/ERC20.sol\":1981:2074  function symbol() public view virtual returns (string memory) {... */\n    tag_26:\n      tag_139\n      tag_140\n      jump\t// in\n    tag_139:\n      mload(0x40)\n      tag_141\n      swap2\n      swap1\n      tag_58\n      jump\t// in\n    tag_141:\n      mload(0x40)\n      dup1\n      swap2\n      sub\n      swap1\n      return\n        /* \"contracts/EWasteToken.sol\":3838:4186  function markAsRepairable(uint256 _id) external onlyRole(COLLECTOR_ROLE) {... */\n    tag_27:\n      tag_142\n      0x04\n      dup1\n      calldatasize\n      sub\n      dup2\n      add\n      swap1\n      tag_143\n      swap2\n      swap1\n      tag_61\n      jump\t// in\n    tag_143:\n      tag_144\n      jump\t// in\n    tag_142:\n      stop\n        /* \"contracts/EWasteToken.sol\":245:313  bytes32 public constant COLLECTOR_ROLE = keccak256(\"COLLECTOR_ROLE\") */\n    tag_28:\n      tag_145\n      tag_146\n      jump\t// in\n    tag_145:\n      mload(0x40)\n      tag_147\n      swap2\n      swap1\n      tag_87\n      jump\t// in\n    tag_147:\n      mload(0x40)\n      dup1\n      swap2\n      sub\n      swap1\n      return\n        /* \"@openzeppelin/contracts/access/AccessControl.sol\":2187:2236  bytes32 public constant DEFAULT_ADMIN_ROLE = 0x00 */\n    tag_29:\n      tag_148\n      tag_149\n      jump\t// in\n    tag_148:\n      mload(0x40)\n      tag_150\n      swap2\n      swap1\n      tag_87\n      jump\t// in\n    tag_150:\n      mload(0x40)\n      dup1\n      swap2\n      sub\n      swap1\n      return\n        /* \"contracts/EWasteToken.sol\":7751:7876  function addRole(address _account, bytes32 _role) external onlyRole(ADMIN_ROLE) {... */\n    tag_30:\n      tag_151\n      0x04\n      dup1\n      calldatasize\n      sub\n      dup2\n      add\n      swap1\n      tag_152\n      swap2\n      swap1\n      tag_153\n      jump\t// in\n    tag_152:\n      tag_154\n      jump\t// in\n    tag_151:\n      stop\n        /* \"@openzeppelin/contracts/token/ERC20/ERC20.sol\":3315:3493  function transfer(address to, uint256 value) public virtual returns (bool) {... */\n    tag_31:\n      tag_155\n      0x04\n      dup1\n      calldatasize\n      sub\n      dup2\n      add\n      swap1\n      tag_156\n      swap2\n      swap1\n      tag_67\n      jump\t// in\n    tag_156:\n      tag_157\n      jump\t// in\n    tag_155:\n      mload(0x40)\n      tag_158\n      swap2\n      swap1\n      tag_54\n      jump\t// in\n    tag_158:\n      mload(0x40)\n      dup1\n      swap2\n      sub\n      swap1\n      return\n        /* \"contracts/EWasteToken.sol\":824:876  uint256 public constant BASE_REPAIR_REWARD = 8 ether */\n    tag_32:\n      tag_159\n      tag_160\n      jump\t// in\n    tag_159:\n      mload(0x40)\n      tag_161\n      swap2\n      swap1\n      tag_73\n      jump\t// in\n    tag_161:\n      mload(0x40)\n      dup1\n      swap2\n      sub\n      swap1\n      return\n        /* \"contracts/EWasteToken.sol\":470:536  bytes32 public constant REPAIRER_ROLE = keccak256(\"REPAIRER_ROLE\") */\n    tag_33:\n      tag_162\n      tag_163\n      jump\t// in\n    tag_162:\n      mload(0x40)\n      tag_164\n      swap2\n      swap1\n      tag_87\n      jump\t// in\n    tag_164:\n      mload(0x40)\n      dup1\n      swap2\n      sub\n      swap1\n      return\n        /* \"contracts/EWasteToken.sol\":320:386  bytes32 public constant RECYCLER_ROLE = keccak256(\"RECYCLER_ROLE\") */\n    tag_34:\n      tag_165\n      tag_166\n      jump\t// in\n    tag_165:\n      mload(0x40)\n      tag_167\n      swap2\n      swap1\n      tag_87\n      jump\t// in\n    tag_167:\n      mload(0x40)\n      dup1\n      swap2\n      sub\n      swap1\n      return\n        /* \"contracts/EWasteToken.sol\":762:817  uint256 public constant BASE_RECYCLING_REWARD = 7 ether */\n    tag_35:\n      tag_168\n      tag_169\n      jump\t// in\n    tag_168:\n      mload(0x40)\n      tag_170\n      swap2\n      swap1\n      tag_73\n      jump\t// in\n    tag_170:\n      mload(0x40)\n      dup1\n      swap2\n      sub\n      swap1\n      return\n        /* \"contracts/EWasteToken.sol\":699:755  uint256 public constant BASE_COLLECTION_REWARD = 5 ether */\n    tag_36:\n      tag_171\n      tag_172\n      jump\t// in\n    tag_171:\n      mload(0x40)\n      tag_173\n      swap2\n      swap1\n      tag_73\n      jump\t// in\n    tag_173:\n      mload(0x40)\n      dup1\n      swap2\n      sub\n      swap1\n      return\n        /* \"@openzeppelin/contracts/access/AccessControl.sol\":4642:4780  function revokeRole(bytes32 role, address account) public virtual onlyRole(getRoleAdmin(role)) {... */\n    tag_37:\n      tag_174\n      0x04\n      dup1\n      calldatasize\n      sub\n      dup2\n      add\n      swap1\n      tag_175\n      swap2\n      swap1\n      tag_90\n      jump\t// in\n    tag_175:\n      tag_176\n      jump\t// in\n    tag_174:\n      stop\n        /* \"contracts/EWasteToken.sol\":5541:5851  function resellItem(uint256 _id) external {... */\n    tag_38:\n      tag_177\n      0x04\n      dup1\n      calldatasize\n      sub\n      dup2\n      add\n      swap1\n      tag_178\n      swap2\n      swap1\n      tag_61\n      jump\t// in\n    tag_178:\n      tag_179\n      jump\t// in\n    tag_177:\n      stop\n        /* \"@openzeppelin/contracts/token/ERC20/ERC20.sol\":3551:3691  function allowance(address owner, address spender) public view virtual returns (uint256) {... */\n    tag_39:\n      tag_180\n      0x04\n      dup1\n      calldatasize\n      sub\n      dup2\n      add\n      swap1\n      tag_181\n      swap2\n      swap1\n      tag_182\n      jump\t// in\n    tag_181:\n      tag_183\n      jump\t// in\n    tag_180:\n      mload(0x40)\n      tag_184\n      swap2\n      swap1\n      tag_73\n      jump\t// in\n    tag_184:\n      mload(0x40)\n      dup1\n      swap2\n      sub\n      swap1\n      return\n        /* \"contracts/EWasteToken.sol\":883:938  uint256 public constant BASE_DISMANTLE_REWARD = 6 ether */\n    tag_40:\n      tag_185\n      tag_186\n      jump\t// in\n    tag_185:\n      mload(0x40)\n      tag_187\n      swap2\n      swap1\n      tag_73\n      jump\t// in\n    tag_187:\n      mload(0x40)\n      dup1\n      swap2\n      sub\n      swap1\n      return\n        /* \"contracts/EWasteToken.sol\":7884:8002  function mintTokens(address _to, uint256 _amount) external onlyRole(ADMIN_ROLE) {... */\n    tag_41:\n      tag_188\n      0x04\n      dup1\n      calldatasize\n      sub\n      dup2\n      add\n      swap1\n      tag_189\n      swap2\n      swap1\n      tag_67\n      jump\t// in\n    tag_189:\n      tag_190\n      jump\t// in\n    tag_188:\n      stop\n        /* \"@openzeppelin/contracts/access/AccessControl.sol\":2565:2767  function supportsInterface(bytes4 interfaceId) public view virtual override returns (bool) {... */\n    tag_52:\n        /* \"@openzeppelin/contracts/access/AccessControl.sol\":2650:2654  bool */\n      0x00\n        /* \"@openzeppelin/contracts/access/AccessControl.sol\":2688:2720  type(IAccessControl).interfaceId */\n      0x7965db0b00000000000000000000000000000000000000000000000000000000\n        /* \"@openzeppelin/contracts/access/AccessControl.sol\":2673:2720  interfaceId == type(IAccessControl).interfaceId */\n      not(0xffffffffffffffffffffffffffffffffffffffffffffffffffffffff)\n      and\n        /* \"@openzeppelin/contracts/access/AccessControl.sol\":2673:2684  interfaceId */\n      dup3\n        /* \"@openzeppelin/contracts/access/AccessControl.sol\":2673:2720  interfaceId == type(IAccessControl).interfaceId */\n      not(0xffffffffffffffffffffffffffffffffffffffffffffffffffffffff)\n      and\n      eq\n        /* \"@openzeppelin/contracts/access/AccessControl.sol\":2673:2760  interfaceId == type(IAccessControl).interfaceId || super.supportsInterface(interfaceId) */\n      dup1\n      tag_192\n      jumpi\n      pop\n        /* \"@openzeppelin/contracts/access/AccessControl.sol\":2724:2760  super.supportsInterface(interfaceId) */\n      tag_193\n        /* \"@openzeppelin/contracts/access/AccessControl.sol\":2748:2759  interfaceId */\n      dup3\n        /* \"@openzeppelin/contracts/access/AccessControl.sol\":2724:2747  super.supportsInterface */\n      tag_194\n        /* \"@openzeppelin/contracts/access/AccessControl.sol\":2724:2760  super.supportsInterface(interfaceId) */\n      jump\t// in\n    tag_193:\n        /* \"@openzeppelin/contracts/access/AccessControl.sol\":2673:2760  interfaceId == type(IAccessControl).interfaceId || super.supportsInterface(interfaceId) */\n    tag_192:\n        /* \"@openzeppelin/contracts/access/AccessControl.sol\":2666:2760  return interfaceId == type(IAccessControl).interfaceId || super.supportsInterface(interfaceId) */\n      swap1\n      pop\n        /* \"@openzeppelin/contracts/access/AccessControl.sol\":2565:2767  function supportsInterface(bytes4 interfaceId) public view virtual override returns (bool) {... */\n      swap2\n      swap1\n      pop\n      jump\t// out\n        /* \"@openzeppelin/contracts/token/ERC20/ERC20.sol\":1779:1868  function name() public view virtual returns (string memory) {... */\n    tag_56:\n        /* \"@openzeppelin/contracts/token/ERC20/ERC20.sol\":1824:1837  string memory */\n      0x60\n        /* \"@openzeppelin/contracts/token/ERC20/ERC20.sol\":1856:1861  _name */\n      0x03\n        /* \"@openzeppelin/contracts/token/ERC20/ERC20.sol\":1849:1861  return _name */\n      dup1\n      sload\n      tag_196\n      swap1\n      tag_197\n      jump\t// in\n    tag_196:\n      dup1\n      0x1f\n      add\n      0x20\n      dup1\n      swap2\n      div\n      mul\n      0x20\n      add\n      mload(0x40)\n      swap1\n      dup2\n      add\n      0x40\n      mstore\n      dup1\n      swap3\n      swap2\n      swap1\n      dup2\n      dup2\n      mstore\n      0x20\n      add\n      dup3\n      dup1\n      sload\n      tag_198\n      swap1\n      tag_197\n      jump\t// in\n    tag_198:\n      dup1\n      iszero\n      tag_199\n      jumpi\n      dup1\n      0x1f\n      lt\n      tag_200\n      jumpi\n      0x0100\n      dup1\n      dup4\n      sload\n      div\n      mul\n      dup4\n      mstore\n      swap2\n      0x20\n      add\n      swap2\n      jump(tag_199)\n    tag_200:\n      dup3\n      add\n      swap2\n      swap1\n      0x00\n      mstore\n      keccak256(0x00, 0x20)\n      swap1\n    tag_201:\n      dup2\n      sload\n      dup2\n      mstore\n      swap1\n      0x01\n      add\n      swap1\n      0x20\n      add\n      dup1\n      dup4\n      gt\n      tag_201\n      jumpi\n      dup3\n      swap1\n      sub\n      0x1f\n      and\n      dup3\n      add\n      swap2\n    tag_199:\n      pop\n      pop\n      pop\n      pop\n      pop\n      swap1\n      pop\n        /* \"@openzeppelin/contracts/token/ERC20/ERC20.sol\":1779:1868  function name() public view virtual returns (string memory) {... */\n      swap1\n      jump\t// out\n        /* \"contracts/EWasteToken.sol\":1473:1520  mapping(uint256 => WasteItem) public wasteItems */\n    tag_62:\n      mstore(0x20, 0x06)\n      dup1\n      0x00\n      mstore\n      keccak256(0x00, 0x40)\n      0x00\n      swap2\n      pop\n      swap1\n      pop\n      dup1\n      0x00\n      add\n      sload\n      swap1\n      dup1\n      0x01\n      add\n      0x00\n      swap1\n      sload\n      swap1\n      0x0100\n      exp\n      swap1\n      div\n      0xffffffffffffffffffffffffffffffffffffffff\n      and\n      swap1\n      dup1\n      0x02\n      add\n      dup1\n      sload\n      tag_202\n      swap1\n      tag_197\n      jump\t// in\n    tag_202:\n      dup1\n      0x1f\n      add\n      0x20\n      dup1\n      swap2\n      div\n      mul\n      0x20\n      add\n      mload(0x40)\n      swap1\n      dup2\n      add\n      0x40\n      mstore\n      dup1\n      swap3\n      swap2\n      swap1\n      dup2\n      dup2\n      mstore\n      0x20\n      add\n      dup3\n      dup1\n      sload\n      tag_203\n      swap1\n      tag_197\n      jump\t// in\n    tag_203:\n      dup1\n      iszero\n      tag_204\n      jumpi\n      dup1\n      0x1f\n      lt\n      tag_205\n      jumpi\n      0x0100\n      dup1\n      dup4\n      sload\n      div\n      mul\n      dup4\n      mstore\n      swap2\n      0x20\n      add\n      swap2\n      jump(tag_204)\n    tag_205:\n      dup3\n      add\n      swap2\n      swap1\n      0x00\n      mstore\n      keccak256(0x00, 0x20)\n      swap1\n    tag_206:\n      dup2\n      sload\n      dup2\n      mstore\n      swap1\n      0x01\n      add\n      swap1\n      0x20\n      add\n      dup1\n      dup4\n      gt\n      tag_206\n      jumpi\n      dup3\n      swap1\n      sub\n      0x1f\n      and\n      dup3\n      add\n      swap2\n    tag_204:\n      pop\n      pop\n      pop\n      pop\n      pop\n      swap1\n      dup1\n      0x03\n      add\n      sload\n      swap1\n      dup1\n      0x04\n      add\n      sload\n      swap1\n      dup1\n      0x05\n      add\n      0x00\n      swap1\n      sload\n      swap1\n      0x0100\n      exp\n      swap1\n      div\n      0xff\n      and\n      swap1\n      dup1\n      0x05\n      add\n      0x01\n      swap1\n      sload\n      swap1\n      0x0100\n      exp\n      swap1\n      div\n      0xffffffffffffffffffffffffffffffffffffffff\n      and\n      swap1\n      dup1\n      0x05\n      add\n      0x15\n      swap1\n      sload\n      swap1\n      0x0100\n      exp\n      swap1\n      div\n      0xff\n      and\n      swap1\n      pop\n      dup9\n      jump\t// out\n        /* \"@openzeppelin/contracts/token/ERC20/ERC20.sol\":3998:4184  function approve(address spender, uint256 value) public virtual returns (bool) {... */\n    tag_68:\n        /* \"@openzeppelin/contracts/token/ERC20/ERC20.sol\":4071:4075  bool */\n      0x00\n        /* \"@openzeppelin/contracts/token/ERC20/ERC20.sol\":4087:4100  address owner */\n      dup1\n        /* \"@openzeppelin/contracts/token/ERC20/ERC20.sol\":4103:4115  _msgSender() */\n      tag_208\n        /* \"@openzeppelin/contracts/token/ERC20/ERC20.sol\":4103:4113  _msgSender */\n      tag_209\n        /* \"@openzeppelin/contracts/token/ERC20/ERC20.sol\":4103:4115  _msgSender() */\n      jump\t// in\n    tag_208:\n        /* \"@openzeppelin/contracts/token/ERC20/ERC20.sol\":4087:4115  address owner = _msgSender() */\n      swap1\n      pop\n        /* \"@openzeppelin/contracts/token/ERC20/ERC20.sol\":4125:4156  _approve(owner, spender, value) */\n      tag_210\n        /* \"@openzeppelin/contracts/token/ERC20/ERC20.sol\":4134:4139  owner */\n      dup2\n        /* \"@openzeppelin/contracts/token/ERC20/ERC20.sol\":4141:4148  spender */\n      dup6\n        /* \"@openzeppelin/contracts/token/ERC20/ERC20.sol\":4150:4155  value */\n      dup6\n        /* \"@openzeppelin/contracts/token/ERC20/ERC20.sol\":4125:4133  _approve */\n      tag_211\n        /* \"@openzeppelin/contracts/token/ERC20/ERC20.sol\":4125:4156  _approve(owner, spender, value) */\n      jump\t// in\n    tag_210:\n        /* \"@openzeppelin/contracts/token/ERC20/ERC20.sol\":4173:4177  true */\n      0x01\n        /* \"@openzeppelin/contracts/token/ERC20/ERC20.sol\":4166:4177  return true */\n      swap2\n      pop\n      pop\n        /* \"@openzeppelin/contracts/token/ERC20/ERC20.sol\":3998:4184  function approve(address spender, uint256 value) public virtual returns (bool) {... */\n      swap3\n      swap2\n      pop\n      pop\n      jump\t// out\n        /* \"contracts/EWasteToken.sol\":945:994  uint256 public constant PER_ITEM_REWARD = 1 ether */\n    tag_71:\n        /* \"contracts/EWasteToken.sol\":987:994  1 ether */\n      0x0de0b6b3a7640000\n        /* \"contracts/EWasteToken.sol\":945:994  uint256 public constant PER_ITEM_REWARD = 1 ether */\n      dup2\n      jump\t// out\n        /* \"@openzeppelin/contracts/token/ERC20/ERC20.sol\":2849:2946  function totalSupply() public view virtual returns (uint256) {... */\n    tag_75:\n        /* \"@openzeppelin/contracts/token/ERC20/ERC20.sol\":2901:2908  uint256 */\n      0x00\n        /* \"@openzeppelin/contracts/token/ERC20/ERC20.sol\":2927:2939  _totalSupply */\n      sload(0x02)\n        /* \"@openzeppelin/contracts/token/ERC20/ERC20.sol\":2920:2939  return _totalSupply */\n      swap1\n      pop\n        /* \"@openzeppelin/contracts/token/ERC20/ERC20.sol\":2849:2946  function totalSupply() public view virtual returns (uint256) {... */\n      swap1\n      jump\t// out\n        /* \"@openzeppelin/contracts/token/ERC20/ERC20.sol\":4776:5020  function transferFrom(address from, address to, uint256 value) public virtual returns (bool) {... */\n    tag_80:\n        /* \"@openzeppelin/contracts/token/ERC20/ERC20.sol\":4863:4867  bool */\n      0x00\n        /* \"@openzeppelin/contracts/token/ERC20/ERC20.sol\":4879:4894  address spender */\n      dup1\n        /* \"@openzeppelin/contracts/token/ERC20/ERC20.sol\":4897:4909  _msgSender() */\n      tag_214\n        /* \"@openzeppelin/contracts/token/ERC20/ERC20.sol\":4897:4907  _msgSender */\n      tag_209\n        /* \"@openzeppelin/contracts/token/ERC20/ERC20.sol\":4897:4909  _msgSender() */\n      jump\t// in\n    tag_214:\n        /* \"@openzeppelin/contracts/token/ERC20/ERC20.sol\":4879:4909  address spender = _msgSender() */\n      swap1\n      pop\n        /* \"@openzeppelin/contracts/token/ERC20/ERC20.sol\":4919:4956  _spendAllowance(from, spender, value) */\n      tag_215\n        /* \"@openzeppelin/contracts/token/ERC20/ERC20.sol\":4935:4939  from */\n      dup6\n        /* \"@openzeppelin/contracts/token/ERC20/ERC20.sol\":4941:4948  spender */\n      dup3\n        /* \"@openzeppelin/contracts/token/ERC20/ERC20.sol\":4950:4955  value */\n      dup6\n        /* \"@openzeppelin/contracts/token/ERC20/ERC20.sol\":4919:4934  _spendAllowance */\n      tag_216\n        /* \"@openzeppelin/contracts/token/ERC20/ERC20.sol\":4919:4956  _spendAllowance(from, spender, value) */\n      jump\t// in\n    tag_215:\n        /* \"@openzeppelin/contracts/token/ERC20/ERC20.sol\":4966:4992  _transfer(from, to, value) */\n      tag_217\n        /* \"@openzeppelin/contracts/token/ERC20/ERC20.sol\":4976:4980  from */\n      dup6\n        /* \"@openzeppelin/contracts/token/ERC20/ERC20.sol\":4982:4984  to */\n      dup6\n        /* \"@openzeppelin/contracts/token/ERC20/ERC20.sol\":4986:4991  value */\n      dup6\n        /* \"@openzeppelin/contracts/token/ERC20/ERC20.sol\":4966:4975  _transfer */\n      tag_218\n        /* \"@openzeppelin/contracts/token/ERC20/ERC20.sol\":4966:4992  _transfer(from, to, value) */\n      jump\t// in\n    tag_217:\n        /* \"@openzeppelin/contracts/token/ERC20/ERC20.sol\":5009:5013  true */\n      0x01\n        /* \"@openzeppelin/contracts/token/ERC20/ERC20.sol\":5002:5013  return true */\n      swap2\n      pop\n      pop\n        /* \"@openzeppelin/contracts/token/ERC20/ERC20.sol\":4776:5020  function transferFrom(address from, address to, uint256 value) public virtual returns (bool) {... */\n      swap4\n      swap3\n      pop\n      pop\n      pop\n      jump\t// out\n        /* \"@openzeppelin/contracts/access/AccessControl.sol\":3810:3930  function getRoleAdmin(bytes32 role) public view virtual returns (bytes32) {... */\n    tag_85:\n        /* \"@openzeppelin/contracts/access/AccessControl.sol\":3875:3882  bytes32 */\n      0x00\n        /* \"@openzeppelin/contracts/access/AccessControl.sol\":3901:3907  _roles */\n      0x05\n        /* \"@openzeppelin/contracts/access/AccessControl.sol\":3901:3913  _roles[role] */\n      0x00\n        /* \"@openzeppelin/contracts/access/AccessControl.sol\":3908:3912  role */\n      dup4\n        /* \"@openzeppelin/contracts/access/AccessControl.sol\":3901:3913  _roles[role] */\n      dup2\n      mstore\n      0x20\n      add\n      swap1\n      dup2\n      mstore\n      0x20\n      add\n      0x00\n      keccak256\n        /* \"@openzeppelin/contracts/access/AccessControl.sol\":3901:3923  _roles[role].adminRole */\n      0x01\n      add\n      sload\n        /* \"@openzeppelin/contracts/access/AccessControl.sol\":3894:3923  return _roles[role].adminRole */\n      swap1\n      pop\n        /* \"@openzeppelin/contracts/access/AccessControl.sol\":3810:3930  function getRoleAdmin(bytes32 role) public view virtual returns (bytes32) {... */\n      swap2\n      swap1\n      pop\n      jump\t// out\n        /* \"@openzeppelin/contracts/access/AccessControl.sol\":4226:4362  function grantRole(bytes32 role, address account) public virtual onlyRole(getRoleAdmin(role)) {... */\n    tag_91:\n        /* \"@openzeppelin/contracts/access/AccessControl.sol\":4300:4318  getRoleAdmin(role) */\n      tag_220\n        /* \"@openzeppelin/contracts/access/AccessControl.sol\":4313:4317  role */\n      dup3\n        /* \"@openzeppelin/contracts/access/AccessControl.sol\":4300:4312  getRoleAdmin */\n      tag_85\n        /* \"@openzeppelin/contracts/access/AccessControl.sol\":4300:4318  getRoleAdmin(role) */\n      jump\t// in\n    tag_220:\n        /* \"@openzeppelin/contracts/access/AccessControl.sol\":2464:2480  _checkRole(role) */\n      tag_222\n        /* \"@openzeppelin/contracts/access/AccessControl.sol\":2475:2479  role */\n      dup2\n        /* \"@openzeppelin/contracts/access/AccessControl.sol\":2464:2474  _checkRole */\n      tag_223\n        /* \"@openzeppelin/contracts/access/AccessControl.sol\":2464:2480  _checkRole(role) */\n      jump\t// in\n    tag_222:\n        /* \"@openzeppelin/contracts/access/AccessControl.sol\":4330:4355  _grantRole(role, account) */\n      tag_225\n        /* \"@openzeppelin/contracts/access/AccessControl.sol\":4341:4345  role */\n      dup4\n        /* \"@openzeppelin/contracts/access/AccessControl.sol\":4347:4354  account */\n      dup4\n        /* \"@openzeppelin/contracts/access/AccessControl.sol\":4330:4340  _grantRole */\n      tag_226\n        /* \"@openzeppelin/contracts/access/AccessControl.sol\":4330:4355  _grantRole(role, account) */\n      jump\t// in\n    tag_225:\n      pop\n        /* \"@openzeppelin/contracts/access/AccessControl.sol\":4226:4362  function grantRole(bytes32 role, address account) public virtual onlyRole(getRoleAdmin(role)) {... */\n      pop\n      pop\n      pop\n      jump\t// out\n        /* \"@openzeppelin/contracts/token/ERC20/ERC20.sol\":2707:2789  function decimals() public view virtual returns (uint8) {... */\n    tag_93:\n        /* \"@openzeppelin/contracts/token/ERC20/ERC20.sol\":2756:2761  uint8 */\n      0x00\n        /* \"@openzeppelin/contracts/token/ERC20/ERC20.sol\":2780:2782  18 */\n      0x12\n        /* \"@openzeppelin/contracts/token/ERC20/ERC20.sol\":2773:2782  return 18 */\n      swap1\n      pop\n        /* \"@openzeppelin/contracts/token/ERC20/ERC20.sol\":2707:2789  function decimals() public view virtual returns (uint8) {... */\n      swap1\n      jump\t// out\n        /* \"contracts/EWasteToken.sol\":2674:3424  function createItem(... */\n    tag_99:\n        /* \"contracts/EWasteToken.sol\":2858:2859  0 */\n      0x00\n        /* \"contracts/EWasteToken.sol\":2846:2855  _quantity */\n      dup3\n        /* \"contracts/EWasteToken.sol\":2846:2859  _quantity > 0 */\n      gt\n        /* \"contracts/EWasteToken.sol\":2846:2874  _quantity > 0 && _weight > 0 */\n      dup1\n      iszero\n      tag_229\n      jumpi\n      pop\n        /* \"contracts/EWasteToken.sol\":2873:2874  0 */\n      0x00\n        /* \"contracts/EWasteToken.sol\":2863:2870  _weight */\n      dup4\n        /* \"contracts/EWasteToken.sol\":2863:2874  _weight > 0 */\n      gt\n        /* \"contracts/EWasteToken.sol\":2846:2874  _quantity > 0 && _weight > 0 */\n    tag_229:\n        /* \"contracts/EWasteToken.sol\":2838:2892  require(_quantity > 0 && _weight > 0, \"Invalid input\") */\n      tag_230\n      jumpi\n      mload(0x40)\n      0x08c379a000000000000000000000000000000000000000000000000000000000\n      dup2\n      mstore\n      0x04\n      add\n      tag_231\n      swap1\n      tag_232\n      jump\t// in\n    tag_231:\n      mload(0x40)\n      dup1\n      swap2\n      sub\n      swap1\n      revert\n    tag_230:\n        /* \"contracts/EWasteToken.sol\":2913:2926  uint256 newId */\n      0x00\n        /* \"contracts/EWasteToken.sol\":2929:2940  itemCounter */\n      0x07\n      0x00\n        /* \"contracts/EWasteToken.sol\":2929:2942  itemCounter++ */\n      dup2\n      sload\n      dup1\n      swap3\n      swap2\n      swap1\n      tag_233\n      swap1\n      tag_234\n      jump\t// in\n    tag_233:\n      swap2\n      swap1\n      pop\n      sstore\n        /* \"contracts/EWasteToken.sol\":2913:2942  uint256 newId = itemCounter++ */\n      swap1\n      pop\n        /* \"contracts/EWasteToken.sol\":2973:3271  WasteItem({... */\n      mload(0x40)\n      dup1\n      0x0100\n      add\n      0x40\n      mstore\n      dup1\n        /* \"contracts/EWasteToken.sol\":3002:3007  newId */\n      dup3\n        /* \"contracts/EWasteToken.sol\":2973:3271  WasteItem({... */\n      dup2\n      mstore\n      0x20\n      add\n        /* \"contracts/EWasteToken.sol\":3031:3041  msg.sender */\n      caller\n        /* \"contracts/EWasteToken.sol\":2973:3271  WasteItem({... */\n      0xffffffffffffffffffffffffffffffffffffffff\n      and\n      dup2\n      mstore\n      0x20\n      add\n        /* \"contracts/EWasteToken.sol\":3066:3075  _itemType */\n      dup7\n        /* \"contracts/EWasteToken.sol\":2973:3271  WasteItem({... */\n      dup2\n      mstore\n      0x20\n      add\n        /* \"contracts/EWasteToken.sol\":3098:3105  _weight */\n      dup6\n        /* \"contracts/EWasteToken.sol\":2973:3271  WasteItem({... */\n      dup2\n      mstore\n      0x20\n      add\n        /* \"contracts/EWasteToken.sol\":3130:3139  _quantity */\n      dup5\n        /* \"contracts/EWasteToken.sol\":2973:3271  WasteItem({... */\n      dup2\n      mstore\n      0x20\n      add\n        /* \"contracts/EWasteToken.sol\":3162:3176  Status.CREATED */\n      0x00\n        /* \"contracts/EWasteToken.sol\":2973:3271  WasteItem({... */\n      0x06\n      dup2\n      gt\n      iszero\n      tag_235\n      jumpi\n      tag_236\n      tag_237\n      jump\t// in\n    tag_236:\n    tag_235:\n      dup2\n      mstore\n      0x20\n      add\n        /* \"contracts/EWasteToken.sol\":3207:3217  msg.sender */\n      caller\n        /* \"contracts/EWasteToken.sol\":2973:3271  WasteItem({... */\n      0xffffffffffffffffffffffffffffffffffffffff\n      and\n      dup2\n      mstore\n      0x20\n      add\n        /* \"contracts/EWasteToken.sol\":3246:3259  _isRepairable */\n      dup4\n        /* \"contracts/EWasteToken.sol\":2973:3271  WasteItem({... */\n      iszero\n      iszero\n      dup2\n      mstore\n      pop\n        /* \"contracts/EWasteToken.sol\":2953:2963  wasteItems */\n      0x06\n        /* \"contracts/EWasteToken.sol\":2953:2970  wasteItems[newId] */\n      0x00\n        /* \"contracts/EWasteToken.sol\":2964:2969  newId */\n      dup4\n        /* \"contracts/EWasteToken.sol\":2953:2970  wasteItems[newId] */\n      dup2\n      mstore\n      0x20\n      add\n      swap1\n      dup2\n      mstore\n      0x20\n      add\n      0x00\n      keccak256\n        /* \"contracts/EWasteToken.sol\":2953:3271  wasteItems[newId] = WasteItem({... */\n      0x00\n      dup3\n      add\n      mload\n      dup2\n      0x00\n      add\n      sstore\n      0x20\n      dup3\n      add\n      mload\n      dup2\n      0x01\n      add\n      exp(0x0100, 0x00)\n      dup2\n      sload\n      dup2\n      0xffffffffffffffffffffffffffffffffffffffff\n      mul\n      not\n      and\n      swap1\n      dup4\n      0xffffffffffffffffffffffffffffffffffffffff\n      and\n      mul\n      or\n      swap1\n      sstore\n      pop\n      0x40\n      dup3\n      add\n      mload\n      dup2\n      0x02\n      add\n      swap1\n      dup2\n      tag_238\n      swap2\n      swap1\n      tag_239\n      jump\t// in\n    tag_238:\n      pop\n      0x60\n      dup3\n      add\n      mload\n      dup2\n      0x03\n      add\n      sstore\n      0x80\n      dup3\n      add\n      mload\n      dup2\n      0x04\n      add\n      sstore\n      0xa0\n      dup3\n      add\n      mload\n      dup2\n      0x05\n      add\n      exp(0x0100, 0x00)\n      dup2\n      sload\n      dup2\n      0xff\n      mul\n      not\n      and\n      swap1\n      dup4\n      0x06\n      dup2\n      gt\n      iszero\n      tag_240\n      jumpi\n      tag_241\n      tag_237\n      jump\t// in\n    tag_241:\n    tag_240:\n      mul\n      or\n      swap1\n      sstore\n      pop\n      0xc0\n      dup3\n      add\n      mload\n      dup2\n      0x05\n      add\n      exp(0x0100, 0x01)\n      dup2\n      sload\n      dup2\n      0xffffffffffffffffffffffffffffffffffffffff\n      mul\n      not\n      and\n      swap1\n      dup4\n      0xffffffffffffffffffffffffffffffffffffffff\n      and\n      mul\n      or\n      swap1\n      sstore\n      pop\n      0xe0\n      dup3\n      add\n      mload\n      dup2\n      0x05\n      add\n      exp(0x0100, 0x15)\n      dup2\n      sload\n      dup2\n      0xff\n      mul\n      not\n      and\n      swap1\n      dup4\n      iszero\n      iszero\n      mul\n      or\n      swap1\n      sstore\n      pop\n      swap1\n      pop\n      pop\n        /* \"contracts/EWasteToken.sol\":3385:3395  msg.sender */\n      caller\n        /* \"contracts/EWasteToken.sol\":3366:3416  ItemCreated(newId, msg.sender, _quantity, _weight) */\n      0xffffffffffffffffffffffffffffffffffffffff\n      and\n        /* \"contracts/EWasteToken.sol\":3378:3383  newId */\n      dup2\n        /* \"contracts/EWasteToken.sol\":3366:3416  ItemCreated(newId, msg.sender, _quantity, _weight) */\n      0x46d5e1fa50133f2ad2b0346ff4a3f42484fe3bb406c6c15fd7ae095d10b12581\n        /* \"contracts/EWasteToken.sol\":3397:3406  _quantity */\n      dup6\n        /* \"contracts/EWasteToken.sol\":3408:3415  _weight */\n      dup8\n        /* \"contracts/EWasteToken.sol\":3366:3416  ItemCreated(newId, msg.sender, _quantity, _weight) */\n      mload(0x40)\n      tag_242\n      swap3\n      swap2\n      swap1\n      tag_243\n      jump\t// in\n    tag_242:\n      mload(0x40)\n      dup1\n      swap2\n      sub\n      swap1\n      log3\n        /* \"contracts/EWasteToken.sol\":2827:3424  {... */\n      pop\n        /* \"contracts/EWasteToken.sol\":2674:3424  function createItem(... */\n      pop\n      pop\n      pop\n      pop\n      jump\t// out\n        /* \"contracts/EWasteToken.sol\":3432:3830  function collectItem(uint256 _id) external onlyRole(COLLECTOR_ROLE) {... */\n    tag_102:\n        /* \"contracts/EWasteToken.sol\":286:313  keccak256(\"COLLECTOR_ROLE\") */\n      0x14cf45180c3fcf249a5a305e9657ea05c14fd4f4e1800ee0216a8213091711d2\n        /* \"@openzeppelin/contracts/access/AccessControl.sol\":2464:2480  _checkRole(role) */\n      tag_245\n        /* \"@openzeppelin/contracts/access/AccessControl.sol\":2475:2479  role */\n      dup2\n        /* \"@openzeppelin/contracts/access/AccessControl.sol\":2464:2474  _checkRole */\n      tag_223\n        /* \"@openzeppelin/contracts/access/AccessControl.sol\":2464:2480  _checkRole(role) */\n      jump\t// in\n    tag_245:\n        /* \"contracts/EWasteToken.sol\":3545:3559  Status.CREATED */\n      0x00\n        /* \"contracts/EWasteToken.sol\":3519:3559  wasteItems[_id].status == Status.CREATED */\n      0x06\n      dup2\n      gt\n      iszero\n      tag_247\n      jumpi\n      tag_248\n      tag_237\n      jump\t// in\n    tag_248:\n    tag_247:\n        /* \"contracts/EWasteToken.sol\":3519:3529  wasteItems */\n      0x06\n        /* \"contracts/EWasteToken.sol\":3519:3534  wasteItems[_id] */\n      0x00\n        /* \"contracts/EWasteToken.sol\":3530:3533  _id */\n      dup5\n        /* \"contracts/EWasteToken.sol\":3519:3534  wasteItems[_id] */\n      dup2\n      mstore\n      0x20\n      add\n      swap1\n      dup2\n      mstore\n      0x20\n      add\n      0x00\n      keccak256\n        /* \"contracts/EWasteToken.sol\":3519:3541  wasteItems[_id].status */\n      0x05\n      add\n      0x00\n      swap1\n      sload\n      swap1\n      0x0100\n      exp\n      swap1\n      div\n      0xff\n      and\n        /* \"contracts/EWasteToken.sol\":3519:3559  wasteItems[_id].status == Status.CREATED */\n      0x06\n      dup2\n      gt\n      iszero\n      tag_249\n      jumpi\n      tag_250\n      tag_237\n      jump\t// in\n    tag_250:\n    tag_249:\n      eq\n        /* \"contracts/EWasteToken.sol\":3511:3578  require(wasteItems[_id].status == Status.CREATED, \"Invalid status\") */\n      tag_251\n      jumpi\n      mload(0x40)\n      0x08c379a000000000000000000000000000000000000000000000000000000000\n      dup2\n      mstore\n      0x04\n      add\n      tag_252\n      swap1\n      tag_253\n      jump\t// in\n    tag_252:\n      mload(0x40)\n      dup1\n      swap2\n      sub\n      swap1\n      revert\n    tag_251:\n        /* \"contracts/EWasteToken.sol\":3614:3630  Status.COLLECTED */\n      0x01\n        /* \"contracts/EWasteToken.sol\":3589:3599  wasteItems */\n      0x06\n        /* \"contracts/EWasteToken.sol\":3589:3604  wasteItems[_id] */\n      0x00\n        /* \"contracts/EWasteToken.sol\":3600:3603  _id */\n      dup5\n        /* \"contracts/EWasteToken.sol\":3589:3604  wasteItems[_id] */\n      dup2\n      mstore\n      0x20\n      add\n      swap1\n      dup2\n      mstore\n      0x20\n      add\n      0x00\n      keccak256\n        /* \"contracts/EWasteToken.sol\":3589:3611  wasteItems[_id].status */\n      0x05\n      add\n      0x00\n        /* \"contracts/EWasteToken.sol\":3589:3630  wasteItems[_id].status = Status.COLLECTED */\n      0x0100\n      exp\n      dup2\n      sload\n      dup2\n      0xff\n      mul\n      not\n      and\n      swap1\n      dup4\n      0x06\n      dup2\n      gt\n      iszero\n      tag_254\n      jumpi\n      tag_255\n      tag_237\n      jump\t// in\n    tag_255:\n    tag_254:\n      mul\n      or\n      swap1\n      sstore\n      pop\n        /* \"contracts/EWasteToken.sol\":3674:3684  msg.sender */\n      caller\n        /* \"contracts/EWasteToken.sol\":3641:3651  wasteItems */\n      0x06\n        /* \"contracts/EWasteToken.sol\":3641:3656  wasteItems[_id] */\n      0x00\n        /* \"contracts/EWasteToken.sol\":3652:3655  _id */\n      dup5\n        /* \"contracts/EWasteToken.sol\":3641:3656  wasteItems[_id] */\n      dup2\n      mstore\n      0x20\n      add\n      swap1\n      dup2\n      mstore\n      0x20\n      add\n      0x00\n      keccak256\n        /* \"contracts/EWasteToken.sol\":3641:3671  wasteItems[_id].currentHandler */\n      0x05\n      add\n      0x01\n        /* \"contracts/EWasteToken.sol\":3641:3684  wasteItems[_id].currentHandler = msg.sender */\n      0x0100\n      exp\n      dup2\n      sload\n      dup2\n      0xffffffffffffffffffffffffffffffffffffffff\n      mul\n      not\n      and\n      swap1\n      dup4\n      0xffffffffffffffffffffffffffffffffffffffff\n      and\n      mul\n      or\n      swap1\n      sstore\n      pop\n        /* \"contracts/EWasteToken.sol\":3705:3719  uint256 reward */\n      0x00\n        /* \"contracts/EWasteToken.sol\":3722:3768  _calculateAndMintReward(_id, Status.COLLECTED) */\n      tag_256\n        /* \"contracts/EWasteToken.sol\":3746:3749  _id */\n      dup4\n        /* \"contracts/EWasteToken.sol\":3751:3767  Status.COLLECTED */\n      0x01\n        /* \"contracts/EWasteToken.sol\":3722:3745  _calculateAndMintReward */\n      tag_257\n        /* \"contracts/EWasteToken.sol\":3722:3768  _calculateAndMintReward(_id, Status.COLLECTED) */\n      jump\t// in\n    tag_256:\n        /* \"contracts/EWasteToken.sol\":3705:3768  uint256 reward = _calculateAndMintReward(_id, Status.COLLECTED) */\n      swap1\n      pop\n        /* \"contracts/EWasteToken.sol\":3803:3813  msg.sender */\n      caller\n        /* \"contracts/EWasteToken.sol\":3784:3822  ItemCollected(_id, msg.sender, reward) */\n      0xffffffffffffffffffffffffffffffffffffffff\n      and\n        /* \"contracts/EWasteToken.sol\":3798:3801  _id */\n      dup4\n        /* \"contracts/EWasteToken.sol\":3784:3822  ItemCollected(_id, msg.sender, reward) */\n      0x2a18ae28442ec525b81831921d81b734ce7861d68a812e4546c7945075766f1d\n        /* \"contracts/EWasteToken.sol\":3815:3821  reward */\n      dup4\n        /* \"contracts/EWasteToken.sol\":3784:3822  ItemCollected(_id, msg.sender, reward) */\n      mload(0x40)\n      tag_258\n      swap2\n      swap1\n      tag_73\n      jump\t// in\n    tag_258:\n      mload(0x40)\n      dup1\n      swap2\n      sub\n      swap1\n      log3\n        /* \"contracts/EWasteToken.sol\":3500:3830  {... */\n      pop\n        /* \"contracts/EWasteToken.sol\":3432:3830  function collectItem(uint256 _id) external onlyRole(COLLECTOR_ROLE) {... */\n      pop\n      pop\n      jump\t// out\n        /* \"@openzeppelin/contracts/access/AccessControl.sol\":5328:5573  function renounceRole(bytes32 role, address callerConfirmation) public virtual {... */\n    tag_105:\n        /* \"@openzeppelin/contracts/access/AccessControl.sol\":5443:5455  _msgSender() */\n      tag_260\n        /* \"@openzeppelin/contracts/access/AccessControl.sol\":5443:5453  _msgSender */\n      tag_209\n        /* \"@openzeppelin/contracts/access/AccessControl.sol\":5443:5455  _msgSender() */\n      jump\t// in\n    tag_260:\n        /* \"@openzeppelin/contracts/access/AccessControl.sol\":5421:5455  callerConfirmation != _msgSender() */\n      0xffffffffffffffffffffffffffffffffffffffff\n      and\n        /* \"@openzeppelin/contracts/access/AccessControl.sol\":5421:5439  callerConfirmation */\n      dup2\n        /* \"@openzeppelin/contracts/access/AccessControl.sol\":5421:5455  callerConfirmation != _msgSender() */\n      0xffffffffffffffffffffffffffffffffffffffff\n      and\n      eq\n        /* \"@openzeppelin/contracts/access/AccessControl.sol\":5417:5519  if (callerConfirmation != _msgSender()) {... */\n      tag_261\n      jumpi\n        /* \"@openzeppelin/contracts/access/AccessControl.sol\":5478:5508  AccessControlBadConfirmation() */\n      mload(0x40)\n      0x6697b23200000000000000000000000000000000000000000000000000000000\n      dup2\n      mstore\n      0x04\n      add\n      mload(0x40)\n      dup1\n      swap2\n      sub\n      swap1\n      revert\n        /* \"@openzeppelin/contracts/access/AccessControl.sol\":5417:5519  if (callerConfirmation != _msgSender()) {... */\n    tag_261:\n        /* \"@openzeppelin/contracts/access/AccessControl.sol\":5529:5566  _revokeRole(role, callerConfirmation) */\n      tag_262\n        /* \"@openzeppelin/contracts/access/AccessControl.sol\":5541:5545  role */\n      dup3\n        /* \"@openzeppelin/contracts/access/AccessControl.sol\":5547:5565  callerConfirmation */\n      dup3\n        /* \"@openzeppelin/contracts/access/AccessControl.sol\":5529:5540  _revokeRole */\n      tag_263\n        /* \"@openzeppelin/contracts/access/AccessControl.sol\":5529:5566  _revokeRole(role, callerConfirmation) */\n      jump\t// in\n    tag_262:\n      pop\n        /* \"@openzeppelin/contracts/access/AccessControl.sol\":5328:5573  function renounceRole(bytes32 role, address callerConfirmation) public virtual {... */\n      pop\n      pop\n      jump\t// out\n        /* \"contracts/EWasteToken.sol\":393:463  bytes32 public constant DISMANTLER_ROLE = keccak256(\"DISMANTLER_ROLE\") */\n    tag_107:\n        /* \"contracts/EWasteToken.sol\":435:463  keccak256(\"DISMANTLER_ROLE\") */\n      0xb636cac4a39cbee3063d40395f1623a30746f1c8bc201ced0489c50a6345c755\n        /* \"contracts/EWasteToken.sol\":393:463  bytes32 public constant DISMANTLER_ROLE = keccak256(\"DISMANTLER_ROLE\") */\n      dup2\n      jump\t// out\n        /* \"contracts/EWasteToken.sol\":1001:1053  uint256 public constant PER_GRAM_REWARD = 0.01 ether */\n    tag_110:\n        /* \"contracts/EWasteToken.sol\":1043:1053  0.01 ether */\n      0x2386f26fc10000\n        /* \"contracts/EWasteToken.sol\":1001:1053  uint256 public constant PER_GRAM_REWARD = 0.01 ether */\n      dup2\n      jump\t// out\n        /* \"contracts/EWasteToken.sol\":1527:1553  uint256 public itemCounter */\n    tag_113:\n      sload(0x07)\n      dup2\n      jump\t// out\n        /* \"@openzeppelin/contracts/token/ERC20/ERC20.sol\":3004:3120  function balanceOf(address account) public view virtual returns (uint256) {... */\n    tag_118:\n        /* \"@openzeppelin/contracts/token/ERC20/ERC20.sol\":3069:3076  uint256 */\n      0x00\n        /* \"@openzeppelin/contracts/token/ERC20/ERC20.sol\":3095:3104  _balances */\n      dup1\n        /* \"@openzeppelin/contracts/token/ERC20/ERC20.sol\":3095:3113  _balances[account] */\n      0x00\n        /* \"@openzeppelin/contracts/token/ERC20/ERC20.sol\":3105:3112  account */\n      dup4\n        /* \"@openzeppelin/contracts/token/ERC20/ERC20.sol\":3095:3113  _balances[account] */\n      0xffffffffffffffffffffffffffffffffffffffff\n      and\n      0xffffffffffffffffffffffffffffffffffffffff\n      and\n      dup2\n      mstore\n      0x20\n      add\n      swap1\n      dup2\n      mstore\n      0x20\n      add\n      0x00\n      keccak256\n      sload\n        /* \"@openzeppelin/contracts/token/ERC20/ERC20.sol\":3088:3113  return _balances[account] */\n      swap1\n      pop\n        /* \"@openzeppelin/contracts/token/ERC20/ERC20.sol\":3004:3120  function balanceOf(address account) public view virtual returns (uint256) {... */\n      swap2\n      swap1\n      pop\n      jump\t// out\n        /* \"contracts/EWasteToken.sol\":637:692  uint256 public constant BASE_DISPOSAL_REWARD = 10 ether */\n    tag_121:\n        /* \"contracts/EWasteToken.sol\":684:692  10 ether */\n      0x8ac7230489e80000\n        /* \"contracts/EWasteToken.sol\":637:692  uint256 public constant BASE_DISPOSAL_REWARD = 10 ether */\n      dup2\n      jump\t// out\n        /* \"contracts/EWasteToken.sol\":543:603  bytes32 public constant ADMIN_ROLE = keccak256(\"ADMIN_ROLE\") */\n    tag_124:\n        /* \"contracts/EWasteToken.sol\":580:603  keccak256(\"ADMIN_ROLE\") */\n      0xa49807205ce4d355092ef5a8a18f56e8913cf4a201fbe287825b095693c21775\n        /* \"contracts/EWasteToken.sol\":543:603  bytes32 public constant ADMIN_ROLE = keccak256(\"ADMIN_ROLE\") */\n      dup2\n      jump\t// out\n        /* \"contracts/EWasteToken.sol\":4194:4600  function repairItem(uint256 _id) external onlyRole(REPAIRER_ROLE) {... */\n    tag_128:\n        /* \"contracts/EWasteToken.sol\":510:536  keccak256(\"REPAIRER_ROLE\") */\n      0xab5c443dd93b1877c3b155b5e3ddb79cb901fd6f9d2e3bd366f3216a80b889e7\n        /* \"@openzeppelin/contracts/access/AccessControl.sol\":2464:2480  _checkRole(role) */\n      tag_266\n        /* \"@openzeppelin/contracts/access/AccessControl.sol\":2475:2479  role */\n      dup2\n        /* \"@openzeppelin/contracts/access/AccessControl.sol\":2464:2474  _checkRole */\n      tag_223\n        /* \"@openzeppelin/contracts/access/AccessControl.sol\":2464:2480  _checkRole(role) */\n      jump\t// in\n    tag_266:\n        /* \"contracts/EWasteToken.sol\":4305:4322  Status.REPAIRABLE */\n      0x02\n        /* \"contracts/EWasteToken.sol\":4279:4322  wasteItems[_id].status == Status.REPAIRABLE */\n      0x06\n      dup2\n      gt\n      iszero\n      tag_268\n      jumpi\n      tag_269\n      tag_237\n      jump\t// in\n    tag_269:\n    tag_268:\n        /* \"contracts/EWasteToken.sol\":4279:4289  wasteItems */\n      0x06\n        /* \"contracts/EWasteToken.sol\":4279:4294  wasteItems[_id] */\n      0x00\n        /* \"contracts/EWasteToken.sol\":4290:4293  _id */\n      dup5\n        /* \"contracts/EWasteToken.sol\":4279:4294  wasteItems[_id] */\n      dup2\n      mstore\n      0x20\n      add\n      swap1\n      dup2\n      mstore\n      0x20\n      add\n      0x00\n      keccak256\n        /* \"contracts/EWasteToken.sol\":4279:4301  wasteItems[_id].status */\n      0x05\n      add\n      0x00\n      swap1\n      sload\n      swap1\n      0x0100\n      exp\n      swap1\n      div\n      0xff\n      and\n        /* \"contracts/EWasteToken.sol\":4279:4322  wasteItems[_id].status == Status.REPAIRABLE */\n      0x06\n      dup2\n      gt\n      iszero\n      tag_270\n      jumpi\n      tag_271\n      tag_237\n      jump\t// in\n    tag_271:\n    tag_270:\n      eq\n        /* \"contracts/EWasteToken.sol\":4271:4341  require(wasteItems[_id].status == Status.REPAIRABLE, \"Invalid status\") */\n      tag_272\n      jumpi\n      mload(0x40)\n      0x08c379a000000000000000000000000000000000000000000000000000000000\n      dup2\n      mstore\n      0x04\n      add\n      tag_273\n      swap1\n      tag_253\n      jump\t// in\n    tag_273:\n      mload(0x40)\n      dup1\n      swap2\n      sub\n      swap1\n      revert\n    tag_272:\n        /* \"contracts/EWasteToken.sol\":4387:4402  Status.REPAIRED */\n      0x03\n        /* \"contracts/EWasteToken.sol\":4362:4372  wasteItems */\n      0x06\n        /* \"contracts/EWasteToken.sol\":4362:4377  wasteItems[_id] */\n      0x00\n        /* \"contracts/EWasteToken.sol\":4373:4376  _id */\n      dup5\n        /* \"contracts/EWasteToken.sol\":4362:4377  wasteItems[_id] */\n      dup2\n      mstore\n      0x20\n      add\n      swap1\n      dup2\n      mstore\n      0x20\n      add\n      0x00\n      keccak256\n        /* \"contracts/EWasteToken.sol\":4362:4384  wasteItems[_id].status */\n      0x05\n      add\n      0x00\n        /* \"contracts/EWasteToken.sol\":4362:4402  wasteItems[_id].status = Status.REPAIRED */\n      0x0100\n      exp\n      dup2\n      sload\n      dup2\n      0xff\n      mul\n      not\n      and\n      swap1\n      dup4\n      0x06\n      dup2\n      gt\n      iszero\n      tag_274\n      jumpi\n      tag_275\n      tag_237\n      jump\t// in\n    tag_275:\n    tag_274:\n      mul\n      or\n      swap1\n      sstore\n      pop\n        /* \"contracts/EWasteToken.sol\":4446:4456  msg.sender */\n      caller\n        /* \"contracts/EWasteToken.sol\":4413:4423  wasteItems */\n      0x06\n        /* \"contracts/EWasteToken.sol\":4413:4428  wasteItems[_id] */\n      0x00\n        /* \"contracts/EWasteToken.sol\":4424:4427  _id */\n      dup5\n        /* \"contracts/EWasteToken.sol\":4413:4428  wasteItems[_id] */\n      dup2\n      mstore\n      0x20\n      add\n      swap1\n      dup2\n      mstore\n      0x20\n      add\n      0x00\n      keccak256\n        /* \"contracts/EWasteToken.sol\":4413:4443  wasteItems[_id].currentHandler */\n      0x05\n      add\n      0x01\n        /* \"contracts/EWasteToken.sol\":4413:4456  wasteItems[_id].currentHandler = msg.sender */\n      0x0100\n      exp\n      dup2\n      sload\n      dup2\n      0xffffffffffffffffffffffffffffffffffffffff\n      mul\n      not\n      and\n      swap1\n      dup4\n      0xffffffffffffffffffffffffffffffffffffffff\n      and\n      mul\n      or\n      swap1\n      sstore\n      pop\n        /* \"contracts/EWasteToken.sol\":4477:4491  uint256 reward */\n      0x00\n        /* \"contracts/EWasteToken.sol\":4494:4539  _calculateAndMintReward(_id, Status.REPAIRED) */\n      tag_276\n        /* \"contracts/EWasteToken.sol\":4518:4521  _id */\n      dup4\n        /* \"contracts/EWasteToken.sol\":4523:4538  Status.REPAIRED */\n      0x03\n        /* \"contracts/EWasteToken.sol\":4494:4517  _calculateAndMintReward */\n      tag_257\n        /* \"contracts/EWasteToken.sol\":4494:4539  _calculateAndMintReward(_id, Status.REPAIRED) */\n      jump\t// in\n    tag_276:\n        /* \"contracts/EWasteToken.sol\":4477:4539  uint256 reward = _calculateAndMintReward(_id, Status.REPAIRED) */\n      swap1\n      pop\n        /* \"contracts/EWasteToken.sol\":4573:4583  msg.sender */\n      caller\n        /* \"contracts/EWasteToken.sol\":4555:4592  ItemRepaired(_id, msg.sender, reward) */\n      0xffffffffffffffffffffffffffffffffffffffff\n      and\n        /* \"contracts/EWasteToken.sol\":4568:4571  _id */\n      dup4\n        /* \"contracts/EWasteToken.sol\":4555:4592  ItemRepaired(_id, msg.sender, reward) */\n      0xe5e46d59e99676fbf7547ce5cc7583dc849e2af037032e0f6611224b75bb8967\n        /* \"contracts/EWasteToken.sol\":4585:4591  reward */\n      dup4\n        /* \"contracts/EWasteToken.sol\":4555:4592  ItemRepaired(_id, msg.sender, reward) */\n      mload(0x40)\n      tag_277\n      swap2\n      swap1\n      tag_73\n      jump\t// in\n    tag_277:\n      mload(0x40)\n      dup1\n      swap2\n      sub\n      swap1\n      log3\n        /* \"contracts/EWasteToken.sol\":4260:4600  {... */\n      pop\n        /* \"contracts/EWasteToken.sol\":4194:4600  function repairItem(uint256 _id) external onlyRole(REPAIRER_ROLE) {... */\n      pop\n      pop\n      jump\t// out\n        /* \"contracts/EWasteToken.sol\":4608:5110  function recycleItem(uint256 _id) external onlyRole(RECYCLER_ROLE) {... */\n    tag_131:\n        /* \"contracts/EWasteToken.sol\":360:386  keccak256(\"RECYCLER_ROLE\") */\n      0x11d2c681bc9c10ed61f9a422c0dbaaddc4054ce58ec726aca73e7e4d31bcd154\n        /* \"@openzeppelin/contracts/access/AccessControl.sol\":2464:2480  _checkRole(role) */\n      tag_279\n        /* \"@openzeppelin/contracts/access/AccessControl.sol\":2475:2479  role */\n      dup2\n        /* \"@openzeppelin/contracts/access/AccessControl.sol\":2464:2474  _checkRole */\n      tag_223\n        /* \"@openzeppelin/contracts/access/AccessControl.sol\":2464:2480  _checkRole(role) */\n      jump\t// in\n    tag_279:\n        /* \"contracts/EWasteToken.sol\":4734:4750  Status.COLLECTED */\n      0x01\n        /* \"contracts/EWasteToken.sol\":4708:4750  wasteItems[_id].status == Status.COLLECTED */\n      0x06\n      dup2\n      gt\n      iszero\n      tag_281\n      jumpi\n      tag_282\n      tag_237\n      jump\t// in\n    tag_282:\n    tag_281:\n        /* \"contracts/EWasteToken.sol\":4708:4718  wasteItems */\n      0x06\n        /* \"contracts/EWasteToken.sol\":4708:4723  wasteItems[_id] */\n      0x00\n        /* \"contracts/EWasteToken.sol\":4719:4722  _id */\n      dup5\n        /* \"contracts/EWasteToken.sol\":4708:4723  wasteItems[_id] */\n      dup2\n      mstore\n      0x20\n      add\n      swap1\n      dup2\n      mstore\n      0x20\n      add\n      0x00\n      keccak256\n        /* \"contracts/EWasteToken.sol\":4708:4730  wasteItems[_id].status */\n      0x05\n      add\n      0x00\n      swap1\n      sload\n      swap1\n      0x0100\n      exp\n      swap1\n      div\n      0xff\n      and\n        /* \"contracts/EWasteToken.sol\":4708:4750  wasteItems[_id].status == Status.COLLECTED */\n      0x06\n      dup2\n      gt\n      iszero\n      tag_283\n      jumpi\n      tag_284\n      tag_237\n      jump\t// in\n    tag_284:\n    tag_283:\n      eq\n        /* \"contracts/EWasteToken.sol\":4708:4809  wasteItems[_id].status == Status.COLLECTED || ... */\n      dup1\n      tag_285\n      jumpi\n      pop\n        /* \"contracts/EWasteToken.sol\":4794:4809  Status.REPAIRED */\n      0x03\n        /* \"contracts/EWasteToken.sol\":4768:4809  wasteItems[_id].status == Status.REPAIRED */\n      0x06\n      dup2\n      gt\n      iszero\n      tag_286\n      jumpi\n      tag_287\n      tag_237\n      jump\t// in\n    tag_287:\n    tag_286:\n        /* \"contracts/EWasteToken.sol\":4768:4778  wasteItems */\n      0x06\n        /* \"contracts/EWasteToken.sol\":4768:4783  wasteItems[_id] */\n      0x00\n        /* \"contracts/EWasteToken.sol\":4779:4782  _id */\n      dup5\n        /* \"contracts/EWasteToken.sol\":4768:4783  wasteItems[_id] */\n      dup2\n      mstore\n      0x20\n      add\n      swap1\n      dup2\n      mstore\n      0x20\n      add\n      0x00\n      keccak256\n        /* \"contracts/EWasteToken.sol\":4768:4790  wasteItems[_id].status */\n      0x05\n      add\n      0x00\n      swap1\n      sload\n      swap1\n      0x0100\n      exp\n      swap1\n      div\n      0xff\n      and\n        /* \"contracts/EWasteToken.sol\":4768:4809  wasteItems[_id].status == Status.REPAIRED */\n      0x06\n      dup2\n      gt\n      iszero\n      tag_288\n      jumpi\n      tag_289\n      tag_237\n      jump\t// in\n    tag_289:\n    tag_288:\n      eq\n        /* \"contracts/EWasteToken.sol\":4708:4809  wasteItems[_id].status == Status.COLLECTED || ... */\n    tag_285:\n        /* \"contracts/EWasteToken.sol\":4686:4851  require(... */\n      tag_290\n      jumpi\n      mload(0x40)\n      0x08c379a000000000000000000000000000000000000000000000000000000000\n      dup2\n      mstore\n      0x04\n      add\n      tag_291\n      swap1\n      tag_253\n      jump\t// in\n    tag_291:\n      mload(0x40)\n      dup1\n      swap2\n      sub\n      swap1\n      revert\n    tag_290:\n        /* \"contracts/EWasteToken.sol\":4897:4912  Status.RECYCLED */\n      0x04\n        /* \"contracts/EWasteToken.sol\":4872:4882  wasteItems */\n      0x06\n        /* \"contracts/EWasteToken.sol\":4872:4887  wasteItems[_id] */\n      0x00\n        /* \"contracts/EWasteToken.sol\":4883:4886  _id */\n      dup5\n        /* \"contracts/EWasteToken.sol\":4872:4887  wasteItems[_id] */\n      dup2\n      mstore\n      0x20\n      add\n      swap1\n      dup2\n      mstore\n      0x20\n      add\n      0x00\n      keccak256\n        /* \"contracts/EWasteToken.sol\":4872:4894  wasteItems[_id].status */\n      0x05\n      add\n      0x00\n        /* \"contracts/EWasteToken.sol\":4872:4912  wasteItems[_id].status = Status.RECYCLED */\n      0x0100\n      exp\n      dup2\n      sload\n      dup2\n      0xff\n      mul\n      not\n      and\n      swap1\n      dup4\n      0x06\n      dup2\n      gt\n      iszero\n      tag_292\n      jumpi\n      tag_293\n      tag_237\n      jump\t// in\n    tag_293:\n    tag_292:\n      mul\n      or\n      swap1\n      sstore\n      pop\n        /* \"contracts/EWasteToken.sol\":4956:4966  msg.sender */\n      caller\n        /* \"contracts/EWasteToken.sol\":4923:4933  wasteItems */\n      0x06\n        /* \"contracts/EWasteToken.sol\":4923:4938  wasteItems[_id] */\n      0x00\n        /* \"contracts/EWasteToken.sol\":4934:4937  _id */\n      dup5\n        /* \"contracts/EWasteToken.sol\":4923:4938  wasteItems[_id] */\n      dup2\n      mstore\n      0x20\n      add\n      swap1\n      dup2\n      mstore\n      0x20\n      add\n      0x00\n      keccak256\n        /* \"contracts/EWasteToken.sol\":4923:4953  wasteItems[_id].currentHandler */\n      0x05\n      add\n      0x01\n        /* \"contracts/EWasteToken.sol\":4923:4966  wasteItems[_id].currentHandler = msg.sender */\n      0x0100\n      exp\n      dup2\n      sload\n      dup2\n      0xffffffffffffffffffffffffffffffffffffffff\n      mul\n      not\n      and\n      swap1\n      dup4\n      0xffffffffffffffffffffffffffffffffffffffff\n      and\n      mul\n      or\n      swap1\n      sstore\n      pop\n        /* \"contracts/EWasteToken.sol\":4987:5001  uint256 reward */\n      0x00\n        /* \"contracts/EWasteToken.sol\":5004:5049  _calculateAndMintReward(_id, Status.RECYCLED) */\n      tag_294\n        /* \"contracts/EWasteToken.sol\":5028:5031  _id */\n      dup4\n        /* \"contracts/EWasteToken.sol\":5033:5048  Status.RECYCLED */\n      0x04\n        /* \"contracts/EWasteToken.sol\":5004:5027  _calculateAndMintReward */\n      tag_257\n        /* \"contracts/EWasteToken.sol\":5004:5049  _calculateAndMintReward(_id, Status.RECYCLED) */\n      jump\t// in\n    tag_294:\n        /* \"contracts/EWasteToken.sol\":4987:5049  uint256 reward = _calculateAndMintReward(_id, Status.RECYCLED) */\n      swap1\n      pop\n        /* \"contracts/EWasteToken.sol\":5083:5093  msg.sender */\n      caller\n        /* \"contracts/EWasteToken.sol\":5065:5102  ItemRecycled(_id, msg.sender, reward) */\n      0xffffffffffffffffffffffffffffffffffffffff\n      and\n        /* \"contracts/EWasteToken.sol\":5078:5081  _id */\n      dup4\n        /* \"contracts/EWasteToken.sol\":5065:5102  ItemRecycled(_id, msg.sender, reward) */\n      0x3f0bdd39c575256b0686bbbc300a04a9c5828c01f9cc42a0179879b48b8eeddf\n        /* \"contracts/EWasteToken.sol\":5095:5101  reward */\n      dup4\n        /* \"contracts/EWasteToken.sol\":5065:5102  ItemRecycled(_id, msg.sender, reward) */\n      mload(0x40)\n      tag_295\n      swap2\n      swap1\n      tag_73\n      jump\t// in\n    tag_295:\n      mload(0x40)\n      dup1\n      swap2\n      sub\n      swap1\n      log3\n        /* \"contracts/EWasteToken.sol\":4675:5110  {... */\n      pop\n        /* \"contracts/EWasteToken.sol\":4608:5110  function recycleItem(uint256 _id) external onlyRole(RECYCLER_ROLE) {... */\n      pop\n      pop\n      jump\t// out\n        /* \"contracts/EWasteToken.sol\":5118:5533  function dismantleItem(uint256 _id) external onlyRole(DISMANTLER_ROLE) {... */\n    tag_134:\n        /* \"contracts/EWasteToken.sol\":435:463  keccak256(\"DISMANTLER_ROLE\") */\n      0xb636cac4a39cbee3063d40395f1623a30746f1c8bc201ced0489c50a6345c755\n        /* \"@openzeppelin/contracts/access/AccessControl.sol\":2464:2480  _checkRole(role) */\n      tag_297\n        /* \"@openzeppelin/contracts/access/AccessControl.sol\":2475:2479  role */\n      dup2\n        /* \"@openzeppelin/contracts/access/AccessControl.sol\":2464:2474  _checkRole */\n      tag_223\n        /* \"@openzeppelin/contracts/access/AccessControl.sol\":2464:2480  _checkRole(role) */\n      jump\t// in\n    tag_297:\n        /* \"contracts/EWasteToken.sol\":5234:5249  Status.RECYCLED */\n      0x04\n        /* \"contracts/EWasteToken.sol\":5208:5249  wasteItems[_id].status == Status.RECYCLED */\n      0x06\n      dup2\n      gt\n      iszero\n      tag_299\n      jumpi\n      tag_300\n      tag_237\n      jump\t// in\n    tag_300:\n    tag_299:\n        /* \"contracts/EWasteToken.sol\":5208:5218  wasteItems */\n      0x06\n        /* \"contracts/EWasteToken.sol\":5208:5223  wasteItems[_id] */\n      0x00\n        /* \"contracts/EWasteToken.sol\":5219:5222  _id */\n      dup5\n        /* \"contracts/EWasteToken.sol\":5208:5223  wasteItems[_id] */\n      dup2\n      mstore\n      0x20\n      add\n      swap1\n      dup2\n      mstore\n      0x20\n      add\n      0x00\n      keccak256\n        /* \"contracts/EWasteToken.sol\":5208:5230  wasteItems[_id].status */\n      0x05\n      add\n      0x00\n      swap1\n      sload\n      swap1\n      0x0100\n      exp\n      swap1\n      div\n      0xff\n      and\n        /* \"contracts/EWasteToken.sol\":5208:5249  wasteItems[_id].status == Status.RECYCLED */\n      0x06\n      dup2\n      gt\n      iszero\n      tag_301\n      jumpi\n      tag_302\n      tag_237\n      jump\t// in\n    tag_302:\n    tag_301:\n      eq\n        /* \"contracts/EWasteToken.sol\":5200:5268  require(wasteItems[_id].status == Status.RECYCLED, \"Invalid status\") */\n      tag_303\n      jumpi\n      mload(0x40)\n      0x08c379a000000000000000000000000000000000000000000000000000000000\n      dup2\n      mstore\n      0x04\n      add\n      tag_304\n      swap1\n      tag_253\n      jump\t// in\n    tag_304:\n      mload(0x40)\n      dup1\n      swap2\n      sub\n      swap1\n      revert\n    tag_303:\n        /* \"contracts/EWasteToken.sol\":5314:5331  Status.DISMANTLED */\n      0x05\n        /* \"contracts/EWasteToken.sol\":5289:5299  wasteItems */\n      0x06\n        /* \"contracts/EWasteToken.sol\":5289:5304  wasteItems[_id] */\n      0x00\n        /* \"contracts/EWasteToken.sol\":5300:5303  _id */\n      dup5\n        /* \"contracts/EWasteToken.sol\":5289:5304  wasteItems[_id] */\n      dup2\n      mstore\n      0x20\n      add\n      swap1\n      dup2\n      mstore\n      0x20\n      add\n      0x00\n      keccak256\n        /* \"contracts/EWasteToken.sol\":5289:5311  wasteItems[_id].status */\n      0x05\n      add\n      0x00\n        /* \"contracts/EWasteToken.sol\":5289:5331  wasteItems[_id].status = Status.DISMANTLED */\n      0x0100\n      exp\n      dup2\n      sload\n      dup2\n      0xff\n      mul\n      not\n      and\n      swap1\n      dup4\n      0x06\n      dup2\n      gt\n      iszero\n      tag_305\n      jumpi\n      tag_306\n      tag_237\n      jump\t// in\n    tag_306:\n    tag_305:\n      mul\n      or\n      swap1\n      sstore\n      pop\n        /* \"contracts/EWasteToken.sol\":5375:5385  msg.sender */\n      caller\n        /* \"contracts/EWasteToken.sol\":5342:5352  wasteItems */\n      0x06\n        /* \"contracts/EWasteToken.sol\":5342:5357  wasteItems[_id] */\n      0x00\n        /* \"contracts/EWasteToken.sol\":5353:5356  _id */\n      dup5\n        /* \"contracts/EWasteToken.sol\":5342:5357  wasteItems[_id] */\n      dup2\n      mstore\n      0x20\n      add\n      swap1\n      dup2\n      mstore\n      0x20\n      add\n      0x00\n      keccak256\n        /* \"contracts/EWasteToken.sol\":5342:5372  wasteItems[_id].currentHandler */\n      0x05\n      add\n      0x01\n        /* \"contracts/EWasteToken.sol\":5342:5385  wasteItems[_id].currentHandler = msg.sender */\n      0x0100\n      exp\n      dup2\n      sload\n      dup2\n      0xffffffffffffffffffffffffffffffffffffffff\n      mul\n      not\n      and\n      swap1\n      dup4\n      0xffffffffffffffffffffffffffffffffffffffff\n      and\n      mul\n      or\n      swap1\n      sstore\n      pop\n        /* \"contracts/EWasteToken.sol\":5406:5420  uint256 reward */\n      0x00\n        /* \"contracts/EWasteToken.sol\":5423:5470  _calculateAndMintReward(_id, Status.DISMANTLED) */\n      tag_307\n        /* \"contracts/EWasteToken.sol\":5447:5450  _id */\n      dup4\n        /* \"contracts/EWasteToken.sol\":5452:5469  Status.DISMANTLED */\n      0x05\n        /* \"contracts/EWasteToken.sol\":5423:5446  _calculateAndMintReward */\n      tag_257\n        /* \"contracts/EWasteToken.sol\":5423:5470  _calculateAndMintReward(_id, Status.DISMANTLED) */\n      jump\t// in\n    tag_307:\n        /* \"contracts/EWasteToken.sol\":5406:5470  uint256 reward = _calculateAndMintReward(_id, Status.DISMANTLED) */\n      swap1\n      pop\n        /* \"contracts/EWasteToken.sol\":5506:5516  msg.sender */\n      caller\n        /* \"contracts/EWasteToken.sol\":5486:5525  ItemDismantled(_id, msg.sender, reward) */\n      0xffffffffffffffffffffffffffffffffffffffff\n      and\n        /* \"contracts/EWasteToken.sol\":5501:5504  _id */\n      dup4\n        /* \"contracts/EWasteToken.sol\":5486:5525  ItemDismantled(_id, msg.sender, reward) */\n      0x77b29112f6bbaf1890ec3f52fb1f9ef0367e0babd3bcb3aa7d123b7a7734a54c\n        /* \"contracts/EWasteToken.sol\":5518:5524  reward */\n      dup4\n        /* \"contracts/EWasteToken.sol\":5486:5525  ItemDismantled(_id, msg.sender, reward) */\n      mload(0x40)\n      tag_308\n      swap2\n      swap1\n      tag_73\n      jump\t// in\n    tag_308:\n      mload(0x40)\n      dup1\n      swap2\n      sub\n      swap1\n      log3\n        /* \"contracts/EWasteToken.sol\":5189:5533  {... */\n      pop\n        /* \"contracts/EWasteToken.sol\":5118:5533  function dismantleItem(uint256 _id) external onlyRole(DISMANTLER_ROLE) {... */\n      pop\n      pop\n      jump\t// out\n        /* \"@openzeppelin/contracts/access/AccessControl.sol\":2854:2990  function hasRole(bytes32 role, address account) public view virtual returns (bool) {... */\n    tag_137:\n        /* \"@openzeppelin/contracts/access/AccessControl.sol\":2931:2935  bool */\n      0x00\n        /* \"@openzeppelin/contracts/access/AccessControl.sol\":2954:2960  _roles */\n      0x05\n        /* \"@openzeppelin/contracts/access/AccessControl.sol\":2954:2966  _roles[role] */\n      0x00\n        /* \"@openzeppelin/contracts/access/AccessControl.sol\":2961:2965  role */\n      dup5\n        /* \"@openzeppelin/contracts/access/AccessControl.sol\":2954:2966  _roles[role] */\n      dup2\n      mstore\n      0x20\n      add\n      swap1\n      dup2\n      mstore\n      0x20\n      add\n      0x00\n      keccak256\n        /* \"@openzeppelin/contracts/access/AccessControl.sol\":2954:2974  _roles[role].hasRole */\n      0x00\n      add\n        /* \"@openzeppelin/contracts/access/AccessControl.sol\":2954:2983  _roles[role].hasRole[account] */\n      0x00\n        /* \"@openzeppelin/contracts/access/AccessControl.sol\":2975:2982  account */\n      dup4\n        /* \"@openzeppelin/contracts/access/AccessControl.sol\":2954:2983  _roles[role].hasRole[account] */\n      0xffffffffffffffffffffffffffffffffffffffff\n      and\n      0xffffffffffffffffffffffffffffffffffffffff\n      and\n      dup2\n      mstore\n      0x20\n      add\n      swap1\n      dup2\n      mstore\n      0x20\n      add\n      0x00\n      keccak256\n      0x00\n      swap1\n      sload\n      swap1\n      0x0100\n      exp\n      swap1\n      div\n      0xff\n      and\n        /* \"@openzeppelin/contracts/access/AccessControl.sol\":2947:2983  return _roles[role].hasRole[account] */\n      swap1\n      pop\n        /* \"@openzeppelin/contracts/access/AccessControl.sol\":2854:2990  function hasRole(bytes32 role, address account) public view virtual returns (bool) {... */\n      swap3\n      swap2\n      pop\n      pop\n      jump\t// out\n        /* \"@openzeppelin/contracts/token/ERC20/ERC20.sol\":1981:2074  function symbol() public view virtual returns (string memory) {... */\n    tag_140:\n        /* \"@openzeppelin/contracts/token/ERC20/ERC20.sol\":2028:2041  string memory */\n      0x60\n        /* \"@openzeppelin/contracts/token/ERC20/ERC20.sol\":2060:2067  _symbol */\n      0x04\n        /* \"@openzeppelin/contracts/token/ERC20/ERC20.sol\":2053:2067  return _symbol */\n      dup1\n      sload\n      tag_311\n      swap1\n      tag_197\n      jump\t// in\n    tag_311:\n      dup1\n      0x1f\n      add\n      0x20\n      dup1\n      swap2\n      div\n      mul\n      0x20\n      add\n      mload(0x40)\n      swap1\n      dup2\n      add\n      0x40\n      mstore\n      dup1\n      swap3\n      swap2\n      swap1\n      dup2\n      dup2\n      mstore\n      0x20\n      add\n      dup3\n      dup1\n      sload\n      tag_312\n      swap1\n      tag_197\n      jump\t// in\n    tag_312:\n      dup1\n      iszero\n      tag_313\n      jumpi\n      dup1\n      0x1f\n      lt\n      tag_314\n      jumpi\n      0x0100\n      dup1\n      dup4\n      sload\n      div\n      mul\n      dup4\n      mstore\n      swap2\n      0x20\n      add\n      swap2\n      jump(tag_313)\n    tag_314:\n      dup3\n      add\n      swap2\n      swap1\n      0x00\n      mstore\n      keccak256(0x00, 0x20)\n      swap1\n    tag_315:\n      dup2\n      sload\n      dup2\n      mstore\n      swap1\n      0x01\n      add\n      swap1\n      0x20\n      add\n      dup1\n      dup4\n      gt\n      tag_315\n      jumpi\n      dup3\n      swap1\n      sub\n      0x1f\n      and\n      dup3\n      add\n      swap2\n    tag_313:\n      pop\n      pop\n      pop\n      pop\n      pop\n      swap1\n      pop\n        /* \"@openzeppelin/contracts/token/ERC20/ERC20.sol\":1981:2074  function symbol() public view virtual returns (string memory) {... */\n      swap1\n      jump\t// out\n        /* \"contracts/EWasteToken.sol\":3838:4186  function markAsRepairable(uint256 _id) external onlyRole(COLLECTOR_ROLE) {... */\n    tag_144:\n        /* \"contracts/EWasteToken.sol\":286:313  keccak256(\"COLLECTOR_ROLE\") */\n      0x14cf45180c3fcf249a5a305e9657ea05c14fd4f4e1800ee0216a8213091711d2\n        /* \"@openzeppelin/contracts/access/AccessControl.sol\":2464:2480  _checkRole(role) */\n      tag_317\n        /* \"@openzeppelin/contracts/access/AccessControl.sol\":2475:2479  role */\n      dup2\n        /* \"@openzeppelin/contracts/access/AccessControl.sol\":2464:2474  _checkRole */\n      tag_223\n        /* \"@openzeppelin/contracts/access/AccessControl.sol\":2464:2480  _checkRole(role) */\n      jump\t// in\n    tag_317:\n        /* \"contracts/EWasteToken.sol\":3956:3972  Status.COLLECTED */\n      0x01\n        /* \"contracts/EWasteToken.sol\":3930:3972  wasteItems[_id].status == Status.COLLECTED */\n      0x06\n      dup2\n      gt\n      iszero\n      tag_319\n      jumpi\n      tag_320\n      tag_237\n      jump\t// in\n    tag_320:\n    tag_319:\n        /* \"contracts/EWasteToken.sol\":3930:3940  wasteItems */\n      0x06\n        /* \"contracts/EWasteToken.sol\":3930:3945  wasteItems[_id] */\n      0x00\n        /* \"contracts/EWasteToken.sol\":3941:3944  _id */\n      dup5\n        /* \"contracts/EWasteToken.sol\":3930:3945  wasteItems[_id] */\n      dup2\n      mstore\n      0x20\n      add\n      swap1\n      dup2\n      mstore\n      0x20\n      add\n      0x00\n      keccak256\n        /* \"contracts/EWasteToken.sol\":3930:3952  wasteItems[_id].status */\n      0x05\n      add\n      0x00\n      swap1\n      sload\n      swap1\n      0x0100\n      exp\n      swap1\n      div\n      0xff\n      and\n        /* \"contracts/EWasteToken.sol\":3930:3972  wasteItems[_id].status == Status.COLLECTED */\n      0x06\n      dup2\n      gt\n      iszero\n      tag_321\n      jumpi\n      tag_322\n      tag_237\n      jump\t// in\n    tag_322:\n    tag_321:\n      eq\n        /* \"contracts/EWasteToken.sol\":3922:3991  require(wasteItems[_id].status == Status.COLLECTED, \"Invalid status\") */\n      tag_323\n      jumpi\n      mload(0x40)\n      0x08c379a000000000000000000000000000000000000000000000000000000000\n      dup2\n      mstore\n      0x04\n      add\n      tag_324\n      swap1\n      tag_253\n      jump\t// in\n    tag_324:\n      mload(0x40)\n      dup1\n      swap2\n      sub\n      swap1\n      revert\n    tag_323:\n        /* \"contracts/EWasteToken.sol\":4010:4020  wasteItems */\n      0x06\n        /* \"contracts/EWasteToken.sol\":4010:4025  wasteItems[_id] */\n      0x00\n        /* \"contracts/EWasteToken.sol\":4021:4024  _id */\n      dup4\n        /* \"contracts/EWasteToken.sol\":4010:4025  wasteItems[_id] */\n      dup2\n      mstore\n      0x20\n      add\n      swap1\n      dup2\n      mstore\n      0x20\n      add\n      0x00\n      keccak256\n        /* \"contracts/EWasteToken.sol\":4010:4038  wasteItems[_id].isRepairable */\n      0x05\n      add\n      0x15\n      swap1\n      sload\n      swap1\n      0x0100\n      exp\n      swap1\n      div\n      0xff\n      and\n        /* \"contracts/EWasteToken.sol\":4002:4062  require(wasteItems[_id].isRepairable, \"Item not repairable\") */\n      tag_325\n      jumpi\n      mload(0x40)\n      0x08c379a000000000000000000000000000000000000000000000000000000000\n      dup2\n      mstore\n      0x04\n      add\n      tag_326\n      swap1\n      tag_327\n      jump\t// in\n    tag_326:\n      mload(0x40)\n      dup1\n      swap2\n      sub\n      swap1\n      revert\n    tag_325:\n        /* \"contracts/EWasteToken.sol\":4108:4125  Status.REPAIRABLE */\n      0x02\n        /* \"contracts/EWasteToken.sol\":4083:4093  wasteItems */\n      0x06\n        /* \"contracts/EWasteToken.sol\":4083:4098  wasteItems[_id] */\n      0x00\n        /* \"contracts/EWasteToken.sol\":4094:4097  _id */\n      dup5\n        /* \"contracts/EWasteToken.sol\":4083:4098  wasteItems[_id] */\n      dup2\n      mstore\n      0x20\n      add\n      swap1\n      dup2\n      mstore\n      0x20\n      add\n      0x00\n      keccak256\n        /* \"contracts/EWasteToken.sol\":4083:4105  wasteItems[_id].status */\n      0x05\n      add\n      0x00\n        /* \"contracts/EWasteToken.sol\":4083:4125  wasteItems[_id].status = Status.REPAIRABLE */\n      0x0100\n      exp\n      dup2\n      sload\n      dup2\n      0xff\n      mul\n      not\n      and\n      swap1\n      dup4\n      0x06\n      dup2\n      gt\n      iszero\n      tag_328\n      jumpi\n      tag_329\n      tag_237\n      jump\t// in\n    tag_329:\n    tag_328:\n      mul\n      or\n      swap1\n      sstore\n      pop\n        /* \"contracts/EWasteToken.sol\":4167:4177  msg.sender */\n      caller\n        /* \"contracts/EWasteToken.sol\":4141:4178  ItemMarkedRepairable(_id, msg.sender) */\n      0xffffffffffffffffffffffffffffffffffffffff\n      and\n        /* \"contracts/EWasteToken.sol\":4162:4165  _id */\n      dup3\n        /* \"contracts/EWasteToken.sol\":4141:4178  ItemMarkedRepairable(_id, msg.sender) */\n      0xd0ff3b517d0c850b614729642e089a59aea81eb4ba36827eafe9b43b404da0d7\n      mload(0x40)\n      mload(0x40)\n      dup1\n      swap2\n      sub\n      swap1\n      log3\n        /* \"contracts/EWasteToken.sol\":3838:4186  function markAsRepairable(uint256 _id) external onlyRole(COLLECTOR_ROLE) {... */\n      pop\n      pop\n      jump\t// out\n        /* \"contracts/EWasteToken.sol\":245:313  bytes32 public constant COLLECTOR_ROLE = keccak256(\"COLLECTOR_ROLE\") */\n    tag_146:\n        /* \"contracts/EWasteToken.sol\":286:313  keccak256(\"COLLECTOR_ROLE\") */\n      0x14cf45180c3fcf249a5a305e9657ea05c14fd4f4e1800ee0216a8213091711d2\n        /* \"contracts/EWasteToken.sol\":245:313  bytes32 public constant COLLECTOR_ROLE = keccak256(\"COLLECTOR_ROLE\") */\n      dup2\n      jump\t// out\n        /* \"@openzeppelin/contracts/access/AccessControl.sol\":2187:2236  bytes32 public constant DEFAULT_ADMIN_ROLE = 0x00 */\n    tag_149:\n        /* \"@openzeppelin/contracts/access/AccessControl.sol\":2232:2236  0x00 */\n      0x00\n        /* \"@openzeppelin/contracts/access/AccessControl.sol\":2187:2236  bytes32 public constant DEFAULT_ADMIN_ROLE = 0x00 */\n      dup1\n      shl\n      dup2\n      jump\t// out\n        /* \"contracts/EWasteToken.sol\":7751:7876  function addRole(address _account, bytes32 _role) external onlyRole(ADMIN_ROLE) {... */\n    tag_154:\n        /* \"contracts/EWasteToken.sol\":580:603  keccak256(\"ADMIN_ROLE\") */\n      0xa49807205ce4d355092ef5a8a18f56e8913cf4a201fbe287825b095693c21775\n        /* \"@openzeppelin/contracts/access/AccessControl.sol\":2464:2480  _checkRole(role) */\n      tag_331\n        /* \"@openzeppelin/contracts/access/AccessControl.sol\":2475:2479  role */\n      dup2\n        /* \"@openzeppelin/contracts/access/AccessControl.sol\":2464:2474  _checkRole */\n      tag_223\n        /* \"@openzeppelin/contracts/access/AccessControl.sol\":2464:2480  _checkRole(role) */\n      jump\t// in\n    tag_331:\n        /* \"contracts/EWasteToken.sol\":7842:7868  grantRole(_role, _account) */\n      tag_333\n        /* \"contracts/EWasteToken.sol\":7852:7857  _role */\n      dup3\n        /* \"contracts/EWasteToken.sol\":7859:7867  _account */\n      dup5\n        /* \"contracts/EWasteToken.sol\":7842:7851  grantRole */\n      tag_91\n        /* \"contracts/EWasteToken.sol\":7842:7868  grantRole(_role, _account) */\n      jump\t// in\n    tag_333:\n        /* \"contracts/EWasteToken.sol\":7751:7876  function addRole(address _account, bytes32 _role) external onlyRole(ADMIN_ROLE) {... */\n      pop\n      pop\n      pop\n      jump\t// out\n        /* \"@openzeppelin/contracts/token/ERC20/ERC20.sol\":3315:3493  function transfer(address to, uint256 value) public virtual returns (bool) {... */\n    tag_157:\n        /* \"@openzeppelin/contracts/token/ERC20/ERC20.sol\":3384:3388  bool */\n      0x00\n        /* \"@openzeppelin/contracts/token/ERC20/ERC20.sol\":3400:3413  address owner */\n      dup1\n        /* \"@openzeppelin/contracts/token/ERC20/ERC20.sol\":3416:3428  _msgSender() */\n      tag_335\n        /* \"@openzeppelin/contracts/token/ERC20/ERC20.sol\":3416:3426  _msgSender */\n      tag_209\n        /* \"@openzeppelin/contracts/token/ERC20/ERC20.sol\":3416:3428  _msgSender() */\n      jump\t// in\n    tag_335:\n        /* \"@openzeppelin/contracts/token/ERC20/ERC20.sol\":3400:3428  address owner = _msgSender() */\n      swap1\n      pop\n        /* \"@openzeppelin/contracts/token/ERC20/ERC20.sol\":3438:3465  _transfer(owner, to, value) */\n      tag_336\n        /* \"@openzeppelin/contracts/token/ERC20/ERC20.sol\":3448:3453  owner */\n      dup2\n        /* \"@openzeppelin/contracts/token/ERC20/ERC20.sol\":3455:3457  to */\n      dup6\n        /* \"@openzeppelin/contracts/token/ERC20/ERC20.sol\":3459:3464  value */\n      dup6\n        /* \"@openzeppelin/contracts/token/ERC20/ERC20.sol\":3438:3447  _transfer */\n      tag_218\n        /* \"@openzeppelin/contracts/token/ERC20/ERC20.sol\":3438:3465  _transfer(owner, to, value) */\n      jump\t// in\n    tag_336:\n        /* \"@openzeppelin/contracts/token/ERC20/ERC20.sol\":3482:3486  true */\n      0x01\n        /* \"@openzeppelin/contracts/token/ERC20/ERC20.sol\":3475:3486  return true */\n      swap2\n      pop\n      pop\n        /* \"@openzeppelin/contracts/token/ERC20/ERC20.sol\":3315:3493  function transfer(address to, uint256 value) public virtual returns (bool) {... */\n      swap3\n      swap2\n      pop\n      pop\n      jump\t// out\n        /* \"contracts/EWasteToken.sol\":824:876  uint256 public constant BASE_REPAIR_REWARD = 8 ether */\n    tag_160:\n        /* \"contracts/EWasteToken.sol\":869:876  8 ether */\n      0x6f05b59d3b200000\n        /* \"contracts/EWasteToken.sol\":824:876  uint256 public constant BASE_REPAIR_REWARD = 8 ether */\n      dup2\n      jump\t// out\n        /* \"contracts/EWasteToken.sol\":470:536  bytes32 public constant REPAIRER_ROLE = keccak256(\"REPAIRER_ROLE\") */\n    tag_163:\n        /* \"contracts/EWasteToken.sol\":510:536  keccak256(\"REPAIRER_ROLE\") */\n      0xab5c443dd93b1877c3b155b5e3ddb79cb901fd6f9d2e3bd366f3216a80b889e7\n        /* \"contracts/EWasteToken.sol\":470:536  bytes32 public constant REPAIRER_ROLE = keccak256(\"REPAIRER_ROLE\") */\n      dup2\n      jump\t// out\n        /* \"contracts/EWasteToken.sol\":320:386  bytes32 public constant RECYCLER_ROLE = keccak256(\"RECYCLER_ROLE\") */\n    tag_166:\n        /* \"contracts/EWasteToken.sol\":360:386  keccak256(\"RECYCLER_ROLE\") */\n      0x11d2c681bc9c10ed61f9a422c0dbaaddc4054ce58ec726aca73e7e4d31bcd154\n        /* \"contracts/EWasteToken.sol\":320:386  bytes32 public constant RECYCLER_ROLE = keccak256(\"RECYCLER_ROLE\") */\n      dup2\n      jump\t// out\n        /* \"contracts/EWasteToken.sol\":762:817  uint256 public constant BASE_RECYCLING_REWARD = 7 ether */\n    tag_169:\n        /* \"contracts/EWasteToken.sol\":810:817  7 ether */\n      0x6124fee993bc0000\n        /* \"contracts/EWasteToken.sol\":762:817  uint256 public constant BASE_RECYCLING_REWARD = 7 ether */\n      dup2\n      jump\t// out\n        /* \"contracts/EWasteToken.sol\":699:755  uint256 public constant BASE_COLLECTION_REWARD = 5 ether */\n    tag_172:\n        /* \"contracts/EWasteToken.sol\":748:755  5 ether */\n      0x4563918244f40000\n        /* \"contracts/EWasteToken.sol\":699:755  uint256 public constant BASE_COLLECTION_REWARD = 5 ether */\n      dup2\n      jump\t// out\n        /* \"@openzeppelin/contracts/access/AccessControl.sol\":4642:4780  function revokeRole(bytes32 role, address account) public virtual onlyRole(getRoleAdmin(role)) {... */\n    tag_176:\n        /* \"@openzeppelin/contracts/access/AccessControl.sol\":4717:4735  getRoleAdmin(role) */\n      tag_337\n        /* \"@openzeppelin/contracts/access/AccessControl.sol\":4730:4734  role */\n      dup3\n        /* \"@openzeppelin/contracts/access/AccessControl.sol\":4717:4729  getRoleAdmin */\n      tag_85\n        /* \"@openzeppelin/contracts/access/AccessControl.sol\":4717:4735  getRoleAdmin(role) */\n      jump\t// in\n    tag_337:\n        /* \"@openzeppelin/contracts/access/AccessControl.sol\":2464:2480  _checkRole(role) */\n      tag_339\n        /* \"@openzeppelin/contracts/access/AccessControl.sol\":2475:2479  role */\n      dup2\n        /* \"@openzeppelin/contracts/access/AccessControl.sol\":2464:2474  _checkRole */\n      tag_223\n        /* \"@openzeppelin/contracts/access/AccessControl.sol\":2464:2480  _checkRole(role) */\n      jump\t// in\n    tag_339:\n        /* \"@openzeppelin/contracts/access/AccessControl.sol\":4747:4773  _revokeRole(role, account) */\n      tag_341\n        /* \"@openzeppelin/contracts/access/AccessControl.sol\":4759:4763  role */\n      dup4\n        /* \"@openzeppelin/contracts/access/AccessControl.sol\":4765:4772  account */\n      dup4\n        /* \"@openzeppelin/contracts/access/AccessControl.sol\":4747:4758  _revokeRole */\n      tag_263\n        /* \"@openzeppelin/contracts/access/AccessControl.sol\":4747:4773  _revokeRole(role, account) */\n      jump\t// in\n    tag_341:\n      pop\n        /* \"@openzeppelin/contracts/access/AccessControl.sol\":4642:4780  function revokeRole(bytes32 role, address account) public virtual onlyRole(getRoleAdmin(role)) {... */\n      pop\n      pop\n      pop\n      jump\t// out\n        /* \"contracts/EWasteToken.sol\":5541:5851  function resellItem(uint256 _id) external {... */\n    tag_179:\n        /* \"contracts/EWasteToken.sol\":5628:5645  Status.DISMANTLED */\n      0x05\n        /* \"contracts/EWasteToken.sol\":5602:5645  wasteItems[_id].status == Status.DISMANTLED */\n      0x06\n      dup2\n      gt\n      iszero\n      tag_343\n      jumpi\n      tag_344\n      tag_237\n      jump\t// in\n    tag_344:\n    tag_343:\n        /* \"contracts/EWasteToken.sol\":5602:5612  wasteItems */\n      0x06\n        /* \"contracts/EWasteToken.sol\":5602:5617  wasteItems[_id] */\n      0x00\n        /* \"contracts/EWasteToken.sol\":5613:5616  _id */\n      dup4\n        /* \"contracts/EWasteToken.sol\":5602:5617  wasteItems[_id] */\n      dup2\n      mstore\n      0x20\n      add\n      swap1\n      dup2\n      mstore\n      0x20\n      add\n      0x00\n      keccak256\n        /* \"contracts/EWasteToken.sol\":5602:5624  wasteItems[_id].status */\n      0x05\n      add\n      0x00\n      swap1\n      sload\n      swap1\n      0x0100\n      exp\n      swap1\n      div\n      0xff\n      and\n        /* \"contracts/EWasteToken.sol\":5602:5645  wasteItems[_id].status == Status.DISMANTLED */\n      0x06\n      dup2\n      gt\n      iszero\n      tag_345\n      jumpi\n      tag_346\n      tag_237\n      jump\t// in\n    tag_346:\n    tag_345:\n      eq\n        /* \"contracts/EWasteToken.sol\":5594:5664  require(wasteItems[_id].status == Status.DISMANTLED, \"Invalid status\") */\n      tag_347\n      jumpi\n      mload(0x40)\n      0x08c379a000000000000000000000000000000000000000000000000000000000\n      dup2\n      mstore\n      0x04\n      add\n      tag_348\n      swap1\n      tag_253\n      jump\t// in\n    tag_348:\n      mload(0x40)\n      dup1\n      swap2\n      sub\n      swap1\n      revert\n    tag_347:\n        /* \"contracts/EWasteToken.sol\":5717:5727  msg.sender */\n      caller\n        /* \"contracts/EWasteToken.sol\":5683:5727  wasteItems[_id].currentHandler == msg.sender */\n      0xffffffffffffffffffffffffffffffffffffffff\n      and\n        /* \"contracts/EWasteToken.sol\":5683:5693  wasteItems */\n      0x06\n        /* \"contracts/EWasteToken.sol\":5683:5698  wasteItems[_id] */\n      0x00\n        /* \"contracts/EWasteToken.sol\":5694:5697  _id */\n      dup4\n        /* \"contracts/EWasteToken.sol\":5683:5698  wasteItems[_id] */\n      dup2\n      mstore\n      0x20\n      add\n      swap1\n      dup2\n      mstore\n      0x20\n      add\n      0x00\n      keccak256\n        /* \"contracts/EWasteToken.sol\":5683:5713  wasteItems[_id].currentHandler */\n      0x05\n      add\n      0x01\n      swap1\n      sload\n      swap1\n      0x0100\n      exp\n      swap1\n      div\n      0xffffffffffffffffffffffffffffffffffffffff\n      and\n        /* \"contracts/EWasteToken.sol\":5683:5727  wasteItems[_id].currentHandler == msg.sender */\n      0xffffffffffffffffffffffffffffffffffffffff\n      and\n      eq\n        /* \"contracts/EWasteToken.sol\":5675:5741  require(wasteItems[_id].currentHandler == msg.sender, \"Not owner\") */\n      tag_349\n      jumpi\n      mload(0x40)\n      0x08c379a000000000000000000000000000000000000000000000000000000000\n      dup2\n      mstore\n      0x04\n      add\n      tag_350\n      swap1\n      tag_351\n      jump\t// in\n    tag_350:\n      mload(0x40)\n      dup1\n      swap2\n      sub\n      swap1\n      revert\n    tag_349:\n        /* \"contracts/EWasteToken.sol\":5787:5800  Status.RESOLD */\n      0x06\n        /* \"contracts/EWasteToken.sol\":5762:5772  wasteItems */\n      dup1\n        /* \"contracts/EWasteToken.sol\":5762:5777  wasteItems[_id] */\n      0x00\n        /* \"contracts/EWasteToken.sol\":5773:5776  _id */\n      dup4\n        /* \"contracts/EWasteToken.sol\":5762:5777  wasteItems[_id] */\n      dup2\n      mstore\n      0x20\n      add\n      swap1\n      dup2\n      mstore\n      0x20\n      add\n      0x00\n      keccak256\n        /* \"contracts/EWasteToken.sol\":5762:5784  wasteItems[_id].status */\n      0x05\n      add\n      0x00\n        /* \"contracts/EWasteToken.sol\":5762:5800  wasteItems[_id].status = Status.RESOLD */\n      0x0100\n      exp\n      dup2\n      sload\n      dup2\n      0xff\n      mul\n      not\n      and\n      swap1\n      dup4\n      0x06\n      dup2\n      gt\n      iszero\n      tag_352\n      jumpi\n      tag_353\n      tag_237\n      jump\t// in\n    tag_353:\n    tag_352:\n      mul\n      or\n      swap1\n      sstore\n      pop\n        /* \"contracts/EWasteToken.sol\":5832:5842  msg.sender */\n      caller\n        /* \"contracts/EWasteToken.sol\":5816:5843  ItemResold(_id, msg.sender) */\n      0xffffffffffffffffffffffffffffffffffffffff\n      and\n        /* \"contracts/EWasteToken.sol\":5827:5830  _id */\n      dup2\n        /* \"contracts/EWasteToken.sol\":5816:5843  ItemResold(_id, msg.sender) */\n      0x278ab484a5db5fc05f3a869b94767b4a630943a85f774aa97a69aedb086c269c\n      mload(0x40)\n      mload(0x40)\n      dup1\n      swap2\n      sub\n      swap1\n      log3\n        /* \"contracts/EWasteToken.sol\":5541:5851  function resellItem(uint256 _id) external {... */\n      pop\n      jump\t// out\n        /* \"@openzeppelin/contracts/token/ERC20/ERC20.sol\":3551:3691  function allowance(address owner, address spender) public view virtual returns (uint256) {... */\n    tag_183:\n        /* \"@openzeppelin/contracts/token/ERC20/ERC20.sol\":3631:3638  uint256 */\n      0x00\n        /* \"@openzeppelin/contracts/token/ERC20/ERC20.sol\":3657:3668  _allowances */\n      0x01\n        /* \"@openzeppelin/contracts/token/ERC20/ERC20.sol\":3657:3675  _allowances[owner] */\n      0x00\n        /* \"@openzeppelin/contracts/token/ERC20/ERC20.sol\":3669:3674  owner */\n      dup5\n        /* \"@openzeppelin/contracts/token/ERC20/ERC20.sol\":3657:3675  _allowances[owner] */\n      0xffffffffffffffffffffffffffffffffffffffff\n      and\n      0xffffffffffffffffffffffffffffffffffffffff\n      and\n      dup2\n      mstore\n      0x20\n      add\n      swap1\n      dup2\n      mstore\n      0x20\n      add\n      0x00\n      keccak256\n        /* \"@openzeppelin/contracts/token/ERC20/ERC20.sol\":3657:3684  _allowances[owner][spender] */\n      0x00\n        /* \"@openzeppelin/contracts/token/ERC20/ERC20.sol\":3676:3683  spender */\n      dup4\n        /* \"@openzeppelin/contracts/token/ERC20/ERC20.sol\":3657:3684  _allowances[owner][spender] */\n      0xffffffffffffffffffffffffffffffffffffffff\n      and\n      0xffffffffffffffffffffffffffffffffffffffff\n      and\n      dup2\n      mstore\n      0x20\n      add\n      swap1\n      dup2\n      mstore\n      0x20\n      add\n      0x00\n      keccak256\n      sload\n        /* \"@openzeppelin/contracts/token/ERC20/ERC20.sol\":3650:3684  return _allowances[owner][spender] */\n      swap1\n      pop\n        /* \"@openzeppelin/contracts/token/ERC20/ERC20.sol\":3551:3691  function allowance(address owner, address spender) public view virtual returns (uint256) {... */\n      swap3\n      swap2\n      pop\n      pop\n      jump\t// out\n        /* \"contracts/EWasteToken.sol\":883:938  uint256 public constant BASE_DISMANTLE_REWARD = 6 ether */\n    tag_186:\n        /* \"contracts/EWasteToken.sol\":931:938  6 ether */\n      0x53444835ec580000\n        /* \"contracts/EWasteToken.sol\":883:938  uint256 public constant BASE_DISMANTLE_REWARD = 6 ether */\n      dup2\n      jump\t// out\n        /* \"contracts/EWasteToken.sol\":7884:8002  function mintTokens(address _to, uint256 _amount) external onlyRole(ADMIN_ROLE) {... */\n    tag_190:\n        /* \"contracts/EWasteToken.sol\":580:603  keccak256(\"ADMIN_ROLE\") */\n      0xa49807205ce4d355092ef5a8a18f56e8913cf4a201fbe287825b095693c21775\n        /* \"@openzeppelin/contracts/access/AccessControl.sol\":2464:2480  _checkRole(role) */\n      tag_356\n        /* \"@openzeppelin/contracts/access/AccessControl.sol\":2475:2479  role */\n      dup2\n        /* \"@openzeppelin/contracts/access/AccessControl.sol\":2464:2474  _checkRole */\n      tag_223\n        /* \"@openzeppelin/contracts/access/AccessControl.sol\":2464:2480  _checkRole(role) */\n      jump\t// in\n    tag_356:\n        /* \"contracts/EWasteToken.sol\":7975:7994  _mint(_to, _amount) */\n      tag_358\n        /* \"contracts/EWasteToken.sol\":7981:7984  _to */\n      dup4\n        /* \"contracts/EWasteToken.sol\":7986:7993  _amount */\n      dup4\n        /* \"contracts/EWasteToken.sol\":7975:7980  _mint */\n      tag_359\n        /* \"contracts/EWasteToken.sol\":7975:7994  _mint(_to, _amount) */\n      jump\t// in\n    tag_358:\n        /* \"contracts/EWasteToken.sol\":7884:8002  function mintTokens(address _to, uint256 _amount) external onlyRole(ADMIN_ROLE) {... */\n      pop\n      pop\n      pop\n      jump\t// out\n        /* \"@openzeppelin/contracts/utils/introspection/ERC165.sol\":763:909  function supportsInterface(bytes4 interfaceId) public view virtual returns (bool) {... */\n    tag_194:\n        /* \"@openzeppelin/contracts/utils/introspection/ERC165.sol\":839:843  bool */\n      0x00\n        /* \"@openzeppelin/contracts/utils/introspection/ERC165.sol\":877:902  type(IERC165).interfaceId */\n      0x01ffc9a700000000000000000000000000000000000000000000000000000000\n        /* \"@openzeppelin/contracts/utils/introspection/ERC165.sol\":862:902  interfaceId == type(IERC165).interfaceId */\n      not(0xffffffffffffffffffffffffffffffffffffffffffffffffffffffff)\n      and\n        /* \"@openzeppelin/contracts/utils/introspection/ERC165.sol\":862:873  interfaceId */\n      dup3\n        /* \"@openzeppelin/contracts/utils/introspection/ERC165.sol\":862:902  interfaceId == type(IERC165).interfaceId */\n      not(0xffffffffffffffffffffffffffffffffffffffffffffffffffffffff)\n      and\n      eq\n        /* \"@openzeppelin/contracts/utils/introspection/ERC165.sol\":855:902  return interfaceId == type(IERC165).interfaceId */\n      swap1\n      pop\n        /* \"@openzeppelin/contracts/utils/introspection/ERC165.sol\":763:909  function supportsInterface(bytes4 interfaceId) public view virtual returns (bool) {... */\n      swap2\n      swap1\n      pop\n      jump\t// out\n        /* \"@openzeppelin/contracts/utils/Context.sol\":656:752  function _msgSender() internal view virtual returns (address) {... */\n    tag_209:\n        /* \"@openzeppelin/contracts/utils/Context.sol\":709:716  address */\n      0x00\n        /* \"@openzeppelin/contracts/utils/Context.sol\":735:745  msg.sender */\n      caller\n        /* \"@openzeppelin/contracts/utils/Context.sol\":728:745  return msg.sender */\n      swap1\n      pop\n        /* \"@openzeppelin/contracts/utils/Context.sol\":656:752  function _msgSender() internal view virtual returns (address) {... */\n      swap1\n      jump\t// out\n        /* \"@openzeppelin/contracts/token/ERC20/ERC20.sol\":8726:8854  function _approve(address owner, address spender, uint256 value) internal {... */\n    tag_211:\n        /* \"@openzeppelin/contracts/token/ERC20/ERC20.sol\":8810:8847  _approve(owner, spender, value, true) */\n      tag_363\n        /* \"@openzeppelin/contracts/token/ERC20/ERC20.sol\":8819:8824  owner */\n      dup4\n        /* \"@openzeppelin/contracts/token/ERC20/ERC20.sol\":8826:8833  spender */\n      dup4\n        /* \"@openzeppelin/contracts/token/ERC20/ERC20.sol\":8835:8840  value */\n      dup4\n        /* \"@openzeppelin/contracts/token/ERC20/ERC20.sol\":8842:8846  true */\n      0x01\n        /* \"@openzeppelin/contracts/token/ERC20/ERC20.sol\":8810:8818  _approve */\n      tag_364\n        /* \"@openzeppelin/contracts/token/ERC20/ERC20.sol\":8810:8847  _approve(owner, spender, value, true) */\n      jump\t// in\n    tag_363:\n        /* \"@openzeppelin/contracts/token/ERC20/ERC20.sol\":8726:8854  function _approve(address owner, address spender, uint256 value) internal {... */\n      pop\n      pop\n      pop\n      jump\t// out\n        /* \"@openzeppelin/contracts/token/ERC20/ERC20.sol\":10415:10891  function _spendAllowance(address owner, address spender, uint256 value) internal virtual {... */\n    tag_216:\n        /* \"@openzeppelin/contracts/token/ERC20/ERC20.sol\":10514:10538  uint256 currentAllowance */\n      0x00\n        /* \"@openzeppelin/contracts/token/ERC20/ERC20.sol\":10541:10566  allowance(owner, spender) */\n      tag_366\n        /* \"@openzeppelin/contracts/token/ERC20/ERC20.sol\":10551:10556  owner */\n      dup5\n        /* \"@openzeppelin/contracts/token/ERC20/ERC20.sol\":10558:10565  spender */\n      dup5\n        /* \"@openzeppelin/contracts/token/ERC20/ERC20.sol\":10541:10550  allowance */\n      tag_183\n        /* \"@openzeppelin/contracts/token/ERC20/ERC20.sol\":10541:10566  allowance(owner, spender) */\n      jump\t// in\n    tag_366:\n        /* \"@openzeppelin/contracts/token/ERC20/ERC20.sol\":10514:10566  uint256 currentAllowance = allowance(owner, spender) */\n      swap1\n      pop\n        /* \"@openzeppelin/contracts/token/ERC20/ERC20.sol\":10599:10616  type(uint256).max */\n      0xffffffffffffffffffffffffffffffffffffffffffffffffffffffffffffffff\n        /* \"@openzeppelin/contracts/token/ERC20/ERC20.sol\":10580:10596  currentAllowance */\n      dup2\n        /* \"@openzeppelin/contracts/token/ERC20/ERC20.sol\":10580:10616  currentAllowance < type(uint256).max */\n      lt\n        /* \"@openzeppelin/contracts/token/ERC20/ERC20.sol\":10576:10885  if (currentAllowance < type(uint256).max) {... */\n      iszero\n      tag_367\n      jumpi\n        /* \"@openzeppelin/contracts/token/ERC20/ERC20.sol\":10655:10660  value */\n      dup2\n        /* \"@openzeppelin/contracts/token/ERC20/ERC20.sol\":10636:10652  currentAllowance */\n      dup2\n        /* \"@openzeppelin/contracts/token/ERC20/ERC20.sol\":10636:10660  currentAllowance < value */\n      lt\n        /* \"@openzeppelin/contracts/token/ERC20/ERC20.sol\":10632:10762  if (currentAllowance < value) {... */\n      iszero\n      tag_368\n      jumpi\n        /* \"@openzeppelin/contracts/token/ERC20/ERC20.sol\":10714:10721  spender */\n      dup3\n        /* \"@openzeppelin/contracts/token/ERC20/ERC20.sol\":10723:10739  currentAllowance */\n      dup2\n        /* \"@openzeppelin/contracts/token/ERC20/ERC20.sol\":10741:10746  value */\n      dup4\n        /* \"@openzeppelin/contracts/token/ERC20/ERC20.sol\":10687:10747  ERC20InsufficientAllowance(spender, currentAllowance, value) */\n      mload(0x40)\n      0xfb8f41b200000000000000000000000000000000000000000000000000000000\n      dup2\n      mstore\n      0x04\n      add\n      tag_369\n      swap4\n      swap3\n      swap2\n      swap1\n      tag_370\n      jump\t// in\n    tag_369:\n      mload(0x40)\n      dup1\n      swap2\n      sub\n      swap1\n      revert\n        /* \"@openzeppelin/contracts/token/ERC20/ERC20.sol\":10632:10762  if (currentAllowance < value) {... */\n    tag_368:\n        /* \"@openzeppelin/contracts/token/ERC20/ERC20.sol\":10803:10860  _approve(owner, spender, currentAllowance - value, false) */\n      tag_371\n        /* \"@openzeppelin/contracts/token/ERC20/ERC20.sol\":10812:10817  owner */\n      dup5\n        /* \"@openzeppelin/contracts/token/ERC20/ERC20.sol\":10819:10826  spender */\n      dup5\n        /* \"@openzeppelin/contracts/token/ERC20/ERC20.sol\":10847:10852  value */\n      dup5\n        /* \"@openzeppelin/contracts/token/ERC20/ERC20.sol\":10828:10844  currentAllowance */\n      dup5\n        /* \"@openzeppelin/contracts/token/ERC20/ERC20.sol\":10828:10852  currentAllowance - value */\n      sub\n        /* \"@openzeppelin/contracts/token/ERC20/ERC20.sol\":10854:10859  false */\n      0x00\n        /* \"@openzeppelin/contracts/token/ERC20/ERC20.sol\":10803:10811  _approve */\n      tag_364\n        /* \"@openzeppelin/contracts/token/ERC20/ERC20.sol\":10803:10860  _approve(owner, spender, currentAllowance - value, false) */\n      jump\t// in\n    tag_371:\n        /* \"@openzeppelin/contracts/token/ERC20/ERC20.sol\":10576:10885  if (currentAllowance < type(uint256).max) {... */\n    tag_367:\n        /* \"@openzeppelin/contracts/token/ERC20/ERC20.sol\":10504:10891  {... */\n      pop\n        /* \"@openzeppelin/contracts/token/ERC20/ERC20.sol\":10415:10891  function _spendAllowance(address owner, address spender, uint256 value) internal virtual {... */\n      pop\n      pop\n      pop\n      jump\t// out\n        /* \"@openzeppelin/contracts/token/ERC20/ERC20.sol\":5393:5693  function _transfer(address from, address to, uint256 value) internal {... */\n    tag_218:\n        /* \"@openzeppelin/contracts/token/ERC20/ERC20.sol\":5492:5493  0 */\n      0x00\n        /* \"@openzeppelin/contracts/token/ERC20/ERC20.sol\":5476:5494  from == address(0) */\n      0xffffffffffffffffffffffffffffffffffffffff\n      and\n        /* \"@openzeppelin/contracts/token/ERC20/ERC20.sol\":5476:5480  from */\n      dup4\n        /* \"@openzeppelin/contracts/token/ERC20/ERC20.sol\":5476:5494  from == address(0) */\n      0xffffffffffffffffffffffffffffffffffffffff\n      and\n      sub\n        /* \"@openzeppelin/contracts/token/ERC20/ERC20.sol\":5472:5558  if (from == address(0)) {... */\n      tag_373\n      jumpi\n        /* \"@openzeppelin/contracts/token/ERC20/ERC20.sol\":5544:5545  0 */\n      0x00\n        /* \"@openzeppelin/contracts/token/ERC20/ERC20.sol\":5517:5547  ERC20InvalidSender(address(0)) */\n      mload(0x40)\n      0x96c6fd1e00000000000000000000000000000000000000000000000000000000\n      dup2\n      mstore\n      0x04\n      add\n      tag_374\n      swap2\n      swap1\n      tag_375\n      jump\t// in\n    tag_374:\n      mload(0x40)\n      dup1\n      swap2\n      sub\n      swap1\n      revert\n        /* \"@openzeppelin/contracts/token/ERC20/ERC20.sol\":5472:5558  if (from == address(0)) {... */\n    tag_373:\n        /* \"@openzeppelin/contracts/token/ERC20/ERC20.sol\":5585:5586  0 */\n      0x00\n        /* \"@openzeppelin/contracts/token/ERC20/ERC20.sol\":5571:5587  to == address(0) */\n      0xffffffffffffffffffffffffffffffffffffffff\n      and\n        /* \"@openzeppelin/contracts/token/ERC20/ERC20.sol\":5571:5573  to */\n      dup3\n        /* \"@openzeppelin/contracts/token/ERC20/ERC20.sol\":5571:5587  to == address(0) */\n      0xffffffffffffffffffffffffffffffffffffffff\n      and\n      sub\n        /* \"@openzeppelin/contracts/token/ERC20/ERC20.sol\":5567:5653  if (to == address(0)) {... */\n      tag_376\n      jumpi\n        /* \"@openzeppelin/contracts/token/ERC20/ERC20.sol\":5639:5640  0 */\n      0x00\n        /* \"@openzeppelin/contracts/token/ERC20/ERC20.sol\":5610:5642  ERC20InvalidReceiver(address(0)) */\n      mload(0x40)\n      0xec442f0500000000000000000000000000000000000000000000000000000000\n      dup2\n      mstore\n      0x04\n      add\n      tag_377\n      swap2\n      swap1\n      tag_375\n      jump\t// in\n    tag_377:\n      mload(0x40)\n      dup1\n      swap2\n      sub\n      swap1\n      revert\n        /* \"@openzeppelin/contracts/token/ERC20/ERC20.sol\":5567:5653  if (to == address(0)) {... */\n    tag_376:\n        /* \"@openzeppelin/contracts/token/ERC20/ERC20.sol\":5662:5686  _update(from, to, value) */\n      tag_378\n        /* \"@openzeppelin/contracts/token/ERC20/ERC20.sol\":5670:5674  from */\n      dup4\n        /* \"@openzeppelin/contracts/token/ERC20/ERC20.sol\":5676:5678  to */\n      dup4\n        /* \"@openzeppelin/contracts/token/ERC20/ERC20.sol\":5680:5685  value */\n      dup4\n        /* \"@openzeppelin/contracts/token/ERC20/ERC20.sol\":5662:5669  _update */\n      tag_379\n        /* \"@openzeppelin/contracts/token/ERC20/ERC20.sol\":5662:5686  _update(from, to, value) */\n      jump\t// in\n    tag_378:\n        /* \"@openzeppelin/contracts/token/ERC20/ERC20.sol\":5393:5693  function _transfer(address from, address to, uint256 value) internal {... */\n      pop\n      pop\n      pop\n      jump\t// out\n        /* \"@openzeppelin/contracts/access/AccessControl.sol\":3199:3302  function _checkRole(bytes32 role) internal view virtual {... */\n    tag_223:\n        /* \"@openzeppelin/contracts/access/AccessControl.sol\":3265:3295  _checkRole(role, _msgSender()) */\n      tag_381\n        /* \"@openzeppelin/contracts/access/AccessControl.sol\":3276:3280  role */\n      dup2\n        /* \"@openzeppelin/contracts/access/AccessControl.sol\":3282:3294  _msgSender() */\n      tag_382\n        /* \"@openzeppelin/contracts/access/AccessControl.sol\":3282:3292  _msgSender */\n      tag_209\n        /* \"@openzeppelin/contracts/access/AccessControl.sol\":3282:3294  _msgSender() */\n      jump\t// in\n    tag_382:\n        /* \"@openzeppelin/contracts/access/AccessControl.sol\":3265:3275  _checkRole */\n      tag_383\n        /* \"@openzeppelin/contracts/access/AccessControl.sol\":3265:3295  _checkRole(role, _msgSender()) */\n      jump\t// in\n    tag_381:\n        /* \"@openzeppelin/contracts/access/AccessControl.sol\":3199:3302  function _checkRole(bytes32 role) internal view virtual {... */\n      pop\n      jump\t// out\n        /* \"@openzeppelin/contracts/access/AccessControl.sol\":6179:6495  function _grantRole(bytes32 role, address account) internal virtual returns (bool) {... */\n    tag_226:\n        /* \"@openzeppelin/contracts/access/AccessControl.sol\":6256:6260  bool */\n      0x00\n        /* \"@openzeppelin/contracts/access/AccessControl.sol\":6277:6299  hasRole(role, account) */\n      tag_385\n        /* \"@openzeppelin/contracts/access/AccessControl.sol\":6285:6289  role */\n      dup4\n        /* \"@openzeppelin/contracts/access/AccessControl.sol\":6291:6298  account */\n      dup4\n        /* \"@openzeppelin/contracts/access/AccessControl.sol\":6277:6284  hasRole */\n      tag_137\n        /* \"@openzeppelin/contracts/access/AccessControl.sol\":6277:6299  hasRole(role, account) */\n      jump\t// in\n    tag_385:\n        /* \"@openzeppelin/contracts/access/AccessControl.sol\":6272:6489  if (!hasRole(role, account)) {... */\n      tag_386\n      jumpi\n        /* \"@openzeppelin/contracts/access/AccessControl.sol\":6347:6351  true */\n      0x01\n        /* \"@openzeppelin/contracts/access/AccessControl.sol\":6315:6321  _roles */\n      0x05\n        /* \"@openzeppelin/contracts/access/AccessControl.sol\":6315:6327  _roles[role] */\n      0x00\n        /* \"@openzeppelin/contracts/access/AccessControl.sol\":6322:6326  role */\n      dup6\n        /* \"@openzeppelin/contracts/access/AccessControl.sol\":6315:6327  _roles[role] */\n      dup2\n      mstore\n      0x20\n      add\n      swap1\n      dup2\n      mstore\n      0x20\n      add\n      0x00\n      keccak256\n        /* \"@openzeppelin/contracts/access/AccessControl.sol\":6315:6335  _roles[role].hasRole */\n      0x00\n      add\n        /* \"@openzeppelin/contracts/access/AccessControl.sol\":6315:6344  _roles[role].hasRole[account] */\n      0x00\n        /* \"@openzeppelin/contracts/access/AccessControl.sol\":6336:6343  account */\n      dup5\n        /* \"@openzeppelin/contracts/access/AccessControl.sol\":6315:6344  _roles[role].hasRole[account] */\n      0xffffffffffffffffffffffffffffffffffffffff\n      and\n      0xffffffffffffffffffffffffffffffffffffffff\n      and\n      dup2\n      mstore\n      0x20\n      add\n      swap1\n      dup2\n      mstore\n      0x20\n      add\n      0x00\n      keccak256\n      0x00\n        /* \"@openzeppelin/contracts/access/AccessControl.sol\":6315:6351  _roles[role].hasRole[account] = true */\n      0x0100\n      exp\n      dup2\n      sload\n      dup2\n      0xff\n      mul\n      not\n      and\n      swap1\n      dup4\n      iszero\n      iszero\n      mul\n      or\n      swap1\n      sstore\n      pop\n        /* \"@openzeppelin/contracts/access/AccessControl.sol\":6397:6409  _msgSender() */\n      tag_387\n        /* \"@openzeppelin/contracts/access/AccessControl.sol\":6397:6407  _msgSender */\n      tag_209\n        /* \"@openzeppelin/contracts/access/AccessControl.sol\":6397:6409  _msgSender() */\n      jump\t// in\n    tag_387:\n        /* \"@openzeppelin/contracts/access/AccessControl.sol\":6370:6410  RoleGranted(role, account, _msgSender()) */\n      0xffffffffffffffffffffffffffffffffffffffff\n      and\n        /* \"@openzeppelin/contracts/access/AccessControl.sol\":6388:6395  account */\n      dup3\n        /* \"@openzeppelin/contracts/access/AccessControl.sol\":6370:6410  RoleGranted(role, account, _msgSender()) */\n      0xffffffffffffffffffffffffffffffffffffffff\n      and\n        /* \"@openzeppelin/contracts/access/AccessControl.sol\":6382:6386  role */\n      dup5\n        /* \"@openzeppelin/contracts/access/AccessControl.sol\":6370:6410  RoleGranted(role, account, _msgSender()) */\n      0x2f8788117e7eff1d82e926ec794901d17c78024a50270940304540a733656f0d\n      mload(0x40)\n      mload(0x40)\n      dup1\n      swap2\n      sub\n      swap1\n      log4\n        /* \"@openzeppelin/contracts/access/AccessControl.sol\":6431:6435  true */\n      0x01\n        /* \"@openzeppelin/contracts/access/AccessControl.sol\":6424:6435  return true */\n      swap1\n      pop\n      jump(tag_384)\n        /* \"@openzeppelin/contracts/access/AccessControl.sol\":6272:6489  if (!hasRole(role, account)) {... */\n    tag_386:\n        /* \"@openzeppelin/contracts/access/AccessControl.sol\":6473:6478  false */\n      0x00\n        /* \"@openzeppelin/contracts/access/AccessControl.sol\":6466:6478  return false */\n      swap1\n      pop\n        /* \"@openzeppelin/contracts/access/AccessControl.sol\":6179:6495  function _grantRole(bytes32 role, address account) internal virtual returns (bool) {... */\n    tag_384:\n      swap3\n      swap2\n      pop\n      pop\n      jump\t// out\n        /* \"contracts/EWasteToken.sol\":5907:6423  function _calculateAndMintReward(uint256 _id, Status _status) internal returns (uint256) {... */\n    tag_257:\n        /* \"contracts/EWasteToken.sol\":5987:5994  uint256 */\n      0x00\n        /* \"contracts/EWasteToken.sol\":6008:6020  uint256 base */\n      dup1\n        /* \"contracts/EWasteToken.sol\":6022:6036  uint256 qBonus */\n      0x00\n        /* \"contracts/EWasteToken.sol\":6038:6052  uint256 wBonus */\n      dup1\n        /* \"contracts/EWasteToken.sol\":6056:6090  _getRewardComponents(_id, _status) */\n      tag_390\n        /* \"contracts/EWasteToken.sol\":6077:6080  _id */\n      dup7\n        /* \"contracts/EWasteToken.sol\":6082:6089  _status */\n      dup7\n        /* \"contracts/EWasteToken.sol\":6056:6076  _getRewardComponents */\n      tag_391\n        /* \"contracts/EWasteToken.sol\":6056:6090  _getRewardComponents(_id, _status) */\n      jump\t// in\n    tag_390:\n        /* \"contracts/EWasteToken.sol\":6007:6090  (uint256 base, uint256 qBonus, uint256 wBonus) = _getRewardComponents(_id, _status) */\n      swap3\n      pop\n      swap3\n      pop\n      swap3\n      pop\n        /* \"contracts/EWasteToken.sol\":6101:6120  uint256 totalReward */\n      0x00\n        /* \"contracts/EWasteToken.sol\":6139:6145  wBonus */\n      dup2\n        /* \"contracts/EWasteToken.sol\":6130:6136  qBonus */\n      dup4\n        /* \"contracts/EWasteToken.sol\":6123:6127  base */\n      dup6\n        /* \"contracts/EWasteToken.sol\":6123:6136  base + qBonus */\n      tag_392\n      swap2\n      swap1\n      tag_393\n      jump\t// in\n    tag_392:\n        /* \"contracts/EWasteToken.sol\":6123:6145  base + qBonus + wBonus */\n      tag_394\n      swap2\n      swap1\n      tag_393\n      jump\t// in\n    tag_394:\n        /* \"contracts/EWasteToken.sol\":6101:6145  uint256 totalReward = base + qBonus + wBonus */\n      swap1\n      pop\n        /* \"contracts/EWasteToken.sol\":6166:6196  _mint(msg.sender, totalReward) */\n      tag_395\n        /* \"contracts/EWasteToken.sol\":6172:6182  msg.sender */\n      caller\n        /* \"contracts/EWasteToken.sol\":6184:6195  totalReward */\n      dup3\n        /* \"contracts/EWasteToken.sol\":6166:6171  _mint */\n      tag_359\n        /* \"contracts/EWasteToken.sol\":6166:6196  _mint(msg.sender, totalReward) */\n      jump\t// in\n    tag_395:\n        /* \"contracts/EWasteToken.sol\":6253:6256  _id */\n      dup7\n        /* \"contracts/EWasteToken.sol\":6222:6376  RewardCalculated(... */\n      0x8841d639ba79954a7c240dde37b5d6e3990383dc2f87c13e288e408108efb457\n        /* \"contracts/EWasteToken.sol\":6271:6278  _status */\n      dup8\n        /* \"contracts/EWasteToken.sol\":6293:6297  base */\n      dup7\n        /* \"contracts/EWasteToken.sol\":6312:6318  qBonus */\n      dup7\n        /* \"contracts/EWasteToken.sol\":6333:6339  wBonus */\n      dup7\n        /* \"contracts/EWasteToken.sol\":6354:6365  totalReward */\n      dup7\n        /* \"contracts/EWasteToken.sol\":6222:6376  RewardCalculated(... */\n      mload(0x40)\n      tag_396\n      swap6\n      swap5\n      swap4\n      swap3\n      swap2\n      swap1\n      tag_397\n      jump\t// in\n    tag_396:\n      mload(0x40)\n      dup1\n      swap2\n      sub\n      swap1\n      log2\n        /* \"contracts/EWasteToken.sol\":6404:6415  totalReward */\n      dup1\n        /* \"contracts/EWasteToken.sol\":6397:6415  return totalReward */\n      swap5\n      pop\n      pop\n      pop\n      pop\n      pop\n        /* \"contracts/EWasteToken.sol\":5907:6423  function _calculateAndMintReward(uint256 _id, Status _status) internal returns (uint256) {... */\n      swap3\n      swap2\n      pop\n      pop\n      jump\t// out\n        /* \"@openzeppelin/contracts/access/AccessControl.sol\":6730:7047  function _revokeRole(bytes32 role, address account) internal virtual returns (bool) {... */\n    tag_263:\n        /* \"@openzeppelin/contracts/access/AccessControl.sol\":6808:6812  bool */\n      0x00\n        /* \"@openzeppelin/contracts/access/AccessControl.sol\":6828:6850  hasRole(role, account) */\n      tag_399\n        /* \"@openzeppelin/contracts/access/AccessControl.sol\":6836:6840  role */\n      dup4\n        /* \"@openzeppelin/contracts/access/AccessControl.sol\":6842:6849  account */\n      dup4\n        /* \"@openzeppelin/contracts/access/AccessControl.sol\":6828:6835  hasRole */\n      tag_137\n        /* \"@openzeppelin/contracts/access/AccessControl.sol\":6828:6850  hasRole(role, account) */\n      jump\t// in\n    tag_399:\n        /* \"@openzeppelin/contracts/access/AccessControl.sol\":6824:7041  if (hasRole(role, account)) {... */\n      iszero\n      tag_400\n      jumpi\n        /* \"@openzeppelin/contracts/access/AccessControl.sol\":6898:6903  false */\n      0x00\n        /* \"@openzeppelin/contracts/access/AccessControl.sol\":6866:6872  _roles */\n      0x05\n        /* \"@openzeppelin/contracts/access/AccessControl.sol\":6866:6878  _roles[role] */\n      0x00\n        /* \"@openzeppelin/contracts/access/AccessControl.sol\":6873:6877  role */\n      dup6\n        /* \"@openzeppelin/contracts/access/AccessControl.sol\":6866:6878  _roles[role] */\n      dup2\n      mstore\n      0x20\n      add\n      swap1\n      dup2\n      mstore\n      0x20\n      add\n      0x00\n      keccak256\n        /* \"@openzeppelin/contracts/access/AccessControl.sol\":6866:6886  _roles[role].hasRole */\n      0x00\n      add\n        /* \"@openzeppelin/contracts/access/AccessControl.sol\":6866:6895  _roles[role].hasRole[account] */\n      0x00\n        /* \"@openzeppelin/contracts/access/AccessControl.sol\":6887:6894  account */\n      dup5\n        /* \"@openzeppelin/contracts/access/AccessControl.sol\":6866:6895  _roles[role].hasRole[account] */\n      0xffffffffffffffffffffffffffffffffffffffff\n      and\n      0xffffffffffffffffffffffffffffffffffffffff\n      and\n      dup2\n      mstore\n      0x20\n      add\n      swap1\n      dup2\n      mstore\n      0x20\n      add\n      0x00\n      keccak256\n      0x00\n        /* \"@openzeppelin/contracts/access/AccessControl.sol\":6866:6903  _roles[role].hasRole[account] = false */\n      0x0100\n      exp\n      dup2\n      sload\n      dup2\n      0xff\n      mul\n      not\n      and\n      swap1\n      dup4\n      iszero\n      iszero\n      mul\n      or\n      swap1\n      sstore\n      pop\n        /* \"@openzeppelin/contracts/access/AccessControl.sol\":6949:6961  _msgSender() */\n      tag_401\n        /* \"@openzeppelin/contracts/access/AccessControl.sol\":6949:6959  _msgSender */\n      tag_209\n        /* \"@openzeppelin/contracts/access/AccessControl.sol\":6949:6961  _msgSender() */\n      jump\t// in\n    tag_401:\n        /* \"@openzeppelin/contracts/access/AccessControl.sol\":6922:6962  RoleRevoked(role, account, _msgSender()) */\n      0xffffffffffffffffffffffffffffffffffffffff\n      and\n        /* \"@openzeppelin/contracts/access/AccessControl.sol\":6940:6947  account */\n      dup3\n        /* \"@openzeppelin/contracts/access/AccessControl.sol\":6922:6962  RoleRevoked(role, account, _msgSender()) */\n      0xffffffffffffffffffffffffffffffffffffffff\n      and\n        /* \"@openzeppelin/contracts/access/AccessControl.sol\":6934:6938  role */\n      dup5\n        /* \"@openzeppelin/contracts/access/AccessControl.sol\":6922:6962  RoleRevoked(role, account, _msgSender()) */\n      0xf6391f5c32d9c69d2a47ea670b442974b53935d1edc7fd64eb21e047a839171b\n      mload(0x40)\n      mload(0x40)\n      dup1\n      swap2\n      sub\n      swap1\n      log4\n        /* \"@openzeppelin/contracts/access/AccessControl.sol\":6983:6987  true */\n      0x01\n        /* \"@openzeppelin/contracts/access/AccessControl.sol\":6976:6987  return true */\n      swap1\n      pop\n      jump(tag_398)\n        /* \"@openzeppelin/contracts/access/AccessControl.sol\":6824:7041  if (hasRole(role, account)) {... */\n    tag_400:\n        /* \"@openzeppelin/contracts/access/AccessControl.sol\":7025:7030  false */\n      0x00\n        /* \"@openzeppelin/contracts/access/AccessControl.sol\":7018:7030  return false */\n      swap1\n      pop\n        /* \"@openzeppelin/contracts/access/AccessControl.sol\":6730:7047  function _revokeRole(bytes32 role, address account) internal virtual returns (bool) {... */\n    tag_398:\n      swap3\n      swap2\n      pop\n      pop\n      jump\t// out\n        /* \"@openzeppelin/contracts/token/ERC20/ERC20.sol\":7458:7666  function _mint(address account, uint256 value) internal {... */\n    tag_359:\n        /* \"@openzeppelin/contracts/token/ERC20/ERC20.sol\":7547:7548  0 */\n      0x00\n        /* \"@openzeppelin/contracts/token/ERC20/ERC20.sol\":7528:7549  account == address(0) */\n      0xffffffffffffffffffffffffffffffffffffffff\n      and\n        /* \"@openzeppelin/contracts/token/ERC20/ERC20.sol\":7528:7535  account */\n      dup3\n        /* \"@openzeppelin/contracts/token/ERC20/ERC20.sol\":7528:7549  account == address(0) */\n      0xffffffffffffffffffffffffffffffffffffffff\n      and\n      sub\n        /* \"@openzeppelin/contracts/token/ERC20/ERC20.sol\":7524:7615  if (account == address(0)) {... */\n      tag_404\n      jumpi\n        /* \"@openzeppelin/contracts/token/ERC20/ERC20.sol\":7601:7602  0 */\n      0x00\n        /* \"@openzeppelin/contracts/token/ERC20/ERC20.sol\":7572:7604  ERC20InvalidReceiver(address(0)) */\n      mload(0x40)\n      0xec442f0500000000000000000000000000000000000000000000000000000000\n      dup2\n      mstore\n      0x04\n      add\n      tag_405\n      swap2\n      swap1\n      tag_375\n      jump\t// in\n    tag_405:\n      mload(0x40)\n      dup1\n      swap2\n      sub\n      swap1\n      revert\n        /* \"@openzeppelin/contracts/token/ERC20/ERC20.sol\":7524:7615  if (account == address(0)) {... */\n    tag_404:\n        /* \"@openzeppelin/contracts/token/ERC20/ERC20.sol\":7624:7659  _update(address(0), account, value) */\n      tag_406\n        /* \"@openzeppelin/contracts/token/ERC20/ERC20.sol\":7640:7641  0 */\n      0x00\n        /* \"@openzeppelin/contracts/token/ERC20/ERC20.sol\":7644:7651  account */\n      dup4\n        /* \"@openzeppelin/contracts/token/ERC20/ERC20.sol\":7653:7658  value */\n      dup4\n        /* \"@openzeppelin/contracts/token/ERC20/ERC20.sol\":7624:7631  _update */\n      tag_379\n        /* \"@openzeppelin/contracts/token/ERC20/ERC20.sol\":7624:7659  _update(address(0), account, value) */\n      jump\t// in\n    tag_406:\n        /* \"@openzeppelin/contracts/token/ERC20/ERC20.sol\":7458:7666  function _mint(address account, uint256 value) internal {... */\n      pop\n      pop\n      jump\t// out\n        /* \"@openzeppelin/contracts/token/ERC20/ERC20.sol\":9701:10133  function _approve(address owner, address spender, uint256 value, bool emitEvent) internal virtual {... */\n    tag_364:\n        /* \"@openzeppelin/contracts/token/ERC20/ERC20.sol\":9830:9831  0 */\n      0x00\n        /* \"@openzeppelin/contracts/token/ERC20/ERC20.sol\":9813:9832  owner == address(0) */\n      0xffffffffffffffffffffffffffffffffffffffff\n      and\n        /* \"@openzeppelin/contracts/token/ERC20/ERC20.sol\":9813:9818  owner */\n      dup5\n        /* \"@openzeppelin/contracts/token/ERC20/ERC20.sol\":9813:9832  owner == address(0) */\n      0xffffffffffffffffffffffffffffffffffffffff\n      and\n      sub\n        /* \"@openzeppelin/contracts/token/ERC20/ERC20.sol\":9809:9898  if (owner == address(0)) {... */\n      tag_408\n      jumpi\n        /* \"@openzeppelin/contracts/token/ERC20/ERC20.sol\":9884:9885  0 */\n      0x00\n        /* \"@openzeppelin/contracts/token/ERC20/ERC20.sol\":9855:9887  ERC20InvalidApprover(address(0)) */\n      mload(0x40)\n      0xe602df0500000000000000000000000000000000000000000000000000000000\n      dup2\n      mstore\n      0x04\n      add\n      tag_409\n      swap2\n      swap1\n      tag_375\n      jump\t// in\n    tag_409:\n      mload(0x40)\n      dup1\n      swap2\n      sub\n      swap1\n      revert\n        /* \"@openzeppelin/contracts/token/ERC20/ERC20.sol\":9809:9898  if (owner == address(0)) {... */\n    tag_408:\n        /* \"@openzeppelin/contracts/token/ERC20/ERC20.sol\":9930:9931  0 */\n      0x00\n        /* \"@openzeppelin/contracts/token/ERC20/ERC20.sol\":9911:9932  spender == address(0) */\n      0xffffffffffffffffffffffffffffffffffffffff\n      and\n        /* \"@openzeppelin/contracts/token/ERC20/ERC20.sol\":9911:9918  spender */\n      dup4\n        /* \"@openzeppelin/contracts/token/ERC20/ERC20.sol\":9911:9932  spender == address(0) */\n      0xffffffffffffffffffffffffffffffffffffffff\n      and\n      sub\n        /* \"@openzeppelin/contracts/token/ERC20/ERC20.sol\":9907:9997  if (spender == address(0)) {... */\n      tag_410\n      jumpi\n        /* \"@openzeppelin/contracts/token/ERC20/ERC20.sol\":9983:9984  0 */\n      0x00\n        /* \"@openzeppelin/contracts/token/ERC20/ERC20.sol\":9955:9986  ERC20InvalidSpender(address(0)) */\n      mload(0x40)\n      0x94280d6200000000000000000000000000000000000000000000000000000000\n      dup2\n      mstore\n      0x04\n      add\n      tag_411\n      swap2\n      swap1\n      tag_375\n      jump\t// in\n    tag_411:\n      mload(0x40)\n      dup1\n      swap2\n      sub\n      swap1\n      revert\n        /* \"@openzeppelin/contracts/token/ERC20/ERC20.sol\":9907:9997  if (spender == address(0)) {... */\n    tag_410:\n        /* \"@openzeppelin/contracts/token/ERC20/ERC20.sol\":10036:10041  value */\n      dup2\n        /* \"@openzeppelin/contracts/token/ERC20/ERC20.sol\":10006:10017  _allowances */\n      0x01\n        /* \"@openzeppelin/contracts/token/ERC20/ERC20.sol\":10006:10024  _allowances[owner] */\n      0x00\n        /* \"@openzeppelin/contracts/token/ERC20/ERC20.sol\":10018:10023  owner */\n      dup7\n        /* \"@openzeppelin/contracts/token/ERC20/ERC20.sol\":10006:10024  _allowances[owner] */\n      0xffffffffffffffffffffffffffffffffffffffff\n      and\n      0xffffffffffffffffffffffffffffffffffffffff\n      and\n      dup2\n      mstore\n      0x20\n      add\n      swap1\n      dup2\n      mstore\n      0x20\n      add\n      0x00\n      keccak256\n        /* \"@openzeppelin/contracts/token/ERC20/ERC20.sol\":10006:10033  _allowances[owner][spender] */\n      0x00\n        /* \"@openzeppelin/contracts/token/ERC20/ERC20.sol\":10025:10032  spender */\n      dup6\n        /* \"@openzeppelin/contracts/token/ERC20/ERC20.sol\":10006:10033  _allowances[owner][spender] */\n      0xffffffffffffffffffffffffffffffffffffffff\n      and\n      0xffffffffffffffffffffffffffffffffffffffff\n      and\n      dup2\n      mstore\n      0x20\n      add\n      swap1\n      dup2\n      mstore\n      0x20\n      add\n      0x00\n      keccak256\n        /* \"@openzeppelin/contracts/token/ERC20/ERC20.sol\":10006:10041  _allowances[owner][spender] = value */\n      dup2\n      swap1\n      sstore\n      pop\n        /* \"@openzeppelin/contracts/token/ERC20/ERC20.sol\":10055:10064  emitEvent */\n      dup1\n        /* \"@openzeppelin/contracts/token/ERC20/ERC20.sol\":10051:10127  if (emitEvent) {... */\n      iszero\n      tag_412\n      jumpi\n        /* \"@openzeppelin/contracts/token/ERC20/ERC20.sol\":10101:10108  spender */\n      dup3\n        /* \"@openzeppelin/contracts/token/ERC20/ERC20.sol\":10085:10116  Approval(owner, spender, value) */\n      0xffffffffffffffffffffffffffffffffffffffff\n      and\n        /* \"@openzeppelin/contracts/token/ERC20/ERC20.sol\":10094:10099  owner */\n      dup5\n        /* \"@openzeppelin/contracts/token/ERC20/ERC20.sol\":10085:10116  Approval(owner, spender, value) */\n      0xffffffffffffffffffffffffffffffffffffffff\n      and\n      0x8c5be1e5ebec7d5bd14f71427d1e84f3dd0314c0f7b2291e5b200ac8c7c3b925\n        /* \"@openzeppelin/contracts/token/ERC20/ERC20.sol\":10110:10115  value */\n      dup5\n        /* \"@openzeppelin/contracts/token/ERC20/ERC20.sol\":10085:10116  Approval(owner, spender, value) */\n      mload(0x40)\n      tag_413\n      swap2\n      swap1\n      tag_73\n      jump\t// in\n    tag_413:\n      mload(0x40)\n      dup1\n      swap2\n      sub\n      swap1\n      log3\n        /* \"@openzeppelin/contracts/token/ERC20/ERC20.sol\":10051:10127  if (emitEvent) {... */\n    tag_412:\n        /* \"@openzeppelin/contracts/token/ERC20/ERC20.sol\":9701:10133  function _approve(address owner, address spender, uint256 value, bool emitEvent) internal virtual {... */\n      pop\n      pop\n      pop\n      pop\n      jump\t// out\n        /* \"@openzeppelin/contracts/token/ERC20/ERC20.sol\":6008:7115  function _update(address from, address to, uint256 value) internal virtual {... */\n    tag_379:\n        /* \"@openzeppelin/contracts/token/ERC20/ERC20.sol\":6113:6114  0 */\n      0x00\n        /* \"@openzeppelin/contracts/token/ERC20/ERC20.sol\":6097:6115  from == address(0) */\n      0xffffffffffffffffffffffffffffffffffffffff\n      and\n        /* \"@openzeppelin/contracts/token/ERC20/ERC20.sol\":6097:6101  from */\n      dup4\n        /* \"@openzeppelin/contracts/token/ERC20/ERC20.sol\":6097:6115  from == address(0) */\n      0xffffffffffffffffffffffffffffffffffffffff\n      and\n      sub\n        /* \"@openzeppelin/contracts/token/ERC20/ERC20.sol\":6093:6633  if (from == address(0)) {... */\n      tag_415\n      jumpi\n        /* \"@openzeppelin/contracts/token/ERC20/ERC20.sol\":6249:6254  value */\n      dup1\n        /* \"@openzeppelin/contracts/token/ERC20/ERC20.sol\":6233:6245  _totalSupply */\n      0x02\n      0x00\n        /* \"@openzeppelin/contracts/token/ERC20/ERC20.sol\":6233:6254  _totalSupply += value */\n      dup3\n      dup3\n      sload\n      tag_416\n      swap2\n      swap1\n      tag_393\n      jump\t// in\n    tag_416:\n      swap3\n      pop\n      pop\n      dup2\n      swap1\n      sstore\n      pop\n        /* \"@openzeppelin/contracts/token/ERC20/ERC20.sol\":6093:6633  if (from == address(0)) {... */\n      jump(tag_417)\n    tag_415:\n        /* \"@openzeppelin/contracts/token/ERC20/ERC20.sol\":6285:6304  uint256 fromBalance */\n      0x00\n        /* \"@openzeppelin/contracts/token/ERC20/ERC20.sol\":6307:6316  _balances */\n      dup1\n        /* \"@openzeppelin/contracts/token/ERC20/ERC20.sol\":6307:6322  _balances[from] */\n      0x00\n        /* \"@openzeppelin/contracts/token/ERC20/ERC20.sol\":6317:6321  from */\n      dup6\n        /* \"@openzeppelin/contracts/token/ERC20/ERC20.sol\":6307:6322  _balances[from] */\n      0xffffffffffffffffffffffffffffffffffffffff\n      and\n      0xffffffffffffffffffffffffffffffffffffffff\n      and\n      dup2\n      mstore\n      0x20\n      add\n      swap1\n      dup2\n      mstore\n      0x20\n      add\n      0x00\n      keccak256\n      sload\n        /* \"@openzeppelin/contracts/token/ERC20/ERC20.sol\":6285:6322  uint256 fromBalance = _balances[from] */\n      swap1\n      pop\n        /* \"@openzeppelin/contracts/token/ERC20/ERC20.sol\":6354:6359  value */\n      dup2\n        /* \"@openzeppelin/contracts/token/ERC20/ERC20.sol\":6340:6351  fromBalance */\n      dup2\n        /* \"@openzeppelin/contracts/token/ERC20/ERC20.sol\":6340:6359  fromBalance < value */\n      lt\n        /* \"@openzeppelin/contracts/token/ERC20/ERC20.sol\":6336:6451  if (fromBalance < value) {... */\n      iszero\n      tag_418\n      jumpi\n        /* \"@openzeppelin/contracts/token/ERC20/ERC20.sol\":6411:6415  from */\n      dup4\n        /* \"@openzeppelin/contracts/token/ERC20/ERC20.sol\":6417:6428  fromBalance */\n      dup2\n        /* \"@openzeppelin/contracts/token/ERC20/ERC20.sol\":6430:6435  value */\n      dup4\n        /* \"@openzeppelin/contracts/token/ERC20/ERC20.sol\":6386:6436  ERC20InsufficientBalance(from, fromBalance, value) */\n      mload(0x40)\n      0xe450d38c00000000000000000000000000000000000000000000000000000000\n      dup2\n      mstore\n      0x04\n      add\n      tag_419\n      swap4\n      swap3\n      swap2\n      swap1\n      tag_370\n      jump\t// in\n    tag_419:\n      mload(0x40)\n      dup1\n      swap2\n      sub\n      swap1\n      revert\n        /* \"@openzeppelin/contracts/token/ERC20/ERC20.sol\":6336:6451  if (fromBalance < value) {... */\n    tag_418:\n        /* \"@openzeppelin/contracts/token/ERC20/ERC20.sol\":6603:6608  value */\n      dup2\n        /* \"@openzeppelin/contracts/token/ERC20/ERC20.sol\":6589:6600  fromBalance */\n      dup2\n        /* \"@openzeppelin/contracts/token/ERC20/ERC20.sol\":6589:6608  fromBalance - value */\n      sub\n        /* \"@openzeppelin/contracts/token/ERC20/ERC20.sol\":6571:6580  _balances */\n      0x00\n        /* \"@openzeppelin/contracts/token/ERC20/ERC20.sol\":6571:6586  _balances[from] */\n      dup1\n        /* \"@openzeppelin/contracts/token/ERC20/ERC20.sol\":6581:6585  from */\n      dup7\n        /* \"@openzeppelin/contracts/token/ERC20/ERC20.sol\":6571:6586  _balances[from] */\n      0xffffffffffffffffffffffffffffffffffffffff\n      and\n      0xffffffffffffffffffffffffffffffffffffffff\n      and\n      dup2\n      mstore\n      0x20\n      add\n      swap1\n      dup2\n      mstore\n      0x20\n      add\n      0x00\n      keccak256\n        /* \"@openzeppelin/contracts/token/ERC20/ERC20.sol\":6571:6608  _balances[from] = fromBalance - value */\n      dup2\n      swap1\n      sstore\n      pop\n        /* \"@openzeppelin/contracts/token/ERC20/ERC20.sol\":6271:6633  {... */\n      pop\n        /* \"@openzeppelin/contracts/token/ERC20/ERC20.sol\":6093:6633  if (from == address(0)) {... */\n    tag_417:\n        /* \"@openzeppelin/contracts/token/ERC20/ERC20.sol\":6661:6662  0 */\n      0x00\n        /* \"@openzeppelin/contracts/token/ERC20/ERC20.sol\":6647:6663  to == address(0) */\n      0xffffffffffffffffffffffffffffffffffffffff\n      and\n        /* \"@openzeppelin/contracts/token/ERC20/ERC20.sol\":6647:6649  to */\n      dup3\n        /* \"@openzeppelin/contracts/token/ERC20/ERC20.sol\":6647:6663  to == address(0) */\n      0xffffffffffffffffffffffffffffffffffffffff\n      and\n      sub\n        /* \"@openzeppelin/contracts/token/ERC20/ERC20.sol\":6643:7068  if (to == address(0)) {... */\n      tag_420\n      jumpi\n        /* \"@openzeppelin/contracts/token/ERC20/ERC20.sol\":6826:6831  value */\n      dup1\n        /* \"@openzeppelin/contracts/token/ERC20/ERC20.sol\":6810:6822  _totalSupply */\n      0x02\n      0x00\n        /* \"@openzeppelin/contracts/token/ERC20/ERC20.sol\":6810:6831  _totalSupply -= value */\n      dup3\n      dup3\n      sload\n      sub\n      swap3\n      pop\n      pop\n      dup2\n      swap1\n      sstore\n      pop\n        /* \"@openzeppelin/contracts/token/ERC20/ERC20.sol\":6643:7068  if (to == address(0)) {... */\n      jump(tag_421)\n    tag_420:\n        /* \"@openzeppelin/contracts/token/ERC20/ERC20.sol\":7038:7043  value */\n      dup1\n        /* \"@openzeppelin/contracts/token/ERC20/ERC20.sol\":7021:7030  _balances */\n      0x00\n        /* \"@openzeppelin/contracts/token/ERC20/ERC20.sol\":7021:7034  _balances[to] */\n      dup1\n        /* \"@openzeppelin/contracts/token/ERC20/ERC20.sol\":7031:7033  to */\n      dup5\n        /* \"@openzeppelin/contracts/token/ERC20/ERC20.sol\":7021:7034  _balances[to] */\n      0xffffffffffffffffffffffffffffffffffffffff\n      and\n      0xffffffffffffffffffffffffffffffffffffffff\n      and\n      dup2\n      mstore\n      0x20\n      add\n      swap1\n      dup2\n      mstore\n      0x20\n      add\n      0x00\n      keccak256\n      0x00\n        /* \"@openzeppelin/contracts/token/ERC20/ERC20.sol\":7021:7043  _balances[to] += value */\n      dup3\n      dup3\n      sload\n      add\n      swap3\n      pop\n      pop\n      dup2\n      swap1\n      sstore\n      pop\n        /* \"@openzeppelin/contracts/token/ERC20/ERC20.sol\":6643:7068  if (to == address(0)) {... */\n    tag_421:\n        /* \"@openzeppelin/contracts/token/ERC20/ERC20.sol\":7098:7100  to */\n      dup2\n        /* \"@openzeppelin/contracts/token/ERC20/ERC20.sol\":7083:7108  Transfer(from, to, value) */\n      0xffffffffffffffffffffffffffffffffffffffff\n      and\n        /* \"@openzeppelin/contracts/token/ERC20/ERC20.sol\":7092:7096  from */\n      dup4\n        /* \"@openzeppelin/contracts/token/ERC20/ERC20.sol\":7083:7108  Transfer(from, to, value) */\n      0xffffffffffffffffffffffffffffffffffffffff\n      and\n      0xddf252ad1be2c89b69c2b068fc378daa952ba7f163c4a11628f55a4df523b3ef\n        /* \"@openzeppelin/contracts/token/ERC20/ERC20.sol\":7102:7107  value */\n      dup4\n        /* \"@openzeppelin/contracts/token/ERC20/ERC20.sol\":7083:7108  Transfer(from, to, value) */\n      mload(0x40)\n      tag_422\n      swap2\n      swap1\n      tag_73\n      jump\t// in\n    tag_422:\n      mload(0x40)\n      dup1\n      swap2\n      sub\n      swap1\n      log3\n        /* \"@openzeppelin/contracts/token/ERC20/ERC20.sol\":6008:7115  function _update(address from, address to, uint256 value) internal virtual {... */\n      pop\n      pop\n      pop\n      jump\t// out\n        /* \"@openzeppelin/contracts/access/AccessControl.sol\":3432:3629  function _checkRole(bytes32 role, address account) internal view virtual {... */\n    tag_383:\n        /* \"@openzeppelin/contracts/access/AccessControl.sol\":3520:3542  hasRole(role, account) */\n      tag_424\n        /* \"@openzeppelin/contracts/access/AccessControl.sol\":3528:3532  role */\n      dup3\n        /* \"@openzeppelin/contracts/access/AccessControl.sol\":3534:3541  account */\n      dup3\n        /* \"@openzeppelin/contracts/access/AccessControl.sol\":3520:3527  hasRole */\n      tag_137\n        /* \"@openzeppelin/contracts/access/AccessControl.sol\":3520:3542  hasRole(role, account) */\n      jump\t// in\n    tag_424:\n        /* \"@openzeppelin/contracts/access/AccessControl.sol\":3515:3623  if (!hasRole(role, account)) {... */\n      tag_425\n      jumpi\n        /* \"@openzeppelin/contracts/access/AccessControl.sol\":3598:3605  account */\n      dup1\n        /* \"@openzeppelin/contracts/access/AccessControl.sol\":3607:3611  role */\n      dup3\n        /* \"@openzeppelin/contracts/access/AccessControl.sol\":3565:3612  AccessControlUnauthorizedAccount(account, role) */\n      mload(0x40)\n      0xe2517d3f00000000000000000000000000000000000000000000000000000000\n      dup2\n      mstore\n      0x04\n      add\n      tag_426\n      swap3\n      swap2\n      swap1\n      tag_427\n      jump\t// in\n    tag_426:\n      mload(0x40)\n      dup1\n      swap2\n      sub\n      swap1\n      revert\n        /* \"@openzeppelin/contracts/access/AccessControl.sol\":3515:3623  if (!hasRole(role, account)) {... */\n    tag_425:\n        /* \"@openzeppelin/contracts/access/AccessControl.sol\":3432:3629  function _checkRole(bytes32 role, address account) internal view virtual {... */\n      pop\n      pop\n      jump\t// out\n        /* \"contracts/EWasteToken.sol\":6431:7719  function _getRewardComponents(uint256 _id, Status _status) internal view returns (... */\n    tag_391:\n        /* \"contracts/EWasteToken.sol\":6523:6541  uint256 baseReward */\n      0x00\n        /* \"contracts/EWasteToken.sol\":6552:6573  uint256 quantityBonus */\n      dup1\n        /* \"contracts/EWasteToken.sol\":6584:6603  uint256 weightBonus */\n      0x00\n        /* \"contracts/EWasteToken.sol\":6622:6643  WasteItem memory item */\n      dup1\n        /* \"contracts/EWasteToken.sol\":6646:6656  wasteItems */\n      0x06\n        /* \"contracts/EWasteToken.sol\":6646:6661  wasteItems[_id] */\n      0x00\n        /* \"contracts/EWasteToken.sol\":6657:6660  _id */\n      dup8\n        /* \"contracts/EWasteToken.sol\":6646:6661  wasteItems[_id] */\n      dup2\n      mstore\n      0x20\n      add\n      swap1\n      dup2\n      mstore\n      0x20\n      add\n      0x00\n      keccak256\n        /* \"contracts/EWasteToken.sol\":6622:6661  WasteItem memory item = wasteItems[_id] */\n      mload(0x40)\n      dup1\n      0x0100\n      add\n      0x40\n      mstore\n      swap1\n      dup2\n      0x00\n      dup3\n      add\n      sload\n      dup2\n      mstore\n      0x20\n      add\n      0x01\n      dup3\n      add\n      0x00\n      swap1\n      sload\n      swap1\n      0x0100\n      exp\n      swap1\n      div\n      0xffffffffffffffffffffffffffffffffffffffff\n      and\n      0xffffffffffffffffffffffffffffffffffffffff\n      and\n      0xffffffffffffffffffffffffffffffffffffffff\n      and\n      dup2\n      mstore\n      0x20\n      add\n      0x02\n      dup3\n      add\n      dup1\n      sload\n      tag_429\n      swap1\n      tag_197\n      jump\t// in\n    tag_429:\n      dup1\n      0x1f\n      add\n      0x20\n      dup1\n      swap2\n      div\n      mul\n      0x20\n      add\n      mload(0x40)\n      swap1\n      dup2\n      add\n      0x40\n      mstore\n      dup1\n      swap3\n      swap2\n      swap1\n      dup2\n      dup2\n      mstore\n      0x20\n      add\n      dup3\n      dup1\n      sload\n      tag_430\n      swap1\n      tag_197\n      jump\t// in\n    tag_430:\n      dup1\n      iszero\n      tag_431\n      jumpi\n      dup1\n      0x1f\n      lt\n      tag_432\n      jumpi\n      0x0100\n      dup1\n      dup4\n      sload\n      div\n      mul\n      dup4\n      mstore\n      swap2\n      0x20\n      add\n      swap2\n      jump(tag_431)\n    tag_432:\n      dup3\n      add\n      swap2\n      swap1\n      0x00\n      mstore\n      keccak256(0x00, 0x20)\n      swap1\n    tag_433:\n      dup2\n      sload\n      dup2\n      mstore\n      swap1\n      0x01\n      add\n      swap1\n      0x20\n      add\n      dup1\n      dup4\n      gt\n      tag_433\n      jumpi\n      dup3\n      swap1\n      sub\n      0x1f\n      and\n      dup3\n      add\n      swap2\n    tag_431:\n      pop\n      pop\n      pop\n      pop\n      pop\n      dup2\n      mstore\n      0x20\n      add\n      0x03\n      dup3\n      add\n      sload\n      dup2\n      mstore\n      0x20\n      add\n      0x04\n      dup3\n      add\n      sload\n      dup2\n      mstore\n      0x20\n      add\n      0x05\n      dup3\n      add\n      0x00\n      swap1\n      sload\n      swap1\n      0x0100\n      exp\n      swap1\n      div\n      0xff\n      and\n      0x06\n      dup2\n      gt\n      iszero\n      tag_434\n      jumpi\n      tag_435\n      tag_237\n      jump\t// in\n    tag_435:\n    tag_434:\n      0x06\n      dup2\n      gt\n      iszero\n      tag_436\n      jumpi\n      tag_437\n      tag_237\n      jump\t// in\n    tag_437:\n    tag_436:\n      dup2\n      mstore\n      0x20\n      add\n      0x05\n      dup3\n      add\n      0x01\n      swap1\n      sload\n      swap1\n      0x0100\n      exp\n      swap1\n      div\n      0xffffffffffffffffffffffffffffffffffffffff\n      and\n      0xffffffffffffffffffffffffffffffffffffffff\n      and\n      0xffffffffffffffffffffffffffffffffffffffff\n      and\n      dup2\n      mstore\n      0x20\n      add\n      0x05\n      dup3\n      add\n      0x15\n      swap1\n      sload\n      swap1\n      0x0100\n      exp\n      swap1\n      div\n      0xff\n      and\n      iszero\n      iszero\n      iszero\n      iszero\n      dup2\n      mstore\n      pop\n      pop\n      swap1\n      pop\n        /* \"contracts/EWasteToken.sol\":6697:6711  Status.CREATED */\n      0x00\n        /* \"contracts/EWasteToken.sol\":6686:6711  _status == Status.CREATED */\n      0x06\n      dup2\n      gt\n      iszero\n      tag_438\n      jumpi\n      tag_439\n      tag_237\n      jump\t// in\n    tag_439:\n    tag_438:\n        /* \"contracts/EWasteToken.sol\":6686:6693  _status */\n      dup6\n        /* \"contracts/EWasteToken.sol\":6686:6711  _status == Status.CREATED */\n      0x06\n      dup2\n      gt\n      iszero\n      tag_440\n      jumpi\n      tag_441\n      tag_237\n      jump\t// in\n    tag_441:\n    tag_440:\n      sub\n        /* \"contracts/EWasteToken.sol\":6682:7170  if (_status == Status.CREATED) {... */\n      tag_442\n      jumpi\n        /* \"contracts/EWasteToken.sol\":684:692  10 ether */\n      0x8ac7230489e80000\n        /* \"contracts/EWasteToken.sol\":6728:6761  baseReward = BASE_DISPOSAL_REWARD */\n      swap4\n      pop\n        /* \"contracts/EWasteToken.sol\":6682:7170  if (_status == Status.CREATED) {... */\n      jump(tag_443)\n    tag_442:\n        /* \"contracts/EWasteToken.sol\":6794:6810  Status.COLLECTED */\n      0x01\n        /* \"contracts/EWasteToken.sol\":6783:6810  _status == Status.COLLECTED */\n      0x06\n      dup2\n      gt\n      iszero\n      tag_444\n      jumpi\n      tag_445\n      tag_237\n      jump\t// in\n    tag_445:\n    tag_444:\n        /* \"contracts/EWasteToken.sol\":6783:6790  _status */\n      dup6\n        /* \"contracts/EWasteToken.sol\":6783:6810  _status == Status.COLLECTED */\n      0x06\n      dup2\n      gt\n      iszero\n      tag_446\n      jumpi\n      tag_447\n      tag_237\n      jump\t// in\n    tag_447:\n    tag_446:\n      sub\n        /* \"contracts/EWasteToken.sol\":6779:7170  if (_status == Status.COLLECTED) {... */\n      tag_448\n      jumpi\n        /* \"contracts/EWasteToken.sol\":748:755  5 ether */\n      0x4563918244f40000\n        /* \"contracts/EWasteToken.sol\":6827:6862  baseReward = BASE_COLLECTION_REWARD */\n      swap4\n      pop\n        /* \"contracts/EWasteToken.sol\":6779:7170  if (_status == Status.COLLECTED) {... */\n      jump(tag_449)\n    tag_448:\n        /* \"contracts/EWasteToken.sol\":6895:6910  Status.REPAIRED */\n      0x03\n        /* \"contracts/EWasteToken.sol\":6884:6910  _status == Status.REPAIRED */\n      0x06\n      dup2\n      gt\n      iszero\n      tag_450\n      jumpi\n      tag_451\n      tag_237\n      jump\t// in\n    tag_451:\n    tag_450:\n        /* \"contracts/EWasteToken.sol\":6884:6891  _status */\n      dup6\n        /* \"contracts/EWasteToken.sol\":6884:6910  _status == Status.REPAIRED */\n      0x06\n      dup2\n      gt\n      iszero\n      tag_452\n      jumpi\n      tag_453\n      tag_237\n      jump\t// in\n    tag_453:\n    tag_452:\n      sub\n        /* \"contracts/EWasteToken.sol\":6880:7170  if (_status == Status.REPAIRED) {... */\n      tag_454\n      jumpi\n        /* \"contracts/EWasteToken.sol\":869:876  8 ether */\n      0x6f05b59d3b200000\n        /* \"contracts/EWasteToken.sol\":6927:6958  baseReward = BASE_REPAIR_REWARD */\n      swap4\n      pop\n        /* \"contracts/EWasteToken.sol\":6880:7170  if (_status == Status.REPAIRED) {... */\n      jump(tag_455)\n    tag_454:\n        /* \"contracts/EWasteToken.sol\":6991:7006  Status.RECYCLED */\n      0x04\n        /* \"contracts/EWasteToken.sol\":6980:7006  _status == Status.RECYCLED */\n      0x06\n      dup2\n      gt\n      iszero\n      tag_456\n      jumpi\n      tag_457\n      tag_237\n      jump\t// in\n    tag_457:\n    tag_456:\n        /* \"contracts/EWasteToken.sol\":6980:6987  _status */\n      dup6\n        /* \"contracts/EWasteToken.sol\":6980:7006  _status == Status.RECYCLED */\n      0x06\n      dup2\n      gt\n      iszero\n      tag_458\n      jumpi\n      tag_459\n      tag_237\n      jump\t// in\n    tag_459:\n    tag_458:\n      sub\n        /* \"contracts/EWasteToken.sol\":6976:7170  if (_status == Status.RECYCLED) {... */\n      tag_460\n      jumpi\n        /* \"contracts/EWasteToken.sol\":810:817  7 ether */\n      0x6124fee993bc0000\n        /* \"contracts/EWasteToken.sol\":7023:7057  baseReward = BASE_RECYCLING_REWARD */\n      swap4\n      pop\n        /* \"contracts/EWasteToken.sol\":6976:7170  if (_status == Status.RECYCLED) {... */\n      jump(tag_461)\n    tag_460:\n        /* \"contracts/EWasteToken.sol\":7090:7107  Status.DISMANTLED */\n      0x05\n        /* \"contracts/EWasteToken.sol\":7079:7107  _status == Status.DISMANTLED */\n      0x06\n      dup2\n      gt\n      iszero\n      tag_462\n      jumpi\n      tag_463\n      tag_237\n      jump\t// in\n    tag_463:\n    tag_462:\n        /* \"contracts/EWasteToken.sol\":7079:7086  _status */\n      dup6\n        /* \"contracts/EWasteToken.sol\":7079:7107  _status == Status.DISMANTLED */\n      0x06\n      dup2\n      gt\n      iszero\n      tag_464\n      jumpi\n      tag_465\n      tag_237\n      jump\t// in\n    tag_465:\n    tag_464:\n      sub\n        /* \"contracts/EWasteToken.sol\":7075:7170  if (_status == Status.DISMANTLED) {... */\n      tag_466\n      jumpi\n        /* \"contracts/EWasteToken.sol\":931:938  6 ether */\n      0x53444835ec580000\n        /* \"contracts/EWasteToken.sol\":7124:7158  baseReward = BASE_DISMANTLE_REWARD */\n      swap4\n      pop\n        /* \"contracts/EWasteToken.sol\":7075:7170  if (_status == Status.DISMANTLED) {... */\n    tag_466:\n        /* \"contracts/EWasteToken.sol\":6976:7170  if (_status == Status.RECYCLED) {... */\n    tag_461:\n        /* \"contracts/EWasteToken.sol\":6880:7170  if (_status == Status.REPAIRED) {... */\n    tag_455:\n        /* \"contracts/EWasteToken.sol\":6779:7170  if (_status == Status.COLLECTED) {... */\n    tag_449:\n        /* \"contracts/EWasteToken.sol\":6682:7170  if (_status == Status.CREATED) {... */\n    tag_443:\n        /* \"contracts/EWasteToken.sol\":7216:7220  item */\n      dup1\n        /* \"contracts/EWasteToken.sol\":7216:7229  item.quantity */\n      0x80\n      add\n      mload\n        /* \"contracts/EWasteToken.sol\":987:994  1 ether */\n      0x0de0b6b3a7640000\n        /* \"contracts/EWasteToken.sol\":7198:7229  PER_ITEM_REWARD * item.quantity */\n      tag_467\n      swap2\n      swap1\n      tag_468\n      jump\t// in\n    tag_467:\n        /* \"contracts/EWasteToken.sol\":7182:7229  quantityBonus = PER_ITEM_REWARD * item.quantity */\n      swap3\n      pop\n        /* \"contracts/EWasteToken.sol\":7316:7331  Status.REPAIRED */\n      0x03\n        /* \"contracts/EWasteToken.sol\":7305:7331  _status == Status.REPAIRED */\n      0x06\n      dup2\n      gt\n      iszero\n      tag_469\n      jumpi\n      tag_470\n      tag_237\n      jump\t// in\n    tag_470:\n    tag_469:\n        /* \"contracts/EWasteToken.sol\":7305:7312  _status */\n      dup6\n        /* \"contracts/EWasteToken.sol\":7305:7331  _status == Status.REPAIRED */\n      0x06\n      dup2\n      gt\n      iszero\n      tag_471\n      jumpi\n      tag_472\n      tag_237\n      jump\t// in\n    tag_472:\n    tag_471:\n      sub\n        /* \"contracts/EWasteToken.sol\":7301:7712  if (_status == Status.REPAIRED) {... */\n      tag_473\n      jumpi\n        /* \"contracts/EWasteToken.sol\":7365:7366  2 */\n      0x02\n        /* \"contracts/EWasteToken.sol\":7348:7366  quantityBonus *= 2 */\n      dup4\n      tag_474\n      swap2\n      swap1\n      tag_468\n      jump\t// in\n    tag_474:\n      swap3\n      pop\n        /* \"contracts/EWasteToken.sol\":7301:7712  if (_status == Status.REPAIRED) {... */\n      jump(tag_475)\n    tag_473:\n        /* \"contracts/EWasteToken.sol\":7427:7442  Status.RECYCLED */\n      0x04\n        /* \"contracts/EWasteToken.sol\":7416:7442  _status == Status.RECYCLED */\n      0x06\n      dup2\n      gt\n      iszero\n      tag_476\n      jumpi\n      tag_477\n      tag_237\n      jump\t// in\n    tag_477:\n    tag_476:\n        /* \"contracts/EWasteToken.sol\":7416:7423  _status */\n      dup6\n        /* \"contracts/EWasteToken.sol\":7416:7442  _status == Status.RECYCLED */\n      0x06\n      dup2\n      gt\n      iszero\n      tag_478\n      jumpi\n      tag_479\n      tag_237\n      jump\t// in\n    tag_479:\n    tag_478:\n      sub\n        /* \"contracts/EWasteToken.sol\":7412:7712  if (_status == Status.RECYCLED) {... */\n      tag_480\n      jumpi\n        /* \"contracts/EWasteToken.sol\":7507:7508  2 */\n      0x02\n        /* \"contracts/EWasteToken.sol\":7492:7496  item */\n      dup2\n        /* \"contracts/EWasteToken.sol\":7492:7503  item.weight */\n      0x60\n      add\n      mload\n        /* \"contracts/EWasteToken.sol\":1043:1053  0.01 ether */\n      0x2386f26fc10000\n        /* \"contracts/EWasteToken.sol\":7474:7503  PER_GRAM_REWARD * item.weight */\n      tag_481\n      swap2\n      swap1\n      tag_468\n      jump\t// in\n    tag_481:\n        /* \"contracts/EWasteToken.sol\":7473:7508  (PER_GRAM_REWARD * item.weight) * 2 */\n      tag_482\n      swap2\n      swap1\n      tag_468\n      jump\t// in\n    tag_482:\n        /* \"contracts/EWasteToken.sol\":7459:7508  weightBonus = (PER_GRAM_REWARD * item.weight) * 2 */\n      swap2\n      pop\n        /* \"contracts/EWasteToken.sol\":7412:7712  if (_status == Status.RECYCLED) {... */\n      jump(tag_483)\n    tag_480:\n        /* \"contracts/EWasteToken.sol\":7541:7558  Status.DISMANTLED */\n      0x05\n        /* \"contracts/EWasteToken.sol\":7530:7558  _status == Status.DISMANTLED */\n      0x06\n      dup2\n      gt\n      iszero\n      tag_484\n      jumpi\n      tag_485\n      tag_237\n      jump\t// in\n    tag_485:\n    tag_484:\n        /* \"contracts/EWasteToken.sol\":7530:7537  _status */\n      dup6\n        /* \"contracts/EWasteToken.sol\":7530:7558  _status == Status.DISMANTLED */\n      0x06\n      dup2\n      gt\n      iszero\n      tag_486\n      jumpi\n      tag_487\n      tag_237\n      jump\t// in\n    tag_487:\n    tag_486:\n      sub\n        /* \"contracts/EWasteToken.sol\":7526:7712  if (_status == Status.DISMANTLED) {... */\n      tag_488\n      jumpi\n        /* \"contracts/EWasteToken.sol\":7623:7624  3 */\n      0x03\n        /* \"contracts/EWasteToken.sol\":7608:7612  item */\n      dup2\n        /* \"contracts/EWasteToken.sol\":7608:7619  item.weight */\n      0x60\n      add\n      mload\n        /* \"contracts/EWasteToken.sol\":1043:1053  0.01 ether */\n      0x2386f26fc10000\n        /* \"contracts/EWasteToken.sol\":7590:7619  PER_GRAM_REWARD * item.weight */\n      tag_489\n      swap2\n      swap1\n      tag_468\n      jump\t// in\n    tag_489:\n        /* \"contracts/EWasteToken.sol\":7589:7624  (PER_GRAM_REWARD * item.weight) * 3 */\n      tag_490\n      swap2\n      swap1\n      tag_468\n      jump\t// in\n    tag_490:\n        /* \"contracts/EWasteToken.sol\":7575:7624  weightBonus = (PER_GRAM_REWARD * item.weight) * 3 */\n      swap2\n      pop\n        /* \"contracts/EWasteToken.sol\":7526:7712  if (_status == Status.DISMANTLED) {... */\n      jump(tag_491)\n    tag_488:\n        /* \"contracts/EWasteToken.sol\":7689:7693  item */\n      dup1\n        /* \"contracts/EWasteToken.sol\":7689:7700  item.weight */\n      0x60\n      add\n      mload\n        /* \"contracts/EWasteToken.sol\":1043:1053  0.01 ether */\n      0x2386f26fc10000\n        /* \"contracts/EWasteToken.sol\":7671:7700  PER_GRAM_REWARD * item.weight */\n      tag_492\n      swap2\n      swap1\n      tag_468\n      jump\t// in\n    tag_492:\n        /* \"contracts/EWasteToken.sol\":7657:7700  weightBonus = PER_GRAM_REWARD * item.weight */\n      swap2\n      pop\n        /* \"contracts/EWasteToken.sol\":7526:7712  if (_status == Status.DISMANTLED) {... */\n    tag_491:\n        /* \"contracts/EWasteToken.sol\":7412:7712  if (_status == Status.RECYCLED) {... */\n    tag_483:\n        /* \"contracts/EWasteToken.sol\":7301:7712  if (_status == Status.REPAIRED) {... */\n    tag_475:\n        /* \"contracts/EWasteToken.sol\":6611:7719  {... */\n      pop\n        /* \"contracts/EWasteToken.sol\":6431:7719  function _getRewardComponents(uint256 _id, Status _status) internal view returns (... */\n      swap3\n      pop\n      swap3\n      pop\n      swap3\n      jump\t// out\n        /* \"#utility.yul\":7:82   */\n    tag_493:\n        /* \"#utility.yul\":40:46   */\n      0x00\n        /* \"#utility.yul\":73:75   */\n      0x40\n        /* \"#utility.yul\":67:76   */\n      mload\n        /* \"#utility.yul\":57:76   */\n      swap1\n      pop\n        /* \"#utility.yul\":7:82   */\n      swap1\n      jump\t// out\n        /* \"#utility.yul\":88:205   */\n    tag_494:\n        /* \"#utility.yul\":197:198   */\n      0x00\n        /* \"#utility.yul\":194:195   */\n      dup1\n        /* \"#utility.yul\":187:199   */\n      revert\n        /* \"#utility.yul\":211:328   */\n    tag_495:\n        /* \"#utility.yul\":320:321   */\n      0x00\n        /* \"#utility.yul\":317:318   */\n      dup1\n        /* \"#utility.yul\":310:322   */\n      revert\n        /* \"#utility.yul\":334:483   */\n    tag_496:\n        /* \"#utility.yul\":370:377   */\n      0x00\n        /* \"#utility.yul\":410:476   */\n      0xffffffff00000000000000000000000000000000000000000000000000000000\n        /* \"#utility.yul\":403:408   */\n      dup3\n        /* \"#utility.yul\":399:477   */\n      and\n        /* \"#utility.yul\":388:477   */\n      swap1\n      pop\n        /* \"#utility.yul\":334:483   */\n      swap2\n      swap1\n      pop\n      jump\t// out\n        /* \"#utility.yul\":489:609   */\n    tag_497:\n        /* \"#utility.yul\":561:584   */\n      tag_567\n        /* \"#utility.yul\":578:583   */\n      dup2\n        /* \"#utility.yul\":561:584   */\n      tag_496\n      jump\t// in\n    tag_567:\n        /* \"#utility.yul\":554:559   */\n      dup2\n        /* \"#utility.yul\":551:585   */\n      eq\n        /* \"#utility.yul\":541:603   */\n      tag_568\n      jumpi\n        /* \"#utility.yul\":599:600   */\n      0x00\n        /* \"#utility.yul\":596:597   */\n      dup1\n        /* \"#utility.yul\":589:601   */\n      revert\n        /* \"#utility.yul\":541:603   */\n    tag_568:\n        /* \"#utility.yul\":489:609   */\n      pop\n      jump\t// out\n        /* \"#utility.yul\":615:752   */\n    tag_498:\n        /* \"#utility.yul\":660:665   */\n      0x00\n        /* \"#utility.yul\":698:704   */\n      dup2\n        /* \"#utility.yul\":685:705   */\n      calldataload\n        /* \"#utility.yul\":676:705   */\n      swap1\n      pop\n        /* \"#utility.yul\":714:746   */\n      tag_570\n        /* \"#utility.yul\":740:745   */\n      dup2\n        /* \"#utility.yul\":714:746   */\n      tag_497\n      jump\t// in\n    tag_570:\n        /* \"#utility.yul\":615:752   */\n      swap3\n      swap2\n      pop\n      pop\n      jump\t// out\n        /* \"#utility.yul\":758:1085   */\n    tag_51:\n        /* \"#utility.yul\":816:822   */\n      0x00\n        /* \"#utility.yul\":865:867   */\n      0x20\n        /* \"#utility.yul\":853:862   */\n      dup3\n        /* \"#utility.yul\":844:851   */\n      dup5\n        /* \"#utility.yul\":840:863   */\n      sub\n        /* \"#utility.yul\":836:868   */\n      slt\n        /* \"#utility.yul\":833:952   */\n      iszero\n      tag_572\n      jumpi\n        /* \"#utility.yul\":871:950   */\n      tag_573\n      tag_494\n      jump\t// in\n    tag_573:\n        /* \"#utility.yul\":833:952   */\n    tag_572:\n        /* \"#utility.yul\":991:992   */\n      0x00\n        /* \"#utility.yul\":1016:1068   */\n      tag_574\n        /* \"#utility.yul\":1060:1067   */\n      dup5\n        /* \"#utility.yul\":1051:1057   */\n      dup3\n        /* \"#utility.yul\":1040:1049   */\n      dup6\n        /* \"#utility.yul\":1036:1058   */\n      add\n        /* \"#utility.yul\":1016:1068   */\n      tag_498\n      jump\t// in\n    tag_574:\n        /* \"#utility.yul\":1006:1068   */\n      swap2\n      pop\n        /* \"#utility.yul\":962:1078   */\n      pop\n        /* \"#utility.yul\":758:1085   */\n      swap3\n      swap2\n      pop\n      pop\n      jump\t// out\n        /* \"#utility.yul\":1091:1181   */\n    tag_499:\n        /* \"#utility.yul\":1125:1132   */\n      0x00\n        /* \"#utility.yul\":1168:1173   */\n      dup2\n        /* \"#utility.yul\":1161:1174   */\n      iszero\n        /* \"#utility.yul\":1154:1175   */\n      iszero\n        /* \"#utility.yul\":1143:1175   */\n      swap1\n      pop\n        /* \"#utility.yul\":1091:1181   */\n      swap2\n      swap1\n      pop\n      jump\t// out\n        /* \"#utility.yul\":1187:1296   */\n    tag_500:\n        /* \"#utility.yul\":1268:1289   */\n      tag_577\n        /* \"#utility.yul\":1283:1288   */\n      dup2\n        /* \"#utility.yul\":1268:1289   */\n      tag_499\n      jump\t// in\n    tag_577:\n        /* \"#utility.yul\":1263:1266   */\n      dup3\n        /* \"#utility.yul\":1256:1290   */\n      mstore\n        /* \"#utility.yul\":1187:1296   */\n      pop\n      pop\n      jump\t// out\n        /* \"#utility.yul\":1302:1512   */\n    tag_54:\n        /* \"#utility.yul\":1389:1393   */\n      0x00\n        /* \"#utility.yul\":1427:1429   */\n      0x20\n        /* \"#utility.yul\":1416:1425   */\n      dup3\n        /* \"#utility.yul\":1412:1430   */\n      add\n        /* \"#utility.yul\":1404:1430   */\n      swap1\n      pop\n        /* \"#utility.yul\":1440:1505   */\n      tag_579\n        /* \"#utility.yul\":1502:1503   */\n      0x00\n        /* \"#utility.yul\":1491:1500   */\n      dup4\n        /* \"#utility.yul\":1487:1504   */\n      add\n        /* \"#utility.yul\":1478:1484   */\n      dup5\n        /* \"#utility.yul\":1440:1505   */\n      tag_500\n      jump\t// in\n    tag_579:\n        /* \"#utility.yul\":1302:1512   */\n      swap3\n      swap2\n      pop\n      pop\n      jump\t// out\n        /* \"#utility.yul\":1518:1617   */\n    tag_501:\n        /* \"#utility.yul\":1570:1576   */\n      0x00\n        /* \"#utility.yul\":1604:1609   */\n      dup2\n        /* \"#utility.yul\":1598:1610   */\n      mload\n        /* \"#utility.yul\":1588:1610   */\n      swap1\n      pop\n        /* \"#utility.yul\":1518:1617   */\n      swap2\n      swap1\n      pop\n      jump\t// out\n        /* \"#utility.yul\":1623:1792   */\n    tag_502:\n        /* \"#utility.yul\":1707:1718   */\n      0x00\n        /* \"#utility.yul\":1741:1747   */\n      dup3\n        /* \"#utility.yul\":1736:1739   */\n      dup3\n        /* \"#utility.yul\":1729:1748   */\n      mstore\n        /* \"#utility.yul\":1781:1785   */\n      0x20\n        /* \"#utility.yul\":1776:1779   */\n      dup3\n        /* \"#utility.yul\":1772:1786   */\n      add\n        /* \"#utility.yul\":1757:1786   */\n      swap1\n      pop\n        /* \"#utility.yul\":1623:1792   */\n      swap3\n      swap2\n      pop\n      pop\n      jump\t// out\n        /* \"#utility.yul\":1798:1937   */\n    tag_503:\n        /* \"#utility.yul\":1887:1893   */\n      dup3\n        /* \"#utility.yul\":1882:1885   */\n      dup2\n        /* \"#utility.yul\":1877:1880   */\n      dup4\n        /* \"#utility.yul\":1871:1894   */\n      mcopy\n        /* \"#utility.yul\":1928:1929   */\n      0x00\n        /* \"#utility.yul\":1919:1925   */\n      dup4\n        /* \"#utility.yul\":1914:1917   */\n      dup4\n        /* \"#utility.yul\":1910:1926   */\n      add\n        /* \"#utility.yul\":1903:1930   */\n      mstore\n        /* \"#utility.yul\":1798:1937   */\n      pop\n      pop\n      pop\n      jump\t// out\n        /* \"#utility.yul\":1943:2045   */\n    tag_504:\n        /* \"#utility.yul\":1984:1990   */\n      0x00\n        /* \"#utility.yul\":2035:2037   */\n      0x1f\n        /* \"#utility.yul\":2031:2038   */\n      not\n        /* \"#utility.yul\":2026:2028   */\n      0x1f\n        /* \"#utility.yul\":2019:2024   */\n      dup4\n        /* \"#utility.yul\":2015:2029   */\n      add\n        /* \"#utility.yul\":2011:2039   */\n      and\n        /* \"#utility.yul\":2001:2039   */\n      swap1\n      pop\n        /* \"#utility.yul\":1943:2045   */\n      swap2\n      swap1\n      pop\n      jump\t// out\n        /* \"#utility.yul\":2051:2428   */\n    tag_505:\n        /* \"#utility.yul\":2139:2142   */\n      0x00\n        /* \"#utility.yul\":2167:2206   */\n      tag_585\n        /* \"#utility.yul\":2200:2205   */\n      dup3\n        /* \"#utility.yul\":2167:2206   */\n      tag_501\n      jump\t// in\n    tag_585:\n        /* \"#utility.yul\":2222:2293   */\n      tag_586\n        /* \"#utility.yul\":2286:2292   */\n      dup2\n        /* \"#utility.yul\":2281:2284   */\n      dup6\n        /* \"#utility.yul\":2222:2293   */\n      tag_502\n      jump\t// in\n    tag_586:\n        /* \"#utility.yul\":2215:2293   */\n      swap4\n      pop\n        /* \"#utility.yul\":2302:2367   */\n      tag_587\n        /* \"#utility.yul\":2360:2366   */\n      dup2\n        /* \"#utility.yul\":2355:2358   */\n      dup6\n        /* \"#utility.yul\":2348:2352   */\n      0x20\n        /* \"#utility.yul\":2341:2346   */\n      dup7\n        /* \"#utility.yul\":2337:2353   */\n      add\n        /* \"#utility.yul\":2302:2367   */\n      tag_503\n      jump\t// in\n    tag_587:\n        /* \"#utility.yul\":2392:2421   */\n      tag_588\n        /* \"#utility.yul\":2414:2420   */\n      dup2\n        /* \"#utility.yul\":2392:2421   */\n      tag_504\n      jump\t// in\n    tag_588:\n        /* \"#utility.yul\":2387:2390   */\n      dup5\n        /* \"#utility.yul\":2383:2422   */\n      add\n        /* \"#utility.yul\":2376:2422   */\n      swap2\n      pop\n        /* \"#utility.yul\":2143:2428   */\n      pop\n        /* \"#utility.yul\":2051:2428   */\n      swap3\n      swap2\n      pop\n      pop\n      jump\t// out\n        /* \"#utility.yul\":2434:2747   */\n    tag_58:\n        /* \"#utility.yul\":2547:2551   */\n      0x00\n        /* \"#utility.yul\":2585:2587   */\n      0x20\n        /* \"#utility.yul\":2574:2583   */\n      dup3\n        /* \"#utility.yul\":2570:2588   */\n      add\n        /* \"#utility.yul\":2562:2588   */\n      swap1\n      pop\n        /* \"#utility.yul\":2634:2643   */\n      dup2\n        /* \"#utility.yul\":2628:2632   */\n      dup2\n        /* \"#utility.yul\":2624:2644   */\n      sub\n        /* \"#utility.yul\":2620:2621   */\n      0x00\n        /* \"#utility.yul\":2609:2618   */\n      dup4\n        /* \"#utility.yul\":2605:2622   */\n      add\n        /* \"#utility.yul\":2598:2645   */\n      mstore\n        /* \"#utility.yul\":2662:2740   */\n      tag_590\n        /* \"#utility.yul\":2735:2739   */\n      dup2\n        /* \"#utility.yul\":2726:2732   */\n      dup5\n        /* \"#utility.yul\":2662:2740   */\n      tag_505\n      jump\t// in\n    tag_590:\n        /* \"#utility.yul\":2654:2740   */\n      swap1\n      pop\n        /* \"#utility.yul\":2434:2747   */\n      swap3\n      swap2\n      pop\n      pop\n      jump\t// out\n        /* \"#utility.yul\":2753:2830   */\n    tag_506:\n        /* \"#utility.yul\":2790:2797   */\n      0x00\n        /* \"#utility.yul\":2819:2824   */\n      dup2\n        /* \"#utility.yul\":2808:2824   */\n      swap1\n      pop\n        /* \"#utility.yul\":2753:2830   */\n      swap2\n      swap1\n      pop\n      jump\t// out\n        /* \"#utility.yul\":2836:2958   */\n    tag_507:\n        /* \"#utility.yul\":2909:2933   */\n      tag_593\n        /* \"#utility.yul\":2927:2932   */\n      dup2\n        /* \"#utility.yul\":2909:2933   */\n      tag_506\n      jump\t// in\n    tag_593:\n        /* \"#utility.yul\":2902:2907   */\n      dup2\n        /* \"#utility.yul\":2899:2934   */\n      eq\n        /* \"#utility.yul\":2889:2952   */\n      tag_594\n      jumpi\n        /* \"#utility.yul\":2948:2949   */\n      0x00\n        /* \"#utility.yul\":2945:2946   */\n      dup1\n        /* \"#utility.yul\":2938:2950   */\n      revert\n        /* \"#utility.yul\":2889:2952   */\n    tag_594:\n        /* \"#utility.yul\":2836:2958   */\n      pop\n      jump\t// out\n        /* \"#utility.yul\":2964:3103   */\n    tag_508:\n        /* \"#utility.yul\":3010:3015   */\n      0x00\n        /* \"#utility.yul\":3048:3054   */\n      dup2\n        /* \"#utility.yul\":3035:3055   */\n      calldataload\n        /* \"#utility.yul\":3026:3055   */\n      swap1\n      pop\n        /* \"#utility.yul\":3064:3097   */\n      tag_596\n        /* \"#utility.yul\":3091:3096   */\n      dup2\n        /* \"#utility.yul\":3064:3097   */\n      tag_507\n      jump\t// in\n    tag_596:\n        /* \"#utility.yul\":2964:3103   */\n      swap3\n      swap2\n      pop\n      pop\n      jump\t// out\n        /* \"#utility.yul\":3109:3438   */\n    tag_61:\n        /* \"#utility.yul\":3168:3174   */\n      0x00\n        /* \"#utility.yul\":3217:3219   */\n      0x20\n        /* \"#utility.yul\":3205:3214   */\n      dup3\n        /* \"#utility.yul\":3196:3203   */\n      dup5\n        /* \"#utility.yul\":3192:3215   */\n      sub\n        /* \"#utility.yul\":3188:3220   */\n      slt\n        /* \"#utility.yul\":3185:3304   */\n      iszero\n      tag_598\n      jumpi\n        /* \"#utility.yul\":3223:3302   */\n      tag_599\n      tag_494\n      jump\t// in\n    tag_599:\n        /* \"#utility.yul\":3185:3304   */\n    tag_598:\n        /* \"#utility.yul\":3343:3344   */\n      0x00\n        /* \"#utility.yul\":3368:3421   */\n      tag_600\n        /* \"#utility.yul\":3413:3420   */\n      dup5\n        /* \"#utility.yul\":3404:3410   */\n      dup3\n        /* \"#utility.yul\":3393:3402   */\n      dup6\n        /* \"#utility.yul\":3389:3411   */\n      add\n        /* \"#utility.yul\":3368:3421   */\n      tag_508\n      jump\t// in\n    tag_600:\n        /* \"#utility.yul\":3358:3421   */\n      swap2\n      pop\n        /* \"#utility.yul\":3314:3431   */\n      pop\n        /* \"#utility.yul\":3109:3438   */\n      swap3\n      swap2\n      pop\n      pop\n      jump\t// out\n        /* \"#utility.yul\":3444:3562   */\n    tag_509:\n        /* \"#utility.yul\":3531:3555   */\n      tag_602\n        /* \"#utility.yul\":3549:3554   */\n      dup2\n        /* \"#utility.yul\":3531:3555   */\n      tag_506\n      jump\t// in\n    tag_602:\n        /* \"#utility.yul\":3526:3529   */\n      dup3\n        /* \"#utility.yul\":3519:3556   */\n      mstore\n        /* \"#utility.yul\":3444:3562   */\n      pop\n      pop\n      jump\t// out\n        /* \"#utility.yul\":3568:3694   */\n    tag_510:\n        /* \"#utility.yul\":3605:3612   */\n      0x00\n        /* \"#utility.yul\":3645:3687   */\n      0xffffffffffffffffffffffffffffffffffffffff\n        /* \"#utility.yul\":3638:3643   */\n      dup3\n        /* \"#utility.yul\":3634:3688   */\n      and\n        /* \"#utility.yul\":3623:3688   */\n      swap1\n      pop\n        /* \"#utility.yul\":3568:3694   */\n      swap2\n      swap1\n      pop\n      jump\t// out\n        /* \"#utility.yul\":3700:3796   */\n    tag_511:\n        /* \"#utility.yul\":3737:3744   */\n      0x00\n        /* \"#utility.yul\":3766:3790   */\n      tag_605\n        /* \"#utility.yul\":3784:3789   */\n      dup3\n        /* \"#utility.yul\":3766:3790   */\n      tag_510\n      jump\t// in\n    tag_605:\n        /* \"#utility.yul\":3755:3790   */\n      swap1\n      pop\n        /* \"#utility.yul\":3700:3796   */\n      swap2\n      swap1\n      pop\n      jump\t// out\n        /* \"#utility.yul\":3802:3920   */\n    tag_512:\n        /* \"#utility.yul\":3889:3913   */\n      tag_607\n        /* \"#utility.yul\":3907:3912   */\n      dup2\n        /* \"#utility.yul\":3889:3913   */\n      tag_511\n      jump\t// in\n    tag_607:\n        /* \"#utility.yul\":3884:3887   */\n      dup3\n        /* \"#utility.yul\":3877:3914   */\n      mstore\n        /* \"#utility.yul\":3802:3920   */\n      pop\n      pop\n      jump\t// out\n        /* \"#utility.yul\":3926:4106   */\n    tag_237:\n        /* \"#utility.yul\":3974:4051   */\n      0x4e487b7100000000000000000000000000000000000000000000000000000000\n        /* \"#utility.yul\":3971:3972   */\n      0x00\n        /* \"#utility.yul\":3964:4052   */\n      mstore\n        /* \"#utility.yul\":4071:4075   */\n      0x21\n        /* \"#utility.yul\":4068:4069   */\n      0x04\n        /* \"#utility.yul\":4061:4076   */\n      mstore\n        /* \"#utility.yul\":4095:4099   */\n      0x24\n        /* \"#utility.yul\":4092:4093   */\n      0x00\n        /* \"#utility.yul\":4085:4100   */\n      revert\n        /* \"#utility.yul\":4112:4228   */\n    tag_513:\n        /* \"#utility.yul\":4196:4197   */\n      0x07\n        /* \"#utility.yul\":4189:4194   */\n      dup2\n        /* \"#utility.yul\":4186:4198   */\n      lt\n        /* \"#utility.yul\":4176:4222   */\n      tag_610\n      jumpi\n        /* \"#utility.yul\":4202:4220   */\n      tag_611\n      tag_237\n      jump\t// in\n    tag_611:\n        /* \"#utility.yul\":4176:4222   */\n    tag_610:\n        /* \"#utility.yul\":4112:4228   */\n      pop\n      jump\t// out\n        /* \"#utility.yul\":4234:4367   */\n    tag_514:\n        /* \"#utility.yul\":4282:4289   */\n      0x00\n        /* \"#utility.yul\":4311:4316   */\n      dup2\n        /* \"#utility.yul\":4300:4316   */\n      swap1\n      pop\n        /* \"#utility.yul\":4317:4361   */\n      tag_613\n        /* \"#utility.yul\":4355:4360   */\n      dup3\n        /* \"#utility.yul\":4317:4361   */\n      tag_513\n      jump\t// in\n    tag_613:\n        /* \"#utility.yul\":4234:4367   */\n      swap2\n      swap1\n      pop\n      jump\t// out\n        /* \"#utility.yul\":4373:4506   */\n    tag_515:\n        /* \"#utility.yul\":4432:4441   */\n      0x00\n        /* \"#utility.yul\":4465:4500   */\n      tag_615\n        /* \"#utility.yul\":4494:4499   */\n      dup3\n        /* \"#utility.yul\":4465:4500   */\n      tag_514\n      jump\t// in\n    tag_615:\n        /* \"#utility.yul\":4452:4500   */\n      swap1\n      pop\n        /* \"#utility.yul\":4373:4506   */\n      swap2\n      swap1\n      pop\n      jump\t// out\n        /* \"#utility.yul\":4512:4661   */\n    tag_516:\n        /* \"#utility.yul\":4608:4654   */\n      tag_617\n        /* \"#utility.yul\":4648:4653   */\n      dup2\n        /* \"#utility.yul\":4608:4654   */\n      tag_515\n      jump\t// in\n    tag_617:\n        /* \"#utility.yul\":4603:4606   */\n      dup3\n        /* \"#utility.yul\":4596:4655   */\n      mstore\n        /* \"#utility.yul\":4512:4661   */\n      pop\n      pop\n      jump\t// out\n        /* \"#utility.yul\":4667:5761   */\n    tag_64:\n        /* \"#utility.yul\":4979:4983   */\n      0x00\n        /* \"#utility.yul\":5017:5020   */\n      0x0100\n        /* \"#utility.yul\":5006:5015   */\n      dup3\n        /* \"#utility.yul\":5002:5021   */\n      add\n        /* \"#utility.yul\":4994:5021   */\n      swap1\n      pop\n        /* \"#utility.yul\":5031:5102   */\n      tag_619\n        /* \"#utility.yul\":5099:5100   */\n      0x00\n        /* \"#utility.yul\":5088:5097   */\n      dup4\n        /* \"#utility.yul\":5084:5101   */\n      add\n        /* \"#utility.yul\":5075:5081   */\n      dup12\n        /* \"#utility.yul\":5031:5102   */\n      tag_509\n      jump\t// in\n    tag_619:\n        /* \"#utility.yul\":5112:5184   */\n      tag_620\n        /* \"#utility.yul\":5180:5182   */\n      0x20\n        /* \"#utility.yul\":5169:5178   */\n      dup4\n        /* \"#utility.yul\":5165:5183   */\n      add\n        /* \"#utility.yul\":5156:5162   */\n      dup11\n        /* \"#utility.yul\":5112:5184   */\n      tag_512\n      jump\t// in\n    tag_620:\n        /* \"#utility.yul\":5231:5240   */\n      dup2\n        /* \"#utility.yul\":5225:5229   */\n      dup2\n        /* \"#utility.yul\":5221:5241   */\n      sub\n        /* \"#utility.yul\":5216:5218   */\n      0x40\n        /* \"#utility.yul\":5205:5214   */\n      dup4\n        /* \"#utility.yul\":5201:5219   */\n      add\n        /* \"#utility.yul\":5194:5242   */\n      mstore\n        /* \"#utility.yul\":5259:5337   */\n      tag_621\n        /* \"#utility.yul\":5332:5336   */\n      dup2\n        /* \"#utility.yul\":5323:5329   */\n      dup10\n        /* \"#utility.yul\":5259:5337   */\n      tag_505\n      jump\t// in\n    tag_621:\n        /* \"#utility.yul\":5251:5337   */\n      swap1\n      pop\n        /* \"#utility.yul\":5347:5419   */\n      tag_622\n        /* \"#utility.yul\":5415:5417   */\n      0x60\n        /* \"#utility.yul\":5404:5413   */\n      dup4\n        /* \"#utility.yul\":5400:5418   */\n      add\n        /* \"#utility.yul\":5391:5397   */\n      dup9\n        /* \"#utility.yul\":5347:5419   */\n      tag_509\n      jump\t// in\n    tag_622:\n        /* \"#utility.yul\":5429:5502   */\n      tag_623\n        /* \"#utility.yul\":5497:5500   */\n      0x80\n        /* \"#utility.yul\":5486:5495   */\n      dup4\n        /* \"#utility.yul\":5482:5501   */\n      add\n        /* \"#utility.yul\":5473:5479   */\n      dup8\n        /* \"#utility.yul\":5429:5502   */\n      tag_509\n      jump\t// in\n    tag_623:\n        /* \"#utility.yul\":5512:5594   */\n      tag_624\n        /* \"#utility.yul\":5589:5592   */\n      0xa0\n        /* \"#utility.yul\":5578:5587   */\n      dup4\n        /* \"#utility.yul\":5574:5593   */\n      add\n        /* \"#utility.yul\":5565:5571   */\n      dup7\n        /* \"#utility.yul\":5512:5594   */\n      tag_516\n      jump\t// in\n    tag_624:\n        /* \"#utility.yul\":5604:5677   */\n      tag_625\n        /* \"#utility.yul\":5672:5675   */\n      0xc0\n        /* \"#utility.yul\":5661:5670   */\n      dup4\n        /* \"#utility.yul\":5657:5676   */\n      add\n        /* \"#utility.yul\":5648:5654   */\n      dup6\n        /* \"#utility.yul\":5604:5677   */\n      tag_512\n      jump\t// in\n    tag_625:\n        /* \"#utility.yul\":5687:5754   */\n      tag_626\n        /* \"#utility.yul\":5749:5752   */\n      0xe0\n        /* \"#utility.yul\":5738:5747   */\n      dup4\n        /* \"#utility.yul\":5734:5753   */\n      add\n        /* \"#utility.yul\":5725:5731   */\n      dup5\n        /* \"#utility.yul\":5687:5754   */\n      tag_500\n      jump\t// in\n    tag_626:\n        /* \"#utility.yul\":4667:5761   */\n      swap10\n      swap9\n      pop\n      pop\n      pop\n      pop\n      pop\n      pop\n      pop\n      pop\n      pop\n      jump\t// out\n        /* \"#utility.yul\":5767:5889   */\n    tag_517:\n        /* \"#utility.yul\":5840:5864   */\n      tag_628\n        /* \"#utility.yul\":5858:5863   */\n      dup2\n        /* \"#utility.yul\":5840:5864   */\n      tag_511\n      jump\t// in\n    tag_628:\n        /* \"#utility.yul\":5833:5838   */\n      dup2\n        /* \"#utility.yul\":5830:5865   */\n      eq\n        /* \"#utility.yul\":5820:5883   */\n      tag_629\n      jumpi\n        /* \"#utility.yul\":5879:5880   */\n      0x00\n        /* \"#utility.yul\":5876:5877   */\n      dup1\n        /* \"#utility.yul\":5869:5881   */\n      revert\n        /* \"#utility.yul\":5820:5883   */\n    tag_629:\n        /* \"#utility.yul\":5767:5889   */\n      pop\n      jump\t// out\n        /* \"#utility.yul\":5895:6034   */\n    tag_518:\n        /* \"#utility.yul\":5941:5946   */\n      0x00\n        /* \"#utility.yul\":5979:5985   */\n      dup2\n        /* \"#utility.yul\":5966:5986   */\n      calldataload\n        /* \"#utility.yul\":5957:5986   */\n      swap1\n      pop\n        /* \"#utility.yul\":5995:6028   */\n      tag_631\n        /* \"#utility.yul\":6022:6027   */\n      dup2\n        /* \"#utility.yul\":5995:6028   */\n      tag_517\n      jump\t// in\n    tag_631:\n        /* \"#utility.yul\":5895:6034   */\n      swap3\n      swap2\n      pop\n      pop\n      jump\t// out\n        /* \"#utility.yul\":6040:6514   */\n    tag_67:\n        /* \"#utility.yul\":6108:6114   */\n      0x00\n        /* \"#utility.yul\":6116:6122   */\n      dup1\n        /* \"#utility.yul\":6165:6167   */\n      0x40\n        /* \"#utility.yul\":6153:6162   */\n      dup4\n        /* \"#utility.yul\":6144:6151   */\n      dup6\n        /* \"#utility.yul\":6140:6163   */\n      sub\n        /* \"#utility.yul\":6136:6168   */\n      slt\n        /* \"#utility.yul\":6133:6252   */\n      iszero\n      tag_633\n      jumpi\n        /* \"#utility.yul\":6171:6250   */\n      tag_634\n      tag_494\n      jump\t// in\n    tag_634:\n        /* \"#utility.yul\":6133:6252   */\n    tag_633:\n        /* \"#utility.yul\":6291:6292   */\n      0x00\n        /* \"#utility.yul\":6316:6369   */\n      tag_635\n        /* \"#utility.yul\":6361:6368   */\n      dup6\n        /* \"#utility.yul\":6352:6358   */\n      dup3\n        /* \"#utility.yul\":6341:6350   */\n      dup7\n        /* \"#utility.yul\":6337:6359   */\n      add\n        /* \"#utility.yul\":6316:6369   */\n      tag_518\n      jump\t// in\n    tag_635:\n        /* \"#utility.yul\":6306:6369   */\n      swap3\n      pop\n        /* \"#utility.yul\":6262:6379   */\n      pop\n        /* \"#utility.yul\":6418:6420   */\n      0x20\n        /* \"#utility.yul\":6444:6497   */\n      tag_636\n        /* \"#utility.yul\":6489:6496   */\n      dup6\n        /* \"#utility.yul\":6480:6486   */\n      dup3\n        /* \"#utility.yul\":6469:6478   */\n      dup7\n        /* \"#utility.yul\":6465:6487   */\n      add\n        /* \"#utility.yul\":6444:6497   */\n      tag_508\n      jump\t// in\n    tag_636:\n        /* \"#utility.yul\":6434:6497   */\n      swap2\n      pop\n        /* \"#utility.yul\":6389:6507   */\n      pop\n        /* \"#utility.yul\":6040:6514   */\n      swap3\n      pop\n      swap3\n      swap1\n      pop\n      jump\t// out\n        /* \"#utility.yul\":6520:6742   */\n    tag_73:\n        /* \"#utility.yul\":6613:6617   */\n      0x00\n        /* \"#utility.yul\":6651:6653   */\n      0x20\n        /* \"#utility.yul\":6640:6649   */\n      dup3\n        /* \"#utility.yul\":6636:6654   */\n      add\n        /* \"#utility.yul\":6628:6654   */\n      swap1\n      pop\n        /* \"#utility.yul\":6664:6735   */\n      tag_638\n        /* \"#utility.yul\":6732:6733   */\n      0x00\n        /* \"#utility.yul\":6721:6730   */\n      dup4\n        /* \"#utility.yul\":6717:6734   */\n      add\n        /* \"#utility.yul\":6708:6714   */\n      dup5\n        /* \"#utility.yul\":6664:6735   */\n      tag_509\n      jump\t// in\n    tag_638:\n        /* \"#utility.yul\":6520:6742   */\n      swap3\n      swap2\n      pop\n      pop\n      jump\t// out\n        /* \"#utility.yul\":6748:7367   */\n    tag_79:\n        /* \"#utility.yul\":6825:6831   */\n      0x00\n        /* \"#utility.yul\":6833:6839   */\n      dup1\n        /* \"#utility.yul\":6841:6847   */\n      0x00\n        /* \"#utility.yul\":6890:6892   */\n      0x60\n        /* \"#utility.yul\":6878:6887   */\n      dup5\n        /* \"#utility.yul\":6869:6876   */\n      dup7\n        /* \"#utility.yul\":6865:6888   */\n      sub\n        /* \"#utility.yul\":6861:6893   */\n      slt\n        /* \"#utility.yul\":6858:6977   */\n      iszero\n      tag_640\n      jumpi\n        /* \"#utility.yul\":6896:6975   */\n      tag_641\n      tag_494\n      jump\t// in\n    tag_641:\n        /* \"#utility.yul\":6858:6977   */\n    tag_640:\n        /* \"#utility.yul\":7016:7017   */\n      0x00\n        /* \"#utility.yul\":7041:7094   */\n      tag_642\n        /* \"#utility.yul\":7086:7093   */\n      dup7\n        /* \"#utility.yul\":7077:7083   */\n      dup3\n        /* \"#utility.yul\":7066:7075   */\n      dup8\n        /* \"#utility.yul\":7062:7084   */\n      add\n        /* \"#utility.yul\":7041:7094   */\n      tag_518\n      jump\t// in\n    tag_642:\n        /* \"#utility.yul\":7031:7094   */\n      swap4\n      pop\n        /* \"#utility.yul\":6987:7104   */\n      pop\n        /* \"#utility.yul\":7143:7145   */\n      0x20\n        /* \"#utility.yul\":7169:7222   */\n      tag_643\n        /* \"#utility.yul\":7214:7221   */\n      dup7\n        /* \"#utility.yul\":7205:7211   */\n      dup3\n        /* \"#utility.yul\":7194:7203   */\n      dup8\n        /* \"#utility.yul\":7190:7212   */\n      add\n        /* \"#utility.yul\":7169:7222   */\n      tag_518\n      jump\t// in\n    tag_643:\n        /* \"#utility.yul\":7159:7222   */\n      swap3\n      pop\n        /* \"#utility.yul\":7114:7232   */\n      pop\n        /* \"#utility.yul\":7271:7273   */\n      0x40\n        /* \"#utility.yul\":7297:7350   */\n      tag_644\n        /* \"#utility.yul\":7342:7349   */\n      dup7\n        /* \"#utility.yul\":7333:7339   */\n      dup3\n        /* \"#utility.yul\":7322:7331   */\n      dup8\n        /* \"#utility.yul\":7318:7340   */\n      add\n        /* \"#utility.yul\":7297:7350   */\n      tag_508\n      jump\t// in\n    tag_644:\n        /* \"#utility.yul\":7287:7350   */\n      swap2\n      pop\n        /* \"#utility.yul\":7242:7360   */\n      pop\n        /* \"#utility.yul\":6748:7367   */\n      swap3\n      pop\n      swap3\n      pop\n      swap3\n      jump\t// out\n        /* \"#utility.yul\":7373:7450   */\n    tag_519:\n        /* \"#utility.yul\":7410:7417   */\n      0x00\n        /* \"#utility.yul\":7439:7444   */\n      dup2\n        /* \"#utility.yul\":7428:7444   */\n      swap1\n      pop\n        /* \"#utility.yul\":7373:7450   */\n      swap2\n      swap1\n      pop\n      jump\t// out\n        /* \"#utility.yul\":7456:7578   */\n    tag_520:\n        /* \"#utility.yul\":7529:7553   */\n      tag_647\n        /* \"#utility.yul\":7547:7552   */\n      dup2\n        /* \"#utility.yul\":7529:7553   */\n      tag_519\n      jump\t// in\n    tag_647:\n        /* \"#utility.yul\":7522:7527   */\n      dup2\n        /* \"#utility.yul\":7519:7554   */\n      eq\n        /* \"#utility.yul\":7509:7572   */\n      tag_648\n      jumpi\n        /* \"#utility.yul\":7568:7569   */\n      0x00\n        /* \"#utility.yul\":7565:7566   */\n      dup1\n        /* \"#utility.yul\":7558:7570   */\n      revert\n        /* \"#utility.yul\":7509:7572   */\n    tag_648:\n        /* \"#utility.yul\":7456:7578   */\n      pop\n      jump\t// out\n        /* \"#utility.yul\":7584:7723   */\n    tag_521:\n        /* \"#utility.yul\":7630:7635   */\n      0x00\n        /* \"#utility.yul\":7668:7674   */\n      dup2\n        /* \"#utility.yul\":7655:7675   */\n      calldataload\n        /* \"#utility.yul\":7646:7675   */\n      swap1\n      pop\n        /* \"#utility.yul\":7684:7717   */\n      tag_650\n        /* \"#utility.yul\":7711:7716   */\n      dup2\n        /* \"#utility.yul\":7684:7717   */\n      tag_520\n      jump\t// in\n    tag_650:\n        /* \"#utility.yul\":7584:7723   */\n      swap3\n      swap2\n      pop\n      pop\n      jump\t// out\n        /* \"#utility.yul\":7729:8058   */\n    tag_84:\n        /* \"#utility.yul\":7788:7794   */\n      0x00\n        /* \"#utility.yul\":7837:7839   */\n      0x20\n        /* \"#utility.yul\":7825:7834   */\n      dup3\n        /* \"#utility.yul\":7816:7823   */\n      dup5\n        /* \"#utility.yul\":7812:7835   */\n      sub\n        /* \"#utility.yul\":7808:7840   */\n      slt\n        /* \"#utility.yul\":7805:7924   */\n      iszero\n      tag_652\n      jumpi\n        /* \"#utility.yul\":7843:7922   */\n      tag_653\n      tag_494\n      jump\t// in\n    tag_653:\n        /* \"#utility.yul\":7805:7924   */\n    tag_652:\n        /* \"#utility.yul\":7963:7964   */\n      0x00\n        /* \"#utility.yul\":7988:8041   */\n      tag_654\n        /* \"#utility.yul\":8033:8040   */\n      dup5\n        /* \"#utility.yul\":8024:8030   */\n      dup3\n        /* \"#utility.yul\":8013:8022   */\n      dup6\n        /* \"#utility.yul\":8009:8031   */\n      add\n        /* \"#utility.yul\":7988:8041   */\n      tag_521\n      jump\t// in\n    tag_654:\n        /* \"#utility.yul\":7978:8041   */\n      swap2\n      pop\n        /* \"#utility.yul\":7934:8051   */\n      pop\n        /* \"#utility.yul\":7729:8058   */\n      swap3\n      swap2\n      pop\n      pop\n      jump\t// out\n        /* \"#utility.yul\":8064:8182   */\n    tag_522:\n        /* \"#utility.yul\":8151:8175   */\n      tag_656\n        /* \"#utility.yul\":8169:8174   */\n      dup2\n        /* \"#utility.yul\":8151:8175   */\n      tag_519\n      jump\t// in\n    tag_656:\n        /* \"#utility.yul\":8146:8149   */\n      dup3\n        /* \"#utility.yul\":8139:8176   */\n      mstore\n        /* \"#utility.yul\":8064:8182   */\n      pop\n      pop\n      jump\t// out\n        /* \"#utility.yul\":8188:8410   */\n    tag_87:\n        /* \"#utility.yul\":8281:8285   */\n      0x00\n        /* \"#utility.yul\":8319:8321   */\n      0x20\n        /* \"#utility.yul\":8308:8317   */\n      dup3\n        /* \"#utility.yul\":8304:8322   */\n      add\n        /* \"#utility.yul\":8296:8322   */\n      swap1\n      pop\n        /* \"#utility.yul\":8332:8403   */\n      tag_658\n        /* \"#utility.yul\":8400:8401   */\n      0x00\n        /* \"#utility.yul\":8389:8398   */\n      dup4\n        /* \"#utility.yul\":8385:8402   */\n      add\n        /* \"#utility.yul\":8376:8382   */\n      dup5\n        /* \"#utility.yul\":8332:8403   */\n      tag_522\n      jump\t// in\n    tag_658:\n        /* \"#utility.yul\":8188:8410   */\n      swap3\n      swap2\n      pop\n      pop\n      jump\t// out\n        /* \"#utility.yul\":8416:8890   */\n    tag_90:\n        /* \"#utility.yul\":8484:8490   */\n      0x00\n        /* \"#utility.yul\":8492:8498   */\n      dup1\n        /* \"#utility.yul\":8541:8543   */\n      0x40\n        /* \"#utility.yul\":8529:8538   */\n      dup4\n        /* \"#utility.yul\":8520:8527   */\n      dup6\n        /* \"#utility.yul\":8516:8539   */\n      sub\n        /* \"#utility.yul\":8512:8544   */\n      slt\n        /* \"#utility.yul\":8509:8628   */\n      iszero\n      tag_660\n      jumpi\n        /* \"#utility.yul\":8547:8626   */\n      tag_661\n      tag_494\n      jump\t// in\n    tag_661:\n        /* \"#utility.yul\":8509:8628   */\n    tag_660:\n        /* \"#utility.yul\":8667:8668   */\n      0x00\n        /* \"#utility.yul\":8692:8745   */\n      tag_662\n        /* \"#utility.yul\":8737:8744   */\n      dup6\n        /* \"#utility.yul\":8728:8734   */\n      dup3\n        /* \"#utility.yul\":8717:8726   */\n      dup7\n        /* \"#utility.yul\":8713:8735   */\n      add\n        /* \"#utility.yul\":8692:8745   */\n      tag_521\n      jump\t// in\n    tag_662:\n        /* \"#utility.yul\":8682:8745   */\n      swap3\n      pop\n        /* \"#utility.yul\":8638:8755   */\n      pop\n        /* \"#utility.yul\":8794:8796   */\n      0x20\n        /* \"#utility.yul\":8820:8873   */\n      tag_663\n        /* \"#utility.yul\":8865:8872   */\n      dup6\n        /* \"#utility.yul\":8856:8862   */\n      dup3\n        /* \"#utility.yul\":8845:8854   */\n      dup7\n        /* \"#utility.yul\":8841:8863   */\n      add\n        /* \"#utility.yul\":8820:8873   */\n      tag_518\n      jump\t// in\n    tag_663:\n        /* \"#utility.yul\":8810:8873   */\n      swap2\n      pop\n        /* \"#utility.yul\":8765:8883   */\n      pop\n        /* \"#utility.yul\":8416:8890   */\n      swap3\n      pop\n      swap3\n      swap1\n      pop\n      jump\t// out\n        /* \"#utility.yul\":8896:8982   */\n    tag_523:\n        /* \"#utility.yul\":8931:8938   */\n      0x00\n        /* \"#utility.yul\":8971:8975   */\n      0xff\n        /* \"#utility.yul\":8964:8969   */\n      dup3\n        /* \"#utility.yul\":8960:8976   */\n      and\n        /* \"#utility.yul\":8949:8976   */\n      swap1\n      pop\n        /* \"#utility.yul\":8896:8982   */\n      swap2\n      swap1\n      pop\n      jump\t// out\n        /* \"#utility.yul\":8988:9100   */\n    tag_524:\n        /* \"#utility.yul\":9071:9093   */\n      tag_666\n        /* \"#utility.yul\":9087:9092   */\n      dup2\n        /* \"#utility.yul\":9071:9093   */\n      tag_523\n      jump\t// in\n    tag_666:\n        /* \"#utility.yul\":9066:9069   */\n      dup3\n        /* \"#utility.yul\":9059:9094   */\n      mstore\n        /* \"#utility.yul\":8988:9100   */\n      pop\n      pop\n      jump\t// out\n        /* \"#utility.yul\":9106:9320   */\n    tag_95:\n        /* \"#utility.yul\":9195:9199   */\n      0x00\n        /* \"#utility.yul\":9233:9235   */\n      0x20\n        /* \"#utility.yul\":9222:9231   */\n      dup3\n        /* \"#utility.yul\":9218:9236   */\n      add\n        /* \"#utility.yul\":9210:9236   */\n      swap1\n      pop\n        /* \"#utility.yul\":9246:9313   */\n      tag_668\n        /* \"#utility.yul\":9310:9311   */\n      0x00\n        /* \"#utility.yul\":9299:9308   */\n      dup4\n        /* \"#utility.yul\":9295:9312   */\n      add\n        /* \"#utility.yul\":9286:9292   */\n      dup5\n        /* \"#utility.yul\":9246:9313   */\n      tag_524\n      jump\t// in\n    tag_668:\n        /* \"#utility.yul\":9106:9320   */\n      swap3\n      swap2\n      pop\n      pop\n      jump\t// out\n        /* \"#utility.yul\":9326:9443   */\n    tag_525:\n        /* \"#utility.yul\":9435:9436   */\n      0x00\n        /* \"#utility.yul\":9432:9433   */\n      dup1\n        /* \"#utility.yul\":9425:9437   */\n      revert\n        /* \"#utility.yul\":9449:9566   */\n    tag_526:\n        /* \"#utility.yul\":9558:9559   */\n      0x00\n        /* \"#utility.yul\":9555:9556   */\n      dup1\n        /* \"#utility.yul\":9548:9560   */\n      revert\n        /* \"#utility.yul\":9572:9752   */\n    tag_527:\n        /* \"#utility.yul\":9620:9697   */\n      0x4e487b7100000000000000000000000000000000000000000000000000000000\n        /* \"#utility.yul\":9617:9618   */\n      0x00\n        /* \"#utility.yul\":9610:9698   */\n      mstore\n        /* \"#utility.yul\":9717:9721   */\n      0x41\n        /* \"#utility.yul\":9714:9715   */\n      0x04\n        /* \"#utility.yul\":9707:9722   */\n      mstore\n        /* \"#utility.yul\":9741:9745   */\n      0x24\n        /* \"#utility.yul\":9738:9739   */\n      0x00\n        /* \"#utility.yul\":9731:9746   */\n      revert\n        /* \"#utility.yul\":9758:10039   */\n    tag_528:\n        /* \"#utility.yul\":9841:9868   */\n      tag_673\n        /* \"#utility.yul\":9863:9867   */\n      dup3\n        /* \"#utility.yul\":9841:9868   */\n      tag_504\n      jump\t// in\n    tag_673:\n        /* \"#utility.yul\":9833:9839   */\n      dup2\n        /* \"#utility.yul\":9829:9869   */\n      add\n        /* \"#utility.yul\":9971:9977   */\n      dup2\n        /* \"#utility.yul\":9959:9969   */\n      dup2\n        /* \"#utility.yul\":9956:9978   */\n      lt\n        /* \"#utility.yul\":9935:9953   */\n      0xffffffffffffffff\n        /* \"#utility.yul\":9923:9933   */\n      dup3\n        /* \"#utility.yul\":9920:9954   */\n      gt\n        /* \"#utility.yul\":9917:9979   */\n      or\n        /* \"#utility.yul\":9914:10002   */\n      iszero\n      tag_674\n      jumpi\n        /* \"#utility.yul\":9982:10000   */\n      tag_675\n      tag_527\n      jump\t// in\n    tag_675:\n        /* \"#utility.yul\":9914:10002   */\n    tag_674:\n        /* \"#utility.yul\":10022:10032   */\n      dup1\n        /* \"#utility.yul\":10018:10020   */\n      0x40\n        /* \"#utility.yul\":10011:10033   */\n      mstore\n        /* \"#utility.yul\":9801:10039   */\n      pop\n        /* \"#utility.yul\":9758:10039   */\n      pop\n      pop\n      jump\t// out\n        /* \"#utility.yul\":10045:10174   */\n    tag_529:\n        /* \"#utility.yul\":10079:10085   */\n      0x00\n        /* \"#utility.yul\":10106:10126   */\n      tag_677\n      tag_493\n      jump\t// in\n    tag_677:\n        /* \"#utility.yul\":10096:10126   */\n      swap1\n      pop\n        /* \"#utility.yul\":10135:10168   */\n      tag_678\n        /* \"#utility.yul\":10163:10167   */\n      dup3\n        /* \"#utility.yul\":10155:10161   */\n      dup3\n        /* \"#utility.yul\":10135:10168   */\n      tag_528\n      jump\t// in\n    tag_678:\n        /* \"#utility.yul\":10045:10174   */\n      swap2\n      swap1\n      pop\n      jump\t// out\n        /* \"#utility.yul\":10180:10488   */\n    tag_530:\n        /* \"#utility.yul\":10242:10246   */\n      0x00\n        /* \"#utility.yul\":10332:10350   */\n      0xffffffffffffffff\n        /* \"#utility.yul\":10324:10330   */\n      dup3\n        /* \"#utility.yul\":10321:10351   */\n      gt\n        /* \"#utility.yul\":10318:10374   */\n      iszero\n      tag_680\n      jumpi\n        /* \"#utility.yul\":10354:10372   */\n      tag_681\n      tag_527\n      jump\t// in\n    tag_681:\n        /* \"#utility.yul\":10318:10374   */\n    tag_680:\n        /* \"#utility.yul\":10392:10421   */\n      tag_682\n        /* \"#utility.yul\":10414:10420   */\n      dup3\n        /* \"#utility.yul\":10392:10421   */\n      tag_504\n      jump\t// in\n    tag_682:\n        /* \"#utility.yul\":10384:10421   */\n      swap1\n      pop\n        /* \"#utility.yul\":10476:10480   */\n      0x20\n        /* \"#utility.yul\":10470:10474   */\n      dup2\n        /* \"#utility.yul\":10466:10481   */\n      add\n        /* \"#utility.yul\":10458:10481   */\n      swap1\n      pop\n        /* \"#utility.yul\":10180:10488   */\n      swap2\n      swap1\n      pop\n      jump\t// out\n        /* \"#utility.yul\":10494:10642   */\n    tag_531:\n        /* \"#utility.yul\":10592:10598   */\n      dup3\n        /* \"#utility.yul\":10587:10590   */\n      dup2\n        /* \"#utility.yul\":10582:10585   */\n      dup4\n        /* \"#utility.yul\":10569:10599   */\n      calldatacopy\n        /* \"#utility.yul\":10633:10634   */\n      0x00\n        /* \"#utility.yul\":10624:10630   */\n      dup4\n        /* \"#utility.yul\":10619:10622   */\n      dup4\n        /* \"#utility.yul\":10615:10631   */\n      add\n        /* \"#utility.yul\":10608:10635   */\n      mstore\n        /* \"#utility.yul\":10494:10642   */\n      pop\n      pop\n      pop\n      jump\t// out\n        /* \"#utility.yul\":10648:11073   */\n    tag_532:\n        /* \"#utility.yul\":10726:10731   */\n      0x00\n        /* \"#utility.yul\":10751:10817   */\n      tag_685\n        /* \"#utility.yul\":10767:10816   */\n      tag_686\n        /* \"#utility.yul\":10809:10815   */\n      dup5\n        /* \"#utility.yul\":10767:10816   */\n      tag_530\n      jump\t// in\n    tag_686:\n        /* \"#utility.yul\":10751:10817   */\n      tag_529\n      jump\t// in\n    tag_685:\n        /* \"#utility.yul\":10742:10817   */\n      swap1\n      pop\n        /* \"#utility.yul\":10840:10846   */\n      dup3\n        /* \"#utility.yul\":10833:10838   */\n      dup2\n        /* \"#utility.yul\":10826:10847   */\n      mstore\n        /* \"#utility.yul\":10878:10882   */\n      0x20\n        /* \"#utility.yul\":10871:10876   */\n      dup2\n        /* \"#utility.yul\":10867:10883   */\n      add\n        /* \"#utility.yul\":10916:10919   */\n      dup5\n        /* \"#utility.yul\":10907:10913   */\n      dup5\n        /* \"#utility.yul\":10902:10905   */\n      dup5\n        /* \"#utility.yul\":10898:10914   */\n      add\n        /* \"#utility.yul\":10895:10920   */\n      gt\n        /* \"#utility.yul\":10892:11004   */\n      iszero\n      tag_687\n      jumpi\n        /* \"#utility.yul\":10923:11002   */\n      tag_688\n      tag_526\n      jump\t// in\n    tag_688:\n        /* \"#utility.yul\":10892:11004   */\n    tag_687:\n        /* \"#utility.yul\":11013:11067   */\n      tag_689\n        /* \"#utility.yul\":11060:11066   */\n      dup5\n        /* \"#utility.yul\":11055:11058   */\n      dup3\n        /* \"#utility.yul\":11050:11053   */\n      dup6\n        /* \"#utility.yul\":11013:11067   */\n      tag_531\n      jump\t// in\n    tag_689:\n        /* \"#utility.yul\":10732:11073   */\n      pop\n        /* \"#utility.yul\":10648:11073   */\n      swap4\n      swap3\n      pop\n      pop\n      pop\n      jump\t// out\n        /* \"#utility.yul\":11093:11433   */\n    tag_533:\n        /* \"#utility.yul\":11149:11154   */\n      0x00\n        /* \"#utility.yul\":11198:11201   */\n      dup3\n        /* \"#utility.yul\":11191:11195   */\n      0x1f\n        /* \"#utility.yul\":11183:11189   */\n      dup4\n        /* \"#utility.yul\":11179:11196   */\n      add\n        /* \"#utility.yul\":11175:11202   */\n      slt\n        /* \"#utility.yul\":11165:11287   */\n      tag_691\n      jumpi\n        /* \"#utility.yul\":11206:11285   */\n      tag_692\n      tag_525\n      jump\t// in\n    tag_692:\n        /* \"#utility.yul\":11165:11287   */\n    tag_691:\n        /* \"#utility.yul\":11323:11329   */\n      dup2\n        /* \"#utility.yul\":11310:11330   */\n      calldataload\n        /* \"#utility.yul\":11348:11427   */\n      tag_693\n        /* \"#utility.yul\":11423:11426   */\n      dup5\n        /* \"#utility.yul\":11415:11421   */\n      dup3\n        /* \"#utility.yul\":11408:11412   */\n      0x20\n        /* \"#utility.yul\":11400:11406   */\n      dup7\n        /* \"#utility.yul\":11396:11413   */\n      add\n        /* \"#utility.yul\":11348:11427   */\n      tag_532\n      jump\t// in\n    tag_693:\n        /* \"#utility.yul\":11339:11427   */\n      swap2\n      pop\n        /* \"#utility.yul\":11155:11433   */\n      pop\n        /* \"#utility.yul\":11093:11433   */\n      swap3\n      swap2\n      pop\n      pop\n      jump\t// out\n        /* \"#utility.yul\":11439:11555   */\n    tag_534:\n        /* \"#utility.yul\":11509:11530   */\n      tag_695\n        /* \"#utility.yul\":11524:11529   */\n      dup2\n        /* \"#utility.yul\":11509:11530   */\n      tag_499\n      jump\t// in\n    tag_695:\n        /* \"#utility.yul\":11502:11507   */\n      dup2\n        /* \"#utility.yul\":11499:11531   */\n      eq\n        /* \"#utility.yul\":11489:11549   */\n      tag_696\n      jumpi\n        /* \"#utility.yul\":11545:11546   */\n      0x00\n        /* \"#utility.yul\":11542:11543   */\n      dup1\n        /* \"#utility.yul\":11535:11547   */\n      revert\n        /* \"#utility.yul\":11489:11549   */\n    tag_696:\n        /* \"#utility.yul\":11439:11555   */\n      pop\n      jump\t// out\n        /* \"#utility.yul\":11561:11694   */\n    tag_535:\n        /* \"#utility.yul\":11604:11609   */\n      0x00\n        /* \"#utility.yul\":11642:11648   */\n      dup2\n        /* \"#utility.yul\":11629:11649   */\n      calldataload\n        /* \"#utility.yul\":11620:11649   */\n      swap1\n      pop\n        /* \"#utility.yul\":11658:11688   */\n      tag_698\n        /* \"#utility.yul\":11682:11687   */\n      dup2\n        /* \"#utility.yul\":11658:11688   */\n      tag_534\n      jump\t// in\n    tag_698:\n        /* \"#utility.yul\":11561:11694   */\n      swap3\n      swap2\n      pop\n      pop\n      jump\t// out\n        /* \"#utility.yul\":11700:12639   */\n    tag_98:\n        /* \"#utility.yul\":11793:11799   */\n      0x00\n        /* \"#utility.yul\":11801:11807   */\n      dup1\n        /* \"#utility.yul\":11809:11815   */\n      0x00\n        /* \"#utility.yul\":11817:11823   */\n      dup1\n        /* \"#utility.yul\":11866:11869   */\n      0x80\n        /* \"#utility.yul\":11854:11863   */\n      dup6\n        /* \"#utility.yul\":11845:11852   */\n      dup8\n        /* \"#utility.yul\":11841:11864   */\n      sub\n        /* \"#utility.yul\":11837:11870   */\n      slt\n        /* \"#utility.yul\":11834:11954   */\n      iszero\n      tag_700\n      jumpi\n        /* \"#utility.yul\":11873:11952   */\n      tag_701\n      tag_494\n      jump\t// in\n    tag_701:\n        /* \"#utility.yul\":11834:11954   */\n    tag_700:\n        /* \"#utility.yul\":12021:12022   */\n      0x00\n        /* \"#utility.yul\":12010:12019   */\n      dup6\n        /* \"#utility.yul\":12006:12023   */\n      add\n        /* \"#utility.yul\":11993:12024   */\n      calldataload\n        /* \"#utility.yul\":12051:12069   */\n      0xffffffffffffffff\n        /* \"#utility.yul\":12043:12049   */\n      dup2\n        /* \"#utility.yul\":12040:12070   */\n      gt\n        /* \"#utility.yul\":12037:12154   */\n      iszero\n      tag_702\n      jumpi\n        /* \"#utility.yul\":12073:12152   */\n      tag_703\n      tag_495\n      jump\t// in\n    tag_703:\n        /* \"#utility.yul\":12037:12154   */\n    tag_702:\n        /* \"#utility.yul\":12178:12241   */\n      tag_704\n        /* \"#utility.yul\":12233:12240   */\n      dup8\n        /* \"#utility.yul\":12224:12230   */\n      dup3\n        /* \"#utility.yul\":12213:12222   */\n      dup9\n        /* \"#utility.yul\":12209:12231   */\n      add\n        /* \"#utility.yul\":12178:12241   */\n      tag_533\n      jump\t// in\n    tag_704:\n        /* \"#utility.yul\":12168:12241   */\n      swap5\n      pop\n        /* \"#utility.yul\":11964:12251   */\n      pop\n        /* \"#utility.yul\":12290:12292   */\n      0x20\n        /* \"#utility.yul\":12316:12369   */\n      tag_705\n        /* \"#utility.yul\":12361:12368   */\n      dup8\n        /* \"#utility.yul\":12352:12358   */\n      dup3\n        /* \"#utility.yul\":12341:12350   */\n      dup9\n        /* \"#utility.yul\":12337:12359   */\n      add\n        /* \"#utility.yul\":12316:12369   */\n      tag_508\n      jump\t// in\n    tag_705:\n        /* \"#utility.yul\":12306:12369   */\n      swap4\n      pop\n        /* \"#utility.yul\":12261:12379   */\n      pop\n        /* \"#utility.yul\":12418:12420   */\n      0x40\n        /* \"#utility.yul\":12444:12497   */\n      tag_706\n        /* \"#utility.yul\":12489:12496   */\n      dup8\n        /* \"#utility.yul\":12480:12486   */\n      dup3\n        /* \"#utility.yul\":12469:12478   */\n      dup9\n        /* \"#utility.yul\":12465:12487   */\n      add\n        /* \"#utility.yul\":12444:12497   */\n      tag_508\n      jump\t// in\n    tag_706:\n        /* \"#utility.yul\":12434:12497   */\n      swap3\n      pop\n        /* \"#utility.yul\":12389:12507   */\n      pop\n        /* \"#utility.yul\":12546:12548   */\n      0x60\n        /* \"#utility.yul\":12572:12622   */\n      tag_707\n        /* \"#utility.yul\":12614:12621   */\n      dup8\n        /* \"#utility.yul\":12605:12611   */\n      dup3\n        /* \"#utility.yul\":12594:12603   */\n      dup9\n        /* \"#utility.yul\":12590:12612   */\n      add\n        /* \"#utility.yul\":12572:12622   */\n      tag_535\n      jump\t// in\n    tag_707:\n        /* \"#utility.yul\":12562:12622   */\n      swap2\n      pop\n        /* \"#utility.yul\":12517:12632   */\n      pop\n        /* \"#utility.yul\":11700:12639   */\n      swap3\n      swap6\n      swap2\n      swap5\n      pop\n      swap3\n      pop\n      jump\t// out\n        /* \"#utility.yul\":12645:12974   */\n    tag_117:\n        /* \"#utility.yul\":12704:12710   */\n      0x00\n        /* \"#utility.yul\":12753:12755   */\n      0x20\n        /* \"#utility.yul\":12741:12750   */\n      dup3\n        /* \"#utility.yul\":12732:12739   */\n      dup5\n        /* \"#utility.yul\":12728:12751   */\n      sub\n        /* \"#utility.yul\":12724:12756   */\n      slt\n        /* \"#utility.yul\":12721:12840   */\n      iszero\n      tag_709\n      jumpi\n        /* \"#utility.yul\":12759:12838   */\n      tag_710\n      tag_494\n      jump\t// in\n    tag_710:\n        /* \"#utility.yul\":12721:12840   */\n    tag_709:\n        /* \"#utility.yul\":12879:12880   */\n      0x00\n        /* \"#utility.yul\":12904:12957   */\n      tag_711\n        /* \"#utility.yul\":12949:12956   */\n      dup5\n        /* \"#utility.yul\":12940:12946   */\n      dup3\n        /* \"#utility.yul\":12929:12938   */\n      dup6\n        /* \"#utility.yul\":12925:12947   */\n      add\n        /* \"#utility.yul\":12904:12957   */\n      tag_518\n      jump\t// in\n    tag_711:\n        /* \"#utility.yul\":12894:12957   */\n      swap2\n      pop\n        /* \"#utility.yul\":12850:12967   */\n      pop\n        /* \"#utility.yul\":12645:12974   */\n      swap3\n      swap2\n      pop\n      pop\n      jump\t// out\n        /* \"#utility.yul\":12980:13454   */\n    tag_153:\n        /* \"#utility.yul\":13048:13054   */\n      0x00\n        /* \"#utility.yul\":13056:13062   */\n      dup1\n        /* \"#utility.yul\":13105:13107   */\n      0x40\n        /* \"#utility.yul\":13093:13102   */\n      dup4\n        /* \"#utility.yul\":13084:13091   */\n      dup6\n        /* \"#utility.yul\":13080:13103   */\n      sub\n        /* \"#utility.yul\":13076:13108   */\n      slt\n        /* \"#utility.yul\":13073:13192   */\n      iszero\n      tag_713\n      jumpi\n        /* \"#utility.yul\":13111:13190   */\n      tag_714\n      tag_494\n      jump\t// in\n    tag_714:\n        /* \"#utility.yul\":13073:13192   */\n    tag_713:\n        /* \"#utility.yul\":13231:13232   */\n      0x00\n        /* \"#utility.yul\":13256:13309   */\n      tag_715\n        /* \"#utility.yul\":13301:13308   */\n      dup6\n        /* \"#utility.yul\":13292:13298   */\n      dup3\n        /* \"#utility.yul\":13281:13290   */\n      dup7\n        /* \"#utility.yul\":13277:13299   */\n      add\n        /* \"#utility.yul\":13256:13309   */\n      tag_518\n      jump\t// in\n    tag_715:\n        /* \"#utility.yul\":13246:13309   */\n      swap3\n      pop\n        /* \"#utility.yul\":13202:13319   */\n      pop\n        /* \"#utility.yul\":13358:13360   */\n      0x20\n        /* \"#utility.yul\":13384:13437   */\n      tag_716\n        /* \"#utility.yul\":13429:13436   */\n      dup6\n        /* \"#utility.yul\":13420:13426   */\n      dup3\n        /* \"#utility.yul\":13409:13418   */\n      dup7\n        /* \"#utility.yul\":13405:13427   */\n      add\n        /* \"#utility.yul\":13384:13437   */\n      tag_521\n      jump\t// in\n    tag_716:\n        /* \"#utility.yul\":13374:13437   */\n      swap2\n      pop\n        /* \"#utility.yul\":13329:13447   */\n      pop\n        /* \"#utility.yul\":12980:13454   */\n      swap3\n      pop\n      swap3\n      swap1\n      pop\n      jump\t// out\n        /* \"#utility.yul\":13460:13934   */\n    tag_182:\n        /* \"#utility.yul\":13528:13534   */\n      0x00\n        /* \"#utility.yul\":13536:13542   */\n      dup1\n        /* \"#utility.yul\":13585:13587   */\n      0x40\n        /* \"#utility.yul\":13573:13582   */\n      dup4\n        /* \"#utility.yul\":13564:13571   */\n      dup6\n        /* \"#utility.yul\":13560:13583   */\n      sub\n        /* \"#utility.yul\":13556:13588   */\n      slt\n        /* \"#utility.yul\":13553:13672   */\n      iszero\n      tag_718\n      jumpi\n        /* \"#utility.yul\":13591:13670   */\n      tag_719\n      tag_494\n      jump\t// in\n    tag_719:\n        /* \"#utility.yul\":13553:13672   */\n    tag_718:\n        /* \"#utility.yul\":13711:13712   */\n      0x00\n        /* \"#utility.yul\":13736:13789   */\n      tag_720\n        /* \"#utility.yul\":13781:13788   */\n      dup6\n        /* \"#utility.yul\":13772:13778   */\n      dup3\n        /* \"#utility.yul\":13761:13770   */\n      dup7\n        /* \"#utility.yul\":13757:13779   */\n      add\n        /* \"#utility.yul\":13736:13789   */\n      tag_518\n      jump\t// in\n    tag_720:\n        /* \"#utility.yul\":13726:13789   */\n      swap3\n      pop\n        /* \"#utility.yul\":13682:13799   */\n      pop\n        /* \"#utility.yul\":13838:13840   */\n      0x20\n        /* \"#utility.yul\":13864:13917   */\n      tag_721\n        /* \"#utility.yul\":13909:13916   */\n      dup6\n        /* \"#utility.yul\":13900:13906   */\n      dup3\n        /* \"#utility.yul\":13889:13898   */\n      dup7\n        /* \"#utility.yul\":13885:13907   */\n      add\n        /* \"#utility.yul\":13864:13917   */\n      tag_518\n      jump\t// in\n    tag_721:\n        /* \"#utility.yul\":13854:13917   */\n      swap2\n      pop\n        /* \"#utility.yul\":13809:13927   */\n      pop\n        /* \"#utility.yul\":13460:13934   */\n      swap3\n      pop\n      swap3\n      swap1\n      pop\n      jump\t// out\n        /* \"#utility.yul\":13940:14120   */\n    tag_536:\n        /* \"#utility.yul\":13988:14065   */\n      0x4e487b7100000000000000000000000000000000000000000000000000000000\n        /* \"#utility.yul\":13985:13986   */\n      0x00\n        /* \"#utility.yul\":13978:14066   */\n      mstore\n        /* \"#utility.yul\":14085:14089   */\n      0x22\n        /* \"#utility.yul\":14082:14083   */\n      0x04\n        /* \"#utility.yul\":14075:14090   */\n      mstore\n        /* \"#utility.yul\":14109:14113   */\n      0x24\n        /* \"#utility.yul\":14106:14107   */\n      0x00\n        /* \"#utility.yul\":14099:14114   */\n      revert\n        /* \"#utility.yul\":14126:14446   */\n    tag_197:\n        /* \"#utility.yul\":14170:14176   */\n      0x00\n        /* \"#utility.yul\":14207:14208   */\n      0x02\n        /* \"#utility.yul\":14201:14205   */\n      dup3\n        /* \"#utility.yul\":14197:14209   */\n      div\n        /* \"#utility.yul\":14187:14209   */\n      swap1\n      pop\n        /* \"#utility.yul\":14254:14255   */\n      0x01\n        /* \"#utility.yul\":14248:14252   */\n      dup3\n        /* \"#utility.yul\":14244:14256   */\n      and\n        /* \"#utility.yul\":14275:14293   */\n      dup1\n        /* \"#utility.yul\":14265:14346   */\n      tag_724\n      jumpi\n        /* \"#utility.yul\":14331:14335   */\n      0x7f\n        /* \"#utility.yul\":14323:14329   */\n      dup3\n        /* \"#utility.yul\":14319:14336   */\n      and\n        /* \"#utility.yul\":14309:14336   */\n      swap2\n      pop\n        /* \"#utility.yul\":14265:14346   */\n    tag_724:\n        /* \"#utility.yul\":14393:14395   */\n      0x20\n        /* \"#utility.yul\":14385:14391   */\n      dup3\n        /* \"#utility.yul\":14382:14396   */\n      lt\n        /* \"#utility.yul\":14362:14380   */\n      dup2\n        /* \"#utility.yul\":14359:14397   */\n      sub\n        /* \"#utility.yul\":14356:14440   */\n      tag_725\n      jumpi\n        /* \"#utility.yul\":14412:14430   */\n      tag_726\n      tag_536\n      jump\t// in\n    tag_726:\n        /* \"#utility.yul\":14356:14440   */\n    tag_725:\n        /* \"#utility.yul\":14177:14446   */\n      pop\n        /* \"#utility.yul\":14126:14446   */\n      swap2\n      swap1\n      pop\n      jump\t// out\n        /* \"#utility.yul\":14452:14615   */\n    tag_537:\n        /* \"#utility.yul\":14592:14607   */\n      0x496e76616c696420696e70757400000000000000000000000000000000000000\n        /* \"#utility.yul\":14588:14589   */\n      0x00\n        /* \"#utility.yul\":14580:14586   */\n      dup3\n        /* \"#utility.yul\":14576:14590   */\n      add\n        /* \"#utility.yul\":14569:14608   */\n      mstore\n        /* \"#utility.yul\":14452:14615   */\n      pop\n      jump\t// out\n        /* \"#utility.yul\":14621:14987   */\n    tag_538:\n        /* \"#utility.yul\":14763:14766   */\n      0x00\n        /* \"#utility.yul\":14784:14851   */\n      tag_729\n        /* \"#utility.yul\":14848:14850   */\n      0x0d\n        /* \"#utility.yul\":14843:14846   */\n      dup4\n        /* \"#utility.yul\":14784:14851   */\n      tag_502\n      jump\t// in\n    tag_729:\n        /* \"#utility.yul\":14777:14851   */\n      swap2\n      pop\n        /* \"#utility.yul\":14860:14953   */\n      tag_730\n        /* \"#utility.yul\":14949:14952   */\n      dup3\n        /* \"#utility.yul\":14860:14953   */\n      tag_537\n      jump\t// in\n    tag_730:\n        /* \"#utility.yul\":14978:14980   */\n      0x20\n        /* \"#utility.yul\":14973:14976   */\n      dup3\n        /* \"#utility.yul\":14969:14981   */\n      add\n        /* \"#utility.yul\":14962:14981   */\n      swap1\n      pop\n        /* \"#utility.yul\":14621:14987   */\n      swap2\n      swap1\n      pop\n      jump\t// out\n        /* \"#utility.yul\":14993:15412   */\n    tag_232:\n        /* \"#utility.yul\":15159:15163   */\n      0x00\n        /* \"#utility.yul\":15197:15199   */\n      0x20\n        /* \"#utility.yul\":15186:15195   */\n      dup3\n        /* \"#utility.yul\":15182:15200   */\n      add\n        /* \"#utility.yul\":15174:15200   */\n      swap1\n      pop\n        /* \"#utility.yul\":15246:15255   */\n      dup2\n        /* \"#utility.yul\":15240:15244   */\n      dup2\n        /* \"#utility.yul\":15236:15256   */\n      sub\n        /* \"#utility.yul\":15232:15233   */\n      0x00\n        /* \"#utility.yul\":15221:15230   */\n      dup4\n        /* \"#utility.yul\":15217:15234   */\n      add\n        /* \"#utility.yul\":15210:15257   */\n      mstore\n        /* \"#utility.yul\":15274:15405   */\n      tag_732\n        /* \"#utility.yul\":15400:15404   */\n      dup2\n        /* \"#utility.yul\":15274:15405   */\n      tag_538\n      jump\t// in\n    tag_732:\n        /* \"#utility.yul\":15266:15405   */\n      swap1\n      pop\n        /* \"#utility.yul\":14993:15412   */\n      swap2\n      swap1\n      pop\n      jump\t// out\n        /* \"#utility.yul\":15418:15598   */\n    tag_539:\n        /* \"#utility.yul\":15466:15543   */\n      0x4e487b7100000000000000000000000000000000000000000000000000000000\n        /* \"#utility.yul\":15463:15464   */\n      0x00\n        /* \"#utility.yul\":15456:15544   */\n      mstore\n        /* \"#utility.yul\":15563:15567   */\n      0x11\n        /* \"#utility.yul\":15560:15561   */\n      0x04\n        /* \"#utility.yul\":15553:15568   */\n      mstore\n        /* \"#utility.yul\":15587:15591   */\n      0x24\n        /* \"#utility.yul\":15584:15585   */\n      0x00\n        /* \"#utility.yul\":15577:15592   */\n      revert\n        /* \"#utility.yul\":15604:15837   */\n    tag_234:\n        /* \"#utility.yul\":15643:15646   */\n      0x00\n        /* \"#utility.yul\":15666:15690   */\n      tag_735\n        /* \"#utility.yul\":15684:15689   */\n      dup3\n        /* \"#utility.yul\":15666:15690   */\n      tag_506\n      jump\t// in\n    tag_735:\n        /* \"#utility.yul\":15657:15690   */\n      swap2\n      pop\n        /* \"#utility.yul\":15712:15778   */\n      0xffffffffffffffffffffffffffffffffffffffffffffffffffffffffffffffff\n        /* \"#utility.yul\":15705:15710   */\n      dup3\n        /* \"#utility.yul\":15702:15779   */\n      sub\n        /* \"#utility.yul\":15699:15802   */\n      tag_736\n      jumpi\n        /* \"#utility.yul\":15782:15800   */\n      tag_737\n      tag_539\n      jump\t// in\n    tag_737:\n        /* \"#utility.yul\":15699:15802   */\n    tag_736:\n        /* \"#utility.yul\":15829:15830   */\n      0x01\n        /* \"#utility.yul\":15822:15827   */\n      dup3\n        /* \"#utility.yul\":15818:15831   */\n      add\n        /* \"#utility.yul\":15811:15831   */\n      swap1\n      pop\n        /* \"#utility.yul\":15604:15837   */\n      swap2\n      swap1\n      pop\n      jump\t// out\n        /* \"#utility.yul\":15843:15984   */\n    tag_540:\n        /* \"#utility.yul\":15892:15896   */\n      0x00\n        /* \"#utility.yul\":15915:15918   */\n      dup2\n        /* \"#utility.yul\":15907:15918   */\n      swap1\n      pop\n        /* \"#utility.yul\":15938:15941   */\n      dup2\n        /* \"#utility.yul\":15935:15936   */\n      0x00\n        /* \"#utility.yul\":15928:15942   */\n      mstore\n        /* \"#utility.yul\":15972:15976   */\n      0x20\n        /* \"#utility.yul\":15969:15970   */\n      0x00\n        /* \"#utility.yul\":15959:15977   */\n      keccak256\n        /* \"#utility.yul\":15951:15977   */\n      swap1\n      pop\n        /* \"#utility.yul\":15843:15984   */\n      swap2\n      swap1\n      pop\n      jump\t// out\n        /* \"#utility.yul\":15990:16083   */\n    tag_541:\n        /* \"#utility.yul\":16027:16033   */\n      0x00\n        /* \"#utility.yul\":16074:16076   */\n      0x20\n        /* \"#utility.yul\":16069:16071   */\n      0x1f\n        /* \"#utility.yul\":16062:16067   */\n      dup4\n        /* \"#utility.yul\":16058:16072   */\n      add\n        /* \"#utility.yul\":16054:16077   */\n      div\n        /* \"#utility.yul\":16044:16077   */\n      swap1\n      pop\n        /* \"#utility.yul\":15990:16083   */\n      swap2\n      swap1\n      pop\n      jump\t// out\n        /* \"#utility.yul\":16089:16196   */\n    tag_542:\n        /* \"#utility.yul\":16133:16141   */\n      0x00\n        /* \"#utility.yul\":16183:16188   */\n      dup3\n        /* \"#utility.yul\":16177:16181   */\n      dup3\n        /* \"#utility.yul\":16173:16189   */\n      shl\n        /* \"#utility.yul\":16152:16189   */\n      swap1\n      pop\n        /* \"#utility.yul\":16089:16196   */\n      swap3\n      swap2\n      pop\n      pop\n      jump\t// out\n        /* \"#utility.yul\":16202:16595   */\n    tag_543:\n        /* \"#utility.yul\":16271:16277   */\n      0x00\n        /* \"#utility.yul\":16321:16322   */\n      0x08\n        /* \"#utility.yul\":16309:16319   */\n      dup4\n        /* \"#utility.yul\":16305:16323   */\n      mul\n        /* \"#utility.yul\":16344:16441   */\n      tag_742\n        /* \"#utility.yul\":16374:16440   */\n      0xffffffffffffffffffffffffffffffffffffffffffffffffffffffffffffffff\n        /* \"#utility.yul\":16363:16372   */\n      dup3\n        /* \"#utility.yul\":16344:16441   */\n      tag_542\n      jump\t// in\n    tag_742:\n        /* \"#utility.yul\":16462:16501   */\n      tag_743\n        /* \"#utility.yul\":16492:16500   */\n      dup7\n        /* \"#utility.yul\":16481:16490   */\n      dup4\n        /* \"#utility.yul\":16462:16501   */\n      tag_542\n      jump\t// in\n    tag_743:\n        /* \"#utility.yul\":16450:16501   */\n      swap6\n      pop\n        /* \"#utility.yul\":16534:16538   */\n      dup1\n        /* \"#utility.yul\":16530:16539   */\n      not\n        /* \"#utility.yul\":16523:16528   */\n      dup5\n        /* \"#utility.yul\":16519:16540   */\n      and\n        /* \"#utility.yul\":16510:16540   */\n      swap4\n      pop\n        /* \"#utility.yul\":16583:16587   */\n      dup1\n        /* \"#utility.yul\":16573:16581   */\n      dup7\n        /* \"#utility.yul\":16569:16588   */\n      and\n        /* \"#utility.yul\":16562:16567   */\n      dup5\n        /* \"#utility.yul\":16559:16589   */\n      or\n        /* \"#utility.yul\":16549:16589   */\n      swap3\n      pop\n        /* \"#utility.yul\":16278:16595   */\n      pop\n      pop\n        /* \"#utility.yul\":16202:16595   */\n      swap4\n      swap3\n      pop\n      pop\n      pop\n      jump\t// out\n        /* \"#utility.yul\":16601:16661   */\n    tag_544:\n        /* \"#utility.yul\":16629:16632   */\n      0x00\n        /* \"#utility.yul\":16650:16655   */\n      dup2\n        /* \"#utility.yul\":16643:16655   */\n      swap1\n      pop\n        /* \"#utility.yul\":16601:16661   */\n      swap2\n      swap1\n      pop\n      jump\t// out\n        /* \"#utility.yul\":16667:16809   */\n    tag_545:\n        /* \"#utility.yul\":16717:16726   */\n      0x00\n        /* \"#utility.yul\":16750:16803   */\n      tag_746\n        /* \"#utility.yul\":16768:16802   */\n      tag_747\n        /* \"#utility.yul\":16777:16801   */\n      tag_748\n        /* \"#utility.yul\":16795:16800   */\n      dup5\n        /* \"#utility.yul\":16777:16801   */\n      tag_506\n      jump\t// in\n    tag_748:\n        /* \"#utility.yul\":16768:16802   */\n      tag_544\n      jump\t// in\n    tag_747:\n        /* \"#utility.yul\":16750:16803   */\n      tag_506\n      jump\t// in\n    tag_746:\n        /* \"#utility.yul\":16737:16803   */\n      swap1\n      pop\n        /* \"#utility.yul\":16667:16809   */\n      swap2\n      swap1\n      pop\n      jump\t// out\n        /* \"#utility.yul\":16815:16890   */\n    tag_546:\n        /* \"#utility.yul\":16858:16861   */\n      0x00\n        /* \"#utility.yul\":16879:16884   */\n      dup2\n        /* \"#utility.yul\":16872:16884   */\n      swap1\n      pop\n        /* \"#utility.yul\":16815:16890   */\n      swap2\n      swap1\n      pop\n      jump\t// out\n        /* \"#utility.yul\":16896:17165   */\n    tag_547:\n        /* \"#utility.yul\":17006:17045   */\n      tag_751\n        /* \"#utility.yul\":17037:17044   */\n      dup4\n        /* \"#utility.yul\":17006:17045   */\n      tag_545\n      jump\t// in\n    tag_751:\n        /* \"#utility.yul\":17067:17158   */\n      tag_752\n        /* \"#utility.yul\":17116:17157   */\n      tag_753\n        /* \"#utility.yul\":17140:17156   */\n      dup3\n        /* \"#utility.yul\":17116:17157   */\n      tag_546\n      jump\t// in\n    tag_753:\n        /* \"#utility.yul\":17108:17114   */\n      dup5\n        /* \"#utility.yul\":17101:17105   */\n      dup5\n        /* \"#utility.yul\":17095:17106   */\n      sload\n        /* \"#utility.yul\":17067:17158   */\n      tag_543\n      jump\t// in\n    tag_752:\n        /* \"#utility.yul\":17061:17065   */\n      dup3\n        /* \"#utility.yul\":17054:17159   */\n      sstore\n        /* \"#utility.yul\":16972:17165   */\n      pop\n        /* \"#utility.yul\":16896:17165   */\n      pop\n      pop\n      pop\n      jump\t// out\n        /* \"#utility.yul\":17171:17244   */\n    tag_548:\n        /* \"#utility.yul\":17216:17219   */\n      0x00\n        /* \"#utility.yul\":17171:17244   */\n      swap1\n      jump\t// out\n        /* \"#utility.yul\":17250:17439   */\n    tag_549:\n        /* \"#utility.yul\":17327:17359   */\n      tag_756\n      tag_548\n      jump\t// in\n    tag_756:\n        /* \"#utility.yul\":17368:17433   */\n      tag_757\n        /* \"#utility.yul\":17426:17432   */\n      dup2\n        /* \"#utility.yul\":17418:17424   */\n      dup5\n        /* \"#utility.yul\":17412:17416   */\n      dup5\n        /* \"#utility.yul\":17368:17433   */\n      tag_547\n      jump\t// in\n    tag_757:\n        /* \"#utility.yul\":17303:17439   */\n      pop\n        /* \"#utility.yul\":17250:17439   */\n      pop\n      pop\n      jump\t// out\n        /* \"#utility.yul\":17445:17631   */\n    tag_550:\n        /* \"#utility.yul\":17505:17625   */\n    tag_759:\n        /* \"#utility.yul\":17522:17525   */\n      dup2\n        /* \"#utility.yul\":17515:17520   */\n      dup2\n        /* \"#utility.yul\":17512:17526   */\n      lt\n        /* \"#utility.yul\":17505:17625   */\n      iszero\n      tag_761\n      jumpi\n        /* \"#utility.yul\":17576:17615   */\n      tag_762\n        /* \"#utility.yul\":17613:17614   */\n      0x00\n        /* \"#utility.yul\":17606:17611   */\n      dup3\n        /* \"#utility.yul\":17576:17615   */\n      tag_549\n      jump\t// in\n    tag_762:\n        /* \"#utility.yul\":17549:17550   */\n      0x01\n        /* \"#utility.yul\":17542:17547   */\n      dup2\n        /* \"#utility.yul\":17538:17551   */\n      add\n        /* \"#utility.yul\":17529:17551   */\n      swap1\n      pop\n        /* \"#utility.yul\":17505:17625   */\n      jump(tag_759)\n    tag_761:\n        /* \"#utility.yul\":17445:17631   */\n      pop\n      pop\n      jump\t// out\n        /* \"#utility.yul\":17637:18180   */\n    tag_551:\n        /* \"#utility.yul\":17738:17740   */\n      0x1f\n        /* \"#utility.yul\":17733:17736   */\n      dup3\n        /* \"#utility.yul\":17730:17741   */\n      gt\n        /* \"#utility.yul\":17727:18173   */\n      iszero\n      tag_764\n      jumpi\n        /* \"#utility.yul\":17772:17810   */\n      tag_765\n        /* \"#utility.yul\":17804:17809   */\n      dup2\n        /* \"#utility.yul\":17772:17810   */\n      tag_540\n      jump\t// in\n    tag_765:\n        /* \"#utility.yul\":17856:17885   */\n      tag_766\n        /* \"#utility.yul\":17874:17884   */\n      dup5\n        /* \"#utility.yul\":17856:17885   */\n      tag_541\n      jump\t// in\n    tag_766:\n        /* \"#utility.yul\":17846:17854   */\n      dup2\n        /* \"#utility.yul\":17842:17886   */\n      add\n        /* \"#utility.yul\":18039:18041   */\n      0x20\n        /* \"#utility.yul\":18027:18037   */\n      dup6\n        /* \"#utility.yul\":18024:18042   */\n      lt\n        /* \"#utility.yul\":18021:18070   */\n      iszero\n      tag_767\n      jumpi\n        /* \"#utility.yul\":18060:18068   */\n      dup2\n        /* \"#utility.yul\":18045:18068   */\n      swap1\n      pop\n        /* \"#utility.yul\":18021:18070   */\n    tag_767:\n        /* \"#utility.yul\":18083:18163   */\n      tag_768\n        /* \"#utility.yul\":18139:18161   */\n      tag_769\n        /* \"#utility.yul\":18157:18160   */\n      dup6\n        /* \"#utility.yul\":18139:18161   */\n      tag_541\n      jump\t// in\n    tag_769:\n        /* \"#utility.yul\":18129:18137   */\n      dup4\n        /* \"#utility.yul\":18125:18162   */\n      add\n        /* \"#utility.yul\":18112:18123   */\n      dup3\n        /* \"#utility.yul\":18083:18163   */\n      tag_550\n      jump\t// in\n    tag_768:\n        /* \"#utility.yul\":17742:18173   */\n      pop\n      pop\n        /* \"#utility.yul\":17727:18173   */\n    tag_764:\n        /* \"#utility.yul\":17637:18180   */\n      pop\n      pop\n      pop\n      jump\t// out\n        /* \"#utility.yul\":18186:18303   */\n    tag_552:\n        /* \"#utility.yul\":18240:18248   */\n      0x00\n        /* \"#utility.yul\":18290:18295   */\n      dup3\n        /* \"#utility.yul\":18284:18288   */\n      dup3\n        /* \"#utility.yul\":18280:18296   */\n      shr\n        /* \"#utility.yul\":18259:18296   */\n      swap1\n      pop\n        /* \"#utility.yul\":18186:18303   */\n      swap3\n      swap2\n      pop\n      pop\n      jump\t// out\n        /* \"#utility.yul\":18309:18478   */\n    tag_553:\n        /* \"#utility.yul\":18353:18359   */\n      0x00\n        /* \"#utility.yul\":18386:18437   */\n      tag_772\n        /* \"#utility.yul\":18434:18435   */\n      0x00\n        /* \"#utility.yul\":18430:18436   */\n      not\n        /* \"#utility.yul\":18422:18427   */\n      dup5\n        /* \"#utility.yul\":18419:18420   */\n      0x08\n        /* \"#utility.yul\":18415:18428   */\n      mul\n        /* \"#utility.yul\":18386:18437   */\n      tag_552\n      jump\t// in\n    tag_772:\n        /* \"#utility.yul\":18382:18438   */\n      not\n        /* \"#utility.yul\":18467:18471   */\n      dup1\n        /* \"#utility.yul\":18461:18465   */\n      dup4\n        /* \"#utility.yul\":18457:18472   */\n      and\n        /* \"#utility.yul\":18447:18472   */\n      swap2\n      pop\n        /* \"#utility.yul\":18360:18478   */\n      pop\n        /* \"#utility.yul\":18309:18478   */\n      swap3\n      swap2\n      pop\n      pop\n      jump\t// out\n        /* \"#utility.yul\":18483:18778   */\n    tag_554:\n        /* \"#utility.yul\":18559:18563   */\n      0x00\n        /* \"#utility.yul\":18705:18734   */\n      tag_774\n        /* \"#utility.yul\":18730:18733   */\n      dup4\n        /* \"#utility.yul\":18724:18728   */\n      dup4\n        /* \"#utility.yul\":18705:18734   */\n      tag_553\n      jump\t// in\n    tag_774:\n        /* \"#utility.yul\":18697:18734   */\n      swap2\n      pop\n        /* \"#utility.yul\":18767:18770   */\n      dup3\n        /* \"#utility.yul\":18764:18765   */\n      0x02\n        /* \"#utility.yul\":18760:18771   */\n      mul\n        /* \"#utility.yul\":18754:18758   */\n      dup3\n        /* \"#utility.yul\":18751:18772   */\n      or\n        /* \"#utility.yul\":18743:18772   */\n      swap1\n      pop\n        /* \"#utility.yul\":18483:18778   */\n      swap3\n      swap2\n      pop\n      pop\n      jump\t// out\n        /* \"#utility.yul\":18783:20178   */\n    tag_239:\n        /* \"#utility.yul\":18900:18937   */\n      tag_776\n        /* \"#utility.yul\":18933:18936   */\n      dup3\n        /* \"#utility.yul\":18900:18937   */\n      tag_501\n      jump\t// in\n    tag_776:\n        /* \"#utility.yul\":19002:19020   */\n      0xffffffffffffffff\n        /* \"#utility.yul\":18994:19000   */\n      dup2\n        /* \"#utility.yul\":18991:19021   */\n      gt\n        /* \"#utility.yul\":18988:19044   */\n      iszero\n      tag_777\n      jumpi\n        /* \"#utility.yul\":19024:19042   */\n      tag_778\n      tag_527\n      jump\t// in\n    tag_778:\n        /* \"#utility.yul\":18988:19044   */\n    tag_777:\n        /* \"#utility.yul\":19068:19106   */\n      tag_779\n        /* \"#utility.yul\":19100:19104   */\n      dup3\n        /* \"#utility.yul\":19094:19105   */\n      sload\n        /* \"#utility.yul\":19068:19106   */\n      tag_197\n      jump\t// in\n    tag_779:\n        /* \"#utility.yul\":19153:19220   */\n      tag_780\n        /* \"#utility.yul\":19213:19219   */\n      dup3\n        /* \"#utility.yul\":19205:19211   */\n      dup3\n        /* \"#utility.yul\":19199:19203   */\n      dup6\n        /* \"#utility.yul\":19153:19220   */\n      tag_551\n      jump\t// in\n    tag_780:\n        /* \"#utility.yul\":19247:19248   */\n      0x00\n        /* \"#utility.yul\":19271:19275   */\n      0x20\n        /* \"#utility.yul\":19258:19275   */\n      swap1\n      pop\n        /* \"#utility.yul\":19303:19305   */\n      0x1f\n        /* \"#utility.yul\":19295:19301   */\n      dup4\n        /* \"#utility.yul\":19292:19306   */\n      gt\n        /* \"#utility.yul\":19320:19321   */\n      0x01\n        /* \"#utility.yul\":19315:19933   */\n      dup2\n      eq\n      tag_782\n      jumpi\n        /* \"#utility.yul\":19977:19978   */\n      0x00\n        /* \"#utility.yul\":19994:20000   */\n      dup5\n        /* \"#utility.yul\":19991:20068   */\n      iszero\n      tag_783\n      jumpi\n        /* \"#utility.yul\":20043:20052   */\n      dup3\n        /* \"#utility.yul\":20038:20041   */\n      dup8\n        /* \"#utility.yul\":20034:20053   */\n      add\n        /* \"#utility.yul\":20028:20054   */\n      mload\n        /* \"#utility.yul\":20019:20054   */\n      swap1\n      pop\n        /* \"#utility.yul\":19991:20068   */\n    tag_783:\n        /* \"#utility.yul\":20094:20161   */\n      tag_784\n        /* \"#utility.yul\":20154:20160   */\n      dup6\n        /* \"#utility.yul\":20147:20152   */\n      dup3\n        /* \"#utility.yul\":20094:20161   */\n      tag_554\n      jump\t// in\n    tag_784:\n        /* \"#utility.yul\":20088:20092   */\n      dup7\n        /* \"#utility.yul\":20081:20162   */\n      sstore\n        /* \"#utility.yul\":19950:20172   */\n      pop\n        /* \"#utility.yul\":19285:20172   */\n      jump(tag_781)\n        /* \"#utility.yul\":19315:19933   */\n    tag_782:\n        /* \"#utility.yul\":19367:19371   */\n      0x1f\n        /* \"#utility.yul\":19363:19372   */\n      not\n        /* \"#utility.yul\":19355:19361   */\n      dup5\n        /* \"#utility.yul\":19351:19373   */\n      and\n        /* \"#utility.yul\":19401:19438   */\n      tag_785\n        /* \"#utility.yul\":19433:19437   */\n      dup7\n        /* \"#utility.yul\":19401:19438   */\n      tag_540\n      jump\t// in\n    tag_785:\n        /* \"#utility.yul\":19460:19461   */\n      0x00\n        /* \"#utility.yul\":19474:19682   */\n    tag_786:\n        /* \"#utility.yul\":19488:19495   */\n      dup3\n        /* \"#utility.yul\":19485:19486   */\n      dup2\n        /* \"#utility.yul\":19482:19496   */\n      lt\n        /* \"#utility.yul\":19474:19682   */\n      iszero\n      tag_788\n      jumpi\n        /* \"#utility.yul\":19567:19576   */\n      dup5\n        /* \"#utility.yul\":19562:19565   */\n      dup10\n        /* \"#utility.yul\":19558:19577   */\n      add\n        /* \"#utility.yul\":19552:19578   */\n      mload\n        /* \"#utility.yul\":19544:19550   */\n      dup3\n        /* \"#utility.yul\":19537:19579   */\n      sstore\n        /* \"#utility.yul\":19618:19619   */\n      0x01\n        /* \"#utility.yul\":19610:19616   */\n      dup3\n        /* \"#utility.yul\":19606:19620   */\n      add\n        /* \"#utility.yul\":19596:19620   */\n      swap2\n      pop\n        /* \"#utility.yul\":19665:19667   */\n      0x20\n        /* \"#utility.yul\":19654:19663   */\n      dup6\n        /* \"#utility.yul\":19650:19668   */\n      add\n        /* \"#utility.yul\":19637:19668   */\n      swap5\n      pop\n        /* \"#utility.yul\":19511:19515   */\n      0x20\n        /* \"#utility.yul\":19508:19509   */\n      dup2\n        /* \"#utility.yul\":19504:19516   */\n      add\n        /* \"#utility.yul\":19499:19516   */\n      swap1\n      pop\n        /* \"#utility.yul\":19474:19682   */\n      jump(tag_786)\n    tag_788:\n        /* \"#utility.yul\":19710:19716   */\n      dup7\n        /* \"#utility.yul\":19701:19708   */\n      dup4\n        /* \"#utility.yul\":19698:19717   */\n      lt\n        /* \"#utility.yul\":19695:19874   */\n      iszero\n      tag_789\n      jumpi\n        /* \"#utility.yul\":19768:19777   */\n      dup5\n        /* \"#utility.yul\":19763:19766   */\n      dup10\n        /* \"#utility.yul\":19759:19778   */\n      add\n        /* \"#utility.yul\":19753:19779   */\n      mload\n        /* \"#utility.yul\":19811:19859   */\n      tag_790\n        /* \"#utility.yul\":19853:19857   */\n      0x1f\n        /* \"#utility.yul\":19845:19851   */\n      dup10\n        /* \"#utility.yul\":19841:19858   */\n      and\n        /* \"#utility.yul\":19830:19839   */\n      dup3\n        /* \"#utility.yul\":19811:19859   */\n      tag_553\n      jump\t// in\n    tag_790:\n        /* \"#utility.yul\":19803:19809   */\n      dup4\n        /* \"#utility.yul\":19796:19860   */\n      sstore\n        /* \"#utility.yul\":19718:19874   */\n      pop\n        /* \"#utility.yul\":19695:19874   */\n    tag_789:\n        /* \"#utility.yul\":19920:19921   */\n      0x01\n        /* \"#utility.yul\":19916:19917   */\n      0x02\n        /* \"#utility.yul\":19908:19914   */\n      dup9\n        /* \"#utility.yul\":19904:19918   */\n      mul\n        /* \"#utility.yul\":19900:19922   */\n      add\n        /* \"#utility.yul\":19894:19898   */\n      dup9\n        /* \"#utility.yul\":19887:19923   */\n      sstore\n        /* \"#utility.yul\":19322:19933   */\n      pop\n      pop\n      pop\n        /* \"#utility.yul\":19285:20172   */\n    tag_781:\n      pop\n        /* \"#utility.yul\":18875:20178   */\n      pop\n      pop\n      pop\n        /* \"#utility.yul\":18783:20178   */\n      pop\n      pop\n      jump\t// out\n        /* \"#utility.yul\":20184:20516   */\n    tag_243:\n        /* \"#utility.yul\":20305:20309   */\n      0x00\n        /* \"#utility.yul\":20343:20345   */\n      0x40\n        /* \"#utility.yul\":20332:20341   */\n      dup3\n        /* \"#utility.yul\":20328:20346   */\n      add\n        /* \"#utility.yul\":20320:20346   */\n      swap1\n      pop\n        /* \"#utility.yul\":20356:20427   */\n      tag_792\n        /* \"#utility.yul\":20424:20425   */\n      0x00\n        /* \"#utility.yul\":20413:20422   */\n      dup4\n        /* \"#utility.yul\":20409:20426   */\n      add\n        /* \"#utility.yul\":20400:20406   */\n      dup6\n        /* \"#utility.yul\":20356:20427   */\n      tag_509\n      jump\t// in\n    tag_792:\n        /* \"#utility.yul\":20437:20509   */\n      tag_793\n        /* \"#utility.yul\":20505:20507   */\n      0x20\n        /* \"#utility.yul\":20494:20503   */\n      dup4\n        /* \"#utility.yul\":20490:20508   */\n      add\n        /* \"#utility.yul\":20481:20487   */\n      dup5\n        /* \"#utility.yul\":20437:20509   */\n      tag_509\n      jump\t// in\n    tag_793:\n        /* \"#utility.yul\":20184:20516   */\n      swap4\n      swap3\n      pop\n      pop\n      pop\n      jump\t// out\n        /* \"#utility.yul\":20522:20686   */\n    tag_555:\n        /* \"#utility.yul\":20662:20678   */\n      0x496e76616c696420737461747573000000000000000000000000000000000000\n        /* \"#utility.yul\":20658:20659   */\n      0x00\n        /* \"#utility.yul\":20650:20656   */\n      dup3\n        /* \"#utility.yul\":20646:20660   */\n      add\n        /* \"#utility.yul\":20639:20679   */\n      mstore\n        /* \"#utility.yul\":20522:20686   */\n      pop\n      jump\t// out\n        /* \"#utility.yul\":20692:21058   */\n    tag_556:\n        /* \"#utility.yul\":20834:20837   */\n      0x00\n        /* \"#utility.yul\":20855:20922   */\n      tag_796\n        /* \"#utility.yul\":20919:20921   */\n      0x0e\n        /* \"#utility.yul\":20914:20917   */\n      dup4\n        /* \"#utility.yul\":20855:20922   */\n      tag_502\n      jump\t// in\n    tag_796:\n        /* \"#utility.yul\":20848:20922   */\n      swap2\n      pop\n        /* \"#utility.yul\":20931:21024   */\n      tag_797\n        /* \"#utility.yul\":21020:21023   */\n      dup3\n        /* \"#utility.yul\":20931:21024   */\n      tag_555\n      jump\t// in\n    tag_797:\n        /* \"#utility.yul\":21049:21051   */\n      0x20\n        /* \"#utility.yul\":21044:21047   */\n      dup3\n        /* \"#utility.yul\":21040:21052   */\n      add\n        /* \"#utility.yul\":21033:21052   */\n      swap1\n      pop\n        /* \"#utility.yul\":20692:21058   */\n      swap2\n      swap1\n      pop\n      jump\t// out\n        /* \"#utility.yul\":21064:21483   */\n    tag_253:\n        /* \"#utility.yul\":21230:21234   */\n      0x00\n        /* \"#utility.yul\":21268:21270   */\n      0x20\n        /* \"#utility.yul\":21257:21266   */\n      dup3\n        /* \"#utility.yul\":21253:21271   */\n      add\n        /* \"#utility.yul\":21245:21271   */\n      swap1\n      pop\n        /* \"#utility.yul\":21317:21326   */\n      dup2\n        /* \"#utility.yul\":21311:21315   */\n      dup2\n        /* \"#utility.yul\":21307:21327   */\n      sub\n        /* \"#utility.yul\":21303:21304   */\n      0x00\n        /* \"#utility.yul\":21292:21301   */\n      dup4\n        /* \"#utility.yul\":21288:21305   */\n      add\n        /* \"#utility.yul\":21281:21328   */\n      mstore\n        /* \"#utility.yul\":21345:21476   */\n      tag_799\n        /* \"#utility.yul\":21471:21475   */\n      dup2\n        /* \"#utility.yul\":21345:21476   */\n      tag_556\n      jump\t// in\n    tag_799:\n        /* \"#utility.yul\":21337:21476   */\n      swap1\n      pop\n        /* \"#utility.yul\":21064:21483   */\n      swap2\n      swap1\n      pop\n      jump\t// out\n        /* \"#utility.yul\":21489:21658   */\n    tag_557:\n        /* \"#utility.yul\":21629:21650   */\n      0x4974656d206e6f742072657061697261626c6500000000000000000000000000\n        /* \"#utility.yul\":21625:21626   */\n      0x00\n        /* \"#utility.yul\":21617:21623   */\n      dup3\n        /* \"#utility.yul\":21613:21627   */\n      add\n        /* \"#utility.yul\":21606:21651   */\n      mstore\n        /* \"#utility.yul\":21489:21658   */\n      pop\n      jump\t// out\n        /* \"#utility.yul\":21664:22030   */\n    tag_558:\n        /* \"#utility.yul\":21806:21809   */\n      0x00\n        /* \"#utility.yul\":21827:21894   */\n      tag_802\n        /* \"#utility.yul\":21891:21893   */\n      0x13\n        /* \"#utility.yul\":21886:21889   */\n      dup4\n        /* \"#utility.yul\":21827:21894   */\n      tag_502\n      jump\t// in\n    tag_802:\n        /* \"#utility.yul\":21820:21894   */\n      swap2\n      pop\n        /* \"#utility.yul\":21903:21996   */\n      tag_803\n        /* \"#utility.yul\":21992:21995   */\n      dup3\n        /* \"#utility.yul\":21903:21996   */\n      tag_557\n      jump\t// in\n    tag_803:\n        /* \"#utility.yul\":22021:22023   */\n      0x20\n        /* \"#utility.yul\":22016:22019   */\n      dup3\n        /* \"#utility.yul\":22012:22024   */\n      add\n        /* \"#utility.yul\":22005:22024   */\n      swap1\n      pop\n        /* \"#utility.yul\":21664:22030   */\n      swap2\n      swap1\n      pop\n      jump\t// out\n        /* \"#utility.yul\":22036:22455   */\n    tag_327:\n        /* \"#utility.yul\":22202:22206   */\n      0x00\n        /* \"#utility.yul\":22240:22242   */\n      0x20\n        /* \"#utility.yul\":22229:22238   */\n      dup3\n        /* \"#utility.yul\":22225:22243   */\n      add\n        /* \"#utility.yul\":22217:22243   */\n      swap1\n      pop\n        /* \"#utility.yul\":22289:22298   */\n      dup2\n        /* \"#utility.yul\":22283:22287   */\n      dup2\n        /* \"#utility.yul\":22279:22299   */\n      sub\n        /* \"#utility.yul\":22275:22276   */\n      0x00\n        /* \"#utility.yul\":22264:22273   */\n      dup4\n        /* \"#utility.yul\":22260:22277   */\n      add\n        /* \"#utility.yul\":22253:22300   */\n      mstore\n        /* \"#utility.yul\":22317:22448   */\n      tag_805\n        /* \"#utility.yul\":22443:22447   */\n      dup2\n        /* \"#utility.yul\":22317:22448   */\n      tag_558\n      jump\t// in\n    tag_805:\n        /* \"#utility.yul\":22309:22448   */\n      swap1\n      pop\n        /* \"#utility.yul\":22036:22455   */\n      swap2\n      swap1\n      pop\n      jump\t// out\n        /* \"#utility.yul\":22461:22620   */\n    tag_559:\n        /* \"#utility.yul\":22601:22612   */\n      0x4e6f74206f776e65720000000000000000000000000000000000000000000000\n        /* \"#utility.yul\":22597:22598   */\n      0x00\n        /* \"#utility.yul\":22589:22595   */\n      dup3\n        /* \"#utility.yul\":22585:22599   */\n      add\n        /* \"#utility.yul\":22578:22613   */\n      mstore\n        /* \"#utility.yul\":22461:22620   */\n      pop\n      jump\t// out\n        /* \"#utility.yul\":22626:22991   */\n    tag_560:\n        /* \"#utility.yul\":22768:22771   */\n      0x00\n        /* \"#utility.yul\":22789:22855   */\n      tag_808\n        /* \"#utility.yul\":22853:22854   */\n      0x09\n        /* \"#utility.yul\":22848:22851   */\n      dup4\n        /* \"#utility.yul\":22789:22855   */\n      tag_502\n      jump\t// in\n    tag_808:\n        /* \"#utility.yul\":22782:22855   */\n      swap2\n      pop\n        /* \"#utility.yul\":22864:22957   */\n      tag_809\n        /* \"#utility.yul\":22953:22956   */\n      dup3\n        /* \"#utility.yul\":22864:22957   */\n      tag_559\n      jump\t// in\n    tag_809:\n        /* \"#utility.yul\":22982:22984   */\n      0x20\n        /* \"#utility.yul\":22977:22980   */\n      dup3\n        /* \"#utility.yul\":22973:22985   */\n      add\n        /* \"#utility.yul\":22966:22985   */\n      swap1\n      pop\n        /* \"#utility.yul\":22626:22991   */\n      swap2\n      swap1\n      pop\n      jump\t// out\n        /* \"#utility.yul\":22997:23416   */\n    tag_351:\n        /* \"#utility.yul\":23163:23167   */\n      0x00\n        /* \"#utility.yul\":23201:23203   */\n      0x20\n        /* \"#utility.yul\":23190:23199   */\n      dup3\n        /* \"#utility.yul\":23186:23204   */\n      add\n        /* \"#utility.yul\":23178:23204   */\n      swap1\n      pop\n        /* \"#utility.yul\":23250:23259   */\n      dup2\n        /* \"#utility.yul\":23244:23248   */\n      dup2\n        /* \"#utility.yul\":23240:23260   */\n      sub\n        /* \"#utility.yul\":23236:23237   */\n      0x00\n        /* \"#utility.yul\":23225:23234   */\n      dup4\n        /* \"#utility.yul\":23221:23238   */\n      add\n        /* \"#utility.yul\":23214:23261   */\n      mstore\n        /* \"#utility.yul\":23278:23409   */\n      tag_811\n        /* \"#utility.yul\":23404:23408   */\n      dup2\n        /* \"#utility.yul\":23278:23409   */\n      tag_560\n      jump\t// in\n    tag_811:\n        /* \"#utility.yul\":23270:23409   */\n      swap1\n      pop\n        /* \"#utility.yul\":22997:23416   */\n      swap2\n      swap1\n      pop\n      jump\t// out\n        /* \"#utility.yul\":23422:23864   */\n    tag_370:\n        /* \"#utility.yul\":23571:23575   */\n      0x00\n        /* \"#utility.yul\":23609:23611   */\n      0x60\n        /* \"#utility.yul\":23598:23607   */\n      dup3\n        /* \"#utility.yul\":23594:23612   */\n      add\n        /* \"#utility.yul\":23586:23612   */\n      swap1\n      pop\n        /* \"#utility.yul\":23622:23693   */\n      tag_813\n        /* \"#utility.yul\":23690:23691   */\n      0x00\n        /* \"#utility.yul\":23679:23688   */\n      dup4\n        /* \"#utility.yul\":23675:23692   */\n      add\n        /* \"#utility.yul\":23666:23672   */\n      dup7\n        /* \"#utility.yul\":23622:23693   */\n      tag_512\n      jump\t// in\n    tag_813:\n        /* \"#utility.yul\":23703:23775   */\n      tag_814\n        /* \"#utility.yul\":23771:23773   */\n      0x20\n        /* \"#utility.yul\":23760:23769   */\n      dup4\n        /* \"#utility.yul\":23756:23774   */\n      add\n        /* \"#utility.yul\":23747:23753   */\n      dup6\n        /* \"#utility.yul\":23703:23775   */\n      tag_509\n      jump\t// in\n    tag_814:\n        /* \"#utility.yul\":23785:23857   */\n      tag_815\n        /* \"#utility.yul\":23853:23855   */\n      0x40\n        /* \"#utility.yul\":23842:23851   */\n      dup4\n        /* \"#utility.yul\":23838:23856   */\n      add\n        /* \"#utility.yul\":23829:23835   */\n      dup5\n        /* \"#utility.yul\":23785:23857   */\n      tag_509\n      jump\t// in\n    tag_815:\n        /* \"#utility.yul\":23422:23864   */\n      swap5\n      swap4\n      pop\n      pop\n      pop\n      pop\n      jump\t// out\n        /* \"#utility.yul\":23870:24092   */\n    tag_375:\n        /* \"#utility.yul\":23963:23967   */\n      0x00\n        /* \"#utility.yul\":24001:24003   */\n      0x20\n        /* \"#utility.yul\":23990:23999   */\n      dup3\n        /* \"#utility.yul\":23986:24004   */\n      add\n        /* \"#utility.yul\":23978:24004   */\n      swap1\n      pop\n        /* \"#utility.yul\":24014:24085   */\n      tag_817\n        /* \"#utility.yul\":24082:24083   */\n      0x00\n        /* \"#utility.yul\":24071:24080   */\n      dup4\n        /* \"#utility.yul\":24067:24084   */\n      add\n        /* \"#utility.yul\":24058:24064   */\n      dup5\n        /* \"#utility.yul\":24014:24085   */\n      tag_512\n      jump\t// in\n    tag_817:\n        /* \"#utility.yul\":23870:24092   */\n      swap3\n      swap2\n      pop\n      pop\n      jump\t// out\n        /* \"#utility.yul\":24098:24289   */\n    tag_393:\n        /* \"#utility.yul\":24138:24141   */\n      0x00\n        /* \"#utility.yul\":24157:24177   */\n      tag_819\n        /* \"#utility.yul\":24175:24176   */\n      dup3\n        /* \"#utility.yul\":24157:24177   */\n      tag_506\n      jump\t// in\n    tag_819:\n        /* \"#utility.yul\":24152:24177   */\n      swap2\n      pop\n        /* \"#utility.yul\":24191:24211   */\n      tag_820\n        /* \"#utility.yul\":24209:24210   */\n      dup4\n        /* \"#utility.yul\":24191:24211   */\n      tag_506\n      jump\t// in\n    tag_820:\n        /* \"#utility.yul\":24186:24211   */\n      swap3\n      pop\n        /* \"#utility.yul\":24234:24235   */\n      dup3\n        /* \"#utility.yul\":24231:24232   */\n      dup3\n        /* \"#utility.yul\":24227:24236   */\n      add\n        /* \"#utility.yul\":24220:24236   */\n      swap1\n      pop\n        /* \"#utility.yul\":24255:24258   */\n      dup1\n        /* \"#utility.yul\":24252:24253   */\n      dup3\n        /* \"#utility.yul\":24249:24259   */\n      gt\n        /* \"#utility.yul\":24246:24282   */\n      iszero\n      tag_821\n      jumpi\n        /* \"#utility.yul\":24262:24280   */\n      tag_822\n      tag_539\n      jump\t// in\n    tag_822:\n        /* \"#utility.yul\":24246:24282   */\n    tag_821:\n        /* \"#utility.yul\":24098:24289   */\n      swap3\n      swap2\n      pop\n      pop\n      jump\t// out\n        /* \"#utility.yul\":24295:24977   */\n    tag_397:\n        /* \"#utility.yul\":24509:24513   */\n      0x00\n        /* \"#utility.yul\":24547:24550   */\n      0xa0\n        /* \"#utility.yul\":24536:24545   */\n      dup3\n        /* \"#utility.yul\":24532:24551   */\n      add\n        /* \"#utility.yul\":24524:24551   */\n      swap1\n      pop\n        /* \"#utility.yul\":24561:24641   */\n      tag_824\n        /* \"#utility.yul\":24638:24639   */\n      0x00\n        /* \"#utility.yul\":24627:24636   */\n      dup4\n        /* \"#utility.yul\":24623:24640   */\n      add\n        /* \"#utility.yul\":24614:24620   */\n      dup9\n        /* \"#utility.yul\":24561:24641   */\n      tag_516\n      jump\t// in\n    tag_824:\n        /* \"#utility.yul\":24651:24723   */\n      tag_825\n        /* \"#utility.yul\":24719:24721   */\n      0x20\n        /* \"#utility.yul\":24708:24717   */\n      dup4\n        /* \"#utility.yul\":24704:24722   */\n      add\n        /* \"#utility.yul\":24695:24701   */\n      dup8\n        /* \"#utility.yul\":24651:24723   */\n      tag_509\n      jump\t// in\n    tag_825:\n        /* \"#utility.yul\":24733:24805   */\n      tag_826\n        /* \"#utility.yul\":24801:24803   */\n      0x40\n        /* \"#utility.yul\":24790:24799   */\n      dup4\n        /* \"#utility.yul\":24786:24804   */\n      add\n        /* \"#utility.yul\":24777:24783   */\n      dup7\n        /* \"#utility.yul\":24733:24805   */\n      tag_509\n      jump\t// in\n    tag_826:\n        /* \"#utility.yul\":24815:24887   */\n      tag_827\n        /* \"#utility.yul\":24883:24885   */\n      0x60\n        /* \"#utility.yul\":24872:24881   */\n      dup4\n        /* \"#utility.yul\":24868:24886   */\n      add\n        /* \"#utility.yul\":24859:24865   */\n      dup6\n        /* \"#utility.yul\":24815:24887   */\n      tag_509\n      jump\t// in\n    tag_827:\n        /* \"#utility.yul\":24897:24970   */\n      tag_828\n        /* \"#utility.yul\":24965:24968   */\n      0x80\n        /* \"#utility.yul\":24954:24963   */\n      dup4\n        /* \"#utility.yul\":24950:24969   */\n      add\n        /* \"#utility.yul\":24941:24947   */\n      dup5\n        /* \"#utility.yul\":24897:24970   */\n      tag_509\n      jump\t// in\n    tag_828:\n        /* \"#utility.yul\":24295:24977   */\n      swap7\n      swap6\n      pop\n      pop\n      pop\n      pop\n      pop\n      pop\n      jump\t// out\n        /* \"#utility.yul\":24983:25315   */\n    tag_427:\n        /* \"#utility.yul\":25104:25108   */\n      0x00\n        /* \"#utility.yul\":25142:25144   */\n      0x40\n        /* \"#utility.yul\":25131:25140   */\n      dup3\n        /* \"#utility.yul\":25127:25145   */\n      add\n        /* \"#utility.yul\":25119:25145   */\n      swap1\n      pop\n        /* \"#utility.yul\":25155:25226   */\n      tag_830\n        /* \"#utility.yul\":25223:25224   */\n      0x00\n        /* \"#utility.yul\":25212:25221   */\n      dup4\n        /* \"#utility.yul\":25208:25225   */\n      add\n        /* \"#utility.yul\":25199:25205   */\n      dup6\n        /* \"#utility.yul\":25155:25226   */\n      tag_512\n      jump\t// in\n    tag_830:\n        /* \"#utility.yul\":25236:25308   */\n      tag_831\n        /* \"#utility.yul\":25304:25306   */\n      0x20\n        /* \"#utility.yul\":25293:25302   */\n      dup4\n        /* \"#utility.yul\":25289:25307   */\n      add\n        /* \"#utility.yul\":25280:25286   */\n      dup5\n        /* \"#utility.yul\":25236:25308   */\n      tag_522\n      jump\t// in\n    tag_831:\n        /* \"#utility.yul\":24983:25315   */\n      swap4\n      swap3\n      pop\n      pop\n      pop\n      jump\t// out\n        /* \"#utility.yul\":25321:25731   */\n    tag_468:\n        /* \"#utility.yul\":25361:25368   */\n      0x00\n        /* \"#utility.yul\":25384:25404   */\n      tag_833\n        /* \"#utility.yul\":25402:25403   */\n      dup3\n        /* \"#utility.yul\":25384:25404   */\n      tag_506\n      jump\t// in\n    tag_833:\n        /* \"#utility.yul\":25379:25404   */\n      swap2\n      pop\n        /* \"#utility.yul\":25418:25438   */\n      tag_834\n        /* \"#utility.yul\":25436:25437   */\n      dup4\n        /* \"#utility.yul\":25418:25438   */\n      tag_506\n      jump\t// in\n    tag_834:\n        /* \"#utility.yul\":25413:25438   */\n      swap3\n      pop\n        /* \"#utility.yul\":25473:25474   */\n      dup3\n        /* \"#utility.yul\":25470:25471   */\n      dup3\n        /* \"#utility.yul\":25466:25475   */\n      mul\n        /* \"#utility.yul\":25495:25525   */\n      tag_835\n        /* \"#utility.yul\":25513:25524   */\n      dup2\n        /* \"#utility.yul\":25495:25525   */\n      tag_506\n      jump\t// in\n    tag_835:\n        /* \"#utility.yul\":25484:25525   */\n      swap2\n      pop\n        /* \"#utility.yul\":25674:25675   */\n      dup3\n        /* \"#utility.yul\":25665:25672   */\n      dup3\n        /* \"#utility.yul\":25661:25676   */\n      div\n        /* \"#utility.yul\":25658:25659   */\n      dup5\n        /* \"#utility.yul\":25655:25677   */\n      eq\n        /* \"#utility.yul\":25635:25636   */\n      dup4\n        /* \"#utility.yul\":25628:25637   */\n      iszero\n        /* \"#utility.yul\":25608:25691   */\n      or\n        /* \"#utility.yul\":25585:25724   */\n      tag_836\n      jumpi\n        /* \"#utility.yul\":25704:25722   */\n      tag_837\n      tag_539\n      jump\t// in\n    tag_837:\n        /* \"#utility.yul\":25585:25724   */\n    tag_836:\n        /* \"#utility.yul\":25369:25731   */\n      pop\n        /* \"#utility.yul\":25321:25731   */\n      swap3\n      swap2\n      pop\n      pop\n      jump\t// out\n\n    auxdata: 0xa26469706673582212206a3b36be9c963f420118913ea278407b2192d57099bd528afdb38c5e58591f2e64736f6c634300081a0033\n}\n",
				"bytecode": {
					"linkReferences": {},
					"object": "608060405234801561000f575f80fd5b506040518060400160405280600b81526020017f455761737465546f6b656e0000000000000000000000000000000000000000008152506040518060400160405280600381526020017f4557540000000000000000000000000000000000000000000000000000000000815250816003908161008b919061075f565b50806004908161009b919061075f565b5050506100b05f801b3361011e60201b60201c565b506100e17fa49807205ce4d355092ef5a8a18f56e8913cf4a201fbe287825b095693c217753361011e60201b60201c565b50610119336100f461021460201b60201c565b600a6101009190610996565b6298968061010e91906109e0565b61021c60201b60201c565b610b09565b5f61012f83836102a160201b60201c565b61020a57600160055f8581526020019081526020015f205f015f8473ffffffffffffffffffffffffffffffffffffffff1673ffffffffffffffffffffffffffffffffffffffff1681526020019081526020015f205f6101000a81548160ff0219169083151502179055506101a761030560201b60201c565b73ffffffffffffffffffffffffffffffffffffffff168273ffffffffffffffffffffffffffffffffffffffff16847f2f8788117e7eff1d82e926ec794901d17c78024a50270940304540a733656f0d60405160405180910390a46001905061020e565b5f90505b92915050565b5f6012905090565b5f73ffffffffffffffffffffffffffffffffffffffff168273ffffffffffffffffffffffffffffffffffffffff160361028c575f6040517fec442f050000000000000000000000000000000000000000000000000000000081526004016102839190610a60565b60405180910390fd5b61029d5f838361030c60201b60201c565b5050565b5f60055f8481526020019081526020015f205f015f8373ffffffffffffffffffffffffffffffffffffffff1673ffffffffffffffffffffffffffffffffffffffff1681526020019081526020015f205f9054906101000a900460ff16905092915050565b5f33905090565b5f73ffffffffffffffffffffffffffffffffffffffff168373ffffffffffffffffffffffffffffffffffffffff160361035c578060025f8282546103509190610a79565b9250508190555061042a565b5f805f8573ffffffffffffffffffffffffffffffffffffffff1673ffffffffffffffffffffffffffffffffffffffff1681526020019081526020015f20549050818110156103e5578381836040517fe450d38c0000000000000000000000000000000000000000000000000000000081526004016103dc93929190610abb565b60405180910390fd5b8181035f808673ffffffffffffffffffffffffffffffffffffffff1673ffffffffffffffffffffffffffffffffffffffff1681526020019081526020015f2081905550505b5f73ffffffffffffffffffffffffffffffffffffffff168273ffffffffffffffffffffffffffffffffffffffff1603610471578060025f82825403925050819055506104bb565b805f808473ffffffffffffffffffffffffffffffffffffffff1673ffffffffffffffffffffffffffffffffffffffff1681526020019081526020015f205f82825401925050819055505b8173ffffffffffffffffffffffffffffffffffffffff168373ffffffffffffffffffffffffffffffffffffffff167fddf252ad1be2c89b69c2b068fc378daa952ba7f163c4a11628f55a4df523b3ef836040516105189190610af0565b60405180910390a3505050565b5f81519050919050565b7f4e487b71000000000000000000000000000000000000000000000000000000005f52604160045260245ffd5b7f4e487b71000000000000000000000000000000000000000000000000000000005f52602260045260245ffd5b5f60028204905060018216806105a057607f821691505b6020821081036105b3576105b261055c565b5b50919050565b5f819050815f5260205f209050919050565b5f6020601f8301049050919050565b5f82821b905092915050565b5f600883026106157fffffffffffffffffffffffffffffffffffffffffffffffffffffffffffffffff826105da565b61061f86836105da565b95508019841693508086168417925050509392505050565b5f819050919050565b5f819050919050565b5f61066361065e61065984610637565b610640565b610637565b9050919050565b5f819050919050565b61067c83610649565b6106906106888261066a565b8484546105e6565b825550505050565b5f90565b6106a4610698565b6106af818484610673565b505050565b5b818110156106d2576106c75f8261069c565b6001810190506106b5565b5050565b601f821115610717576106e8816105b9565b6106f1846105cb565b81016020851015610700578190505b61071461070c856105cb565b8301826106b4565b50505b505050565b5f82821c905092915050565b5f6107375f198460080261071c565b1980831691505092915050565b5f61074f8383610728565b9150826002028217905092915050565b61076882610525565b67ffffffffffffffff8111156107815761078061052f565b5b61078b8254610589565b6107968282856106d6565b5f60209050601f8311600181146107c7575f84156107b5578287015190505b6107bf8582610744565b865550610826565b601f1984166107d5866105b9565b5f5b828110156107fc578489015182556001820191506020850194506020810190506107d7565b868310156108195784890151610815601f891682610728565b8355505b6001600288020188555050505b505050505050565b7f4e487b71000000000000000000000000000000000000000000000000000000005f52601160045260245ffd5b5f8160011c9050919050565b5f808291508390505b60018511156108b05780860481111561088c5761088b61082e565b5b600185161561089b5780820291505b80810290506108a98561085b565b9450610870565b94509492505050565b5f826108c85760019050610983565b816108d5575f9050610983565b81600181146108eb57600281146108f557610924565b6001915050610983565b60ff8411156109075761090661082e565b5b8360020a91508482111561091e5761091d61082e565b5b50610983565b5060208310610133831016604e8410600b84101617156109595782820a9050838111156109545761095361082e565b5b610983565b6109668484846001610867565b9250905081840481111561097d5761097c61082e565b5b81810290505b9392505050565b5f60ff82169050919050565b5f6109a082610637565b91506109ab8361098a565b92506109d87fffffffffffffffffffffffffffffffffffffffffffffffffffffffffffffffff84846108b9565b905092915050565b5f6109ea82610637565b91506109f583610637565b9250828202610a0381610637565b91508282048414831517610a1a57610a1961082e565b5b5092915050565b5f73ffffffffffffffffffffffffffffffffffffffff82169050919050565b5f610a4a82610a21565b9050919050565b610a5a81610a40565b82525050565b5f602082019050610a735f830184610a51565b92915050565b5f610a8382610637565b9150610a8e83610637565b9250828201905080821115610aa657610aa561082e565b5b92915050565b610ab581610637565b82525050565b5f606082019050610ace5f830186610a51565b610adb6020830185610aac565b610ae86040830184610aac565b949350505050565b5f602082019050610b035f830184610aac565b92915050565b61359c80610b165f395ff3fe608060405234801561000f575f80fd5b506004361061023b575f3560e01c80638287662c11610139578063b8fe58e4116100b6578063d547741f1161007a578063d547741f146106c0578063d8101dcd146106dc578063dd62ed3e146106f8578063ed276caf14610728578063f0dda65c146107465761023b565b8063b8fe58e41461062a578063be65131614610648578063bf31377814610666578063c53b4b0914610684578063cb963a39146106a25761023b565b8063990281b8116100fd578063990281b8146105865780639ca39ae9146105a2578063a217fddf146105c0578063a73f7f8a146105de578063a9059cbb146105fa5761023b565b80638287662c146104e4578063855c72fb14610500578063918106741461051c57806391d148541461053857806395d89b41146105685761023b565b8063313ce567116101c757806365258b661161018b57806365258b661461043c5780636d6d00ed1461045a57806370a082311461047857806374e4d700146104a857806375b238fc146104c65761023b565b8063313ce567146103ac578063352b6dc3146103ca5780633609a1eb146103e657806336568abe14610402578063579108f71461041e5761023b565b80630f555c541161020e5780630f555c54146102f457806318160ddd1461031257806323b872dd14610330578063248a9ca3146103605780632f2ff15d146103905761023b565b806301ffc9a71461023f57806306fdde031461026f578063091929c01461028d578063095ea7b3146102c4575b5f80fd5b61025960048036038101906102549190612852565b610762565b6040516102669190612897565b60405180910390f35b6102776107db565b6040516102849190612920565b60405180910390f35b6102a760048036038101906102a29190612973565b61086b565b6040516102bb989796959493929190612a5f565b60405180910390f35b6102de60048036038101906102d99190612b0c565b61098d565b6040516102eb9190612897565b60405180910390f35b6102fc6109af565b6040516103099190612b4a565b60405180910390f35b61031a6109bb565b6040516103279190612b4a565b60405180910390f35b61034a60048036038101906103459190612b63565b6109c4565b6040516103579190612897565b60405180910390f35b61037a60048036038101906103759190612be6565b6109f2565b6040516103879190612c20565b60405180910390f35b6103aa60048036038101906103a59190612c39565b610a0f565b005b6103b4610a31565b6040516103c19190612c92565b60405180910390f35b6103e460048036038101906103df9190612e01565b610a39565b005b61040060048036038101906103fb9190612973565b610c93565b005b61041c60048036038101906104179190612c39565b610e34565b005b610426610eaf565b6040516104339190612c20565b60405180910390f35b610444610ed3565b6040516104519190612b4a565b60405180910390f35b610462610ede565b60405161046f9190612b4a565b60405180910390f35b610492600480360381019061048d9190612e81565b610ee4565b60405161049f9190612b4a565b60405180910390f35b6104b0610f29565b6040516104bd9190612b4a565b60405180910390f35b6104ce610f35565b6040516104db9190612c20565b60405180910390f35b6104fe60048036038101906104f99190612973565b610f59565b005b61051a60048036038101906105159190612973565b6110fb565b005b61053660048036038101906105319190612973565b6112ec565b005b610552600480360381019061054d9190612c39565b61148e565b60405161055f9190612897565b60405180910390f35b6105706114f2565b60405161057d9190612920565b60405180910390f35b6105a0600480360381019061059b9190612973565b611582565b005b6105aa611718565b6040516105b79190612c20565b60405180910390f35b6105c861173c565b6040516105d59190612c20565b60405180910390f35b6105f860048036038101906105f39190612eac565b611742565b005b610614600480360381019061060f9190612b0c565b61177b565b6040516106219190612897565b60405180910390f35b61063261179d565b60405161063f9190612b4a565b60405180910390f35b6106506117a9565b60405161065d9190612c20565b60405180910390f35b61066e6117cd565b60405161067b9190612c20565b60405180910390f35b61068c6117f1565b6040516106999190612b4a565b60405180910390f35b6106aa6117fd565b6040516106b79190612b4a565b60405180910390f35b6106da60048036038101906106d59190612c39565b611809565b005b6106f660048036038101906106f19190612973565b61182b565b005b610712600480360381019061070d9190612eea565b6119d6565b60405161071f9190612b4a565b60405180910390f35b610730611a58565b60405161073d9190612b4a565b60405180910390f35b610760600480360381019061075b9190612b0c565b611a64565b005b5f7f7965db0b000000000000000000000000000000000000000000000000000000007bffffffffffffffffffffffffffffffffffffffffffffffffffffffff1916827bffffffffffffffffffffffffffffffffffffffffffffffffffffffff191614806107d457506107d382611a9d565b5b9050919050565b6060600380546107ea90612f55565b80601f016020809104026020016040519081016040528092919081815260200182805461081690612f55565b80156108615780601f1061083857610100808354040283529160200191610861565b820191905f5260205f20905b81548152906001019060200180831161084457829003601f168201915b5050505050905090565b6006602052805f5260405f205f91509050805f015490806001015f9054906101000a900473ffffffffffffffffffffffffffffffffffffffff16908060020180546108b590612f55565b80601f01602080910402602001604051908101604052809291908181526020018280546108e190612f55565b801561092c5780601f106109035761010080835404028352916020019161092c565b820191905f5260205f20905b81548152906001019060200180831161090f57829003601f168201915b505050505090806003015490806004015490806005015f9054906101000a900460ff16908060050160019054906101000a900473ffffffffffffffffffffffffffffffffffffffff16908060050160159054906101000a900460ff16905088565b5f80610997611b06565b90506109a4818585611b0d565b600191505092915050565b670de0b6b3a764000081565b5f600254905090565b5f806109ce611b06565b90506109db858285611b1f565b6109e6858585611bb2565b60019150509392505050565b5f60055f8381526020019081526020015f20600101549050919050565b610a18826109f2565b610a2181611ca2565b610a2b8383611cb6565b50505050565b5f6012905090565b5f82118015610a4757505f83115b610a86576040517f08c379a0000000000000000000000000000000000000000000000000000000008152600401610a7d90612fcf565b60405180910390fd5b5f60075f815480929190610a999061301a565b9190505590506040518061010001604052808281526020013373ffffffffffffffffffffffffffffffffffffffff1681526020018681526020018581526020018481526020015f6006811115610af257610af16129ec565b5b81526020013373ffffffffffffffffffffffffffffffffffffffff16815260200183151581525060065f8381526020019081526020015f205f820151815f01556020820151816001015f6101000a81548173ffffffffffffffffffffffffffffffffffffffff021916908373ffffffffffffffffffffffffffffffffffffffff1602179055506040820151816002019081610b8d91906131fe565b50606082015181600301556080820151816004015560a0820151816005015f6101000a81548160ff02191690836006811115610bcc57610bcb6129ec565b5b021790555060c08201518160050160016101000a81548173ffffffffffffffffffffffffffffffffffffffff021916908373ffffffffffffffffffffffffffffffffffffffff16021790555060e08201518160050160156101000a81548160ff0219169083151502179055509050503373ffffffffffffffffffffffffffffffffffffffff16817f46d5e1fa50133f2ad2b0346ff4a3f42484fe3bb406c6c15fd7ae095d10b125818587604051610c849291906132cd565b60405180910390a35050505050565b7f14cf45180c3fcf249a5a305e9657ea05c14fd4f4e1800ee0216a8213091711d2610cbd81611ca2565b5f6006811115610cd057610ccf6129ec565b5b60065f8481526020019081526020015f206005015f9054906101000a900460ff166006811115610d0357610d026129ec565b5b14610d43576040517f08c379a0000000000000000000000000000000000000000000000000000000008152600401610d3a9061333e565b60405180910390fd5b600160065f8481526020019081526020015f206005015f6101000a81548160ff02191690836006811115610d7a57610d796129ec565b5b02179055503360065f8481526020019081526020015f2060050160016101000a81548173ffffffffffffffffffffffffffffffffffffffff021916908373ffffffffffffffffffffffffffffffffffffffff1602179055505f610dde836001611da0565b90503373ffffffffffffffffffffffffffffffffffffffff16837f2a18ae28442ec525b81831921d81b734ce7861d68a812e4546c7945075766f1d83604051610e279190612b4a565b60405180910390a3505050565b610e3c611b06565b73ffffffffffffffffffffffffffffffffffffffff168173ffffffffffffffffffffffffffffffffffffffff1614610ea0576040517f6697b23200000000000000000000000000000000000000000000000000000000815260040160405180910390fd5b610eaa8282611e25565b505050565b7fb636cac4a39cbee3063d40395f1623a30746f1c8bc201ced0489c50a6345c75581565b662386f26fc1000081565b60075481565b5f805f8373ffffffffffffffffffffffffffffffffffffffff1673ffffffffffffffffffffffffffffffffffffffff1681526020019081526020015f20549050919050565b678ac7230489e8000081565b7fa49807205ce4d355092ef5a8a18f56e8913cf4a201fbe287825b095693c2177581565b7fab5c443dd93b1877c3b155b5e3ddb79cb901fd6f9d2e3bd366f3216a80b889e7610f8381611ca2565b60026006811115610f9757610f966129ec565b5b60065f8481526020019081526020015f206005015f9054906101000a900460ff166006811115610fca57610fc96129ec565b5b1461100a576040517f08c379a00000000000000000000000000000000000000000000000000000000081526004016110019061333e565b60405180910390fd5b600360065f8481526020019081526020015f206005015f6101000a81548160ff02191690836006811115611041576110406129ec565b5b02179055503360065f8481526020019081526020015f2060050160016101000a81548173ffffffffffffffffffffffffffffffffffffffff021916908373ffffffffffffffffffffffffffffffffffffffff1602179055505f6110a5836003611da0565b90503373ffffffffffffffffffffffffffffffffffffffff16837fe5e46d59e99676fbf7547ce5cc7583dc849e2af037032e0f6611224b75bb8967836040516110ee9190612b4a565b60405180910390a3505050565b7f11d2c681bc9c10ed61f9a422c0dbaaddc4054ce58ec726aca73e7e4d31bcd15461112581611ca2565b60016006811115611139576111386129ec565b5b60065f8481526020019081526020015f206005015f9054906101000a900460ff16600681111561116c5761116b6129ec565b5b14806111bc575060036006811115611187576111866129ec565b5b60065f8481526020019081526020015f206005015f9054906101000a900460ff1660068111156111ba576111b96129ec565b5b145b6111fb576040517f08c379a00000000000000000000000000000000000000000000000000000000081526004016111f29061333e565b60405180910390fd5b600460065f8481526020019081526020015f206005015f6101000a81548160ff02191690836006811115611232576112316129ec565b5b02179055503360065f8481526020019081526020015f2060050160016101000a81548173ffffffffffffffffffffffffffffffffffffffff021916908373ffffffffffffffffffffffffffffffffffffffff1602179055505f611296836004611da0565b90503373ffffffffffffffffffffffffffffffffffffffff16837f3f0bdd39c575256b0686bbbc300a04a9c5828c01f9cc42a0179879b48b8eeddf836040516112df9190612b4a565b60405180910390a3505050565b7fb636cac4a39cbee3063d40395f1623a30746f1c8bc201ced0489c50a6345c75561131681611ca2565b6004600681111561132a576113296129ec565b5b60065f8481526020019081526020015f206005015f9054906101000a900460ff16600681111561135d5761135c6129ec565b5b1461139d576040517f08c379a00000000000000000000000000000000000000000000000000000000081526004016113949061333e565b60405180910390fd5b600560065f8481526020019081526020015f206005015f6101000a81548160ff021916908360068111156113d4576113d36129ec565b5b02179055503360065f8481526020019081526020015f2060050160016101000a81548173ffffffffffffffffffffffffffffffffffffffff021916908373ffffffffffffffffffffffffffffffffffffffff1602179055505f611438836005611da0565b90503373ffffffffffffffffffffffffffffffffffffffff16837f77b29112f6bbaf1890ec3f52fb1f9ef0367e0babd3bcb3aa7d123b7a7734a54c836040516114819190612b4a565b60405180910390a3505050565b5f60055f8481526020019081526020015f205f015f8373ffffffffffffffffffffffffffffffffffffffff1673ffffffffffffffffffffffffffffffffffffffff1681526020019081526020015f205f9054906101000a900460ff16905092915050565b60606004805461150190612f55565b80601f016020809104026020016040519081016040528092919081815260200182805461152d90612f55565b80156115785780601f1061154f57610100808354040283529160200191611578565b820191905f5260205f20905b81548152906001019060200180831161155b57829003601f168201915b5050505050905090565b7f14cf45180c3fcf249a5a305e9657ea05c14fd4f4e1800ee0216a8213091711d26115ac81611ca2565b600160068111156115c0576115bf6129ec565b5b60065f8481526020019081526020015f206005015f9054906101000a900460ff1660068111156115f3576115f26129ec565b5b14611633576040517f08c379a000000000000000000000000000000000000000000000000000000000815260040161162a9061333e565b60405180910390fd5b60065f8381526020019081526020015f2060050160159054906101000a900460ff16611694576040517f08c379a000000000000000000000000000000000000000000000000000000000815260040161168b906133a6565b60405180910390fd5b600260065f8481526020019081526020015f206005015f6101000a81548160ff021916908360068111156116cb576116ca6129ec565b5b02179055503373ffffffffffffffffffffffffffffffffffffffff16827fd0ff3b517d0c850b614729642e089a59aea81eb4ba36827eafe9b43b404da0d760405160405180910390a35050565b7f14cf45180c3fcf249a5a305e9657ea05c14fd4f4e1800ee0216a8213091711d281565b5f801b81565b7fa49807205ce4d355092ef5a8a18f56e8913cf4a201fbe287825b095693c2177561176c81611ca2565b6117768284610a0f565b505050565b5f80611785611b06565b9050611792818585611bb2565b600191505092915050565b676f05b59d3b20000081565b7fab5c443dd93b1877c3b155b5e3ddb79cb901fd6f9d2e3bd366f3216a80b889e781565b7f11d2c681bc9c10ed61f9a422c0dbaaddc4054ce58ec726aca73e7e4d31bcd15481565b676124fee993bc000081565b674563918244f4000081565b611812826109f2565b61181b81611ca2565b6118258383611e25565b50505050565b6005600681111561183f5761183e6129ec565b5b60065f8381526020019081526020015f206005015f9054906101000a900460ff166006811115611872576118716129ec565b5b146118b2576040517f08c379a00000000000000000000000000000000000000000000000000000000081526004016118a99061333e565b60405180910390fd5b3373ffffffffffffffffffffffffffffffffffffffff1660065f8381526020019081526020015f2060050160019054906101000a900473ffffffffffffffffffffffffffffffffffffffff1673ffffffffffffffffffffffffffffffffffffffff1614611954576040517f08c379a000000000000000000000000000000000000000000000000000000000815260040161194b9061340e565b60405180910390fd5b6006805f8381526020019081526020015f206005015f6101000a81548160ff0219169083600681111561198a576119896129ec565b5b02179055503373ffffffffffffffffffffffffffffffffffffffff16817f278ab484a5db5fc05f3a869b94767b4a630943a85f774aa97a69aedb086c269c60405160405180910390a350565b5f60015f8473ffffffffffffffffffffffffffffffffffffffff1673ffffffffffffffffffffffffffffffffffffffff1681526020019081526020015f205f8373ffffffffffffffffffffffffffffffffffffffff1673ffffffffffffffffffffffffffffffffffffffff1681526020019081526020015f2054905092915050565b6753444835ec58000081565b7fa49807205ce4d355092ef5a8a18f56e8913cf4a201fbe287825b095693c21775611a8e81611ca2565b611a988383611f0f565b505050565b5f7f01ffc9a7000000000000000000000000000000000000000000000000000000007bffffffffffffffffffffffffffffffffffffffffffffffffffffffff1916827bffffffffffffffffffffffffffffffffffffffffffffffffffffffff1916149050919050565b5f33905090565b611b1a8383836001611f8e565b505050565b5f611b2a84846119d6565b90507fffffffffffffffffffffffffffffffffffffffffffffffffffffffffffffffff811015611bac5781811015611b9d578281836040517ffb8f41b2000000000000000000000000000000000000000000000000000000008152600401611b949392919061342c565b60405180910390fd5b611bab84848484035f611f8e565b5b50505050565b5f73ffffffffffffffffffffffffffffffffffffffff168373ffffffffffffffffffffffffffffffffffffffff1603611c22575f6040517f96c6fd1e000000000000000000000000000000000000000000000000000000008152600401611c199190613461565b60405180910390fd5b5f73ffffffffffffffffffffffffffffffffffffffff168273ffffffffffffffffffffffffffffffffffffffff1603611c92575f6040517fec442f05000000000000000000000000000000000000000000000000000000008152600401611c899190613461565b60405180910390fd5b611c9d83838361215d565b505050565b611cb381611cae611b06565b612376565b50565b5f611cc1838361148e565b611d9657600160055f8581526020019081526020015f205f015f8473ffffffffffffffffffffffffffffffffffffffff1673ffffffffffffffffffffffffffffffffffffffff1681526020019081526020015f205f6101000a81548160ff021916908315150217905550611d33611b06565b73ffffffffffffffffffffffffffffffffffffffff168273ffffffffffffffffffffffffffffffffffffffff16847f2f8788117e7eff1d82e926ec794901d17c78024a50270940304540a733656f0d60405160405180910390a460019050611d9a565b5f90505b92915050565b5f805f80611dae86866123c7565b9250925092505f818385611dc2919061347a565b611dcc919061347a565b9050611dd83382611f0f565b867f8841d639ba79954a7c240dde37b5d6e3990383dc2f87c13e288e408108efb4578786868686604051611e109594939291906134ad565b60405180910390a28094505050505092915050565b5f611e30838361148e565b15611f05575f60055f8581526020019081526020015f205f015f8473ffffffffffffffffffffffffffffffffffffffff1673ffffffffffffffffffffffffffffffffffffffff1681526020019081526020015f205f6101000a81548160ff021916908315150217905550611ea2611b06565b73ffffffffffffffffffffffffffffffffffffffff168273ffffffffffffffffffffffffffffffffffffffff16847ff6391f5c32d9c69d2a47ea670b442974b53935d1edc7fd64eb21e047a839171b60405160405180910390a460019050611f09565b5f90505b92915050565b5f73ffffffffffffffffffffffffffffffffffffffff168273ffffffffffffffffffffffffffffffffffffffff1603611f7f575f6040517fec442f05000000000000000000000000000000000000000000000000000000008152600401611f769190613461565b60405180910390fd5b611f8a5f838361215d565b5050565b5f73ffffffffffffffffffffffffffffffffffffffff168473ffffffffffffffffffffffffffffffffffffffff1603611ffe575f6040517fe602df05000000000000000000000000000000000000000000000000000000008152600401611ff59190613461565b60405180910390fd5b5f73ffffffffffffffffffffffffffffffffffffffff168373ffffffffffffffffffffffffffffffffffffffff160361206e575f6040517f94280d620000000000000000000000000000000000000000000000000000000081526004016120659190613461565b60405180910390fd5b8160015f8673ffffffffffffffffffffffffffffffffffffffff1673ffffffffffffffffffffffffffffffffffffffff1681526020019081526020015f205f8573ffffffffffffffffffffffffffffffffffffffff1673ffffffffffffffffffffffffffffffffffffffff1681526020019081526020015f20819055508015612157578273ffffffffffffffffffffffffffffffffffffffff168473ffffffffffffffffffffffffffffffffffffffff167f8c5be1e5ebec7d5bd14f71427d1e84f3dd0314c0f7b2291e5b200ac8c7c3b9258460405161214e9190612b4a565b60405180910390a35b50505050565b5f73ffffffffffffffffffffffffffffffffffffffff168373ffffffffffffffffffffffffffffffffffffffff16036121ad578060025f8282546121a1919061347a565b9250508190555061227b565b5f805f8573ffffffffffffffffffffffffffffffffffffffff1673ffffffffffffffffffffffffffffffffffffffff1681526020019081526020015f2054905081811015612236578381836040517fe450d38c00000000000000000000000000000000000000000000000000000000815260040161222d9392919061342c565b60405180910390fd5b8181035f808673ffffffffffffffffffffffffffffffffffffffff1673ffffffffffffffffffffffffffffffffffffffff1681526020019081526020015f2081905550505b5f73ffffffffffffffffffffffffffffffffffffffff168273ffffffffffffffffffffffffffffffffffffffff16036122c2578060025f828254039250508190555061230c565b805f808473ffffffffffffffffffffffffffffffffffffffff1673ffffffffffffffffffffffffffffffffffffffff1681526020019081526020015f205f82825401925050819055505b8173ffffffffffffffffffffffffffffffffffffffff168373ffffffffffffffffffffffffffffffffffffffff167fddf252ad1be2c89b69c2b068fc378daa952ba7f163c4a11628f55a4df523b3ef836040516123699190612b4a565b60405180910390a3505050565b612380828261148e565b6123c35780826040517fe2517d3f0000000000000000000000000000000000000000000000000000000081526004016123ba9291906134fe565b60405180910390fd5b5050565b5f805f8060065f8781526020019081526020015f20604051806101000160405290815f8201548152602001600182015f9054906101000a900473ffffffffffffffffffffffffffffffffffffffff1673ffffffffffffffffffffffffffffffffffffffff1673ffffffffffffffffffffffffffffffffffffffff16815260200160028201805461245690612f55565b80601f016020809104026020016040519081016040528092919081815260200182805461248290612f55565b80156124cd5780601f106124a4576101008083540402835291602001916124cd565b820191905f5260205f20905b8154815290600101906020018083116124b057829003601f168201915b505050505081526020016003820154815260200160048201548152602001600582015f9054906101000a900460ff16600681111561250e5761250d6129ec565b5b60068111156125205761251f6129ec565b5b81526020016005820160019054906101000a900473ffffffffffffffffffffffffffffffffffffffff1673ffffffffffffffffffffffffffffffffffffffff1673ffffffffffffffffffffffffffffffffffffffff1681526020016005820160159054906101000a900460ff16151515158152505090505f60068111156125aa576125a96129ec565b5b8560068111156125bd576125bc6129ec565b5b036125d257678ac7230489e8000093506126c2565b600160068111156125e6576125e56129ec565b5b8560068111156125f9576125f86129ec565b5b0361260e57674563918244f4000093506126c1565b60036006811115612622576126216129ec565b5b856006811115612635576126346129ec565b5b0361264a57676f05b59d3b20000093506126c0565b6004600681111561265e5761265d6129ec565b5b856006811115612671576126706129ec565b5b0361268657676124fee993bc000093506126bf565b6005600681111561269a576126996129ec565b5b8560068111156126ad576126ac6129ec565b5b036126be576753444835ec58000093505b5b5b5b5b8060800151670de0b6b3a76400006126da9190613525565b9250600360068111156126f0576126ef6129ec565b5b856006811115612703576127026129ec565b5b0361271c576002836127159190613525565b92506127e4565b600460068111156127305761272f6129ec565b5b856006811115612743576127426129ec565b5b036127725760028160600151662386f26fc100006127619190613525565b61276b9190613525565b91506127e3565b60056006811115612786576127856129ec565b5b856006811115612799576127986129ec565b5b036127c85760038160600151662386f26fc100006127b79190613525565b6127c19190613525565b91506127e2565b8060600151662386f26fc100006127df9190613525565b91505b5b5b509250925092565b5f604051905090565b5f80fd5b5f80fd5b5f7fffffffff0000000000000000000000000000000000000000000000000000000082169050919050565b612831816127fd565b811461283b575f80fd5b50565b5f8135905061284c81612828565b92915050565b5f60208284031215612867576128666127f5565b5b5f6128748482850161283e565b91505092915050565b5f8115159050919050565b6128918161287d565b82525050565b5f6020820190506128aa5f830184612888565b92915050565b5f81519050919050565b5f82825260208201905092915050565b8281835e5f83830152505050565b5f601f19601f8301169050919050565b5f6128f2826128b0565b6128fc81856128ba565b935061290c8185602086016128ca565b612915816128d8565b840191505092915050565b5f6020820190508181035f83015261293881846128e8565b905092915050565b5f819050919050565b61295281612940565b811461295c575f80fd5b50565b5f8135905061296d81612949565b92915050565b5f60208284031215612988576129876127f5565b5b5f6129958482850161295f565b91505092915050565b6129a781612940565b82525050565b5f73ffffffffffffffffffffffffffffffffffffffff82169050919050565b5f6129d6826129ad565b9050919050565b6129e6816129cc565b82525050565b7f4e487b71000000000000000000000000000000000000000000000000000000005f52602160045260245ffd5b60078110612a2a57612a296129ec565b5b50565b5f819050612a3a82612a19565b919050565b5f612a4982612a2d565b9050919050565b612a5981612a3f565b82525050565b5f61010082019050612a735f83018b61299e565b612a80602083018a6129dd565b8181036040830152612a9281896128e8565b9050612aa1606083018861299e565b612aae608083018761299e565b612abb60a0830186612a50565b612ac860c08301856129dd565b612ad560e0830184612888565b9998505050505050505050565b612aeb816129cc565b8114612af5575f80fd5b50565b5f81359050612b0681612ae2565b92915050565b5f8060408385031215612b2257612b216127f5565b5b5f612b2f85828601612af8565b9250506020612b408582860161295f565b9150509250929050565b5f602082019050612b5d5f83018461299e565b92915050565b5f805f60608486031215612b7a57612b796127f5565b5b5f612b8786828701612af8565b9350506020612b9886828701612af8565b9250506040612ba98682870161295f565b9150509250925092565b5f819050919050565b612bc581612bb3565b8114612bcf575f80fd5b50565b5f81359050612be081612bbc565b92915050565b5f60208284031215612bfb57612bfa6127f5565b5b5f612c0884828501612bd2565b91505092915050565b612c1a81612bb3565b82525050565b5f602082019050612c335f830184612c11565b92915050565b5f8060408385031215612c4f57612c4e6127f5565b5b5f612c5c85828601612bd2565b9250506020612c6d85828601612af8565b9150509250929050565b5f60ff82169050919050565b612c8c81612c77565b82525050565b5f602082019050612ca55f830184612c83565b92915050565b5f80fd5b5f80fd5b7f4e487b71000000000000000000000000000000000000000000000000000000005f52604160045260245ffd5b612ce9826128d8565b810181811067ffffffffffffffff82111715612d0857612d07612cb3565b5b80604052505050565b5f612d1a6127ec565b9050612d268282612ce0565b919050565b5f67ffffffffffffffff821115612d4557612d44612cb3565b5b612d4e826128d8565b9050602081019050919050565b828183375f83830152505050565b5f612d7b612d7684612d2b565b612d11565b905082815260208101848484011115612d9757612d96612caf565b5b612da2848285612d5b565b509392505050565b5f82601f830112612dbe57612dbd612cab565b5b8135612dce848260208601612d69565b91505092915050565b612de08161287d565b8114612dea575f80fd5b50565b5f81359050612dfb81612dd7565b92915050565b5f805f8060808587031215612e1957612e186127f5565b5b5f85013567ffffffffffffffff811115612e3657612e356127f9565b5b612e4287828801612daa565b9450506020612e538782880161295f565b9350506040612e648782880161295f565b9250506060612e7587828801612ded565b91505092959194509250565b5f60208284031215612e9657612e956127f5565b5b5f612ea384828501612af8565b91505092915050565b5f8060408385031215612ec257612ec16127f5565b5b5f612ecf85828601612af8565b9250506020612ee085828601612bd2565b9150509250929050565b5f8060408385031215612f0057612eff6127f5565b5b5f612f0d85828601612af8565b9250506020612f1e85828601612af8565b9150509250929050565b7f4e487b71000000000000000000000000000000000000000000000000000000005f52602260045260245ffd5b5f6002820490506001821680612f6c57607f821691505b602082108103612f7f57612f7e612f28565b5b50919050565b7f496e76616c696420696e707574000000000000000000000000000000000000005f82015250565b5f612fb9600d836128ba565b9150612fc482612f85565b602082019050919050565b5f6020820190508181035f830152612fe681612fad565b9050919050565b7f4e487b71000000000000000000000000000000000000000000000000000000005f52601160045260245ffd5b5f61302482612940565b91507fffffffffffffffffffffffffffffffffffffffffffffffffffffffffffffffff820361305657613055612fed565b5b600182019050919050565b5f819050815f5260205f209050919050565b5f6020601f8301049050919050565b5f82821b905092915050565b5f600883026130bd7fffffffffffffffffffffffffffffffffffffffffffffffffffffffffffffffff82613082565b6130c78683613082565b95508019841693508086168417925050509392505050565b5f819050919050565b5f6131026130fd6130f884612940565b6130df565b612940565b9050919050565b5f819050919050565b61311b836130e8565b61312f61312782613109565b84845461308e565b825550505050565b5f90565b613143613137565b61314e818484613112565b505050565b5b81811015613171576131665f8261313b565b600181019050613154565b5050565b601f8211156131b65761318781613061565b61319084613073565b8101602085101561319f578190505b6131b36131ab85613073565b830182613153565b50505b505050565b5f82821c905092915050565b5f6131d65f19846008026131bb565b1980831691505092915050565b5f6131ee83836131c7565b9150826002028217905092915050565b613207826128b0565b67ffffffffffffffff8111156132205761321f612cb3565b5b61322a8254612f55565b613235828285613175565b5f60209050601f831160018114613266575f8415613254578287015190505b61325e85826131e3565b8655506132c5565b601f19841661327486613061565b5f5b8281101561329b57848901518255600182019150602085019450602081019050613276565b868310156132b857848901516132b4601f8916826131c7565b8355505b6001600288020188555050505b505050505050565b5f6040820190506132e05f83018561299e565b6132ed602083018461299e565b9392505050565b7f496e76616c6964207374617475730000000000000000000000000000000000005f82015250565b5f613328600e836128ba565b9150613333826132f4565b602082019050919050565b5f6020820190508181035f8301526133558161331c565b9050919050565b7f4974656d206e6f742072657061697261626c65000000000000000000000000005f82015250565b5f6133906013836128ba565b915061339b8261335c565b602082019050919050565b5f6020820190508181035f8301526133bd81613384565b9050919050565b7f4e6f74206f776e657200000000000000000000000000000000000000000000005f82015250565b5f6133f86009836128ba565b9150613403826133c4565b602082019050919050565b5f6020820190508181035f830152613425816133ec565b9050919050565b5f60608201905061343f5f8301866129dd565b61344c602083018561299e565b613459604083018461299e565b949350505050565b5f6020820190506134745f8301846129dd565b92915050565b5f61348482612940565b915061348f83612940565b92508282019050808211156134a7576134a6612fed565b5b92915050565b5f60a0820190506134c05f830188612a50565b6134cd602083018761299e565b6134da604083018661299e565b6134e7606083018561299e565b6134f4608083018461299e565b9695505050505050565b5f6040820190506135115f8301856129dd565b61351e6020830184612c11565b9392505050565b5f61352f82612940565b915061353a83612940565b925082820261354881612940565b9150828204841483151761355f5761355e612fed565b5b509291505056fea26469706673582212206a3b36be9c963f420118913ea278407b2192d57099bd528afdb38c5e58591f2e64736f6c634300081a0033",
					"opcodes": "PUSH1 0x80 PUSH1 0x40 MSTORE CALLVALUE DUP1 ISZERO PUSH2 0xF JUMPI PUSH0 DUP1 REVERT JUMPDEST POP PUSH1 0x40 MLOAD DUP1 PUSH1 0x40 ADD PUSH1 0x40 MSTORE DUP1 PUSH1 0xB DUP2 MSTORE PUSH1 0x20 ADD PUSH32 0x455761737465546F6B656E000000000000000000000000000000000000000000 DUP2 MSTORE POP PUSH1 0x40 MLOAD DUP1 PUSH1 0x40 ADD PUSH1 0x40 MSTORE DUP1 PUSH1 0x3 DUP2 MSTORE PUSH1 0x20 ADD PUSH32 0x4557540000000000000000000000000000000000000000000000000000000000 DUP2 MSTORE POP DUP2 PUSH1 0x3 SWAP1 DUP2 PUSH2 0x8B SWAP2 SWAP1 PUSH2 0x75F JUMP JUMPDEST POP DUP1 PUSH1 0x4 SWAP1 DUP2 PUSH2 0x9B SWAP2 SWAP1 PUSH2 0x75F JUMP JUMPDEST POP POP POP PUSH2 0xB0 PUSH0 DUP1 SHL CALLER PUSH2 0x11E PUSH1 0x20 SHL PUSH1 0x20 SHR JUMP JUMPDEST POP PUSH2 0xE1 PUSH32 0xA49807205CE4D355092EF5A8A18F56E8913CF4A201FBE287825B095693C21775 CALLER PUSH2 0x11E PUSH1 0x20 SHL PUSH1 0x20 SHR JUMP JUMPDEST POP PUSH2 0x119 CALLER PUSH2 0xF4 PUSH2 0x214 PUSH1 0x20 SHL PUSH1 0x20 SHR JUMP JUMPDEST PUSH1 0xA PUSH2 0x100 SWAP2 SWAP1 PUSH2 0x996 JUMP JUMPDEST PUSH3 0x989680 PUSH2 0x10E SWAP2 SWAP1 PUSH2 0x9E0 JUMP JUMPDEST PUSH2 0x21C PUSH1 0x20 SHL PUSH1 0x20 SHR JUMP JUMPDEST PUSH2 0xB09 JUMP JUMPDEST PUSH0 PUSH2 0x12F DUP4 DUP4 PUSH2 0x2A1 PUSH1 0x20 SHL PUSH1 0x20 SHR JUMP JUMPDEST PUSH2 0x20A JUMPI PUSH1 0x1 PUSH1 0x5 PUSH0 DUP6 DUP2 MSTORE PUSH1 0x20 ADD SWAP1 DUP2 MSTORE PUSH1 0x20 ADD PUSH0 KECCAK256 PUSH0 ADD PUSH0 DUP5 PUSH20 0xFFFFFFFFFFFFFFFFFFFFFFFFFFFFFFFFFFFFFFFF AND PUSH20 0xFFFFFFFFFFFFFFFFFFFFFFFFFFFFFFFFFFFFFFFF AND DUP2 MSTORE PUSH1 0x20 ADD SWAP1 DUP2 MSTORE PUSH1 0x20 ADD PUSH0 KECCAK256 PUSH0 PUSH2 0x100 EXP DUP2 SLOAD DUP2 PUSH1 0xFF MUL NOT AND SWAP1 DUP4 ISZERO ISZERO MUL OR SWAP1 SSTORE POP PUSH2 0x1A7 PUSH2 0x305 PUSH1 0x20 SHL PUSH1 0x20 SHR JUMP JUMPDEST PUSH20 0xFFFFFFFFFFFFFFFFFFFFFFFFFFFFFFFFFFFFFFFF AND DUP3 PUSH20 0xFFFFFFFFFFFFFFFFFFFFFFFFFFFFFFFFFFFFFFFF AND DUP5 PUSH32 0x2F8788117E7EFF1D82E926EC794901D17C78024A50270940304540A733656F0D PUSH1 0x40 MLOAD PUSH1 0x40 MLOAD DUP1 SWAP2 SUB SWAP1 LOG4 PUSH1 0x1 SWAP1 POP PUSH2 0x20E JUMP JUMPDEST PUSH0 SWAP1 POP JUMPDEST SWAP3 SWAP2 POP POP JUMP JUMPDEST PUSH0 PUSH1 0x12 SWAP1 POP SWAP1 JUMP JUMPDEST PUSH0 PUSH20 0xFFFFFFFFFFFFFFFFFFFFFFFFFFFFFFFFFFFFFFFF AND DUP3 PUSH20 0xFFFFFFFFFFFFFFFFFFFFFFFFFFFFFFFFFFFFFFFF AND SUB PUSH2 0x28C JUMPI PUSH0 PUSH1 0x40 MLOAD PUSH32 0xEC442F0500000000000000000000000000000000000000000000000000000000 DUP2 MSTORE PUSH1 0x4 ADD PUSH2 0x283 SWAP2 SWAP1 PUSH2 0xA60 JUMP JUMPDEST PUSH1 0x40 MLOAD DUP1 SWAP2 SUB SWAP1 REVERT JUMPDEST PUSH2 0x29D PUSH0 DUP4 DUP4 PUSH2 0x30C PUSH1 0x20 SHL PUSH1 0x20 SHR JUMP JUMPDEST POP POP JUMP JUMPDEST PUSH0 PUSH1 0x5 PUSH0 DUP5 DUP2 MSTORE PUSH1 0x20 ADD SWAP1 DUP2 MSTORE PUSH1 0x20 ADD PUSH0 KECCAK256 PUSH0 ADD PUSH0 DUP4 PUSH20 0xFFFFFFFFFFFFFFFFFFFFFFFFFFFFFFFFFFFFFFFF AND PUSH20 0xFFFFFFFFFFFFFFFFFFFFFFFFFFFFFFFFFFFFFFFF AND DUP2 MSTORE PUSH1 0x20 ADD SWAP1 DUP2 MSTORE PUSH1 0x20 ADD PUSH0 KECCAK256 PUSH0 SWAP1 SLOAD SWAP1 PUSH2 0x100 EXP SWAP1 DIV PUSH1 0xFF AND SWAP1 POP SWAP3 SWAP2 POP POP JUMP JUMPDEST PUSH0 CALLER SWAP1 POP SWAP1 JUMP JUMPDEST PUSH0 PUSH20 0xFFFFFFFFFFFFFFFFFFFFFFFFFFFFFFFFFFFFFFFF AND DUP4 PUSH20 0xFFFFFFFFFFFFFFFFFFFFFFFFFFFFFFFFFFFFFFFF AND SUB PUSH2 0x35C JUMPI DUP1 PUSH1 0x2 PUSH0 DUP3 DUP3 SLOAD PUSH2 0x350 SWAP2 SWAP1 PUSH2 0xA79 JUMP JUMPDEST SWAP3 POP POP DUP2 SWAP1 SSTORE POP PUSH2 0x42A JUMP JUMPDEST PUSH0 DUP1 PUSH0 DUP6 PUSH20 0xFFFFFFFFFFFFFFFFFFFFFFFFFFFFFFFFFFFFFFFF AND PUSH20 0xFFFFFFFFFFFFFFFFFFFFFFFFFFFFFFFFFFFFFFFF AND DUP2 MSTORE PUSH1 0x20 ADD SWAP1 DUP2 MSTORE PUSH1 0x20 ADD PUSH0 KECCAK256 SLOAD SWAP1 POP DUP2 DUP2 LT ISZERO PUSH2 0x3E5 JUMPI DUP4 DUP2 DUP4 PUSH1 0x40 MLOAD PUSH32 0xE450D38C00000000000000000000000000000000000000000000000000000000 DUP2 MSTORE PUSH1 0x4 ADD PUSH2 0x3DC SWAP4 SWAP3 SWAP2 SWAP1 PUSH2 0xABB JUMP JUMPDEST PUSH1 0x40 MLOAD DUP1 SWAP2 SUB SWAP1 REVERT JUMPDEST DUP2 DUP2 SUB PUSH0 DUP1 DUP7 PUSH20 0xFFFFFFFFFFFFFFFFFFFFFFFFFFFFFFFFFFFFFFFF AND PUSH20 0xFFFFFFFFFFFFFFFFFFFFFFFFFFFFFFFFFFFFFFFF AND DUP2 MSTORE PUSH1 0x20 ADD SWAP1 DUP2 MSTORE PUSH1 0x20 ADD PUSH0 KECCAK256 DUP2 SWAP1 SSTORE POP POP JUMPDEST PUSH0 PUSH20 0xFFFFFFFFFFFFFFFFFFFFFFFFFFFFFFFFFFFFFFFF AND DUP3 PUSH20 0xFFFFFFFFFFFFFFFFFFFFFFFFFFFFFFFFFFFFFFFF AND SUB PUSH2 0x471 JUMPI DUP1 PUSH1 0x2 PUSH0 DUP3 DUP3 SLOAD SUB SWAP3 POP POP DUP2 SWAP1 SSTORE POP PUSH2 0x4BB JUMP JUMPDEST DUP1 PUSH0 DUP1 DUP5 PUSH20 0xFFFFFFFFFFFFFFFFFFFFFFFFFFFFFFFFFFFFFFFF AND PUSH20 0xFFFFFFFFFFFFFFFFFFFFFFFFFFFFFFFFFFFFFFFF AND DUP2 MSTORE PUSH1 0x20 ADD SWAP1 DUP2 MSTORE PUSH1 0x20 ADD PUSH0 KECCAK256 PUSH0 DUP3 DUP3 SLOAD ADD SWAP3 POP POP DUP2 SWAP1 SSTORE POP JUMPDEST DUP2 PUSH20 0xFFFFFFFFFFFFFFFFFFFFFFFFFFFFFFFFFFFFFFFF AND DUP4 PUSH20 0xFFFFFFFFFFFFFFFFFFFFFFFFFFFFFFFFFFFFFFFF AND PUSH32 0xDDF252AD1BE2C89B69C2B068FC378DAA952BA7F163C4A11628F55A4DF523B3EF DUP4 PUSH1 0x40 MLOAD PUSH2 0x518 SWAP2 SWAP1 PUSH2 0xAF0 JUMP JUMPDEST PUSH1 0x40 MLOAD DUP1 SWAP2 SUB SWAP1 LOG3 POP POP POP JUMP JUMPDEST PUSH0 DUP2 MLOAD SWAP1 POP SWAP2 SWAP1 POP JUMP JUMPDEST PUSH32 0x4E487B7100000000000000000000000000000000000000000000000000000000 PUSH0 MSTORE PUSH1 0x41 PUSH1 0x4 MSTORE PUSH1 0x24 PUSH0 REVERT JUMPDEST PUSH32 0x4E487B7100000000000000000000000000000000000000000000000000000000 PUSH0 MSTORE PUSH1 0x22 PUSH1 0x4 MSTORE PUSH1 0x24 PUSH0 REVERT JUMPDEST PUSH0 PUSH1 0x2 DUP3 DIV SWAP1 POP PUSH1 0x1 DUP3 AND DUP1 PUSH2 0x5A0 JUMPI PUSH1 0x7F DUP3 AND SWAP2 POP JUMPDEST PUSH1 0x20 DUP3 LT DUP2 SUB PUSH2 0x5B3 JUMPI PUSH2 0x5B2 PUSH2 0x55C JUMP JUMPDEST JUMPDEST POP SWAP2 SWAP1 POP JUMP JUMPDEST PUSH0 DUP2 SWAP1 POP DUP2 PUSH0 MSTORE PUSH1 0x20 PUSH0 KECCAK256 SWAP1 POP SWAP2 SWAP1 POP JUMP JUMPDEST PUSH0 PUSH1 0x20 PUSH1 0x1F DUP4 ADD DIV SWAP1 POP SWAP2 SWAP1 POP JUMP JUMPDEST PUSH0 DUP3 DUP3 SHL SWAP1 POP SWAP3 SWAP2 POP POP JUMP JUMPDEST PUSH0 PUSH1 0x8 DUP4 MUL PUSH2 0x615 PUSH32 0xFFFFFFFFFFFFFFFFFFFFFFFFFFFFFFFFFFFFFFFFFFFFFFFFFFFFFFFFFFFFFFFF DUP3 PUSH2 0x5DA JUMP JUMPDEST PUSH2 0x61F DUP7 DUP4 PUSH2 0x5DA JUMP JUMPDEST SWAP6 POP DUP1 NOT DUP5 AND SWAP4 POP DUP1 DUP7 AND DUP5 OR SWAP3 POP POP POP SWAP4 SWAP3 POP POP POP JUMP JUMPDEST PUSH0 DUP2 SWAP1 POP SWAP2 SWAP1 POP JUMP JUMPDEST PUSH0 DUP2 SWAP1 POP SWAP2 SWAP1 POP JUMP JUMPDEST PUSH0 PUSH2 0x663 PUSH2 0x65E PUSH2 0x659 DUP5 PUSH2 0x637 JUMP JUMPDEST PUSH2 0x640 JUMP JUMPDEST PUSH2 0x637 JUMP JUMPDEST SWAP1 POP SWAP2 SWAP1 POP JUMP JUMPDEST PUSH0 DUP2 SWAP1 POP SWAP2 SWAP1 POP JUMP JUMPDEST PUSH2 0x67C DUP4 PUSH2 0x649 JUMP JUMPDEST PUSH2 0x690 PUSH2 0x688 DUP3 PUSH2 0x66A JUMP JUMPDEST DUP5 DUP5 SLOAD PUSH2 0x5E6 JUMP JUMPDEST DUP3 SSTORE POP POP POP POP JUMP JUMPDEST PUSH0 SWAP1 JUMP JUMPDEST PUSH2 0x6A4 PUSH2 0x698 JUMP JUMPDEST PUSH2 0x6AF DUP2 DUP5 DUP5 PUSH2 0x673 JUMP JUMPDEST POP POP POP JUMP JUMPDEST JUMPDEST DUP2 DUP2 LT ISZERO PUSH2 0x6D2 JUMPI PUSH2 0x6C7 PUSH0 DUP3 PUSH2 0x69C JUMP JUMPDEST PUSH1 0x1 DUP2 ADD SWAP1 POP PUSH2 0x6B5 JUMP JUMPDEST POP POP JUMP JUMPDEST PUSH1 0x1F DUP3 GT ISZERO PUSH2 0x717 JUMPI PUSH2 0x6E8 DUP2 PUSH2 0x5B9 JUMP JUMPDEST PUSH2 0x6F1 DUP5 PUSH2 0x5CB JUMP JUMPDEST DUP2 ADD PUSH1 0x20 DUP6 LT ISZERO PUSH2 0x700 JUMPI DUP2 SWAP1 POP JUMPDEST PUSH2 0x714 PUSH2 0x70C DUP6 PUSH2 0x5CB JUMP JUMPDEST DUP4 ADD DUP3 PUSH2 0x6B4 JUMP JUMPDEST POP POP JUMPDEST POP POP POP JUMP JUMPDEST PUSH0 DUP3 DUP3 SHR SWAP1 POP SWAP3 SWAP2 POP POP JUMP JUMPDEST PUSH0 PUSH2 0x737 PUSH0 NOT DUP5 PUSH1 0x8 MUL PUSH2 0x71C JUMP JUMPDEST NOT DUP1 DUP4 AND SWAP2 POP POP SWAP3 SWAP2 POP POP JUMP JUMPDEST PUSH0 PUSH2 0x74F DUP4 DUP4 PUSH2 0x728 JUMP JUMPDEST SWAP2 POP DUP3 PUSH1 0x2 MUL DUP3 OR SWAP1 POP SWAP3 SWAP2 POP POP JUMP JUMPDEST PUSH2 0x768 DUP3 PUSH2 0x525 JUMP JUMPDEST PUSH8 0xFFFFFFFFFFFFFFFF DUP2 GT ISZERO PUSH2 0x781 JUMPI PUSH2 0x780 PUSH2 0x52F JUMP JUMPDEST JUMPDEST PUSH2 0x78B DUP3 SLOAD PUSH2 0x589 JUMP JUMPDEST PUSH2 0x796 DUP3 DUP3 DUP6 PUSH2 0x6D6 JUMP JUMPDEST PUSH0 PUSH1 0x20 SWAP1 POP PUSH1 0x1F DUP4 GT PUSH1 0x1 DUP2 EQ PUSH2 0x7C7 JUMPI PUSH0 DUP5 ISZERO PUSH2 0x7B5 JUMPI DUP3 DUP8 ADD MLOAD SWAP1 POP JUMPDEST PUSH2 0x7BF DUP6 DUP3 PUSH2 0x744 JUMP JUMPDEST DUP7 SSTORE POP PUSH2 0x826 JUMP JUMPDEST PUSH1 0x1F NOT DUP5 AND PUSH2 0x7D5 DUP7 PUSH2 0x5B9 JUMP JUMPDEST PUSH0 JUMPDEST DUP3 DUP2 LT ISZERO PUSH2 0x7FC JUMPI DUP5 DUP10 ADD MLOAD DUP3 SSTORE PUSH1 0x1 DUP3 ADD SWAP2 POP PUSH1 0x20 DUP6 ADD SWAP5 POP PUSH1 0x20 DUP2 ADD SWAP1 POP PUSH2 0x7D7 JUMP JUMPDEST DUP7 DUP4 LT ISZERO PUSH2 0x819 JUMPI DUP5 DUP10 ADD MLOAD PUSH2 0x815 PUSH1 0x1F DUP10 AND DUP3 PUSH2 0x728 JUMP JUMPDEST DUP4 SSTORE POP JUMPDEST PUSH1 0x1 PUSH1 0x2 DUP9 MUL ADD DUP9 SSTORE POP POP POP JUMPDEST POP POP POP POP POP POP JUMP JUMPDEST PUSH32 0x4E487B7100000000000000000000000000000000000000000000000000000000 PUSH0 MSTORE PUSH1 0x11 PUSH1 0x4 MSTORE PUSH1 0x24 PUSH0 REVERT JUMPDEST PUSH0 DUP2 PUSH1 0x1 SHR SWAP1 POP SWAP2 SWAP1 POP JUMP JUMPDEST PUSH0 DUP1 DUP3 SWAP2 POP DUP4 SWAP1 POP JUMPDEST PUSH1 0x1 DUP6 GT ISZERO PUSH2 0x8B0 JUMPI DUP1 DUP7 DIV DUP2 GT ISZERO PUSH2 0x88C JUMPI PUSH2 0x88B PUSH2 0x82E JUMP JUMPDEST JUMPDEST PUSH1 0x1 DUP6 AND ISZERO PUSH2 0x89B JUMPI DUP1 DUP3 MUL SWAP2 POP JUMPDEST DUP1 DUP2 MUL SWAP1 POP PUSH2 0x8A9 DUP6 PUSH2 0x85B JUMP JUMPDEST SWAP5 POP PUSH2 0x870 JUMP JUMPDEST SWAP5 POP SWAP5 SWAP3 POP POP POP JUMP JUMPDEST PUSH0 DUP3 PUSH2 0x8C8 JUMPI PUSH1 0x1 SWAP1 POP PUSH2 0x983 JUMP JUMPDEST DUP2 PUSH2 0x8D5 JUMPI PUSH0 SWAP1 POP PUSH2 0x983 JUMP JUMPDEST DUP2 PUSH1 0x1 DUP2 EQ PUSH2 0x8EB JUMPI PUSH1 0x2 DUP2 EQ PUSH2 0x8F5 JUMPI PUSH2 0x924 JUMP JUMPDEST PUSH1 0x1 SWAP2 POP POP PUSH2 0x983 JUMP JUMPDEST PUSH1 0xFF DUP5 GT ISZERO PUSH2 0x907 JUMPI PUSH2 0x906 PUSH2 0x82E JUMP JUMPDEST JUMPDEST DUP4 PUSH1 0x2 EXP SWAP2 POP DUP5 DUP3 GT ISZERO PUSH2 0x91E JUMPI PUSH2 0x91D PUSH2 0x82E JUMP JUMPDEST JUMPDEST POP PUSH2 0x983 JUMP JUMPDEST POP PUSH1 0x20 DUP4 LT PUSH2 0x133 DUP4 LT AND PUSH1 0x4E DUP5 LT PUSH1 0xB DUP5 LT AND OR ISZERO PUSH2 0x959 JUMPI DUP3 DUP3 EXP SWAP1 POP DUP4 DUP2 GT ISZERO PUSH2 0x954 JUMPI PUSH2 0x953 PUSH2 0x82E JUMP JUMPDEST JUMPDEST PUSH2 0x983 JUMP JUMPDEST PUSH2 0x966 DUP5 DUP5 DUP5 PUSH1 0x1 PUSH2 0x867 JUMP JUMPDEST SWAP3 POP SWAP1 POP DUP2 DUP5 DIV DUP2 GT ISZERO PUSH2 0x97D JUMPI PUSH2 0x97C PUSH2 0x82E JUMP JUMPDEST JUMPDEST DUP2 DUP2 MUL SWAP1 POP JUMPDEST SWAP4 SWAP3 POP POP POP JUMP JUMPDEST PUSH0 PUSH1 0xFF DUP3 AND SWAP1 POP SWAP2 SWAP1 POP JUMP JUMPDEST PUSH0 PUSH2 0x9A0 DUP3 PUSH2 0x637 JUMP JUMPDEST SWAP2 POP PUSH2 0x9AB DUP4 PUSH2 0x98A JUMP JUMPDEST SWAP3 POP PUSH2 0x9D8 PUSH32 0xFFFFFFFFFFFFFFFFFFFFFFFFFFFFFFFFFFFFFFFFFFFFFFFFFFFFFFFFFFFFFFFF DUP5 DUP5 PUSH2 0x8B9 JUMP JUMPDEST SWAP1 POP SWAP3 SWAP2 POP POP JUMP JUMPDEST PUSH0 PUSH2 0x9EA DUP3 PUSH2 0x637 JUMP JUMPDEST SWAP2 POP PUSH2 0x9F5 DUP4 PUSH2 0x637 JUMP JUMPDEST SWAP3 POP DUP3 DUP3 MUL PUSH2 0xA03 DUP2 PUSH2 0x637 JUMP JUMPDEST SWAP2 POP DUP3 DUP3 DIV DUP5 EQ DUP4 ISZERO OR PUSH2 0xA1A JUMPI PUSH2 0xA19 PUSH2 0x82E JUMP JUMPDEST JUMPDEST POP SWAP3 SWAP2 POP POP JUMP JUMPDEST PUSH0 PUSH20 0xFFFFFFFFFFFFFFFFFFFFFFFFFFFFFFFFFFFFFFFF DUP3 AND SWAP1 POP SWAP2 SWAP1 POP JUMP JUMPDEST PUSH0 PUSH2 0xA4A DUP3 PUSH2 0xA21 JUMP JUMPDEST SWAP1 POP SWAP2 SWAP1 POP JUMP JUMPDEST PUSH2 0xA5A DUP2 PUSH2 0xA40 JUMP JUMPDEST DUP3 MSTORE POP POP JUMP JUMPDEST PUSH0 PUSH1 0x20 DUP3 ADD SWAP1 POP PUSH2 0xA73 PUSH0 DUP4 ADD DUP5 PUSH2 0xA51 JUMP JUMPDEST SWAP3 SWAP2 POP POP JUMP JUMPDEST PUSH0 PUSH2 0xA83 DUP3 PUSH2 0x637 JUMP JUMPDEST SWAP2 POP PUSH2 0xA8E DUP4 PUSH2 0x637 JUMP JUMPDEST SWAP3 POP DUP3 DUP3 ADD SWAP1 POP DUP1 DUP3 GT ISZERO PUSH2 0xAA6 JUMPI PUSH2 0xAA5 PUSH2 0x82E JUMP JUMPDEST JUMPDEST SWAP3 SWAP2 POP POP JUMP JUMPDEST PUSH2 0xAB5 DUP2 PUSH2 0x637 JUMP JUMPDEST DUP3 MSTORE POP POP JUMP JUMPDEST PUSH0 PUSH1 0x60 DUP3 ADD SWAP1 POP PUSH2 0xACE PUSH0 DUP4 ADD DUP7 PUSH2 0xA51 JUMP JUMPDEST PUSH2 0xADB PUSH1 0x20 DUP4 ADD DUP6 PUSH2 0xAAC JUMP JUMPDEST PUSH2 0xAE8 PUSH1 0x40 DUP4 ADD DUP5 PUSH2 0xAAC JUMP JUMPDEST SWAP5 SWAP4 POP POP POP POP JUMP JUMPDEST PUSH0 PUSH1 0x20 DUP3 ADD SWAP1 POP PUSH2 0xB03 PUSH0 DUP4 ADD DUP5 PUSH2 0xAAC JUMP JUMPDEST SWAP3 SWAP2 POP POP JUMP JUMPDEST PUSH2 0x359C DUP1 PUSH2 0xB16 PUSH0 CODECOPY PUSH0 RETURN INVALID PUSH1 0x80 PUSH1 0x40 MSTORE CALLVALUE DUP1 ISZERO PUSH2 0xF JUMPI PUSH0 DUP1 REVERT JUMPDEST POP PUSH1 0x4 CALLDATASIZE LT PUSH2 0x23B JUMPI PUSH0 CALLDATALOAD PUSH1 0xE0 SHR DUP1 PUSH4 0x8287662C GT PUSH2 0x139 JUMPI DUP1 PUSH4 0xB8FE58E4 GT PUSH2 0xB6 JUMPI DUP1 PUSH4 0xD547741F GT PUSH2 0x7A JUMPI DUP1 PUSH4 0xD547741F EQ PUSH2 0x6C0 JUMPI DUP1 PUSH4 0xD8101DCD EQ PUSH2 0x6DC JUMPI DUP1 PUSH4 0xDD62ED3E EQ PUSH2 0x6F8 JUMPI DUP1 PUSH4 0xED276CAF EQ PUSH2 0x728 JUMPI DUP1 PUSH4 0xF0DDA65C EQ PUSH2 0x746 JUMPI PUSH2 0x23B JUMP JUMPDEST DUP1 PUSH4 0xB8FE58E4 EQ PUSH2 0x62A JUMPI DUP1 PUSH4 0xBE651316 EQ PUSH2 0x648 JUMPI DUP1 PUSH4 0xBF313778 EQ PUSH2 0x666 JUMPI DUP1 PUSH4 0xC53B4B09 EQ PUSH2 0x684 JUMPI DUP1 PUSH4 0xCB963A39 EQ PUSH2 0x6A2 JUMPI PUSH2 0x23B JUMP JUMPDEST DUP1 PUSH4 0x990281B8 GT PUSH2 0xFD JUMPI DUP1 PUSH4 0x990281B8 EQ PUSH2 0x586 JUMPI DUP1 PUSH4 0x9CA39AE9 EQ PUSH2 0x5A2 JUMPI DUP1 PUSH4 0xA217FDDF EQ PUSH2 0x5C0 JUMPI DUP1 PUSH4 0xA73F7F8A EQ PUSH2 0x5DE JUMPI DUP1 PUSH4 0xA9059CBB EQ PUSH2 0x5FA JUMPI PUSH2 0x23B JUMP JUMPDEST DUP1 PUSH4 0x8287662C EQ PUSH2 0x4E4 JUMPI DUP1 PUSH4 0x855C72FB EQ PUSH2 0x500 JUMPI DUP1 PUSH4 0x91810674 EQ PUSH2 0x51C JUMPI DUP1 PUSH4 0x91D14854 EQ PUSH2 0x538 JUMPI DUP1 PUSH4 0x95D89B41 EQ PUSH2 0x568 JUMPI PUSH2 0x23B JUMP JUMPDEST DUP1 PUSH4 0x313CE567 GT PUSH2 0x1C7 JUMPI DUP1 PUSH4 0x65258B66 GT PUSH2 0x18B JUMPI DUP1 PUSH4 0x65258B66 EQ PUSH2 0x43C JUMPI DUP1 PUSH4 0x6D6D00ED EQ PUSH2 0x45A JUMPI DUP1 PUSH4 0x70A08231 EQ PUSH2 0x478 JUMPI DUP1 PUSH4 0x74E4D700 EQ PUSH2 0x4A8 JUMPI DUP1 PUSH4 0x75B238FC EQ PUSH2 0x4C6 JUMPI PUSH2 0x23B JUMP JUMPDEST DUP1 PUSH4 0x313CE567 EQ PUSH2 0x3AC JUMPI DUP1 PUSH4 0x352B6DC3 EQ PUSH2 0x3CA JUMPI DUP1 PUSH4 0x3609A1EB EQ PUSH2 0x3E6 JUMPI DUP1 PUSH4 0x36568ABE EQ PUSH2 0x402 JUMPI DUP1 PUSH4 0x579108F7 EQ PUSH2 0x41E JUMPI PUSH2 0x23B JUMP JUMPDEST DUP1 PUSH4 0xF555C54 GT PUSH2 0x20E JUMPI DUP1 PUSH4 0xF555C54 EQ PUSH2 0x2F4 JUMPI DUP1 PUSH4 0x18160DDD EQ PUSH2 0x312 JUMPI DUP1 PUSH4 0x23B872DD EQ PUSH2 0x330 JUMPI DUP1 PUSH4 0x248A9CA3 EQ PUSH2 0x360 JUMPI DUP1 PUSH4 0x2F2FF15D EQ PUSH2 0x390 JUMPI PUSH2 0x23B JUMP JUMPDEST DUP1 PUSH4 0x1FFC9A7 EQ PUSH2 0x23F JUMPI DUP1 PUSH4 0x6FDDE03 EQ PUSH2 0x26F JUMPI DUP1 PUSH4 0x91929C0 EQ PUSH2 0x28D JUMPI DUP1 PUSH4 0x95EA7B3 EQ PUSH2 0x2C4 JUMPI JUMPDEST PUSH0 DUP1 REVERT JUMPDEST PUSH2 0x259 PUSH1 0x4 DUP1 CALLDATASIZE SUB DUP2 ADD SWAP1 PUSH2 0x254 SWAP2 SWAP1 PUSH2 0x2852 JUMP JUMPDEST PUSH2 0x762 JUMP JUMPDEST PUSH1 0x40 MLOAD PUSH2 0x266 SWAP2 SWAP1 PUSH2 0x2897 JUMP JUMPDEST PUSH1 0x40 MLOAD DUP1 SWAP2 SUB SWAP1 RETURN JUMPDEST PUSH2 0x277 PUSH2 0x7DB JUMP JUMPDEST PUSH1 0x40 MLOAD PUSH2 0x284 SWAP2 SWAP1 PUSH2 0x2920 JUMP JUMPDEST PUSH1 0x40 MLOAD DUP1 SWAP2 SUB SWAP1 RETURN JUMPDEST PUSH2 0x2A7 PUSH1 0x4 DUP1 CALLDATASIZE SUB DUP2 ADD SWAP1 PUSH2 0x2A2 SWAP2 SWAP1 PUSH2 0x2973 JUMP JUMPDEST PUSH2 0x86B JUMP JUMPDEST PUSH1 0x40 MLOAD PUSH2 0x2BB SWAP9 SWAP8 SWAP7 SWAP6 SWAP5 SWAP4 SWAP3 SWAP2 SWAP1 PUSH2 0x2A5F JUMP JUMPDEST PUSH1 0x40 MLOAD DUP1 SWAP2 SUB SWAP1 RETURN JUMPDEST PUSH2 0x2DE PUSH1 0x4 DUP1 CALLDATASIZE SUB DUP2 ADD SWAP1 PUSH2 0x2D9 SWAP2 SWAP1 PUSH2 0x2B0C JUMP JUMPDEST PUSH2 0x98D JUMP JUMPDEST PUSH1 0x40 MLOAD PUSH2 0x2EB SWAP2 SWAP1 PUSH2 0x2897 JUMP JUMPDEST PUSH1 0x40 MLOAD DUP1 SWAP2 SUB SWAP1 RETURN JUMPDEST PUSH2 0x2FC PUSH2 0x9AF JUMP JUMPDEST PUSH1 0x40 MLOAD PUSH2 0x309 SWAP2 SWAP1 PUSH2 0x2B4A JUMP JUMPDEST PUSH1 0x40 MLOAD DUP1 SWAP2 SUB SWAP1 RETURN JUMPDEST PUSH2 0x31A PUSH2 0x9BB JUMP JUMPDEST PUSH1 0x40 MLOAD PUSH2 0x327 SWAP2 SWAP1 PUSH2 0x2B4A JUMP JUMPDEST PUSH1 0x40 MLOAD DUP1 SWAP2 SUB SWAP1 RETURN JUMPDEST PUSH2 0x34A PUSH1 0x4 DUP1 CALLDATASIZE SUB DUP2 ADD SWAP1 PUSH2 0x345 SWAP2 SWAP1 PUSH2 0x2B63 JUMP JUMPDEST PUSH2 0x9C4 JUMP JUMPDEST PUSH1 0x40 MLOAD PUSH2 0x357 SWAP2 SWAP1 PUSH2 0x2897 JUMP JUMPDEST PUSH1 0x40 MLOAD DUP1 SWAP2 SUB SWAP1 RETURN JUMPDEST PUSH2 0x37A PUSH1 0x4 DUP1 CALLDATASIZE SUB DUP2 ADD SWAP1 PUSH2 0x375 SWAP2 SWAP1 PUSH2 0x2BE6 JUMP JUMPDEST PUSH2 0x9F2 JUMP JUMPDEST PUSH1 0x40 MLOAD PUSH2 0x387 SWAP2 SWAP1 PUSH2 0x2C20 JUMP JUMPDEST PUSH1 0x40 MLOAD DUP1 SWAP2 SUB SWAP1 RETURN JUMPDEST PUSH2 0x3AA PUSH1 0x4 DUP1 CALLDATASIZE SUB DUP2 ADD SWAP1 PUSH2 0x3A5 SWAP2 SWAP1 PUSH2 0x2C39 JUMP JUMPDEST PUSH2 0xA0F JUMP JUMPDEST STOP JUMPDEST PUSH2 0x3B4 PUSH2 0xA31 JUMP JUMPDEST PUSH1 0x40 MLOAD PUSH2 0x3C1 SWAP2 SWAP1 PUSH2 0x2C92 JUMP JUMPDEST PUSH1 0x40 MLOAD DUP1 SWAP2 SUB SWAP1 RETURN JUMPDEST PUSH2 0x3E4 PUSH1 0x4 DUP1 CALLDATASIZE SUB DUP2 ADD SWAP1 PUSH2 0x3DF SWAP2 SWAP1 PUSH2 0x2E01 JUMP JUMPDEST PUSH2 0xA39 JUMP JUMPDEST STOP JUMPDEST PUSH2 0x400 PUSH1 0x4 DUP1 CALLDATASIZE SUB DUP2 ADD SWAP1 PUSH2 0x3FB SWAP2 SWAP1 PUSH2 0x2973 JUMP JUMPDEST PUSH2 0xC93 JUMP JUMPDEST STOP JUMPDEST PUSH2 0x41C PUSH1 0x4 DUP1 CALLDATASIZE SUB DUP2 ADD SWAP1 PUSH2 0x417 SWAP2 SWAP1 PUSH2 0x2C39 JUMP JUMPDEST PUSH2 0xE34 JUMP JUMPDEST STOP JUMPDEST PUSH2 0x426 PUSH2 0xEAF JUMP JUMPDEST PUSH1 0x40 MLOAD PUSH2 0x433 SWAP2 SWAP1 PUSH2 0x2C20 JUMP JUMPDEST PUSH1 0x40 MLOAD DUP1 SWAP2 SUB SWAP1 RETURN JUMPDEST PUSH2 0x444 PUSH2 0xED3 JUMP JUMPDEST PUSH1 0x40 MLOAD PUSH2 0x451 SWAP2 SWAP1 PUSH2 0x2B4A JUMP JUMPDEST PUSH1 0x40 MLOAD DUP1 SWAP2 SUB SWAP1 RETURN JUMPDEST PUSH2 0x462 PUSH2 0xEDE JUMP JUMPDEST PUSH1 0x40 MLOAD PUSH2 0x46F SWAP2 SWAP1 PUSH2 0x2B4A JUMP JUMPDEST PUSH1 0x40 MLOAD DUP1 SWAP2 SUB SWAP1 RETURN JUMPDEST PUSH2 0x492 PUSH1 0x4 DUP1 CALLDATASIZE SUB DUP2 ADD SWAP1 PUSH2 0x48D SWAP2 SWAP1 PUSH2 0x2E81 JUMP JUMPDEST PUSH2 0xEE4 JUMP JUMPDEST PUSH1 0x40 MLOAD PUSH2 0x49F SWAP2 SWAP1 PUSH2 0x2B4A JUMP JUMPDEST PUSH1 0x40 MLOAD DUP1 SWAP2 SUB SWAP1 RETURN JUMPDEST PUSH2 0x4B0 PUSH2 0xF29 JUMP JUMPDEST PUSH1 0x40 MLOAD PUSH2 0x4BD SWAP2 SWAP1 PUSH2 0x2B4A JUMP JUMPDEST PUSH1 0x40 MLOAD DUP1 SWAP2 SUB SWAP1 RETURN JUMPDEST PUSH2 0x4CE PUSH2 0xF35 JUMP JUMPDEST PUSH1 0x40 MLOAD PUSH2 0x4DB SWAP2 SWAP1 PUSH2 0x2C20 JUMP JUMPDEST PUSH1 0x40 MLOAD DUP1 SWAP2 SUB SWAP1 RETURN JUMPDEST PUSH2 0x4FE PUSH1 0x4 DUP1 CALLDATASIZE SUB DUP2 ADD SWAP1 PUSH2 0x4F9 SWAP2 SWAP1 PUSH2 0x2973 JUMP JUMPDEST PUSH2 0xF59 JUMP JUMPDEST STOP JUMPDEST PUSH2 0x51A PUSH1 0x4 DUP1 CALLDATASIZE SUB DUP2 ADD SWAP1 PUSH2 0x515 SWAP2 SWAP1 PUSH2 0x2973 JUMP JUMPDEST PUSH2 0x10FB JUMP JUMPDEST STOP JUMPDEST PUSH2 0x536 PUSH1 0x4 DUP1 CALLDATASIZE SUB DUP2 ADD SWAP1 PUSH2 0x531 SWAP2 SWAP1 PUSH2 0x2973 JUMP JUMPDEST PUSH2 0x12EC JUMP JUMPDEST STOP JUMPDEST PUSH2 0x552 PUSH1 0x4 DUP1 CALLDATASIZE SUB DUP2 ADD SWAP1 PUSH2 0x54D SWAP2 SWAP1 PUSH2 0x2C39 JUMP JUMPDEST PUSH2 0x148E JUMP JUMPDEST PUSH1 0x40 MLOAD PUSH2 0x55F SWAP2 SWAP1 PUSH2 0x2897 JUMP JUMPDEST PUSH1 0x40 MLOAD DUP1 SWAP2 SUB SWAP1 RETURN JUMPDEST PUSH2 0x570 PUSH2 0x14F2 JUMP JUMPDEST PUSH1 0x40 MLOAD PUSH2 0x57D SWAP2 SWAP1 PUSH2 0x2920 JUMP JUMPDEST PUSH1 0x40 MLOAD DUP1 SWAP2 SUB SWAP1 RETURN JUMPDEST PUSH2 0x5A0 PUSH1 0x4 DUP1 CALLDATASIZE SUB DUP2 ADD SWAP1 PUSH2 0x59B SWAP2 SWAP1 PUSH2 0x2973 JUMP JUMPDEST PUSH2 0x1582 JUMP JUMPDEST STOP JUMPDEST PUSH2 0x5AA PUSH2 0x1718 JUMP JUMPDEST PUSH1 0x40 MLOAD PUSH2 0x5B7 SWAP2 SWAP1 PUSH2 0x2C20 JUMP JUMPDEST PUSH1 0x40 MLOAD DUP1 SWAP2 SUB SWAP1 RETURN JUMPDEST PUSH2 0x5C8 PUSH2 0x173C JUMP JUMPDEST PUSH1 0x40 MLOAD PUSH2 0x5D5 SWAP2 SWAP1 PUSH2 0x2C20 JUMP JUMPDEST PUSH1 0x40 MLOAD DUP1 SWAP2 SUB SWAP1 RETURN JUMPDEST PUSH2 0x5F8 PUSH1 0x4 DUP1 CALLDATASIZE SUB DUP2 ADD SWAP1 PUSH2 0x5F3 SWAP2 SWAP1 PUSH2 0x2EAC JUMP JUMPDEST PUSH2 0x1742 JUMP JUMPDEST STOP JUMPDEST PUSH2 0x614 PUSH1 0x4 DUP1 CALLDATASIZE SUB DUP2 ADD SWAP1 PUSH2 0x60F SWAP2 SWAP1 PUSH2 0x2B0C JUMP JUMPDEST PUSH2 0x177B JUMP JUMPDEST PUSH1 0x40 MLOAD PUSH2 0x621 SWAP2 SWAP1 PUSH2 0x2897 JUMP JUMPDEST PUSH1 0x40 MLOAD DUP1 SWAP2 SUB SWAP1 RETURN JUMPDEST PUSH2 0x632 PUSH2 0x179D JUMP JUMPDEST PUSH1 0x40 MLOAD PUSH2 0x63F SWAP2 SWAP1 PUSH2 0x2B4A JUMP JUMPDEST PUSH1 0x40 MLOAD DUP1 SWAP2 SUB SWAP1 RETURN JUMPDEST PUSH2 0x650 PUSH2 0x17A9 JUMP JUMPDEST PUSH1 0x40 MLOAD PUSH2 0x65D SWAP2 SWAP1 PUSH2 0x2C20 JUMP JUMPDEST PUSH1 0x40 MLOAD DUP1 SWAP2 SUB SWAP1 RETURN JUMPDEST PUSH2 0x66E PUSH2 0x17CD JUMP JUMPDEST PUSH1 0x40 MLOAD PUSH2 0x67B SWAP2 SWAP1 PUSH2 0x2C20 JUMP JUMPDEST PUSH1 0x40 MLOAD DUP1 SWAP2 SUB SWAP1 RETURN JUMPDEST PUSH2 0x68C PUSH2 0x17F1 JUMP JUMPDEST PUSH1 0x40 MLOAD PUSH2 0x699 SWAP2 SWAP1 PUSH2 0x2B4A JUMP JUMPDEST PUSH1 0x40 MLOAD DUP1 SWAP2 SUB SWAP1 RETURN JUMPDEST PUSH2 0x6AA PUSH2 0x17FD JUMP JUMPDEST PUSH1 0x40 MLOAD PUSH2 0x6B7 SWAP2 SWAP1 PUSH2 0x2B4A JUMP JUMPDEST PUSH1 0x40 MLOAD DUP1 SWAP2 SUB SWAP1 RETURN JUMPDEST PUSH2 0x6DA PUSH1 0x4 DUP1 CALLDATASIZE SUB DUP2 ADD SWAP1 PUSH2 0x6D5 SWAP2 SWAP1 PUSH2 0x2C39 JUMP JUMPDEST PUSH2 0x1809 JUMP JUMPDEST STOP JUMPDEST PUSH2 0x6F6 PUSH1 0x4 DUP1 CALLDATASIZE SUB DUP2 ADD SWAP1 PUSH2 0x6F1 SWAP2 SWAP1 PUSH2 0x2973 JUMP JUMPDEST PUSH2 0x182B JUMP JUMPDEST STOP JUMPDEST PUSH2 0x712 PUSH1 0x4 DUP1 CALLDATASIZE SUB DUP2 ADD SWAP1 PUSH2 0x70D SWAP2 SWAP1 PUSH2 0x2EEA JUMP JUMPDEST PUSH2 0x19D6 JUMP JUMPDEST PUSH1 0x40 MLOAD PUSH2 0x71F SWAP2 SWAP1 PUSH2 0x2B4A JUMP JUMPDEST PUSH1 0x40 MLOAD DUP1 SWAP2 SUB SWAP1 RETURN JUMPDEST PUSH2 0x730 PUSH2 0x1A58 JUMP JUMPDEST PUSH1 0x40 MLOAD PUSH2 0x73D SWAP2 SWAP1 PUSH2 0x2B4A JUMP JUMPDEST PUSH1 0x40 MLOAD DUP1 SWAP2 SUB SWAP1 RETURN JUMPDEST PUSH2 0x760 PUSH1 0x4 DUP1 CALLDATASIZE SUB DUP2 ADD SWAP1 PUSH2 0x75B SWAP2 SWAP1 PUSH2 0x2B0C JUMP JUMPDEST PUSH2 0x1A64 JUMP JUMPDEST STOP JUMPDEST PUSH0 PUSH32 0x7965DB0B00000000000000000000000000000000000000000000000000000000 PUSH28 0xFFFFFFFFFFFFFFFFFFFFFFFFFFFFFFFFFFFFFFFFFFFFFFFFFFFFFFFF NOT AND DUP3 PUSH28 0xFFFFFFFFFFFFFFFFFFFFFFFFFFFFFFFFFFFFFFFFFFFFFFFFFFFFFFFF NOT AND EQ DUP1 PUSH2 0x7D4 JUMPI POP PUSH2 0x7D3 DUP3 PUSH2 0x1A9D JUMP JUMPDEST JUMPDEST SWAP1 POP SWAP2 SWAP1 POP JUMP JUMPDEST PUSH1 0x60 PUSH1 0x3 DUP1 SLOAD PUSH2 0x7EA SWAP1 PUSH2 0x2F55 JUMP JUMPDEST DUP1 PUSH1 0x1F ADD PUSH1 0x20 DUP1 SWAP2 DIV MUL PUSH1 0x20 ADD PUSH1 0x40 MLOAD SWAP1 DUP2 ADD PUSH1 0x40 MSTORE DUP1 SWAP3 SWAP2 SWAP1 DUP2 DUP2 MSTORE PUSH1 0x20 ADD DUP3 DUP1 SLOAD PUSH2 0x816 SWAP1 PUSH2 0x2F55 JUMP JUMPDEST DUP1 ISZERO PUSH2 0x861 JUMPI DUP1 PUSH1 0x1F LT PUSH2 0x838 JUMPI PUSH2 0x100 DUP1 DUP4 SLOAD DIV MUL DUP4 MSTORE SWAP2 PUSH1 0x20 ADD SWAP2 PUSH2 0x861 JUMP JUMPDEST DUP3 ADD SWAP2 SWAP1 PUSH0 MSTORE PUSH1 0x20 PUSH0 KECCAK256 SWAP1 JUMPDEST DUP2 SLOAD DUP2 MSTORE SWAP1 PUSH1 0x1 ADD SWAP1 PUSH1 0x20 ADD DUP1 DUP4 GT PUSH2 0x844 JUMPI DUP3 SWAP1 SUB PUSH1 0x1F AND DUP3 ADD SWAP2 JUMPDEST POP POP POP POP POP SWAP1 POP SWAP1 JUMP JUMPDEST PUSH1 0x6 PUSH1 0x20 MSTORE DUP1 PUSH0 MSTORE PUSH1 0x40 PUSH0 KECCAK256 PUSH0 SWAP2 POP SWAP1 POP DUP1 PUSH0 ADD SLOAD SWAP1 DUP1 PUSH1 0x1 ADD PUSH0 SWAP1 SLOAD SWAP1 PUSH2 0x100 EXP SWAP1 DIV PUSH20 0xFFFFFFFFFFFFFFFFFFFFFFFFFFFFFFFFFFFFFFFF AND SWAP1 DUP1 PUSH1 0x2 ADD DUP1 SLOAD PUSH2 0x8B5 SWAP1 PUSH2 0x2F55 JUMP JUMPDEST DUP1 PUSH1 0x1F ADD PUSH1 0x20 DUP1 SWAP2 DIV MUL PUSH1 0x20 ADD PUSH1 0x40 MLOAD SWAP1 DUP2 ADD PUSH1 0x40 MSTORE DUP1 SWAP3 SWAP2 SWAP1 DUP2 DUP2 MSTORE PUSH1 0x20 ADD DUP3 DUP1 SLOAD PUSH2 0x8E1 SWAP1 PUSH2 0x2F55 JUMP JUMPDEST DUP1 ISZERO PUSH2 0x92C JUMPI DUP1 PUSH1 0x1F LT PUSH2 0x903 JUMPI PUSH2 0x100 DUP1 DUP4 SLOAD DIV MUL DUP4 MSTORE SWAP2 PUSH1 0x20 ADD SWAP2 PUSH2 0x92C JUMP JUMPDEST DUP3 ADD SWAP2 SWAP1 PUSH0 MSTORE PUSH1 0x20 PUSH0 KECCAK256 SWAP1 JUMPDEST DUP2 SLOAD DUP2 MSTORE SWAP1 PUSH1 0x1 ADD SWAP1 PUSH1 0x20 ADD DUP1 DUP4 GT PUSH2 0x90F JUMPI DUP3 SWAP1 SUB PUSH1 0x1F AND DUP3 ADD SWAP2 JUMPDEST POP POP POP POP POP SWAP1 DUP1 PUSH1 0x3 ADD SLOAD SWAP1 DUP1 PUSH1 0x4 ADD SLOAD SWAP1 DUP1 PUSH1 0x5 ADD PUSH0 SWAP1 SLOAD SWAP1 PUSH2 0x100 EXP SWAP1 DIV PUSH1 0xFF AND SWAP1 DUP1 PUSH1 0x5 ADD PUSH1 0x1 SWAP1 SLOAD SWAP1 PUSH2 0x100 EXP SWAP1 DIV PUSH20 0xFFFFFFFFFFFFFFFFFFFFFFFFFFFFFFFFFFFFFFFF AND SWAP1 DUP1 PUSH1 0x5 ADD PUSH1 0x15 SWAP1 SLOAD SWAP1 PUSH2 0x100 EXP SWAP1 DIV PUSH1 0xFF AND SWAP1 POP DUP9 JUMP JUMPDEST PUSH0 DUP1 PUSH2 0x997 PUSH2 0x1B06 JUMP JUMPDEST SWAP1 POP PUSH2 0x9A4 DUP2 DUP6 DUP6 PUSH2 0x1B0D JUMP JUMPDEST PUSH1 0x1 SWAP2 POP POP SWAP3 SWAP2 POP POP JUMP JUMPDEST PUSH8 0xDE0B6B3A7640000 DUP2 JUMP JUMPDEST PUSH0 PUSH1 0x2 SLOAD SWAP1 POP SWAP1 JUMP JUMPDEST PUSH0 DUP1 PUSH2 0x9CE PUSH2 0x1B06 JUMP JUMPDEST SWAP1 POP PUSH2 0x9DB DUP6 DUP3 DUP6 PUSH2 0x1B1F JUMP JUMPDEST PUSH2 0x9E6 DUP6 DUP6 DUP6 PUSH2 0x1BB2 JUMP JUMPDEST PUSH1 0x1 SWAP2 POP POP SWAP4 SWAP3 POP POP POP JUMP JUMPDEST PUSH0 PUSH1 0x5 PUSH0 DUP4 DUP2 MSTORE PUSH1 0x20 ADD SWAP1 DUP2 MSTORE PUSH1 0x20 ADD PUSH0 KECCAK256 PUSH1 0x1 ADD SLOAD SWAP1 POP SWAP2 SWAP1 POP JUMP JUMPDEST PUSH2 0xA18 DUP3 PUSH2 0x9F2 JUMP JUMPDEST PUSH2 0xA21 DUP2 PUSH2 0x1CA2 JUMP JUMPDEST PUSH2 0xA2B DUP4 DUP4 PUSH2 0x1CB6 JUMP JUMPDEST POP POP POP POP JUMP JUMPDEST PUSH0 PUSH1 0x12 SWAP1 POP SWAP1 JUMP JUMPDEST PUSH0 DUP3 GT DUP1 ISZERO PUSH2 0xA47 JUMPI POP PUSH0 DUP4 GT JUMPDEST PUSH2 0xA86 JUMPI PUSH1 0x40 MLOAD PUSH32 0x8C379A000000000000000000000000000000000000000000000000000000000 DUP2 MSTORE PUSH1 0x4 ADD PUSH2 0xA7D SWAP1 PUSH2 0x2FCF JUMP JUMPDEST PUSH1 0x40 MLOAD DUP1 SWAP2 SUB SWAP1 REVERT JUMPDEST PUSH0 PUSH1 0x7 PUSH0 DUP2 SLOAD DUP1 SWAP3 SWAP2 SWAP1 PUSH2 0xA99 SWAP1 PUSH2 0x301A JUMP JUMPDEST SWAP2 SWAP1 POP SSTORE SWAP1 POP PUSH1 0x40 MLOAD DUP1 PUSH2 0x100 ADD PUSH1 0x40 MSTORE DUP1 DUP3 DUP2 MSTORE PUSH1 0x20 ADD CALLER PUSH20 0xFFFFFFFFFFFFFFFFFFFFFFFFFFFFFFFFFFFFFFFF AND DUP2 MSTORE PUSH1 0x20 ADD DUP7 DUP2 MSTORE PUSH1 0x20 ADD DUP6 DUP2 MSTORE PUSH1 0x20 ADD DUP5 DUP2 MSTORE PUSH1 0x20 ADD PUSH0 PUSH1 0x6 DUP2 GT ISZERO PUSH2 0xAF2 JUMPI PUSH2 0xAF1 PUSH2 0x29EC JUMP JUMPDEST JUMPDEST DUP2 MSTORE PUSH1 0x20 ADD CALLER PUSH20 0xFFFFFFFFFFFFFFFFFFFFFFFFFFFFFFFFFFFFFFFF AND DUP2 MSTORE PUSH1 0x20 ADD DUP4 ISZERO ISZERO DUP2 MSTORE POP PUSH1 0x6 PUSH0 DUP4 DUP2 MSTORE PUSH1 0x20 ADD SWAP1 DUP2 MSTORE PUSH1 0x20 ADD PUSH0 KECCAK256 PUSH0 DUP3 ADD MLOAD DUP2 PUSH0 ADD SSTORE PUSH1 0x20 DUP3 ADD MLOAD DUP2 PUSH1 0x1 ADD PUSH0 PUSH2 0x100 EXP DUP2 SLOAD DUP2 PUSH20 0xFFFFFFFFFFFFFFFFFFFFFFFFFFFFFFFFFFFFFFFF MUL NOT AND SWAP1 DUP4 PUSH20 0xFFFFFFFFFFFFFFFFFFFFFFFFFFFFFFFFFFFFFFFF AND MUL OR SWAP1 SSTORE POP PUSH1 0x40 DUP3 ADD MLOAD DUP2 PUSH1 0x2 ADD SWAP1 DUP2 PUSH2 0xB8D SWAP2 SWAP1 PUSH2 0x31FE JUMP JUMPDEST POP PUSH1 0x60 DUP3 ADD MLOAD DUP2 PUSH1 0x3 ADD SSTORE PUSH1 0x80 DUP3 ADD MLOAD DUP2 PUSH1 0x4 ADD SSTORE PUSH1 0xA0 DUP3 ADD MLOAD DUP2 PUSH1 0x5 ADD PUSH0 PUSH2 0x100 EXP DUP2 SLOAD DUP2 PUSH1 0xFF MUL NOT AND SWAP1 DUP4 PUSH1 0x6 DUP2 GT ISZERO PUSH2 0xBCC JUMPI PUSH2 0xBCB PUSH2 0x29EC JUMP JUMPDEST JUMPDEST MUL OR SWAP1 SSTORE POP PUSH1 0xC0 DUP3 ADD MLOAD DUP2 PUSH1 0x5 ADD PUSH1 0x1 PUSH2 0x100 EXP DUP2 SLOAD DUP2 PUSH20 0xFFFFFFFFFFFFFFFFFFFFFFFFFFFFFFFFFFFFFFFF MUL NOT AND SWAP1 DUP4 PUSH20 0xFFFFFFFFFFFFFFFFFFFFFFFFFFFFFFFFFFFFFFFF AND MUL OR SWAP1 SSTORE POP PUSH1 0xE0 DUP3 ADD MLOAD DUP2 PUSH1 0x5 ADD PUSH1 0x15 PUSH2 0x100 EXP DUP2 SLOAD DUP2 PUSH1 0xFF MUL NOT AND SWAP1 DUP4 ISZERO ISZERO MUL OR SWAP1 SSTORE POP SWAP1 POP POP CALLER PUSH20 0xFFFFFFFFFFFFFFFFFFFFFFFFFFFFFFFFFFFFFFFF AND DUP2 PUSH32 0x46D5E1FA50133F2AD2B0346FF4A3F42484FE3BB406C6C15FD7AE095D10B12581 DUP6 DUP8 PUSH1 0x40 MLOAD PUSH2 0xC84 SWAP3 SWAP2 SWAP1 PUSH2 0x32CD JUMP JUMPDEST PUSH1 0x40 MLOAD DUP1 SWAP2 SUB SWAP1 LOG3 POP POP POP POP POP JUMP JUMPDEST PUSH32 0x14CF45180C3FCF249A5A305E9657EA05C14FD4F4E1800EE0216A8213091711D2 PUSH2 0xCBD DUP2 PUSH2 0x1CA2 JUMP JUMPDEST PUSH0 PUSH1 0x6 DUP2 GT ISZERO PUSH2 0xCD0 JUMPI PUSH2 0xCCF PUSH2 0x29EC JUMP JUMPDEST JUMPDEST PUSH1 0x6 PUSH0 DUP5 DUP2 MSTORE PUSH1 0x20 ADD SWAP1 DUP2 MSTORE PUSH1 0x20 ADD PUSH0 KECCAK256 PUSH1 0x5 ADD PUSH0 SWAP1 SLOAD SWAP1 PUSH2 0x100 EXP SWAP1 DIV PUSH1 0xFF AND PUSH1 0x6 DUP2 GT ISZERO PUSH2 0xD03 JUMPI PUSH2 0xD02 PUSH2 0x29EC JUMP JUMPDEST JUMPDEST EQ PUSH2 0xD43 JUMPI PUSH1 0x40 MLOAD PUSH32 0x8C379A000000000000000000000000000000000000000000000000000000000 DUP2 MSTORE PUSH1 0x4 ADD PUSH2 0xD3A SWAP1 PUSH2 0x333E JUMP JUMPDEST PUSH1 0x40 MLOAD DUP1 SWAP2 SUB SWAP1 REVERT JUMPDEST PUSH1 0x1 PUSH1 0x6 PUSH0 DUP5 DUP2 MSTORE PUSH1 0x20 ADD SWAP1 DUP2 MSTORE PUSH1 0x20 ADD PUSH0 KECCAK256 PUSH1 0x5 ADD PUSH0 PUSH2 0x100 EXP DUP2 SLOAD DUP2 PUSH1 0xFF MUL NOT AND SWAP1 DUP4 PUSH1 0x6 DUP2 GT ISZERO PUSH2 0xD7A JUMPI PUSH2 0xD79 PUSH2 0x29EC JUMP JUMPDEST JUMPDEST MUL OR SWAP1 SSTORE POP CALLER PUSH1 0x6 PUSH0 DUP5 DUP2 MSTORE PUSH1 0x20 ADD SWAP1 DUP2 MSTORE PUSH1 0x20 ADD PUSH0 KECCAK256 PUSH1 0x5 ADD PUSH1 0x1 PUSH2 0x100 EXP DUP2 SLOAD DUP2 PUSH20 0xFFFFFFFFFFFFFFFFFFFFFFFFFFFFFFFFFFFFFFFF MUL NOT AND SWAP1 DUP4 PUSH20 0xFFFFFFFFFFFFFFFFFFFFFFFFFFFFFFFFFFFFFFFF AND MUL OR SWAP1 SSTORE POP PUSH0 PUSH2 0xDDE DUP4 PUSH1 0x1 PUSH2 0x1DA0 JUMP JUMPDEST SWAP1 POP CALLER PUSH20 0xFFFFFFFFFFFFFFFFFFFFFFFFFFFFFFFFFFFFFFFF AND DUP4 PUSH32 0x2A18AE28442EC525B81831921D81B734CE7861D68A812E4546C7945075766F1D DUP4 PUSH1 0x40 MLOAD PUSH2 0xE27 SWAP2 SWAP1 PUSH2 0x2B4A JUMP JUMPDEST PUSH1 0x40 MLOAD DUP1 SWAP2 SUB SWAP1 LOG3 POP POP POP JUMP JUMPDEST PUSH2 0xE3C PUSH2 0x1B06 JUMP JUMPDEST PUSH20 0xFFFFFFFFFFFFFFFFFFFFFFFFFFFFFFFFFFFFFFFF AND DUP2 PUSH20 0xFFFFFFFFFFFFFFFFFFFFFFFFFFFFFFFFFFFFFFFF AND EQ PUSH2 0xEA0 JUMPI PUSH1 0x40 MLOAD PUSH32 0x6697B23200000000000000000000000000000000000000000000000000000000 DUP2 MSTORE PUSH1 0x4 ADD PUSH1 0x40 MLOAD DUP1 SWAP2 SUB SWAP1 REVERT JUMPDEST PUSH2 0xEAA DUP3 DUP3 PUSH2 0x1E25 JUMP JUMPDEST POP POP POP JUMP JUMPDEST PUSH32 0xB636CAC4A39CBEE3063D40395F1623A30746F1C8BC201CED0489C50A6345C755 DUP2 JUMP JUMPDEST PUSH7 0x2386F26FC10000 DUP2 JUMP JUMPDEST PUSH1 0x7 SLOAD DUP2 JUMP JUMPDEST PUSH0 DUP1 PUSH0 DUP4 PUSH20 0xFFFFFFFFFFFFFFFFFFFFFFFFFFFFFFFFFFFFFFFF AND PUSH20 0xFFFFFFFFFFFFFFFFFFFFFFFFFFFFFFFFFFFFFFFF AND DUP2 MSTORE PUSH1 0x20 ADD SWAP1 DUP2 MSTORE PUSH1 0x20 ADD PUSH0 KECCAK256 SLOAD SWAP1 POP SWAP2 SWAP1 POP JUMP JUMPDEST PUSH8 0x8AC7230489E80000 DUP2 JUMP JUMPDEST PUSH32 0xA49807205CE4D355092EF5A8A18F56E8913CF4A201FBE287825B095693C21775 DUP2 JUMP JUMPDEST PUSH32 0xAB5C443DD93B1877C3B155B5E3DDB79CB901FD6F9D2E3BD366F3216A80B889E7 PUSH2 0xF83 DUP2 PUSH2 0x1CA2 JUMP JUMPDEST PUSH1 0x2 PUSH1 0x6 DUP2 GT ISZERO PUSH2 0xF97 JUMPI PUSH2 0xF96 PUSH2 0x29EC JUMP JUMPDEST JUMPDEST PUSH1 0x6 PUSH0 DUP5 DUP2 MSTORE PUSH1 0x20 ADD SWAP1 DUP2 MSTORE PUSH1 0x20 ADD PUSH0 KECCAK256 PUSH1 0x5 ADD PUSH0 SWAP1 SLOAD SWAP1 PUSH2 0x100 EXP SWAP1 DIV PUSH1 0xFF AND PUSH1 0x6 DUP2 GT ISZERO PUSH2 0xFCA JUMPI PUSH2 0xFC9 PUSH2 0x29EC JUMP JUMPDEST JUMPDEST EQ PUSH2 0x100A JUMPI PUSH1 0x40 MLOAD PUSH32 0x8C379A000000000000000000000000000000000000000000000000000000000 DUP2 MSTORE PUSH1 0x4 ADD PUSH2 0x1001 SWAP1 PUSH2 0x333E JUMP JUMPDEST PUSH1 0x40 MLOAD DUP1 SWAP2 SUB SWAP1 REVERT JUMPDEST PUSH1 0x3 PUSH1 0x6 PUSH0 DUP5 DUP2 MSTORE PUSH1 0x20 ADD SWAP1 DUP2 MSTORE PUSH1 0x20 ADD PUSH0 KECCAK256 PUSH1 0x5 ADD PUSH0 PUSH2 0x100 EXP DUP2 SLOAD DUP2 PUSH1 0xFF MUL NOT AND SWAP1 DUP4 PUSH1 0x6 DUP2 GT ISZERO PUSH2 0x1041 JUMPI PUSH2 0x1040 PUSH2 0x29EC JUMP JUMPDEST JUMPDEST MUL OR SWAP1 SSTORE POP CALLER PUSH1 0x6 PUSH0 DUP5 DUP2 MSTORE PUSH1 0x20 ADD SWAP1 DUP2 MSTORE PUSH1 0x20 ADD PUSH0 KECCAK256 PUSH1 0x5 ADD PUSH1 0x1 PUSH2 0x100 EXP DUP2 SLOAD DUP2 PUSH20 0xFFFFFFFFFFFFFFFFFFFFFFFFFFFFFFFFFFFFFFFF MUL NOT AND SWAP1 DUP4 PUSH20 0xFFFFFFFFFFFFFFFFFFFFFFFFFFFFFFFFFFFFFFFF AND MUL OR SWAP1 SSTORE POP PUSH0 PUSH2 0x10A5 DUP4 PUSH1 0x3 PUSH2 0x1DA0 JUMP JUMPDEST SWAP1 POP CALLER PUSH20 0xFFFFFFFFFFFFFFFFFFFFFFFFFFFFFFFFFFFFFFFF AND DUP4 PUSH32 0xE5E46D59E99676FBF7547CE5CC7583DC849E2AF037032E0F6611224B75BB8967 DUP4 PUSH1 0x40 MLOAD PUSH2 0x10EE SWAP2 SWAP1 PUSH2 0x2B4A JUMP JUMPDEST PUSH1 0x40 MLOAD DUP1 SWAP2 SUB SWAP1 LOG3 POP POP POP JUMP JUMPDEST PUSH32 0x11D2C681BC9C10ED61F9A422C0DBAADDC4054CE58EC726ACA73E7E4D31BCD154 PUSH2 0x1125 DUP2 PUSH2 0x1CA2 JUMP JUMPDEST PUSH1 0x1 PUSH1 0x6 DUP2 GT ISZERO PUSH2 0x1139 JUMPI PUSH2 0x1138 PUSH2 0x29EC JUMP JUMPDEST JUMPDEST PUSH1 0x6 PUSH0 DUP5 DUP2 MSTORE PUSH1 0x20 ADD SWAP1 DUP2 MSTORE PUSH1 0x20 ADD PUSH0 KECCAK256 PUSH1 0x5 ADD PUSH0 SWAP1 SLOAD SWAP1 PUSH2 0x100 EXP SWAP1 DIV PUSH1 0xFF AND PUSH1 0x6 DUP2 GT ISZERO PUSH2 0x116C JUMPI PUSH2 0x116B PUSH2 0x29EC JUMP JUMPDEST JUMPDEST EQ DUP1 PUSH2 0x11BC JUMPI POP PUSH1 0x3 PUSH1 0x6 DUP2 GT ISZERO PUSH2 0x1187 JUMPI PUSH2 0x1186 PUSH2 0x29EC JUMP JUMPDEST JUMPDEST PUSH1 0x6 PUSH0 DUP5 DUP2 MSTORE PUSH1 0x20 ADD SWAP1 DUP2 MSTORE PUSH1 0x20 ADD PUSH0 KECCAK256 PUSH1 0x5 ADD PUSH0 SWAP1 SLOAD SWAP1 PUSH2 0x100 EXP SWAP1 DIV PUSH1 0xFF AND PUSH1 0x6 DUP2 GT ISZERO PUSH2 0x11BA JUMPI PUSH2 0x11B9 PUSH2 0x29EC JUMP JUMPDEST JUMPDEST EQ JUMPDEST PUSH2 0x11FB JUMPI PUSH1 0x40 MLOAD PUSH32 0x8C379A000000000000000000000000000000000000000000000000000000000 DUP2 MSTORE PUSH1 0x4 ADD PUSH2 0x11F2 SWAP1 PUSH2 0x333E JUMP JUMPDEST PUSH1 0x40 MLOAD DUP1 SWAP2 SUB SWAP1 REVERT JUMPDEST PUSH1 0x4 PUSH1 0x6 PUSH0 DUP5 DUP2 MSTORE PUSH1 0x20 ADD SWAP1 DUP2 MSTORE PUSH1 0x20 ADD PUSH0 KECCAK256 PUSH1 0x5 ADD PUSH0 PUSH2 0x100 EXP DUP2 SLOAD DUP2 PUSH1 0xFF MUL NOT AND SWAP1 DUP4 PUSH1 0x6 DUP2 GT ISZERO PUSH2 0x1232 JUMPI PUSH2 0x1231 PUSH2 0x29EC JUMP JUMPDEST JUMPDEST MUL OR SWAP1 SSTORE POP CALLER PUSH1 0x6 PUSH0 DUP5 DUP2 MSTORE PUSH1 0x20 ADD SWAP1 DUP2 MSTORE PUSH1 0x20 ADD PUSH0 KECCAK256 PUSH1 0x5 ADD PUSH1 0x1 PUSH2 0x100 EXP DUP2 SLOAD DUP2 PUSH20 0xFFFFFFFFFFFFFFFFFFFFFFFFFFFFFFFFFFFFFFFF MUL NOT AND SWAP1 DUP4 PUSH20 0xFFFFFFFFFFFFFFFFFFFFFFFFFFFFFFFFFFFFFFFF AND MUL OR SWAP1 SSTORE POP PUSH0 PUSH2 0x1296 DUP4 PUSH1 0x4 PUSH2 0x1DA0 JUMP JUMPDEST SWAP1 POP CALLER PUSH20 0xFFFFFFFFFFFFFFFFFFFFFFFFFFFFFFFFFFFFFFFF AND DUP4 PUSH32 0x3F0BDD39C575256B0686BBBC300A04A9C5828C01F9CC42A0179879B48B8EEDDF DUP4 PUSH1 0x40 MLOAD PUSH2 0x12DF SWAP2 SWAP1 PUSH2 0x2B4A JUMP JUMPDEST PUSH1 0x40 MLOAD DUP1 SWAP2 SUB SWAP1 LOG3 POP POP POP JUMP JUMPDEST PUSH32 0xB636CAC4A39CBEE3063D40395F1623A30746F1C8BC201CED0489C50A6345C755 PUSH2 0x1316 DUP2 PUSH2 0x1CA2 JUMP JUMPDEST PUSH1 0x4 PUSH1 0x6 DUP2 GT ISZERO PUSH2 0x132A JUMPI PUSH2 0x1329 PUSH2 0x29EC JUMP JUMPDEST JUMPDEST PUSH1 0x6 PUSH0 DUP5 DUP2 MSTORE PUSH1 0x20 ADD SWAP1 DUP2 MSTORE PUSH1 0x20 ADD PUSH0 KECCAK256 PUSH1 0x5 ADD PUSH0 SWAP1 SLOAD SWAP1 PUSH2 0x100 EXP SWAP1 DIV PUSH1 0xFF AND PUSH1 0x6 DUP2 GT ISZERO PUSH2 0x135D JUMPI PUSH2 0x135C PUSH2 0x29EC JUMP JUMPDEST JUMPDEST EQ PUSH2 0x139D JUMPI PUSH1 0x40 MLOAD PUSH32 0x8C379A000000000000000000000000000000000000000000000000000000000 DUP2 MSTORE PUSH1 0x4 ADD PUSH2 0x1394 SWAP1 PUSH2 0x333E JUMP JUMPDEST PUSH1 0x40 MLOAD DUP1 SWAP2 SUB SWAP1 REVERT JUMPDEST PUSH1 0x5 PUSH1 0x6 PUSH0 DUP5 DUP2 MSTORE PUSH1 0x20 ADD SWAP1 DUP2 MSTORE PUSH1 0x20 ADD PUSH0 KECCAK256 PUSH1 0x5 ADD PUSH0 PUSH2 0x100 EXP DUP2 SLOAD DUP2 PUSH1 0xFF MUL NOT AND SWAP1 DUP4 PUSH1 0x6 DUP2 GT ISZERO PUSH2 0x13D4 JUMPI PUSH2 0x13D3 PUSH2 0x29EC JUMP JUMPDEST JUMPDEST MUL OR SWAP1 SSTORE POP CALLER PUSH1 0x6 PUSH0 DUP5 DUP2 MSTORE PUSH1 0x20 ADD SWAP1 DUP2 MSTORE PUSH1 0x20 ADD PUSH0 KECCAK256 PUSH1 0x5 ADD PUSH1 0x1 PUSH2 0x100 EXP DUP2 SLOAD DUP2 PUSH20 0xFFFFFFFFFFFFFFFFFFFFFFFFFFFFFFFFFFFFFFFF MUL NOT AND SWAP1 DUP4 PUSH20 0xFFFFFFFFFFFFFFFFFFFFFFFFFFFFFFFFFFFFFFFF AND MUL OR SWAP1 SSTORE POP PUSH0 PUSH2 0x1438 DUP4 PUSH1 0x5 PUSH2 0x1DA0 JUMP JUMPDEST SWAP1 POP CALLER PUSH20 0xFFFFFFFFFFFFFFFFFFFFFFFFFFFFFFFFFFFFFFFF AND DUP4 PUSH32 0x77B29112F6BBAF1890EC3F52FB1F9EF0367E0BABD3BCB3AA7D123B7A7734A54C DUP4 PUSH1 0x40 MLOAD PUSH2 0x1481 SWAP2 SWAP1 PUSH2 0x2B4A JUMP JUMPDEST PUSH1 0x40 MLOAD DUP1 SWAP2 SUB SWAP1 LOG3 POP POP POP JUMP JUMPDEST PUSH0 PUSH1 0x5 PUSH0 DUP5 DUP2 MSTORE PUSH1 0x20 ADD SWAP1 DUP2 MSTORE PUSH1 0x20 ADD PUSH0 KECCAK256 PUSH0 ADD PUSH0 DUP4 PUSH20 0xFFFFFFFFFFFFFFFFFFFFFFFFFFFFFFFFFFFFFFFF AND PUSH20 0xFFFFFFFFFFFFFFFFFFFFFFFFFFFFFFFFFFFFFFFF AND DUP2 MSTORE PUSH1 0x20 ADD SWAP1 DUP2 MSTORE PUSH1 0x20 ADD PUSH0 KECCAK256 PUSH0 SWAP1 SLOAD SWAP1 PUSH2 0x100 EXP SWAP1 DIV PUSH1 0xFF AND SWAP1 POP SWAP3 SWAP2 POP POP JUMP JUMPDEST PUSH1 0x60 PUSH1 0x4 DUP1 SLOAD PUSH2 0x1501 SWAP1 PUSH2 0x2F55 JUMP JUMPDEST DUP1 PUSH1 0x1F ADD PUSH1 0x20 DUP1 SWAP2 DIV MUL PUSH1 0x20 ADD PUSH1 0x40 MLOAD SWAP1 DUP2 ADD PUSH1 0x40 MSTORE DUP1 SWAP3 SWAP2 SWAP1 DUP2 DUP2 MSTORE PUSH1 0x20 ADD DUP3 DUP1 SLOAD PUSH2 0x152D SWAP1 PUSH2 0x2F55 JUMP JUMPDEST DUP1 ISZERO PUSH2 0x1578 JUMPI DUP1 PUSH1 0x1F LT PUSH2 0x154F JUMPI PUSH2 0x100 DUP1 DUP4 SLOAD DIV MUL DUP4 MSTORE SWAP2 PUSH1 0x20 ADD SWAP2 PUSH2 0x1578 JUMP JUMPDEST DUP3 ADD SWAP2 SWAP1 PUSH0 MSTORE PUSH1 0x20 PUSH0 KECCAK256 SWAP1 JUMPDEST DUP2 SLOAD DUP2 MSTORE SWAP1 PUSH1 0x1 ADD SWAP1 PUSH1 0x20 ADD DUP1 DUP4 GT PUSH2 0x155B JUMPI DUP3 SWAP1 SUB PUSH1 0x1F AND DUP3 ADD SWAP2 JUMPDEST POP POP POP POP POP SWAP1 POP SWAP1 JUMP JUMPDEST PUSH32 0x14CF45180C3FCF249A5A305E9657EA05C14FD4F4E1800EE0216A8213091711D2 PUSH2 0x15AC DUP2 PUSH2 0x1CA2 JUMP JUMPDEST PUSH1 0x1 PUSH1 0x6 DUP2 GT ISZERO PUSH2 0x15C0 JUMPI PUSH2 0x15BF PUSH2 0x29EC JUMP JUMPDEST JUMPDEST PUSH1 0x6 PUSH0 DUP5 DUP2 MSTORE PUSH1 0x20 ADD SWAP1 DUP2 MSTORE PUSH1 0x20 ADD PUSH0 KECCAK256 PUSH1 0x5 ADD PUSH0 SWAP1 SLOAD SWAP1 PUSH2 0x100 EXP SWAP1 DIV PUSH1 0xFF AND PUSH1 0x6 DUP2 GT ISZERO PUSH2 0x15F3 JUMPI PUSH2 0x15F2 PUSH2 0x29EC JUMP JUMPDEST JUMPDEST EQ PUSH2 0x1633 JUMPI PUSH1 0x40 MLOAD PUSH32 0x8C379A000000000000000000000000000000000000000000000000000000000 DUP2 MSTORE PUSH1 0x4 ADD PUSH2 0x162A SWAP1 PUSH2 0x333E JUMP JUMPDEST PUSH1 0x40 MLOAD DUP1 SWAP2 SUB SWAP1 REVERT JUMPDEST PUSH1 0x6 PUSH0 DUP4 DUP2 MSTORE PUSH1 0x20 ADD SWAP1 DUP2 MSTORE PUSH1 0x20 ADD PUSH0 KECCAK256 PUSH1 0x5 ADD PUSH1 0x15 SWAP1 SLOAD SWAP1 PUSH2 0x100 EXP SWAP1 DIV PUSH1 0xFF AND PUSH2 0x1694 JUMPI PUSH1 0x40 MLOAD PUSH32 0x8C379A000000000000000000000000000000000000000000000000000000000 DUP2 MSTORE PUSH1 0x4 ADD PUSH2 0x168B SWAP1 PUSH2 0x33A6 JUMP JUMPDEST PUSH1 0x40 MLOAD DUP1 SWAP2 SUB SWAP1 REVERT JUMPDEST PUSH1 0x2 PUSH1 0x6 PUSH0 DUP5 DUP2 MSTORE PUSH1 0x20 ADD SWAP1 DUP2 MSTORE PUSH1 0x20 ADD PUSH0 KECCAK256 PUSH1 0x5 ADD PUSH0 PUSH2 0x100 EXP DUP2 SLOAD DUP2 PUSH1 0xFF MUL NOT AND SWAP1 DUP4 PUSH1 0x6 DUP2 GT ISZERO PUSH2 0x16CB JUMPI PUSH2 0x16CA PUSH2 0x29EC JUMP JUMPDEST JUMPDEST MUL OR SWAP1 SSTORE POP CALLER PUSH20 0xFFFFFFFFFFFFFFFFFFFFFFFFFFFFFFFFFFFFFFFF AND DUP3 PUSH32 0xD0FF3B517D0C850B614729642E089A59AEA81EB4BA36827EAFE9B43B404DA0D7 PUSH1 0x40 MLOAD PUSH1 0x40 MLOAD DUP1 SWAP2 SUB SWAP1 LOG3 POP POP JUMP JUMPDEST PUSH32 0x14CF45180C3FCF249A5A305E9657EA05C14FD4F4E1800EE0216A8213091711D2 DUP2 JUMP JUMPDEST PUSH0 DUP1 SHL DUP2 JUMP JUMPDEST PUSH32 0xA49807205CE4D355092EF5A8A18F56E8913CF4A201FBE287825B095693C21775 PUSH2 0x176C DUP2 PUSH2 0x1CA2 JUMP JUMPDEST PUSH2 0x1776 DUP3 DUP5 PUSH2 0xA0F JUMP JUMPDEST POP POP POP JUMP JUMPDEST PUSH0 DUP1 PUSH2 0x1785 PUSH2 0x1B06 JUMP JUMPDEST SWAP1 POP PUSH2 0x1792 DUP2 DUP6 DUP6 PUSH2 0x1BB2 JUMP JUMPDEST PUSH1 0x1 SWAP2 POP POP SWAP3 SWAP2 POP POP JUMP JUMPDEST PUSH8 0x6F05B59D3B200000 DUP2 JUMP JUMPDEST PUSH32 0xAB5C443DD93B1877C3B155B5E3DDB79CB901FD6F9D2E3BD366F3216A80B889E7 DUP2 JUMP JUMPDEST PUSH32 0x11D2C681BC9C10ED61F9A422C0DBAADDC4054CE58EC726ACA73E7E4D31BCD154 DUP2 JUMP JUMPDEST PUSH8 0x6124FEE993BC0000 DUP2 JUMP JUMPDEST PUSH8 0x4563918244F40000 DUP2 JUMP JUMPDEST PUSH2 0x1812 DUP3 PUSH2 0x9F2 JUMP JUMPDEST PUSH2 0x181B DUP2 PUSH2 0x1CA2 JUMP JUMPDEST PUSH2 0x1825 DUP4 DUP4 PUSH2 0x1E25 JUMP JUMPDEST POP POP POP POP JUMP JUMPDEST PUSH1 0x5 PUSH1 0x6 DUP2 GT ISZERO PUSH2 0x183F JUMPI PUSH2 0x183E PUSH2 0x29EC JUMP JUMPDEST JUMPDEST PUSH1 0x6 PUSH0 DUP4 DUP2 MSTORE PUSH1 0x20 ADD SWAP1 DUP2 MSTORE PUSH1 0x20 ADD PUSH0 KECCAK256 PUSH1 0x5 ADD PUSH0 SWAP1 SLOAD SWAP1 PUSH2 0x100 EXP SWAP1 DIV PUSH1 0xFF AND PUSH1 0x6 DUP2 GT ISZERO PUSH2 0x1872 JUMPI PUSH2 0x1871 PUSH2 0x29EC JUMP JUMPDEST JUMPDEST EQ PUSH2 0x18B2 JUMPI PUSH1 0x40 MLOAD PUSH32 0x8C379A000000000000000000000000000000000000000000000000000000000 DUP2 MSTORE PUSH1 0x4 ADD PUSH2 0x18A9 SWAP1 PUSH2 0x333E JUMP JUMPDEST PUSH1 0x40 MLOAD DUP1 SWAP2 SUB SWAP1 REVERT JUMPDEST CALLER PUSH20 0xFFFFFFFFFFFFFFFFFFFFFFFFFFFFFFFFFFFFFFFF AND PUSH1 0x6 PUSH0 DUP4 DUP2 MSTORE PUSH1 0x20 ADD SWAP1 DUP2 MSTORE PUSH1 0x20 ADD PUSH0 KECCAK256 PUSH1 0x5 ADD PUSH1 0x1 SWAP1 SLOAD SWAP1 PUSH2 0x100 EXP SWAP1 DIV PUSH20 0xFFFFFFFFFFFFFFFFFFFFFFFFFFFFFFFFFFFFFFFF AND PUSH20 0xFFFFFFFFFFFFFFFFFFFFFFFFFFFFFFFFFFFFFFFF AND EQ PUSH2 0x1954 JUMPI PUSH1 0x40 MLOAD PUSH32 0x8C379A000000000000000000000000000000000000000000000000000000000 DUP2 MSTORE PUSH1 0x4 ADD PUSH2 0x194B SWAP1 PUSH2 0x340E JUMP JUMPDEST PUSH1 0x40 MLOAD DUP1 SWAP2 SUB SWAP1 REVERT JUMPDEST PUSH1 0x6 DUP1 PUSH0 DUP4 DUP2 MSTORE PUSH1 0x20 ADD SWAP1 DUP2 MSTORE PUSH1 0x20 ADD PUSH0 KECCAK256 PUSH1 0x5 ADD PUSH0 PUSH2 0x100 EXP DUP2 SLOAD DUP2 PUSH1 0xFF MUL NOT AND SWAP1 DUP4 PUSH1 0x6 DUP2 GT ISZERO PUSH2 0x198A JUMPI PUSH2 0x1989 PUSH2 0x29EC JUMP JUMPDEST JUMPDEST MUL OR SWAP1 SSTORE POP CALLER PUSH20 0xFFFFFFFFFFFFFFFFFFFFFFFFFFFFFFFFFFFFFFFF AND DUP2 PUSH32 0x278AB484A5DB5FC05F3A869B94767B4A630943A85F774AA97A69AEDB086C269C PUSH1 0x40 MLOAD PUSH1 0x40 MLOAD DUP1 SWAP2 SUB SWAP1 LOG3 POP JUMP JUMPDEST PUSH0 PUSH1 0x1 PUSH0 DUP5 PUSH20 0xFFFFFFFFFFFFFFFFFFFFFFFFFFFFFFFFFFFFFFFF AND PUSH20 0xFFFFFFFFFFFFFFFFFFFFFFFFFFFFFFFFFFFFFFFF AND DUP2 MSTORE PUSH1 0x20 ADD SWAP1 DUP2 MSTORE PUSH1 0x20 ADD PUSH0 KECCAK256 PUSH0 DUP4 PUSH20 0xFFFFFFFFFFFFFFFFFFFFFFFFFFFFFFFFFFFFFFFF AND PUSH20 0xFFFFFFFFFFFFFFFFFFFFFFFFFFFFFFFFFFFFFFFF AND DUP2 MSTORE PUSH1 0x20 ADD SWAP1 DUP2 MSTORE PUSH1 0x20 ADD PUSH0 KECCAK256 SLOAD SWAP1 POP SWAP3 SWAP2 POP POP JUMP JUMPDEST PUSH8 0x53444835EC580000 DUP2 JUMP JUMPDEST PUSH32 0xA49807205CE4D355092EF5A8A18F56E8913CF4A201FBE287825B095693C21775 PUSH2 0x1A8E DUP2 PUSH2 0x1CA2 JUMP JUMPDEST PUSH2 0x1A98 DUP4 DUP4 PUSH2 0x1F0F JUMP JUMPDEST POP POP POP JUMP JUMPDEST PUSH0 PUSH32 0x1FFC9A700000000000000000000000000000000000000000000000000000000 PUSH28 0xFFFFFFFFFFFFFFFFFFFFFFFFFFFFFFFFFFFFFFFFFFFFFFFFFFFFFFFF NOT AND DUP3 PUSH28 0xFFFFFFFFFFFFFFFFFFFFFFFFFFFFFFFFFFFFFFFFFFFFFFFFFFFFFFFF NOT AND EQ SWAP1 POP SWAP2 SWAP1 POP JUMP JUMPDEST PUSH0 CALLER SWAP1 POP SWAP1 JUMP JUMPDEST PUSH2 0x1B1A DUP4 DUP4 DUP4 PUSH1 0x1 PUSH2 0x1F8E JUMP JUMPDEST POP POP POP JUMP JUMPDEST PUSH0 PUSH2 0x1B2A DUP5 DUP5 PUSH2 0x19D6 JUMP JUMPDEST SWAP1 POP PUSH32 0xFFFFFFFFFFFFFFFFFFFFFFFFFFFFFFFFFFFFFFFFFFFFFFFFFFFFFFFFFFFFFFFF DUP2 LT ISZERO PUSH2 0x1BAC JUMPI DUP2 DUP2 LT ISZERO PUSH2 0x1B9D JUMPI DUP3 DUP2 DUP4 PUSH1 0x40 MLOAD PUSH32 0xFB8F41B200000000000000000000000000000000000000000000000000000000 DUP2 MSTORE PUSH1 0x4 ADD PUSH2 0x1B94 SWAP4 SWAP3 SWAP2 SWAP1 PUSH2 0x342C JUMP JUMPDEST PUSH1 0x40 MLOAD DUP1 SWAP2 SUB SWAP1 REVERT JUMPDEST PUSH2 0x1BAB DUP5 DUP5 DUP5 DUP5 SUB PUSH0 PUSH2 0x1F8E JUMP JUMPDEST JUMPDEST POP POP POP POP JUMP JUMPDEST PUSH0 PUSH20 0xFFFFFFFFFFFFFFFFFFFFFFFFFFFFFFFFFFFFFFFF AND DUP4 PUSH20 0xFFFFFFFFFFFFFFFFFFFFFFFFFFFFFFFFFFFFFFFF AND SUB PUSH2 0x1C22 JUMPI PUSH0 PUSH1 0x40 MLOAD PUSH32 0x96C6FD1E00000000000000000000000000000000000000000000000000000000 DUP2 MSTORE PUSH1 0x4 ADD PUSH2 0x1C19 SWAP2 SWAP1 PUSH2 0x3461 JUMP JUMPDEST PUSH1 0x40 MLOAD DUP1 SWAP2 SUB SWAP1 REVERT JUMPDEST PUSH0 PUSH20 0xFFFFFFFFFFFFFFFFFFFFFFFFFFFFFFFFFFFFFFFF AND DUP3 PUSH20 0xFFFFFFFFFFFFFFFFFFFFFFFFFFFFFFFFFFFFFFFF AND SUB PUSH2 0x1C92 JUMPI PUSH0 PUSH1 0x40 MLOAD PUSH32 0xEC442F0500000000000000000000000000000000000000000000000000000000 DUP2 MSTORE PUSH1 0x4 ADD PUSH2 0x1C89 SWAP2 SWAP1 PUSH2 0x3461 JUMP JUMPDEST PUSH1 0x40 MLOAD DUP1 SWAP2 SUB SWAP1 REVERT JUMPDEST PUSH2 0x1C9D DUP4 DUP4 DUP4 PUSH2 0x215D JUMP JUMPDEST POP POP POP JUMP JUMPDEST PUSH2 0x1CB3 DUP2 PUSH2 0x1CAE PUSH2 0x1B06 JUMP JUMPDEST PUSH2 0x2376 JUMP JUMPDEST POP JUMP JUMPDEST PUSH0 PUSH2 0x1CC1 DUP4 DUP4 PUSH2 0x148E JUMP JUMPDEST PUSH2 0x1D96 JUMPI PUSH1 0x1 PUSH1 0x5 PUSH0 DUP6 DUP2 MSTORE PUSH1 0x20 ADD SWAP1 DUP2 MSTORE PUSH1 0x20 ADD PUSH0 KECCAK256 PUSH0 ADD PUSH0 DUP5 PUSH20 0xFFFFFFFFFFFFFFFFFFFFFFFFFFFFFFFFFFFFFFFF AND PUSH20 0xFFFFFFFFFFFFFFFFFFFFFFFFFFFFFFFFFFFFFFFF AND DUP2 MSTORE PUSH1 0x20 ADD SWAP1 DUP2 MSTORE PUSH1 0x20 ADD PUSH0 KECCAK256 PUSH0 PUSH2 0x100 EXP DUP2 SLOAD DUP2 PUSH1 0xFF MUL NOT AND SWAP1 DUP4 ISZERO ISZERO MUL OR SWAP1 SSTORE POP PUSH2 0x1D33 PUSH2 0x1B06 JUMP JUMPDEST PUSH20 0xFFFFFFFFFFFFFFFFFFFFFFFFFFFFFFFFFFFFFFFF AND DUP3 PUSH20 0xFFFFFFFFFFFFFFFFFFFFFFFFFFFFFFFFFFFFFFFF AND DUP5 PUSH32 0x2F8788117E7EFF1D82E926EC794901D17C78024A50270940304540A733656F0D PUSH1 0x40 MLOAD PUSH1 0x40 MLOAD DUP1 SWAP2 SUB SWAP1 LOG4 PUSH1 0x1 SWAP1 POP PUSH2 0x1D9A JUMP JUMPDEST PUSH0 SWAP1 POP JUMPDEST SWAP3 SWAP2 POP POP JUMP JUMPDEST PUSH0 DUP1 PUSH0 DUP1 PUSH2 0x1DAE DUP7 DUP7 PUSH2 0x23C7 JUMP JUMPDEST SWAP3 POP SWAP3 POP SWAP3 POP PUSH0 DUP2 DUP4 DUP6 PUSH2 0x1DC2 SWAP2 SWAP1 PUSH2 0x347A JUMP JUMPDEST PUSH2 0x1DCC SWAP2 SWAP1 PUSH2 0x347A JUMP JUMPDEST SWAP1 POP PUSH2 0x1DD8 CALLER DUP3 PUSH2 0x1F0F JUMP JUMPDEST DUP7 PUSH32 0x8841D639BA79954A7C240DDE37B5D6E3990383DC2F87C13E288E408108EFB457 DUP8 DUP7 DUP7 DUP7 DUP7 PUSH1 0x40 MLOAD PUSH2 0x1E10 SWAP6 SWAP5 SWAP4 SWAP3 SWAP2 SWAP1 PUSH2 0x34AD JUMP JUMPDEST PUSH1 0x40 MLOAD DUP1 SWAP2 SUB SWAP1 LOG2 DUP1 SWAP5 POP POP POP POP POP SWAP3 SWAP2 POP POP JUMP JUMPDEST PUSH0 PUSH2 0x1E30 DUP4 DUP4 PUSH2 0x148E JUMP JUMPDEST ISZERO PUSH2 0x1F05 JUMPI PUSH0 PUSH1 0x5 PUSH0 DUP6 DUP2 MSTORE PUSH1 0x20 ADD SWAP1 DUP2 MSTORE PUSH1 0x20 ADD PUSH0 KECCAK256 PUSH0 ADD PUSH0 DUP5 PUSH20 0xFFFFFFFFFFFFFFFFFFFFFFFFFFFFFFFFFFFFFFFF AND PUSH20 0xFFFFFFFFFFFFFFFFFFFFFFFFFFFFFFFFFFFFFFFF AND DUP2 MSTORE PUSH1 0x20 ADD SWAP1 DUP2 MSTORE PUSH1 0x20 ADD PUSH0 KECCAK256 PUSH0 PUSH2 0x100 EXP DUP2 SLOAD DUP2 PUSH1 0xFF MUL NOT AND SWAP1 DUP4 ISZERO ISZERO MUL OR SWAP1 SSTORE POP PUSH2 0x1EA2 PUSH2 0x1B06 JUMP JUMPDEST PUSH20 0xFFFFFFFFFFFFFFFFFFFFFFFFFFFFFFFFFFFFFFFF AND DUP3 PUSH20 0xFFFFFFFFFFFFFFFFFFFFFFFFFFFFFFFFFFFFFFFF AND DUP5 PUSH32 0xF6391F5C32D9C69D2A47EA670B442974B53935D1EDC7FD64EB21E047A839171B PUSH1 0x40 MLOAD PUSH1 0x40 MLOAD DUP1 SWAP2 SUB SWAP1 LOG4 PUSH1 0x1 SWAP1 POP PUSH2 0x1F09 JUMP JUMPDEST PUSH0 SWAP1 POP JUMPDEST SWAP3 SWAP2 POP POP JUMP JUMPDEST PUSH0 PUSH20 0xFFFFFFFFFFFFFFFFFFFFFFFFFFFFFFFFFFFFFFFF AND DUP3 PUSH20 0xFFFFFFFFFFFFFFFFFFFFFFFFFFFFFFFFFFFFFFFF AND SUB PUSH2 0x1F7F JUMPI PUSH0 PUSH1 0x40 MLOAD PUSH32 0xEC442F0500000000000000000000000000000000000000000000000000000000 DUP2 MSTORE PUSH1 0x4 ADD PUSH2 0x1F76 SWAP2 SWAP1 PUSH2 0x3461 JUMP JUMPDEST PUSH1 0x40 MLOAD DUP1 SWAP2 SUB SWAP1 REVERT JUMPDEST PUSH2 0x1F8A PUSH0 DUP4 DUP4 PUSH2 0x215D JUMP JUMPDEST POP POP JUMP JUMPDEST PUSH0 PUSH20 0xFFFFFFFFFFFFFFFFFFFFFFFFFFFFFFFFFFFFFFFF AND DUP5 PUSH20 0xFFFFFFFFFFFFFFFFFFFFFFFFFFFFFFFFFFFFFFFF AND SUB PUSH2 0x1FFE JUMPI PUSH0 PUSH1 0x40 MLOAD PUSH32 0xE602DF0500000000000000000000000000000000000000000000000000000000 DUP2 MSTORE PUSH1 0x4 ADD PUSH2 0x1FF5 SWAP2 SWAP1 PUSH2 0x3461 JUMP JUMPDEST PUSH1 0x40 MLOAD DUP1 SWAP2 SUB SWAP1 REVERT JUMPDEST PUSH0 PUSH20 0xFFFFFFFFFFFFFFFFFFFFFFFFFFFFFFFFFFFFFFFF AND DUP4 PUSH20 0xFFFFFFFFFFFFFFFFFFFFFFFFFFFFFFFFFFFFFFFF AND SUB PUSH2 0x206E JUMPI PUSH0 PUSH1 0x40 MLOAD PUSH32 0x94280D6200000000000000000000000000000000000000000000000000000000 DUP2 MSTORE PUSH1 0x4 ADD PUSH2 0x2065 SWAP2 SWAP1 PUSH2 0x3461 JUMP JUMPDEST PUSH1 0x40 MLOAD DUP1 SWAP2 SUB SWAP1 REVERT JUMPDEST DUP2 PUSH1 0x1 PUSH0 DUP7 PUSH20 0xFFFFFFFFFFFFFFFFFFFFFFFFFFFFFFFFFFFFFFFF AND PUSH20 0xFFFFFFFFFFFFFFFFFFFFFFFFFFFFFFFFFFFFFFFF AND DUP2 MSTORE PUSH1 0x20 ADD SWAP1 DUP2 MSTORE PUSH1 0x20 ADD PUSH0 KECCAK256 PUSH0 DUP6 PUSH20 0xFFFFFFFFFFFFFFFFFFFFFFFFFFFFFFFFFFFFFFFF AND PUSH20 0xFFFFFFFFFFFFFFFFFFFFFFFFFFFFFFFFFFFFFFFF AND DUP2 MSTORE PUSH1 0x20 ADD SWAP1 DUP2 MSTORE PUSH1 0x20 ADD PUSH0 KECCAK256 DUP2 SWAP1 SSTORE POP DUP1 ISZERO PUSH2 0x2157 JUMPI DUP3 PUSH20 0xFFFFFFFFFFFFFFFFFFFFFFFFFFFFFFFFFFFFFFFF AND DUP5 PUSH20 0xFFFFFFFFFFFFFFFFFFFFFFFFFFFFFFFFFFFFFFFF AND PUSH32 0x8C5BE1E5EBEC7D5BD14F71427D1E84F3DD0314C0F7B2291E5B200AC8C7C3B925 DUP5 PUSH1 0x40 MLOAD PUSH2 0x214E SWAP2 SWAP1 PUSH2 0x2B4A JUMP JUMPDEST PUSH1 0x40 MLOAD DUP1 SWAP2 SUB SWAP1 LOG3 JUMPDEST POP POP POP POP JUMP JUMPDEST PUSH0 PUSH20 0xFFFFFFFFFFFFFFFFFFFFFFFFFFFFFFFFFFFFFFFF AND DUP4 PUSH20 0xFFFFFFFFFFFFFFFFFFFFFFFFFFFFFFFFFFFFFFFF AND SUB PUSH2 0x21AD JUMPI DUP1 PUSH1 0x2 PUSH0 DUP3 DUP3 SLOAD PUSH2 0x21A1 SWAP2 SWAP1 PUSH2 0x347A JUMP JUMPDEST SWAP3 POP POP DUP2 SWAP1 SSTORE POP PUSH2 0x227B JUMP JUMPDEST PUSH0 DUP1 PUSH0 DUP6 PUSH20 0xFFFFFFFFFFFFFFFFFFFFFFFFFFFFFFFFFFFFFFFF AND PUSH20 0xFFFFFFFFFFFFFFFFFFFFFFFFFFFFFFFFFFFFFFFF AND DUP2 MSTORE PUSH1 0x20 ADD SWAP1 DUP2 MSTORE PUSH1 0x20 ADD PUSH0 KECCAK256 SLOAD SWAP1 POP DUP2 DUP2 LT ISZERO PUSH2 0x2236 JUMPI DUP4 DUP2 DUP4 PUSH1 0x40 MLOAD PUSH32 0xE450D38C00000000000000000000000000000000000000000000000000000000 DUP2 MSTORE PUSH1 0x4 ADD PUSH2 0x222D SWAP4 SWAP3 SWAP2 SWAP1 PUSH2 0x342C JUMP JUMPDEST PUSH1 0x40 MLOAD DUP1 SWAP2 SUB SWAP1 REVERT JUMPDEST DUP2 DUP2 SUB PUSH0 DUP1 DUP7 PUSH20 0xFFFFFFFFFFFFFFFFFFFFFFFFFFFFFFFFFFFFFFFF AND PUSH20 0xFFFFFFFFFFFFFFFFFFFFFFFFFFFFFFFFFFFFFFFF AND DUP2 MSTORE PUSH1 0x20 ADD SWAP1 DUP2 MSTORE PUSH1 0x20 ADD PUSH0 KECCAK256 DUP2 SWAP1 SSTORE POP POP JUMPDEST PUSH0 PUSH20 0xFFFFFFFFFFFFFFFFFFFFFFFFFFFFFFFFFFFFFFFF AND DUP3 PUSH20 0xFFFFFFFFFFFFFFFFFFFFFFFFFFFFFFFFFFFFFFFF AND SUB PUSH2 0x22C2 JUMPI DUP1 PUSH1 0x2 PUSH0 DUP3 DUP3 SLOAD SUB SWAP3 POP POP DUP2 SWAP1 SSTORE POP PUSH2 0x230C JUMP JUMPDEST DUP1 PUSH0 DUP1 DUP5 PUSH20 0xFFFFFFFFFFFFFFFFFFFFFFFFFFFFFFFFFFFFFFFF AND PUSH20 0xFFFFFFFFFFFFFFFFFFFFFFFFFFFFFFFFFFFFFFFF AND DUP2 MSTORE PUSH1 0x20 ADD SWAP1 DUP2 MSTORE PUSH1 0x20 ADD PUSH0 KECCAK256 PUSH0 DUP3 DUP3 SLOAD ADD SWAP3 POP POP DUP2 SWAP1 SSTORE POP JUMPDEST DUP2 PUSH20 0xFFFFFFFFFFFFFFFFFFFFFFFFFFFFFFFFFFFFFFFF AND DUP4 PUSH20 0xFFFFFFFFFFFFFFFFFFFFFFFFFFFFFFFFFFFFFFFF AND PUSH32 0xDDF252AD1BE2C89B69C2B068FC378DAA952BA7F163C4A11628F55A4DF523B3EF DUP4 PUSH1 0x40 MLOAD PUSH2 0x2369 SWAP2 SWAP1 PUSH2 0x2B4A JUMP JUMPDEST PUSH1 0x40 MLOAD DUP1 SWAP2 SUB SWAP1 LOG3 POP POP POP JUMP JUMPDEST PUSH2 0x2380 DUP3 DUP3 PUSH2 0x148E JUMP JUMPDEST PUSH2 0x23C3 JUMPI DUP1 DUP3 PUSH1 0x40 MLOAD PUSH32 0xE2517D3F00000000000000000000000000000000000000000000000000000000 DUP2 MSTORE PUSH1 0x4 ADD PUSH2 0x23BA SWAP3 SWAP2 SWAP1 PUSH2 0x34FE JUMP JUMPDEST PUSH1 0x40 MLOAD DUP1 SWAP2 SUB SWAP1 REVERT JUMPDEST POP POP JUMP JUMPDEST PUSH0 DUP1 PUSH0 DUP1 PUSH1 0x6 PUSH0 DUP8 DUP2 MSTORE PUSH1 0x20 ADD SWAP1 DUP2 MSTORE PUSH1 0x20 ADD PUSH0 KECCAK256 PUSH1 0x40 MLOAD DUP1 PUSH2 0x100 ADD PUSH1 0x40 MSTORE SWAP1 DUP2 PUSH0 DUP3 ADD SLOAD DUP2 MSTORE PUSH1 0x20 ADD PUSH1 0x1 DUP3 ADD PUSH0 SWAP1 SLOAD SWAP1 PUSH2 0x100 EXP SWAP1 DIV PUSH20 0xFFFFFFFFFFFFFFFFFFFFFFFFFFFFFFFFFFFFFFFF AND PUSH20 0xFFFFFFFFFFFFFFFFFFFFFFFFFFFFFFFFFFFFFFFF AND PUSH20 0xFFFFFFFFFFFFFFFFFFFFFFFFFFFFFFFFFFFFFFFF AND DUP2 MSTORE PUSH1 0x20 ADD PUSH1 0x2 DUP3 ADD DUP1 SLOAD PUSH2 0x2456 SWAP1 PUSH2 0x2F55 JUMP JUMPDEST DUP1 PUSH1 0x1F ADD PUSH1 0x20 DUP1 SWAP2 DIV MUL PUSH1 0x20 ADD PUSH1 0x40 MLOAD SWAP1 DUP2 ADD PUSH1 0x40 MSTORE DUP1 SWAP3 SWAP2 SWAP1 DUP2 DUP2 MSTORE PUSH1 0x20 ADD DUP3 DUP1 SLOAD PUSH2 0x2482 SWAP1 PUSH2 0x2F55 JUMP JUMPDEST DUP1 ISZERO PUSH2 0x24CD JUMPI DUP1 PUSH1 0x1F LT PUSH2 0x24A4 JUMPI PUSH2 0x100 DUP1 DUP4 SLOAD DIV MUL DUP4 MSTORE SWAP2 PUSH1 0x20 ADD SWAP2 PUSH2 0x24CD JUMP JUMPDEST DUP3 ADD SWAP2 SWAP1 PUSH0 MSTORE PUSH1 0x20 PUSH0 KECCAK256 SWAP1 JUMPDEST DUP2 SLOAD DUP2 MSTORE SWAP1 PUSH1 0x1 ADD SWAP1 PUSH1 0x20 ADD DUP1 DUP4 GT PUSH2 0x24B0 JUMPI DUP3 SWAP1 SUB PUSH1 0x1F AND DUP3 ADD SWAP2 JUMPDEST POP POP POP POP POP DUP2 MSTORE PUSH1 0x20 ADD PUSH1 0x3 DUP3 ADD SLOAD DUP2 MSTORE PUSH1 0x20 ADD PUSH1 0x4 DUP3 ADD SLOAD DUP2 MSTORE PUSH1 0x20 ADD PUSH1 0x5 DUP3 ADD PUSH0 SWAP1 SLOAD SWAP1 PUSH2 0x100 EXP SWAP1 DIV PUSH1 0xFF AND PUSH1 0x6 DUP2 GT ISZERO PUSH2 0x250E JUMPI PUSH2 0x250D PUSH2 0x29EC JUMP JUMPDEST JUMPDEST PUSH1 0x6 DUP2 GT ISZERO PUSH2 0x2520 JUMPI PUSH2 0x251F PUSH2 0x29EC JUMP JUMPDEST JUMPDEST DUP2 MSTORE PUSH1 0x20 ADD PUSH1 0x5 DUP3 ADD PUSH1 0x1 SWAP1 SLOAD SWAP1 PUSH2 0x100 EXP SWAP1 DIV PUSH20 0xFFFFFFFFFFFFFFFFFFFFFFFFFFFFFFFFFFFFFFFF AND PUSH20 0xFFFFFFFFFFFFFFFFFFFFFFFFFFFFFFFFFFFFFFFF AND PUSH20 0xFFFFFFFFFFFFFFFFFFFFFFFFFFFFFFFFFFFFFFFF AND DUP2 MSTORE PUSH1 0x20 ADD PUSH1 0x5 DUP3 ADD PUSH1 0x15 SWAP1 SLOAD SWAP1 PUSH2 0x100 EXP SWAP1 DIV PUSH1 0xFF AND ISZERO ISZERO ISZERO ISZERO DUP2 MSTORE POP POP SWAP1 POP PUSH0 PUSH1 0x6 DUP2 GT ISZERO PUSH2 0x25AA JUMPI PUSH2 0x25A9 PUSH2 0x29EC JUMP JUMPDEST JUMPDEST DUP6 PUSH1 0x6 DUP2 GT ISZERO PUSH2 0x25BD JUMPI PUSH2 0x25BC PUSH2 0x29EC JUMP JUMPDEST JUMPDEST SUB PUSH2 0x25D2 JUMPI PUSH8 0x8AC7230489E80000 SWAP4 POP PUSH2 0x26C2 JUMP JUMPDEST PUSH1 0x1 PUSH1 0x6 DUP2 GT ISZERO PUSH2 0x25E6 JUMPI PUSH2 0x25E5 PUSH2 0x29EC JUMP JUMPDEST JUMPDEST DUP6 PUSH1 0x6 DUP2 GT ISZERO PUSH2 0x25F9 JUMPI PUSH2 0x25F8 PUSH2 0x29EC JUMP JUMPDEST JUMPDEST SUB PUSH2 0x260E JUMPI PUSH8 0x4563918244F40000 SWAP4 POP PUSH2 0x26C1 JUMP JUMPDEST PUSH1 0x3 PUSH1 0x6 DUP2 GT ISZERO PUSH2 0x2622 JUMPI PUSH2 0x2621 PUSH2 0x29EC JUMP JUMPDEST JUMPDEST DUP6 PUSH1 0x6 DUP2 GT ISZERO PUSH2 0x2635 JUMPI PUSH2 0x2634 PUSH2 0x29EC JUMP JUMPDEST JUMPDEST SUB PUSH2 0x264A JUMPI PUSH8 0x6F05B59D3B200000 SWAP4 POP PUSH2 0x26C0 JUMP JUMPDEST PUSH1 0x4 PUSH1 0x6 DUP2 GT ISZERO PUSH2 0x265E JUMPI PUSH2 0x265D PUSH2 0x29EC JUMP JUMPDEST JUMPDEST DUP6 PUSH1 0x6 DUP2 GT ISZERO PUSH2 0x2671 JUMPI PUSH2 0x2670 PUSH2 0x29EC JUMP JUMPDEST JUMPDEST SUB PUSH2 0x2686 JUMPI PUSH8 0x6124FEE993BC0000 SWAP4 POP PUSH2 0x26BF JUMP JUMPDEST PUSH1 0x5 PUSH1 0x6 DUP2 GT ISZERO PUSH2 0x269A JUMPI PUSH2 0x2699 PUSH2 0x29EC JUMP JUMPDEST JUMPDEST DUP6 PUSH1 0x6 DUP2 GT ISZERO PUSH2 0x26AD JUMPI PUSH2 0x26AC PUSH2 0x29EC JUMP JUMPDEST JUMPDEST SUB PUSH2 0x26BE JUMPI PUSH8 0x53444835EC580000 SWAP4 POP JUMPDEST JUMPDEST JUMPDEST JUMPDEST JUMPDEST DUP1 PUSH1 0x80 ADD MLOAD PUSH8 0xDE0B6B3A7640000 PUSH2 0x26DA SWAP2 SWAP1 PUSH2 0x3525 JUMP JUMPDEST SWAP3 POP PUSH1 0x3 PUSH1 0x6 DUP2 GT ISZERO PUSH2 0x26F0 JUMPI PUSH2 0x26EF PUSH2 0x29EC JUMP JUMPDEST JUMPDEST DUP6 PUSH1 0x6 DUP2 GT ISZERO PUSH2 0x2703 JUMPI PUSH2 0x2702 PUSH2 0x29EC JUMP JUMPDEST JUMPDEST SUB PUSH2 0x271C JUMPI PUSH1 0x2 DUP4 PUSH2 0x2715 SWAP2 SWAP1 PUSH2 0x3525 JUMP JUMPDEST SWAP3 POP PUSH2 0x27E4 JUMP JUMPDEST PUSH1 0x4 PUSH1 0x6 DUP2 GT ISZERO PUSH2 0x2730 JUMPI PUSH2 0x272F PUSH2 0x29EC JUMP JUMPDEST JUMPDEST DUP6 PUSH1 0x6 DUP2 GT ISZERO PUSH2 0x2743 JUMPI PUSH2 0x2742 PUSH2 0x29EC JUMP JUMPDEST JUMPDEST SUB PUSH2 0x2772 JUMPI PUSH1 0x2 DUP2 PUSH1 0x60 ADD MLOAD PUSH7 0x2386F26FC10000 PUSH2 0x2761 SWAP2 SWAP1 PUSH2 0x3525 JUMP JUMPDEST PUSH2 0x276B SWAP2 SWAP1 PUSH2 0x3525 JUMP JUMPDEST SWAP2 POP PUSH2 0x27E3 JUMP JUMPDEST PUSH1 0x5 PUSH1 0x6 DUP2 GT ISZERO PUSH2 0x2786 JUMPI PUSH2 0x2785 PUSH2 0x29EC JUMP JUMPDEST JUMPDEST DUP6 PUSH1 0x6 DUP2 GT ISZERO PUSH2 0x2799 JUMPI PUSH2 0x2798 PUSH2 0x29EC JUMP JUMPDEST JUMPDEST SUB PUSH2 0x27C8 JUMPI PUSH1 0x3 DUP2 PUSH1 0x60 ADD MLOAD PUSH7 0x2386F26FC10000 PUSH2 0x27B7 SWAP2 SWAP1 PUSH2 0x3525 JUMP JUMPDEST PUSH2 0x27C1 SWAP2 SWAP1 PUSH2 0x3525 JUMP JUMPDEST SWAP2 POP PUSH2 0x27E2 JUMP JUMPDEST DUP1 PUSH1 0x60 ADD MLOAD PUSH7 0x2386F26FC10000 PUSH2 0x27DF SWAP2 SWAP1 PUSH2 0x3525 JUMP JUMPDEST SWAP2 POP JUMPDEST JUMPDEST JUMPDEST POP SWAP3 POP SWAP3 POP SWAP3 JUMP JUMPDEST PUSH0 PUSH1 0x40 MLOAD SWAP1 POP SWAP1 JUMP JUMPDEST PUSH0 DUP1 REVERT JUMPDEST PUSH0 DUP1 REVERT JUMPDEST PUSH0 PUSH32 0xFFFFFFFF00000000000000000000000000000000000000000000000000000000 DUP3 AND SWAP1 POP SWAP2 SWAP1 POP JUMP JUMPDEST PUSH2 0x2831 DUP2 PUSH2 0x27FD JUMP JUMPDEST DUP2 EQ PUSH2 0x283B JUMPI PUSH0 DUP1 REVERT JUMPDEST POP JUMP JUMPDEST PUSH0 DUP2 CALLDATALOAD SWAP1 POP PUSH2 0x284C DUP2 PUSH2 0x2828 JUMP JUMPDEST SWAP3 SWAP2 POP POP JUMP JUMPDEST PUSH0 PUSH1 0x20 DUP3 DUP5 SUB SLT ISZERO PUSH2 0x2867 JUMPI PUSH2 0x2866 PUSH2 0x27F5 JUMP JUMPDEST JUMPDEST PUSH0 PUSH2 0x2874 DUP5 DUP3 DUP6 ADD PUSH2 0x283E JUMP JUMPDEST SWAP2 POP POP SWAP3 SWAP2 POP POP JUMP JUMPDEST PUSH0 DUP2 ISZERO ISZERO SWAP1 POP SWAP2 SWAP1 POP JUMP JUMPDEST PUSH2 0x2891 DUP2 PUSH2 0x287D JUMP JUMPDEST DUP3 MSTORE POP POP JUMP JUMPDEST PUSH0 PUSH1 0x20 DUP3 ADD SWAP1 POP PUSH2 0x28AA PUSH0 DUP4 ADD DUP5 PUSH2 0x2888 JUMP JUMPDEST SWAP3 SWAP2 POP POP JUMP JUMPDEST PUSH0 DUP2 MLOAD SWAP1 POP SWAP2 SWAP1 POP JUMP JUMPDEST PUSH0 DUP3 DUP3 MSTORE PUSH1 0x20 DUP3 ADD SWAP1 POP SWAP3 SWAP2 POP POP JUMP JUMPDEST DUP3 DUP2 DUP4 MCOPY PUSH0 DUP4 DUP4 ADD MSTORE POP POP POP JUMP JUMPDEST PUSH0 PUSH1 0x1F NOT PUSH1 0x1F DUP4 ADD AND SWAP1 POP SWAP2 SWAP1 POP JUMP JUMPDEST PUSH0 PUSH2 0x28F2 DUP3 PUSH2 0x28B0 JUMP JUMPDEST PUSH2 0x28FC DUP2 DUP6 PUSH2 0x28BA JUMP JUMPDEST SWAP4 POP PUSH2 0x290C DUP2 DUP6 PUSH1 0x20 DUP7 ADD PUSH2 0x28CA JUMP JUMPDEST PUSH2 0x2915 DUP2 PUSH2 0x28D8 JUMP JUMPDEST DUP5 ADD SWAP2 POP POP SWAP3 SWAP2 POP POP JUMP JUMPDEST PUSH0 PUSH1 0x20 DUP3 ADD SWAP1 POP DUP2 DUP2 SUB PUSH0 DUP4 ADD MSTORE PUSH2 0x2938 DUP2 DUP5 PUSH2 0x28E8 JUMP JUMPDEST SWAP1 POP SWAP3 SWAP2 POP POP JUMP JUMPDEST PUSH0 DUP2 SWAP1 POP SWAP2 SWAP1 POP JUMP JUMPDEST PUSH2 0x2952 DUP2 PUSH2 0x2940 JUMP JUMPDEST DUP2 EQ PUSH2 0x295C JUMPI PUSH0 DUP1 REVERT JUMPDEST POP JUMP JUMPDEST PUSH0 DUP2 CALLDATALOAD SWAP1 POP PUSH2 0x296D DUP2 PUSH2 0x2949 JUMP JUMPDEST SWAP3 SWAP2 POP POP JUMP JUMPDEST PUSH0 PUSH1 0x20 DUP3 DUP5 SUB SLT ISZERO PUSH2 0x2988 JUMPI PUSH2 0x2987 PUSH2 0x27F5 JUMP JUMPDEST JUMPDEST PUSH0 PUSH2 0x2995 DUP5 DUP3 DUP6 ADD PUSH2 0x295F JUMP JUMPDEST SWAP2 POP POP SWAP3 SWAP2 POP POP JUMP JUMPDEST PUSH2 0x29A7 DUP2 PUSH2 0x2940 JUMP JUMPDEST DUP3 MSTORE POP POP JUMP JUMPDEST PUSH0 PUSH20 0xFFFFFFFFFFFFFFFFFFFFFFFFFFFFFFFFFFFFFFFF DUP3 AND SWAP1 POP SWAP2 SWAP1 POP JUMP JUMPDEST PUSH0 PUSH2 0x29D6 DUP3 PUSH2 0x29AD JUMP JUMPDEST SWAP1 POP SWAP2 SWAP1 POP JUMP JUMPDEST PUSH2 0x29E6 DUP2 PUSH2 0x29CC JUMP JUMPDEST DUP3 MSTORE POP POP JUMP JUMPDEST PUSH32 0x4E487B7100000000000000000000000000000000000000000000000000000000 PUSH0 MSTORE PUSH1 0x21 PUSH1 0x4 MSTORE PUSH1 0x24 PUSH0 REVERT JUMPDEST PUSH1 0x7 DUP2 LT PUSH2 0x2A2A JUMPI PUSH2 0x2A29 PUSH2 0x29EC JUMP JUMPDEST JUMPDEST POP JUMP JUMPDEST PUSH0 DUP2 SWAP1 POP PUSH2 0x2A3A DUP3 PUSH2 0x2A19 JUMP JUMPDEST SWAP2 SWAP1 POP JUMP JUMPDEST PUSH0 PUSH2 0x2A49 DUP3 PUSH2 0x2A2D JUMP JUMPDEST SWAP1 POP SWAP2 SWAP1 POP JUMP JUMPDEST PUSH2 0x2A59 DUP2 PUSH2 0x2A3F JUMP JUMPDEST DUP3 MSTORE POP POP JUMP JUMPDEST PUSH0 PUSH2 0x100 DUP3 ADD SWAP1 POP PUSH2 0x2A73 PUSH0 DUP4 ADD DUP12 PUSH2 0x299E JUMP JUMPDEST PUSH2 0x2A80 PUSH1 0x20 DUP4 ADD DUP11 PUSH2 0x29DD JUMP JUMPDEST DUP2 DUP2 SUB PUSH1 0x40 DUP4 ADD MSTORE PUSH2 0x2A92 DUP2 DUP10 PUSH2 0x28E8 JUMP JUMPDEST SWAP1 POP PUSH2 0x2AA1 PUSH1 0x60 DUP4 ADD DUP9 PUSH2 0x299E JUMP JUMPDEST PUSH2 0x2AAE PUSH1 0x80 DUP4 ADD DUP8 PUSH2 0x299E JUMP JUMPDEST PUSH2 0x2ABB PUSH1 0xA0 DUP4 ADD DUP7 PUSH2 0x2A50 JUMP JUMPDEST PUSH2 0x2AC8 PUSH1 0xC0 DUP4 ADD DUP6 PUSH2 0x29DD JUMP JUMPDEST PUSH2 0x2AD5 PUSH1 0xE0 DUP4 ADD DUP5 PUSH2 0x2888 JUMP JUMPDEST SWAP10 SWAP9 POP POP POP POP POP POP POP POP POP JUMP JUMPDEST PUSH2 0x2AEB DUP2 PUSH2 0x29CC JUMP JUMPDEST DUP2 EQ PUSH2 0x2AF5 JUMPI PUSH0 DUP1 REVERT JUMPDEST POP JUMP JUMPDEST PUSH0 DUP2 CALLDATALOAD SWAP1 POP PUSH2 0x2B06 DUP2 PUSH2 0x2AE2 JUMP JUMPDEST SWAP3 SWAP2 POP POP JUMP JUMPDEST PUSH0 DUP1 PUSH1 0x40 DUP4 DUP6 SUB SLT ISZERO PUSH2 0x2B22 JUMPI PUSH2 0x2B21 PUSH2 0x27F5 JUMP JUMPDEST JUMPDEST PUSH0 PUSH2 0x2B2F DUP6 DUP3 DUP7 ADD PUSH2 0x2AF8 JUMP JUMPDEST SWAP3 POP POP PUSH1 0x20 PUSH2 0x2B40 DUP6 DUP3 DUP7 ADD PUSH2 0x295F JUMP JUMPDEST SWAP2 POP POP SWAP3 POP SWAP3 SWAP1 POP JUMP JUMPDEST PUSH0 PUSH1 0x20 DUP3 ADD SWAP1 POP PUSH2 0x2B5D PUSH0 DUP4 ADD DUP5 PUSH2 0x299E JUMP JUMPDEST SWAP3 SWAP2 POP POP JUMP JUMPDEST PUSH0 DUP1 PUSH0 PUSH1 0x60 DUP5 DUP7 SUB SLT ISZERO PUSH2 0x2B7A JUMPI PUSH2 0x2B79 PUSH2 0x27F5 JUMP JUMPDEST JUMPDEST PUSH0 PUSH2 0x2B87 DUP7 DUP3 DUP8 ADD PUSH2 0x2AF8 JUMP JUMPDEST SWAP4 POP POP PUSH1 0x20 PUSH2 0x2B98 DUP7 DUP3 DUP8 ADD PUSH2 0x2AF8 JUMP JUMPDEST SWAP3 POP POP PUSH1 0x40 PUSH2 0x2BA9 DUP7 DUP3 DUP8 ADD PUSH2 0x295F JUMP JUMPDEST SWAP2 POP POP SWAP3 POP SWAP3 POP SWAP3 JUMP JUMPDEST PUSH0 DUP2 SWAP1 POP SWAP2 SWAP1 POP JUMP JUMPDEST PUSH2 0x2BC5 DUP2 PUSH2 0x2BB3 JUMP JUMPDEST DUP2 EQ PUSH2 0x2BCF JUMPI PUSH0 DUP1 REVERT JUMPDEST POP JUMP JUMPDEST PUSH0 DUP2 CALLDATALOAD SWAP1 POP PUSH2 0x2BE0 DUP2 PUSH2 0x2BBC JUMP JUMPDEST SWAP3 SWAP2 POP POP JUMP JUMPDEST PUSH0 PUSH1 0x20 DUP3 DUP5 SUB SLT ISZERO PUSH2 0x2BFB JUMPI PUSH2 0x2BFA PUSH2 0x27F5 JUMP JUMPDEST JUMPDEST PUSH0 PUSH2 0x2C08 DUP5 DUP3 DUP6 ADD PUSH2 0x2BD2 JUMP JUMPDEST SWAP2 POP POP SWAP3 SWAP2 POP POP JUMP JUMPDEST PUSH2 0x2C1A DUP2 PUSH2 0x2BB3 JUMP JUMPDEST DUP3 MSTORE POP POP JUMP JUMPDEST PUSH0 PUSH1 0x20 DUP3 ADD SWAP1 POP PUSH2 0x2C33 PUSH0 DUP4 ADD DUP5 PUSH2 0x2C11 JUMP JUMPDEST SWAP3 SWAP2 POP POP JUMP JUMPDEST PUSH0 DUP1 PUSH1 0x40 DUP4 DUP6 SUB SLT ISZERO PUSH2 0x2C4F JUMPI PUSH2 0x2C4E PUSH2 0x27F5 JUMP JUMPDEST JUMPDEST PUSH0 PUSH2 0x2C5C DUP6 DUP3 DUP7 ADD PUSH2 0x2BD2 JUMP JUMPDEST SWAP3 POP POP PUSH1 0x20 PUSH2 0x2C6D DUP6 DUP3 DUP7 ADD PUSH2 0x2AF8 JUMP JUMPDEST SWAP2 POP POP SWAP3 POP SWAP3 SWAP1 POP JUMP JUMPDEST PUSH0 PUSH1 0xFF DUP3 AND SWAP1 POP SWAP2 SWAP1 POP JUMP JUMPDEST PUSH2 0x2C8C DUP2 PUSH2 0x2C77 JUMP JUMPDEST DUP3 MSTORE POP POP JUMP JUMPDEST PUSH0 PUSH1 0x20 DUP3 ADD SWAP1 POP PUSH2 0x2CA5 PUSH0 DUP4 ADD DUP5 PUSH2 0x2C83 JUMP JUMPDEST SWAP3 SWAP2 POP POP JUMP JUMPDEST PUSH0 DUP1 REVERT JUMPDEST PUSH0 DUP1 REVERT JUMPDEST PUSH32 0x4E487B7100000000000000000000000000000000000000000000000000000000 PUSH0 MSTORE PUSH1 0x41 PUSH1 0x4 MSTORE PUSH1 0x24 PUSH0 REVERT JUMPDEST PUSH2 0x2CE9 DUP3 PUSH2 0x28D8 JUMP JUMPDEST DUP2 ADD DUP2 DUP2 LT PUSH8 0xFFFFFFFFFFFFFFFF DUP3 GT OR ISZERO PUSH2 0x2D08 JUMPI PUSH2 0x2D07 PUSH2 0x2CB3 JUMP JUMPDEST JUMPDEST DUP1 PUSH1 0x40 MSTORE POP POP POP JUMP JUMPDEST PUSH0 PUSH2 0x2D1A PUSH2 0x27EC JUMP JUMPDEST SWAP1 POP PUSH2 0x2D26 DUP3 DUP3 PUSH2 0x2CE0 JUMP JUMPDEST SWAP2 SWAP1 POP JUMP JUMPDEST PUSH0 PUSH8 0xFFFFFFFFFFFFFFFF DUP3 GT ISZERO PUSH2 0x2D45 JUMPI PUSH2 0x2D44 PUSH2 0x2CB3 JUMP JUMPDEST JUMPDEST PUSH2 0x2D4E DUP3 PUSH2 0x28D8 JUMP JUMPDEST SWAP1 POP PUSH1 0x20 DUP2 ADD SWAP1 POP SWAP2 SWAP1 POP JUMP JUMPDEST DUP3 DUP2 DUP4 CALLDATACOPY PUSH0 DUP4 DUP4 ADD MSTORE POP POP POP JUMP JUMPDEST PUSH0 PUSH2 0x2D7B PUSH2 0x2D76 DUP5 PUSH2 0x2D2B JUMP JUMPDEST PUSH2 0x2D11 JUMP JUMPDEST SWAP1 POP DUP3 DUP2 MSTORE PUSH1 0x20 DUP2 ADD DUP5 DUP5 DUP5 ADD GT ISZERO PUSH2 0x2D97 JUMPI PUSH2 0x2D96 PUSH2 0x2CAF JUMP JUMPDEST JUMPDEST PUSH2 0x2DA2 DUP5 DUP3 DUP6 PUSH2 0x2D5B JUMP JUMPDEST POP SWAP4 SWAP3 POP POP POP JUMP JUMPDEST PUSH0 DUP3 PUSH1 0x1F DUP4 ADD SLT PUSH2 0x2DBE JUMPI PUSH2 0x2DBD PUSH2 0x2CAB JUMP JUMPDEST JUMPDEST DUP2 CALLDATALOAD PUSH2 0x2DCE DUP5 DUP3 PUSH1 0x20 DUP7 ADD PUSH2 0x2D69 JUMP JUMPDEST SWAP2 POP POP SWAP3 SWAP2 POP POP JUMP JUMPDEST PUSH2 0x2DE0 DUP2 PUSH2 0x287D JUMP JUMPDEST DUP2 EQ PUSH2 0x2DEA JUMPI PUSH0 DUP1 REVERT JUMPDEST POP JUMP JUMPDEST PUSH0 DUP2 CALLDATALOAD SWAP1 POP PUSH2 0x2DFB DUP2 PUSH2 0x2DD7 JUMP JUMPDEST SWAP3 SWAP2 POP POP JUMP JUMPDEST PUSH0 DUP1 PUSH0 DUP1 PUSH1 0x80 DUP6 DUP8 SUB SLT ISZERO PUSH2 0x2E19 JUMPI PUSH2 0x2E18 PUSH2 0x27F5 JUMP JUMPDEST JUMPDEST PUSH0 DUP6 ADD CALLDATALOAD PUSH8 0xFFFFFFFFFFFFFFFF DUP2 GT ISZERO PUSH2 0x2E36 JUMPI PUSH2 0x2E35 PUSH2 0x27F9 JUMP JUMPDEST JUMPDEST PUSH2 0x2E42 DUP8 DUP3 DUP9 ADD PUSH2 0x2DAA JUMP JUMPDEST SWAP5 POP POP PUSH1 0x20 PUSH2 0x2E53 DUP8 DUP3 DUP9 ADD PUSH2 0x295F JUMP JUMPDEST SWAP4 POP POP PUSH1 0x40 PUSH2 0x2E64 DUP8 DUP3 DUP9 ADD PUSH2 0x295F JUMP JUMPDEST SWAP3 POP POP PUSH1 0x60 PUSH2 0x2E75 DUP8 DUP3 DUP9 ADD PUSH2 0x2DED JUMP JUMPDEST SWAP2 POP POP SWAP3 SWAP6 SWAP2 SWAP5 POP SWAP3 POP JUMP JUMPDEST PUSH0 PUSH1 0x20 DUP3 DUP5 SUB SLT ISZERO PUSH2 0x2E96 JUMPI PUSH2 0x2E95 PUSH2 0x27F5 JUMP JUMPDEST JUMPDEST PUSH0 PUSH2 0x2EA3 DUP5 DUP3 DUP6 ADD PUSH2 0x2AF8 JUMP JUMPDEST SWAP2 POP POP SWAP3 SWAP2 POP POP JUMP JUMPDEST PUSH0 DUP1 PUSH1 0x40 DUP4 DUP6 SUB SLT ISZERO PUSH2 0x2EC2 JUMPI PUSH2 0x2EC1 PUSH2 0x27F5 JUMP JUMPDEST JUMPDEST PUSH0 PUSH2 0x2ECF DUP6 DUP3 DUP7 ADD PUSH2 0x2AF8 JUMP JUMPDEST SWAP3 POP POP PUSH1 0x20 PUSH2 0x2EE0 DUP6 DUP3 DUP7 ADD PUSH2 0x2BD2 JUMP JUMPDEST SWAP2 POP POP SWAP3 POP SWAP3 SWAP1 POP JUMP JUMPDEST PUSH0 DUP1 PUSH1 0x40 DUP4 DUP6 SUB SLT ISZERO PUSH2 0x2F00 JUMPI PUSH2 0x2EFF PUSH2 0x27F5 JUMP JUMPDEST JUMPDEST PUSH0 PUSH2 0x2F0D DUP6 DUP3 DUP7 ADD PUSH2 0x2AF8 JUMP JUMPDEST SWAP3 POP POP PUSH1 0x20 PUSH2 0x2F1E DUP6 DUP3 DUP7 ADD PUSH2 0x2AF8 JUMP JUMPDEST SWAP2 POP POP SWAP3 POP SWAP3 SWAP1 POP JUMP JUMPDEST PUSH32 0x4E487B7100000000000000000000000000000000000000000000000000000000 PUSH0 MSTORE PUSH1 0x22 PUSH1 0x4 MSTORE PUSH1 0x24 PUSH0 REVERT JUMPDEST PUSH0 PUSH1 0x2 DUP3 DIV SWAP1 POP PUSH1 0x1 DUP3 AND DUP1 PUSH2 0x2F6C JUMPI PUSH1 0x7F DUP3 AND SWAP2 POP JUMPDEST PUSH1 0x20 DUP3 LT DUP2 SUB PUSH2 0x2F7F JUMPI PUSH2 0x2F7E PUSH2 0x2F28 JUMP JUMPDEST JUMPDEST POP SWAP2 SWAP1 POP JUMP JUMPDEST PUSH32 0x496E76616C696420696E70757400000000000000000000000000000000000000 PUSH0 DUP3 ADD MSTORE POP JUMP JUMPDEST PUSH0 PUSH2 0x2FB9 PUSH1 0xD DUP4 PUSH2 0x28BA JUMP JUMPDEST SWAP2 POP PUSH2 0x2FC4 DUP3 PUSH2 0x2F85 JUMP JUMPDEST PUSH1 0x20 DUP3 ADD SWAP1 POP SWAP2 SWAP1 POP JUMP JUMPDEST PUSH0 PUSH1 0x20 DUP3 ADD SWAP1 POP DUP2 DUP2 SUB PUSH0 DUP4 ADD MSTORE PUSH2 0x2FE6 DUP2 PUSH2 0x2FAD JUMP JUMPDEST SWAP1 POP SWAP2 SWAP1 POP JUMP JUMPDEST PUSH32 0x4E487B7100000000000000000000000000000000000000000000000000000000 PUSH0 MSTORE PUSH1 0x11 PUSH1 0x4 MSTORE PUSH1 0x24 PUSH0 REVERT JUMPDEST PUSH0 PUSH2 0x3024 DUP3 PUSH2 0x2940 JUMP JUMPDEST SWAP2 POP PUSH32 0xFFFFFFFFFFFFFFFFFFFFFFFFFFFFFFFFFFFFFFFFFFFFFFFFFFFFFFFFFFFFFFFF DUP3 SUB PUSH2 0x3056 JUMPI PUSH2 0x3055 PUSH2 0x2FED JUMP JUMPDEST JUMPDEST PUSH1 0x1 DUP3 ADD SWAP1 POP SWAP2 SWAP1 POP JUMP JUMPDEST PUSH0 DUP2 SWAP1 POP DUP2 PUSH0 MSTORE PUSH1 0x20 PUSH0 KECCAK256 SWAP1 POP SWAP2 SWAP1 POP JUMP JUMPDEST PUSH0 PUSH1 0x20 PUSH1 0x1F DUP4 ADD DIV SWAP1 POP SWAP2 SWAP1 POP JUMP JUMPDEST PUSH0 DUP3 DUP3 SHL SWAP1 POP SWAP3 SWAP2 POP POP JUMP JUMPDEST PUSH0 PUSH1 0x8 DUP4 MUL PUSH2 0x30BD PUSH32 0xFFFFFFFFFFFFFFFFFFFFFFFFFFFFFFFFFFFFFFFFFFFFFFFFFFFFFFFFFFFFFFFF DUP3 PUSH2 0x3082 JUMP JUMPDEST PUSH2 0x30C7 DUP7 DUP4 PUSH2 0x3082 JUMP JUMPDEST SWAP6 POP DUP1 NOT DUP5 AND SWAP4 POP DUP1 DUP7 AND DUP5 OR SWAP3 POP POP POP SWAP4 SWAP3 POP POP POP JUMP JUMPDEST PUSH0 DUP2 SWAP1 POP SWAP2 SWAP1 POP JUMP JUMPDEST PUSH0 PUSH2 0x3102 PUSH2 0x30FD PUSH2 0x30F8 DUP5 PUSH2 0x2940 JUMP JUMPDEST PUSH2 0x30DF JUMP JUMPDEST PUSH2 0x2940 JUMP JUMPDEST SWAP1 POP SWAP2 SWAP1 POP JUMP JUMPDEST PUSH0 DUP2 SWAP1 POP SWAP2 SWAP1 POP JUMP JUMPDEST PUSH2 0x311B DUP4 PUSH2 0x30E8 JUMP JUMPDEST PUSH2 0x312F PUSH2 0x3127 DUP3 PUSH2 0x3109 JUMP JUMPDEST DUP5 DUP5 SLOAD PUSH2 0x308E JUMP JUMPDEST DUP3 SSTORE POP POP POP POP JUMP JUMPDEST PUSH0 SWAP1 JUMP JUMPDEST PUSH2 0x3143 PUSH2 0x3137 JUMP JUMPDEST PUSH2 0x314E DUP2 DUP5 DUP5 PUSH2 0x3112 JUMP JUMPDEST POP POP POP JUMP JUMPDEST JUMPDEST DUP2 DUP2 LT ISZERO PUSH2 0x3171 JUMPI PUSH2 0x3166 PUSH0 DUP3 PUSH2 0x313B JUMP JUMPDEST PUSH1 0x1 DUP2 ADD SWAP1 POP PUSH2 0x3154 JUMP JUMPDEST POP POP JUMP JUMPDEST PUSH1 0x1F DUP3 GT ISZERO PUSH2 0x31B6 JUMPI PUSH2 0x3187 DUP2 PUSH2 0x3061 JUMP JUMPDEST PUSH2 0x3190 DUP5 PUSH2 0x3073 JUMP JUMPDEST DUP2 ADD PUSH1 0x20 DUP6 LT ISZERO PUSH2 0x319F JUMPI DUP2 SWAP1 POP JUMPDEST PUSH2 0x31B3 PUSH2 0x31AB DUP6 PUSH2 0x3073 JUMP JUMPDEST DUP4 ADD DUP3 PUSH2 0x3153 JUMP JUMPDEST POP POP JUMPDEST POP POP POP JUMP JUMPDEST PUSH0 DUP3 DUP3 SHR SWAP1 POP SWAP3 SWAP2 POP POP JUMP JUMPDEST PUSH0 PUSH2 0x31D6 PUSH0 NOT DUP5 PUSH1 0x8 MUL PUSH2 0x31BB JUMP JUMPDEST NOT DUP1 DUP4 AND SWAP2 POP POP SWAP3 SWAP2 POP POP JUMP JUMPDEST PUSH0 PUSH2 0x31EE DUP4 DUP4 PUSH2 0x31C7 JUMP JUMPDEST SWAP2 POP DUP3 PUSH1 0x2 MUL DUP3 OR SWAP1 POP SWAP3 SWAP2 POP POP JUMP JUMPDEST PUSH2 0x3207 DUP3 PUSH2 0x28B0 JUMP JUMPDEST PUSH8 0xFFFFFFFFFFFFFFFF DUP2 GT ISZERO PUSH2 0x3220 JUMPI PUSH2 0x321F PUSH2 0x2CB3 JUMP JUMPDEST JUMPDEST PUSH2 0x322A DUP3 SLOAD PUSH2 0x2F55 JUMP JUMPDEST PUSH2 0x3235 DUP3 DUP3 DUP6 PUSH2 0x3175 JUMP JUMPDEST PUSH0 PUSH1 0x20 SWAP1 POP PUSH1 0x1F DUP4 GT PUSH1 0x1 DUP2 EQ PUSH2 0x3266 JUMPI PUSH0 DUP5 ISZERO PUSH2 0x3254 JUMPI DUP3 DUP8 ADD MLOAD SWAP1 POP JUMPDEST PUSH2 0x325E DUP6 DUP3 PUSH2 0x31E3 JUMP JUMPDEST DUP7 SSTORE POP PUSH2 0x32C5 JUMP JUMPDEST PUSH1 0x1F NOT DUP5 AND PUSH2 0x3274 DUP7 PUSH2 0x3061 JUMP JUMPDEST PUSH0 JUMPDEST DUP3 DUP2 LT ISZERO PUSH2 0x329B JUMPI DUP5 DUP10 ADD MLOAD DUP3 SSTORE PUSH1 0x1 DUP3 ADD SWAP2 POP PUSH1 0x20 DUP6 ADD SWAP5 POP PUSH1 0x20 DUP2 ADD SWAP1 POP PUSH2 0x3276 JUMP JUMPDEST DUP7 DUP4 LT ISZERO PUSH2 0x32B8 JUMPI DUP5 DUP10 ADD MLOAD PUSH2 0x32B4 PUSH1 0x1F DUP10 AND DUP3 PUSH2 0x31C7 JUMP JUMPDEST DUP4 SSTORE POP JUMPDEST PUSH1 0x1 PUSH1 0x2 DUP9 MUL ADD DUP9 SSTORE POP POP POP JUMPDEST POP POP POP POP POP POP JUMP JUMPDEST PUSH0 PUSH1 0x40 DUP3 ADD SWAP1 POP PUSH2 0x32E0 PUSH0 DUP4 ADD DUP6 PUSH2 0x299E JUMP JUMPDEST PUSH2 0x32ED PUSH1 0x20 DUP4 ADD DUP5 PUSH2 0x299E JUMP JUMPDEST SWAP4 SWAP3 POP POP POP JUMP JUMPDEST PUSH32 0x496E76616C696420737461747573000000000000000000000000000000000000 PUSH0 DUP3 ADD MSTORE POP JUMP JUMPDEST PUSH0 PUSH2 0x3328 PUSH1 0xE DUP4 PUSH2 0x28BA JUMP JUMPDEST SWAP2 POP PUSH2 0x3333 DUP3 PUSH2 0x32F4 JUMP JUMPDEST PUSH1 0x20 DUP3 ADD SWAP1 POP SWAP2 SWAP1 POP JUMP JUMPDEST PUSH0 PUSH1 0x20 DUP3 ADD SWAP1 POP DUP2 DUP2 SUB PUSH0 DUP4 ADD MSTORE PUSH2 0x3355 DUP2 PUSH2 0x331C JUMP JUMPDEST SWAP1 POP SWAP2 SWAP1 POP JUMP JUMPDEST PUSH32 0x4974656D206E6F742072657061697261626C6500000000000000000000000000 PUSH0 DUP3 ADD MSTORE POP JUMP JUMPDEST PUSH0 PUSH2 0x3390 PUSH1 0x13 DUP4 PUSH2 0x28BA JUMP JUMPDEST SWAP2 POP PUSH2 0x339B DUP3 PUSH2 0x335C JUMP JUMPDEST PUSH1 0x20 DUP3 ADD SWAP1 POP SWAP2 SWAP1 POP JUMP JUMPDEST PUSH0 PUSH1 0x20 DUP3 ADD SWAP1 POP DUP2 DUP2 SUB PUSH0 DUP4 ADD MSTORE PUSH2 0x33BD DUP2 PUSH2 0x3384 JUMP JUMPDEST SWAP1 POP SWAP2 SWAP1 POP JUMP JUMPDEST PUSH32 0x4E6F74206F776E65720000000000000000000000000000000000000000000000 PUSH0 DUP3 ADD MSTORE POP JUMP JUMPDEST PUSH0 PUSH2 0x33F8 PUSH1 0x9 DUP4 PUSH2 0x28BA JUMP JUMPDEST SWAP2 POP PUSH2 0x3403 DUP3 PUSH2 0x33C4 JUMP JUMPDEST PUSH1 0x20 DUP3 ADD SWAP1 POP SWAP2 SWAP1 POP JUMP JUMPDEST PUSH0 PUSH1 0x20 DUP3 ADD SWAP1 POP DUP2 DUP2 SUB PUSH0 DUP4 ADD MSTORE PUSH2 0x3425 DUP2 PUSH2 0x33EC JUMP JUMPDEST SWAP1 POP SWAP2 SWAP1 POP JUMP JUMPDEST PUSH0 PUSH1 0x60 DUP3 ADD SWAP1 POP PUSH2 0x343F PUSH0 DUP4 ADD DUP7 PUSH2 0x29DD JUMP JUMPDEST PUSH2 0x344C PUSH1 0x20 DUP4 ADD DUP6 PUSH2 0x299E JUMP JUMPDEST PUSH2 0x3459 PUSH1 0x40 DUP4 ADD DUP5 PUSH2 0x299E JUMP JUMPDEST SWAP5 SWAP4 POP POP POP POP JUMP JUMPDEST PUSH0 PUSH1 0x20 DUP3 ADD SWAP1 POP PUSH2 0x3474 PUSH0 DUP4 ADD DUP5 PUSH2 0x29DD JUMP JUMPDEST SWAP3 SWAP2 POP POP JUMP JUMPDEST PUSH0 PUSH2 0x3484 DUP3 PUSH2 0x2940 JUMP JUMPDEST SWAP2 POP PUSH2 0x348F DUP4 PUSH2 0x2940 JUMP JUMPDEST SWAP3 POP DUP3 DUP3 ADD SWAP1 POP DUP1 DUP3 GT ISZERO PUSH2 0x34A7 JUMPI PUSH2 0x34A6 PUSH2 0x2FED JUMP JUMPDEST JUMPDEST SWAP3 SWAP2 POP POP JUMP JUMPDEST PUSH0 PUSH1 0xA0 DUP3 ADD SWAP1 POP PUSH2 0x34C0 PUSH0 DUP4 ADD DUP9 PUSH2 0x2A50 JUMP JUMPDEST PUSH2 0x34CD PUSH1 0x20 DUP4 ADD DUP8 PUSH2 0x299E JUMP JUMPDEST PUSH2 0x34DA PUSH1 0x40 DUP4 ADD DUP7 PUSH2 0x299E JUMP JUMPDEST PUSH2 0x34E7 PUSH1 0x60 DUP4 ADD DUP6 PUSH2 0x299E JUMP JUMPDEST PUSH2 0x34F4 PUSH1 0x80 DUP4 ADD DUP5 PUSH2 0x299E JUMP JUMPDEST SWAP7 SWAP6 POP POP POP POP POP POP JUMP JUMPDEST PUSH0 PUSH1 0x40 DUP3 ADD SWAP1 POP PUSH2 0x3511 PUSH0 DUP4 ADD DUP6 PUSH2 0x29DD JUMP JUMPDEST PUSH2 0x351E PUSH1 0x20 DUP4 ADD DUP5 PUSH2 0x2C11 JUMP JUMPDEST SWAP4 SWAP3 POP POP POP JUMP JUMPDEST PUSH0 PUSH2 0x352F DUP3 PUSH2 0x2940 JUMP JUMPDEST SWAP2 POP PUSH2 0x353A DUP4 PUSH2 0x2940 JUMP JUMPDEST SWAP3 POP DUP3 DUP3 MUL PUSH2 0x3548 DUP2 PUSH2 0x2940 JUMP JUMPDEST SWAP2 POP DUP3 DUP3 DIV DUP5 EQ DUP4 ISZERO OR PUSH2 0x355F JUMPI PUSH2 0x355E PUSH2 0x2FED JUMP JUMPDEST JUMPDEST POP SWAP3 SWAP2 POP POP JUMP INVALID LOG2 PUSH5 0x6970667358 0x22 SLT KECCAK256 PUSH11 0x3B36BE9C963F420118913E LOG2 PUSH25 0x407B2192D57099BD528AFDB38C5E58591F2E64736F6C634300 ADDMOD BYTE STOP CALLER "
				},
				"gasEstimates": {
					"creation": {
						"codeDepositCost": "2744800",
						"executionCost": "infinite",
						"totalCost": "infinite"
					},
					"external": {
						"ADMIN_ROLE()": "458",
						"BASE_COLLECTION_REWARD()": "458",
						"BASE_DISMANTLE_REWARD()": "435",
						"BASE_DISPOSAL_REWARD()": "436",
						"BASE_RECYCLING_REWARD()": "436",
						"BASE_REPAIR_REWARD()": "370",
						"COLLECTOR_ROLE()": "392",
						"DEFAULT_ADMIN_ROLE()": "419",
						"DISMANTLER_ROLE()": "459",
						"PER_GRAM_REWARD()": "370",
						"PER_ITEM_REWARD()": "371",
						"RECYCLER_ROLE()": "414",
						"REPAIRER_ROLE()": "392",
						"addRole(address,bytes32)": "infinite",
						"allowance(address,address)": "infinite",
						"approve(address,uint256)": "infinite",
						"balanceOf(address)": "2918",
						"collectItem(uint256)": "infinite",
						"createItem(string,uint256,uint256,bool)": "infinite",
						"decimals()": "384",
						"dismantleItem(uint256)": "infinite",
						"getRoleAdmin(bytes32)": "infinite",
						"grantRole(bytes32,address)": "infinite",
						"hasRole(bytes32,address)": "3234",
						"itemCounter()": "2492",
						"markAsRepairable(uint256)": "33398",
						"mintTokens(address,uint256)": "infinite",
						"name()": "infinite",
						"recycleItem(uint256)": "infinite",
						"renounceRole(bytes32,address)": "infinite",
						"repairItem(uint256)": "infinite",
						"resellItem(uint256)": "30967",
						"revokeRole(bytes32,address)": "infinite",
						"supportsInterface(bytes4)": "764",
						"symbol()": "infinite",
						"totalSupply()": "2500",
						"transfer(address,uint256)": "infinite",
						"transferFrom(address,address,uint256)": "infinite",
						"wasteItems(uint256)": "infinite"
					},
					"internal": {
						"_calculateAndMintReward(uint256,enum EWasteToken.Status)": "infinite",
						"_getRewardComponents(uint256,enum EWasteToken.Status)": "infinite"
					}
				},
				"methodIdentifiers": {
					"ADMIN_ROLE()": "75b238fc",
					"BASE_COLLECTION_REWARD()": "cb963a39",
					"BASE_DISMANTLE_REWARD()": "ed276caf",
					"BASE_DISPOSAL_REWARD()": "74e4d700",
					"BASE_RECYCLING_REWARD()": "c53b4b09",
					"BASE_REPAIR_REWARD()": "b8fe58e4",
					"COLLECTOR_ROLE()": "9ca39ae9",
					"DEFAULT_ADMIN_ROLE()": "a217fddf",
					"DISMANTLER_ROLE()": "579108f7",
					"PER_GRAM_REWARD()": "65258b66",
					"PER_ITEM_REWARD()": "0f555c54",
					"RECYCLER_ROLE()": "bf313778",
					"REPAIRER_ROLE()": "be651316",
					"addRole(address,bytes32)": "a73f7f8a",
					"allowance(address,address)": "dd62ed3e",
					"approve(address,uint256)": "095ea7b3",
					"balanceOf(address)": "70a08231",
					"collectItem(uint256)": "3609a1eb",
					"createItem(string,uint256,uint256,bool)": "352b6dc3",
					"decimals()": "313ce567",
					"dismantleItem(uint256)": "91810674",
					"getRoleAdmin(bytes32)": "248a9ca3",
					"grantRole(bytes32,address)": "2f2ff15d",
					"hasRole(bytes32,address)": "91d14854",
					"itemCounter()": "6d6d00ed",
					"markAsRepairable(uint256)": "990281b8",
					"mintTokens(address,uint256)": "f0dda65c",
					"name()": "06fdde03",
					"recycleItem(uint256)": "855c72fb",
					"renounceRole(bytes32,address)": "36568abe",
					"repairItem(uint256)": "8287662c",
					"resellItem(uint256)": "d8101dcd",
					"revokeRole(bytes32,address)": "d547741f",
					"supportsInterface(bytes4)": "01ffc9a7",
					"symbol()": "95d89b41",
					"totalSupply()": "18160ddd",
					"transfer(address,uint256)": "a9059cbb",
					"transferFrom(address,address,uint256)": "23b872dd",
					"wasteItems(uint256)": "091929c0"
				}
			},
			"storageLayout": {
				"storage": [
					{
						"astId": 538,
						"contract": "contracts/EWasteToken.sol:EWasteToken",
						"label": "_balances",
						"offset": 0,
						"slot": "0",
						"type": "t_mapping(t_address,t_uint256)"
					},
					{
						"astId": 544,
						"contract": "contracts/EWasteToken.sol:EWasteToken",
						"label": "_allowances",
						"offset": 0,
						"slot": "1",
						"type": "t_mapping(t_address,t_mapping(t_address,t_uint256))"
					},
					{
						"astId": 546,
						"contract": "contracts/EWasteToken.sol:EWasteToken",
						"label": "_totalSupply",
						"offset": 0,
						"slot": "2",
						"type": "t_uint256"
					},
					{
						"astId": 548,
						"contract": "contracts/EWasteToken.sol:EWasteToken",
						"label": "_name",
						"offset": 0,
						"slot": "3",
						"type": "t_string_storage"
					},
					{
						"astId": 550,
						"contract": "contracts/EWasteToken.sol:EWasteToken",
						"label": "_symbol",
						"offset": 0,
						"slot": "4",
						"type": "t_string_storage"
					},
					{
						"astId": 26,
						"contract": "contracts/EWasteToken.sol:EWasteToken",
						"label": "_roles",
						"offset": 0,
						"slot": "5",
						"type": "t_mapping(t_bytes32,t_struct(RoleData)21_storage)"
					},
					{
						"astId": 1285,
						"contract": "contracts/EWasteToken.sol:EWasteToken",
						"label": "wasteItems",
						"offset": 0,
						"slot": "6",
						"type": "t_mapping(t_uint256,t_struct(WasteItem)1272_storage)"
					},
					{
						"astId": 1287,
						"contract": "contracts/EWasteToken.sol:EWasteToken",
						"label": "itemCounter",
						"offset": 0,
						"slot": "7",
						"type": "t_uint256"
					}
				],
				"types": {
					"t_address": {
						"encoding": "inplace",
						"label": "address",
						"numberOfBytes": "20"
					},
					"t_bool": {
						"encoding": "inplace",
						"label": "bool",
						"numberOfBytes": "1"
					},
					"t_bytes32": {
						"encoding": "inplace",
						"label": "bytes32",
						"numberOfBytes": "32"
					},
					"t_enum(Status)1280": {
						"encoding": "inplace",
						"label": "enum EWasteToken.Status",
						"numberOfBytes": "1"
					},
					"t_mapping(t_address,t_bool)": {
						"encoding": "mapping",
						"key": "t_address",
						"label": "mapping(address => bool)",
						"numberOfBytes": "32",
						"value": "t_bool"
					},
					"t_mapping(t_address,t_mapping(t_address,t_uint256))": {
						"encoding": "mapping",
						"key": "t_address",
						"label": "mapping(address => mapping(address => uint256))",
						"numberOfBytes": "32",
						"value": "t_mapping(t_address,t_uint256)"
					},
					"t_mapping(t_address,t_uint256)": {
						"encoding": "mapping",
						"key": "t_address",
						"label": "mapping(address => uint256)",
						"numberOfBytes": "32",
						"value": "t_uint256"
					},
					"t_mapping(t_bytes32,t_struct(RoleData)21_storage)": {
						"encoding": "mapping",
						"key": "t_bytes32",
						"label": "mapping(bytes32 => struct AccessControl.RoleData)",
						"numberOfBytes": "32",
						"value": "t_struct(RoleData)21_storage"
					},
					"t_mapping(t_uint256,t_struct(WasteItem)1272_storage)": {
						"encoding": "mapping",
						"key": "t_uint256",
						"label": "mapping(uint256 => struct EWasteToken.WasteItem)",
						"numberOfBytes": "32",
						"value": "t_struct(WasteItem)1272_storage"
					},
					"t_string_storage": {
						"encoding": "bytes",
						"label": "string",
						"numberOfBytes": "32"
					},
					"t_struct(RoleData)21_storage": {
						"encoding": "inplace",
						"label": "struct AccessControl.RoleData",
						"members": [
							{
								"astId": 18,
								"contract": "contracts/EWasteToken.sol:EWasteToken",
								"label": "hasRole",
								"offset": 0,
								"slot": "0",
								"type": "t_mapping(t_address,t_bool)"
							},
							{
								"astId": 20,
								"contract": "contracts/EWasteToken.sol:EWasteToken",
								"label": "adminRole",
								"offset": 0,
								"slot": "1",
								"type": "t_bytes32"
							}
						],
						"numberOfBytes": "64"
					},
					"t_struct(WasteItem)1272_storage": {
						"encoding": "inplace",
						"label": "struct EWasteToken.WasteItem",
						"members": [
							{
								"astId": 1256,
								"contract": "contracts/EWasteToken.sol:EWasteToken",
								"label": "id",
								"offset": 0,
								"slot": "0",
								"type": "t_uint256"
							},
							{
								"astId": 1258,
								"contract": "contracts/EWasteToken.sol:EWasteToken",
								"label": "creator",
								"offset": 0,
								"slot": "1",
								"type": "t_address"
							},
							{
								"astId": 1260,
								"contract": "contracts/EWasteToken.sol:EWasteToken",
								"label": "itemType",
								"offset": 0,
								"slot": "2",
								"type": "t_string_storage"
							},
							{
								"astId": 1262,
								"contract": "contracts/EWasteToken.sol:EWasteToken",
								"label": "weight",
								"offset": 0,
								"slot": "3",
								"type": "t_uint256"
							},
							{
								"astId": 1264,
								"contract": "contracts/EWasteToken.sol:EWasteToken",
								"label": "quantity",
								"offset": 0,
								"slot": "4",
								"type": "t_uint256"
							},
							{
								"astId": 1267,
								"contract": "contracts/EWasteToken.sol:EWasteToken",
								"label": "status",
								"offset": 0,
								"slot": "5",
								"type": "t_enum(Status)1280"
							},
							{
								"astId": 1269,
								"contract": "contracts/EWasteToken.sol:EWasteToken",
								"label": "currentHandler",
								"offset": 1,
								"slot": "5",
								"type": "t_address"
							},
							{
								"astId": 1271,
								"contract": "contracts/EWasteToken.sol:EWasteToken",
								"label": "isRepairable",
								"offset": 21,
								"slot": "5",
								"type": "t_bool"
							}
						],
						"numberOfBytes": "192"
					},
					"t_uint256": {
						"encoding": "inplace",
						"label": "uint256",
						"numberOfBytes": "32"
					}
				}
			},
			"userdoc": {
				"kind": "user",
				"methods": {},
				"version": 1
			}
		}
	}
}